:1000000000000420190200000102000003020000A9
:1000100005020000070200000902000000000000C5
:100020000000000000000000000000000B020000C3
:100030000D020000000000000F020000110200008D
:10004000495B000013020000C5260000E9380000EB
:100050000139000013020000756700001302000060
:10006000130200001302000013020000130200003C
:10007000130200001302000013020000130200002C
:1000800013020000097C00001302000013020000AC
:10009000130200001302000013020000130200000C
:1000A00013020000130200001302000013020000FC
:1000B0001302000013020000000000000000000016
:1000C00013020000130200001302000013020000DC
:1000D00013020000130200001302000013020000CC
:1000E00013020000130200001302000000000000D1
:1000F00000000000130200000000000013020000D6
:1001000000000000000000000000000000000000EF
:1001100000000000000000000000000000000000DF
:1001200000000000000000000000000000000000CF
:1001300000000000000000000000000000000000BF
:1001400000000000000000000000000000000000AF
:10015000000000000000000000000000000000009F
:10016000000000000000000000000000000000008F
:10017000000000000000000000000000000000007F
:10018000000000000000000000000000000000006F
:10019000000000000000000000000000000000005F
:1001A000000000000000000000000000000000004F
:1001B000000000000000000000000000000000003F
:1001C000000000000000000000000000000000002F
:1001D000000000000000000000000000000000001F
:1001E000000000000000000000000000000000000F
:1001F00000000000000000000000000000000000FF
:10020000FEE7FEE7FEE7FEE7FEE7FEE7FEE7FEE7C6
:10021000FEE7FEE700F002B8FFF7FCBF0F484FF023
:100220000701884385460E4880470E48016841F41F
:1002300070010160BFF34F8FBFF36F8F00F01AB8EA
:1002400009480A490A4A884207D0521A05D0037859
:1002500001300B700131013AF9D1704700000420E0
:100260006921000088ED00E06C9F00000000002084
:1002700000000020344935480A1A02D00722914371
:100280008D46334933480A1A06D00722914381F339
:100290000988022282F314882F483049304A00F03E
:1002A00041F830483049314A00F03CF83048314993
:1002B000314A00F037F831483149324A00F032F81B
:1002C00031483249324A00F02DF832483249334A37
:1002D00000F028F832483349334A00F023F8334815
:1002E0003349002200F029F832483349002200F057
:1002F00024F832483249091A09F0E6FD314A90479C
:100300001F482049884205D00268043003B4904752
:1003100003BCF7E700208646EC46002000212A4A6D
:100320009047FEE7884207D0521A05D00378013083
:100330000B700131013AF9D17047884202D0027046
:100340000130FAE7704700000000042000E00320BD
:100350000000042000000420F4BA00000000002087
:10036000FC000020CC030000CC030000DC9E000059
:10037000F4BA00000000002000000020809F000070
:10038000809F0000809F0000809F0000809F0000F1
:10039000809F0000809F0000809F0000F1BA000055
:1003A000F0BB0000FC000020FC000020FC0000204E
:1003B000245F0020245F0020245F0020245F0020B1
:0C03C000247F0020410200009D15000079
:1003CC0000B585B00190019B002B0AD0074B43F080
:1003DC0001030393019B9B010293039B0298984793
:1003EC0000E000BF05B05DF804FB00BF80A1000079
:1003FC0000B583B00190019B1B68184600F06DF8A6
:10040C000346002B04D10B494FF4F67003F096FC15
:10041C00019B1B681F2B02D84FF0A04306E0019BE9
:10042C001B6803F01F02019B1A60034B184603B0B4
:10043C005DF804FB809F00000003005000B585B000
:10044C000190084611461A4603468DF803300B46B8
:10045C008DF8023013468DF8013001AB1846FFF7CA
:10046C00C7FF03909DF803209DF802305B001A43F0
:10047C009DF801309B001A439DF818301B0242EA8C
:10048C0003019DF81C301B04019A1943039B02F5D0
:10049C00E07243F8221000BF05B05DF804FB00B514
:1004AC0085B0019001AB1846FFF7A2FF0390019BAA
:1004BC00012202FA03F31946039800F004F800BF76
:1004CC0005B05DF804FB82B001900091019B009A8D
:1004DC00C3F8082500BF02B0704784B00190019B9F
:1004EC005B09029300230393029B002B03D0029B16
:1004FC00012B04D007E04FF0FF33039303E04FF6DA
:10050C00FF73039300BF019B03F01F030193039A36
:10051C00019B22FA03F303F00103002B14BF012308
:10052C000023DBB2184604B0704700B583B00190CD
:10053C00019B0433184602F03BFD00BF03B05DF88D
:10054C0004FB00B589B0059003921A460B468DF852
:10055C00133013468DF8123000230793059B181D9A
:10056C009DF812209DF813109DF828300093134627
:10057C00039A03F017F80790079B184609B05DF82B
:10058C0004FB00B587B0039001921A460B468DF818
:10059C000B3013468DF80A3000230593039B181D6E
:1005AC009DF80A309DF80B10019A03F023F8059082
:1005BC00059B184607B05DF804FB00B583B00190AD
:1005CC00019B002B0AD04FF47A70FFF7F9FE019BC8
:1005DC00013B0193019B002BF5D100E000BF03B060
:1005EC005DF804FB00B583B003F05AFD0190019B4C
:1005FC000093009B002B04D0054A3621009803F091
:10060C00CFF9002003F0AAFD00BF03B05DF804FB96
:10061C00B09F000008B5084B1B68084A1360064BD6
:10062C0000221A60064B00221A700649AE2006F012
:10063C004DF900BF08BD00BF50000020FC53002046
:10064C00015400200800002000B589B003F0D6FA50
:10065C0003F03AFB464B1B68022B40F0848040238E
:10066C008DF81E30434B069300238DF81F3076E037
:10067C009DF81F30404A52F823209DF81F303F4907
:10068C0051F823309A4265D00699212006F01EF9C4
:10069C009DF81F301A46D200D31A5B00DBB2083328
:1006AC00DBB20699184606F011F99DF81F301A4670
:1006BC00D200D31A5B00DBB21533DBB206991846B5
:1006CC0006F004F90699222006F000F90699032099
:1006DC0006F0FCF80699042006F0F8F89DF81E20A8
:1006EC001C230093264B3C21069805F07BF80590C3
:1006FC001420FFF762FF059B0493049B002B04D08E
:10070C00204A5A21049803F04BF99DF81F301A4ADD
:10071C0052F823309DF81E201C2100913C21069894
:10072C0005F060F805901420FFF747FF059B039335
:10073C00039B002B04D0134A6221039803F030F979
:10074C009DF81F209DF81F300B4951F822200B49B2
:10075C0041F823209DF81F3001338DF81F309DF890
:10076C001F30072B84D900BF09B05DF804FB00BF14
:10077C00500000200800002068550020FC000020DC
:10078C00F4A60000B09F000000B585B005F0F6FDA2
:10079C000390039B0293029B002B04D0144A8621E6
:1007AC00029803F0FDF8134A6B4612681146198043
:1007BC000233120C1A7003238DF801306B460E4A6B
:1007CC001946132005F03EFE0390039B0193019BF9
:1007DC00002B04D0064A8D21019803F0E1F8012189
:1007EC00132005F0ABFE00BF05B05DF804FB00BFA5
:1007FC00B09F000010A00000B110000082B001906A
:10080C000091019B1B78002B03D1044B01221A7021
:10081C0000E000BF00BF02B0704700BFF8530020DB
:10082C0000B589B002AB00221A605A609A60DA6097
:10083C000F2302930E2303934FF0CC7304930223E4
:10084C008DF8143002A90023144A154801F000FF5A
:10085C000790079B0693069B002B04D0114AAF21EF
:10086C00069803F09DF80E48FFF75FFE00230193F6
:10087C00072300930323002200210E20FFF7DEFD47
:10088C0000230193072300930323002200210F2050
:10089C00FFF7D4FD00BF09B05DF804FB09080000A8
:1008AC004CA10000B09F000000B58BB003AB002240
:1008BC001A605A609A60DA60022303931F23049330
:1008CC004FF0CC73059302238DF8183003AB194607
:1008DC00194804F045FE0990099B0893089B002BCE
:1008EC0004D0164AC721089803F05AF8144804F0AB
:1008FC00CBFE0990099B0793079B002B04D00F4A52
:10090C00C921079803F04CF80023019307230093A7
:10091C000323002200211F20FFF790FD00230193E9
:10092C00072300930323002200210220FFF786FDFA
:10093C0000BF0BB05DF804FB5CA10000B09F000091
:10094C000800002000B5C7B046ABA3F5887319604A
:10095C00114646ABA3F2091302461A7046ABA3F537
:10096C0086730A461A8046ABA3F5847300221A607C
:10097C000433FB220021184609F04CFA46ABA3F5D0
:10098C00847346AAA2F2091212781A7046ABA3F528
:10099C008673198846ABA3F5887304AA501C0A46C3
:1009AC00196809F001FA154B00221A7046ABA3F531
:1009BC0086731B88DBB20133DBB204AA00210091E1
:1009CC0039210F48FFF7BDFD4590459B4493449B4F
:1009DC00002B04D00B4AE821449802F0E1FF00BF41
:1009EC00064B1B78DBB283F00103DBB2002BF7D193
:1009FC00459B5BB2184647B05DF804FBF8530020EA
:100A0C004CA10000B09F000000B589B003460291D4
:100A1C008DF80F301346ADF80C30224B00221A70B3
:100A2C000DF10F0201230093012339211E48FFF71A
:100A3C0088FD0790079B0693069B002B04D01B4A4E
:100A4C00F921069802F0ACFF00BF164B1B78DBB205
:100A5C0083F00103DBB2002BF7D1124B00221A708A
:100A6C00BDF80C30DBB2029A39210F48FFF789FD33
:100A7C000790079B0593059B002B04D00B4AFE2186
:100A8C00059802F08DFF00BF064B1B78DBB283F09C
:100A9C000103DBB2002BF7D1079B5BB2184609B000
:100AAC005DF804FBF85300204CA10000B09F00003F
:100ABC0000B585B0019001220199AF20FFF7A4FF8A
:100ACC0003468DF80F309DF80F30002B01D1012318
:100ADC0000E00023184605B05DF804FB00B585B0B6
:100AEC00019001220199AE20FFF78EFF03468DF88D
:100AFC000F309DF80F30002B01D1012300E00023B3
:100B0C00184605B05DF804FB00B583B00DF1070382
:100B1C001846FFF7CDFF034683F00103DBB2002B31
:100B2C0002D04FF0FF3318E09DF8073003F00103BB
:100B3C00002B02D16FF001030FE00DF107031846F3
:100B4C00FFF7CCFF034683F00103DBB2002B02D08E
:100B5C006FF0020301E09DF80730184603B05DF812
:100B6C0004FB00B585B001900091009B9BB21A4626
:100B7C000199FC20FFF748FF03468DF80F309DF8D4
:100B8C000F30002B01D0FF23FFE7184605B05DF8AE
:100B9C0004FB000010B5AAB01E232893FFF7B4FF86
:100BAC002790279B002B01DC0023D1E0279B9A0088
:100BBC0003AB11461846FFF7D4FF03468DF89B3064
:100BCC0000232993BDE003AA299B13441B788DF8BD
:100BDC009A30299B0133A8336B4413F89C3C8DF855
:100BEC009930299B0233A8336B4413F89C3C8DF845
:100BFC009830299B0333A8336B4413F89C3C8DF835
:100C0C009730554A554BD31ADB081B0443F00300AD
:100C1C009DF89A109DF899409DF898309DF8972072
:100C2C000192009323460A464D4907F048FE9DF871
:100C3C009A30289A9A4262DD9DF89930289A9A4205
:100C4C005DDD9DF89830289A9A4258DD9DF89730D2
:100C5C00289A9A4253DD434B01221A70424B1B686F
:100C6C00002B03D1414B1B68002B66D03E4B1A68FE
:100C7C003F4B1B68D31A24933C4B1A683D4B1B68A3
:100C8C00D31A2393344A354BD31ADB081B0443F095
:100C9C000300249A239B384907F0E7FD00F092FBF0
:100CAC00364B1B685B42249A9A4202DA344B02227E
:100CBC001A60324B1B68249A9A4202DD304B032295
:100CCC001A602E4B1B685B42239A9A4202DA2C4B19
:100CDC0001221A60294B1B68239A9A4202DD284B89
:100CEC0000221A60224B00221A60224B00221A604A
:100CFC001D4B00221A601D4B00221A601DE09DF84E
:100D0C0097209DF89830D31A194A13609DF89A20B1
:100D1C009DF89930D31A174A1360124B1B78002B8D
:100D2C000CD0104B00221A70114B1B680E4A13602A
:100D3C00104B1B680D4A136000E000BF299B043365
:100D4C002993299BDA1C279B9B009A42FFF63BAF09
:100D5C0018462AB010BD00BF0C9F0000DC9E00009E
:100D6C0014A000001C010020280100202C010020F0
:100D7C00200100202401002020A000000000002001
:100D8C000400002000B591B08F238DF807300DF1D1
:100D9C00070301221946A620FFF7D4FD03468DF860
:100DAC003F309DF93F300E930E9B002B05D0BC4A73
:100DBC0040F291110E9802F0F3FD0DF107030122A0
:100DCC001946A220FFF720FE03468DF83F309DF810
:100DDC00073063F03F03DBB28DF807300DF10703EA
:100DEC0001221946A220FFF7ADFD03468DF83F30D6
:100DFC009DF93F300D930D9B002B05D0A84A40F276
:100E0C0097110D9802F0CCFD2A238DF807300DF1C7
:100E1C00070301221946A320FFF794FD03468DF822
:100E2C003F309DF93F300C930C9B002B05D09C4A16
:100E3C004FF4CE710C9802F0B3FD0DF107030122B3
:100E4C001946AA20FFF7E0FD03468DF83F309DF8C8
:100E5C00073023F00303DBB28DF807309DF93F30E8
:100E6C000B930B9B002B05D08D4A40F2A1110B98D4
:100E7C0002F096FD0DF1070301221946AA20FFF797
:100E8C0061FD03468DF83F309DF93F300A930A9B74
:100E9C00002B05D0824A40F2A3110A9802F080FD83
:100EAC000DF1070301221946AB20FFF7ADFD0346F8
:100EBC008DF83F309DF93F30002B01D00023EAE044
:100ECC009DF8073023F00103DBB28DF807300DF1EC
:100EDC00070301221946AB20FFF734FD03468DF8BA
:100EEC003F309DF93F300993099B002B05D06C4A8C
:100EFC004FF4D571099802F053FD04238DF8073097
:100F0C000DF10703012219468F20FFF71BFD034645
:100F1C008DF83F309DF93F300893089B002B05D08E
:100F2C005F4A40F2AF11089802F03AFD00238DF8A9
:100F3C0007300DF10703012219468920FFF702FD46
:100F4C0003468DF83F309DF93F300793079B002BEC
:100F5C0005D0534A4FF4DA71079802F021FD322381
:100F6C008DF807300DF10703012219468B20FFF78E
:100F7C00E9FC03468DF83F309DF93F300693069B04
:100F8C00002B05D0464A4FF4DC71069802F008FDA0
:100F9C00A0238DF807300DF10703012219468C2090
:100FAC00FFF7D0FC03468DF83F309DF93F30059399
:100FBC00059B002B05D03A4A40F2BD11059802F072
:100FCC00EFFC0DF1070301221946E520FFF71CFD8C
:100FDC0003468DF83F309DF93F300493049B002B62
:100FEC0005D02F4A40F2C111049802F0D9FC0DF142
:100FFC00070301221946A220FFF706FD03468DF8D0
:10100C003F309DF93F30002B01D0002343E09DF889
:10101C00073023F01F03DBB28DF807300DF1070307
:10102C0001221946A220FFF78DFC03468DF83F30B4
:10103C009DF93F300393039B002B05D0184A4FF4C6
:10104C00E471039802F0ACFC00238DF807300DF12D
:10105C00070301221946A120FFF774FC03468DF803
:10106C003F3025238DF807300DF107030122194677
:10107C008020FFF767FC03468DF83F309DF93F3029
:10108C000293029B002B05D0054A40F2CF11029827
:10109C0002F086FC0123184611B05DF804FB00BF7A
:1010AC00B09F000000B589B001900B468DF803305D
:1010BC00B54AB64BD31ADB081B0443F00303B449FF
:1010CC00184607F0B3FB07F057FC0346002BFAD188
:1010DC00B04B01221A70B04B1B68002B16D1AF4BD2
:1010EC001B68AD4A1360AE4B00221A70AA4B1B68EA
:1010FC00012B02D1AB4805F033FDC820FFF75DFA98
:10110C00A849AF2005F0E2FB00F05CF901238DF853
:10111C000E300DF10E0301221946AB20FFF712FC25
:10112C000346079345238DF80E300DF10E03012273
:10113C0019468020FFF706FC03460793079B06938E
:10114C00069B002B00F0E080974A40F2E7110698CE
:10115C0002F026FCD8E06420FFF72FFAFFF7D4FC4E
:10116C000346002B40F3D080FFF714FD00238DF8CD
:10117C000F3000F0BBFD8D4B1B68002B26D10120DE
:10118C0000F080FD874805F04FFD03468DF80F30C9
:10119C009DF80F3083F00103DBB2002B01D001F07E
:1011AC00F1F8794A794BD31ADB081B0443F003039B
:1011BC007F49184607F03AFBFA20FFF7FEF900F0DA
:1011CC0095FD7A4B4FF0FF321A609DE0774B1B6810
:1011DC00012B26D1022000F055FD724805F030FDA0
:1011EC0003468DF80F309DF80F3083F00103DBB20E
:1011FC00002B01D001F0C6F8634A644BD31ADB080C
:10120C001B0443F003036B49184607F00FFBFA204D
:10121C00FFF7D3F900F06AFD644B4FF0FF321A6010
:10122C0072E0624B1B68022B29D1032000F02AFDCF
:10123C005C4805F045FC03468DF80F30564B0122F7
:10124C001A609DF80F3083F00103DBB2002B01D044
:10125C0001F098F84C4A4D4BD31ADB081B0443F0B1
:10126C0003035549184607F0E1FAFA20FFF7A5F9F0
:10127C0000F03CFD4D4B4FF0FF321A6044E04B4BFD
:10128C001B68032B2FD1012000F0FCFC032000F085
:10129C00F9FC022000F0F6FC424805F061FC034624
:1012AC008DF80F303C4B02221A609DF80F3083F002
:1012BC000103DBB2002B01D001F064F8324A334B4E
:1012CC00D31ADB081B0443F003033C49184607F010
:1012DC00ADFAFA20FFF771F900F008FD334B4FF02F
:1012EC00FF321A6010E0284A284BD31ADB081B0483
:1012FC0043F003033249184607F098FA00F0F6FC65
:10130C002A4B4FF0FF321A60234B1B68002B7FF4E3
:10131C0022AF04238DF80E300DF10E030122194675
:10132C00AB20FFF70FFB03460793079B0593059B29
:10133C00002B05D01C4A4FF40B71059802F030FBC2
:10134C000DF10E0301221946E720FFF75DFB034662
:10135C00079325238DF80E300DF10E03012219464B
:10136C008020FFF7EFFA03460793079B0493049B37
:10137C00002B05D00C4A40F23221049802F010FBED
:10138C0000BF09B05DF804FB0C9F0000DC9E000060
:10139C002CA000000254002050000020FC53002020
:1013AC000054002008000020B09F00000400002022
:1013BC004CA0000050A0000058A0000060A000004D
:1013CC0068A0000000B585B01B4B1B78002B23D008
:1013DC001A4B184605F0ECFF0390039B0293029BFB
:1013EC00002B05D0164A40F23B21029802F0D8FAA5
:1013FC00124B144A4FF42031184605F089FF039024
:10140C00039B0193019B002B11D00D4A40F23D210F
:10141C00019802F0C5FA0AE0084B0A4A4FF4203151
:10142C00184605F075FF0390034B01221A7000BF9C
:10143C0005B05DF804FB00BF015400201000002033
:10144C00B09F00002106000000B58BB00590039200
:10145C001A460B468DF813301346ADF81030059B29
:10146C0009939DF813309BB2ADF81E30099B197887
:10147C000DF11E020123009301230C48FFF761F8C4
:10148C000890089B002B01D000230AE0099B1978D7
:10149C00BDF81030DBB2039A0448FFF772F80890DD
:1014AC00002318460BB05DF804FB00BF4CA10000F4
:1014BC002DE9F0438BB002AFF8607A601A460B4608
:1014CC00FB7213463B816B461E46FB68FB613B89F6
:1014DC00591C4B1EBB610A460023904699464FF09F
:1014EC0000024FF000034FEAC90343EA58734FEA76
:1014FC00C8020A46002314461D464FF000024FF066
:10150C000003EB0043EA5473E2000B460733DB089D
:10151C00DB00ADEB030D02AB00337B61FA7A7B6928
:10152C001A707B6901333A897968184608F03CFCDB
:10153C00FB6919783B89DBB20133DBB201220092E3
:10154C007A690F48FEF7FDFF38613B69002B0AD121
:10155C000C4A0D4BD31ADB081B0443F003030B4955
:10156C00184607F063F907F007FA0346002BFAD187
:10157C000023B54618462437BD46BDE8F08300BFAE
:10158C004CA100000C9F0000DC9E000070A000002D
:10159C0010B592B042F21073119300238DF84330C2
:1015AC001620FEF77CFF2020FEF779FF0023019325
:1015BC00022300930023012201211620FEF73EFF97
:1015CC0000230193022300930023012201212020F8
:1015DC00FEF734FF0420FEF7F0FF4FF4004100202B
:1015EC0006F05AFE0F900F9B002B05D04B4A40F291
:1015FC008B210F9802F0D4F906F0E4FD484A494BD0
:10160C00D31ADB081B0443F003034749184607F0C1
:10161C000DF907F0B1F90346002BFAD1FFF700F9E9
:10162C00FFF742F9414805F07BF902F04DFB3F48CA
:10163C0005F096FA012000F0A1FB00F057FBFEF735
:10164C00D1FFFFF79FFB05F0EBFDFFF79DF8384B43
:10165C0000221A70374B00221A70374A0121374882
:10166C0005F01CFE0E900E9B0D930D9B002B05D0D0
:10167C002A4A40F2A3210D9802F092F9304A002137
:10168C00304805F00BFE0E900E9B0C930C9B002B20
:10169C0005D0224A40F2A5210C9802F081F92A4B80
:1016AC00254A4FF40041184605F032FEFFF78AFE3A
:1016BC001E238DF82E30254B0893254B09930DF1E5
:1016CC002E030A936B238DF81F30204B0493204B71
:1016DC0005930DF11F03069304A908AB1D4A184688
:1016EC0008F0FDF80A20FEF768FF1A4B1B78682BF0
:1016FC0003D1184B5B783D2B30D0094A094BD31AD8
:10170C00DB081B0443F003031349184607F08EF85B
:10171C0007F032F90346002BFAD1EEE7B09F000038
:10172C000C9F0000DC9E0000A4A00000080000201C
:10173C0001540020005400205506000078A1000040
:10174C002106000074A1000030000020BD14000030
:10175C005514000040540020BCA0000004A908ABA4
:10176C000122184608F0F3F804A908ABBD4A184644
:10177C0008F034F9BB4B1B78002BF5D104A908AB4E
:10178C000122184607F07AFF04AB0221184607F035
:10179C004EFF04AB0321184607F0BAFE08AB032139
:1017AC00184608F045F804AB0021184608F0D5F9A6
:1017BC0004AB1021184608F02AFA04AB0021184695
:1017CC0008F0FEF904AB0321184608F031F904AB1C
:1017DC000521184608F09AF904AB1221184608F0B6
:1017EC004EF904AB2221184607F0B9FE08AB3421A0
:1017FC00184607F097FF0DF12F03012219469C2084
:10180C00FFF702F903460E936420FEF7D6FE964AC4
:10181C00964BD31ADB081B0443F003039DF82F20CF
:10182C009349184607F010F807F0A6F80346002B6A
:10183C00FAD104A908AB8F4A184608F06CF88D4B06
:10184C005B7803F00103DBB2002B00F0A680894B20
:10185C005B7803F00203DBB2002B00F09E800622C3
:10186C000021854808F0D6FA06220021834808F0AA
:10187C00D1FA04AB8049184608F011F804AB7F4943
:10188C00184607F0FCFF7C4BB3F90030184607F004
:10189C0003FEF0EE407A7A4BC3ED007A764BB3F947
:1018AC000230184607F0F8FDF0EE407A744BC3EDA9
:1018BC00017A714BB3F90430184607F0EDFDF0EEE8
:1018CC00407A6F4BC3ED027A6C4BB3F9003018467B
:1018DC0007F0F6FDF0EE407A6A4BC3ED007A674BE9
:1018EC00B3F90230184607F0EBFDF0EE407A654B89
:1018FC00C3ED017A614BB3F90430184607F0E0FDF3
:10190C00F0EE407A5F4BC3ED027A574A574BD31A2D
:10191C00DB081B0443F00300594BD3ED007ABCEEFB
:10192C00E77A574BD3ED017AFCEEE76A544BD3EDD3
:10193C00027AFCEEE77A17EE902A524BD3ED007A3E
:10194C00FCEEE77A17EE901A4E4BD3ED017AFCEED3
:10195C00E77A17EE904A4B4BD3ED027AFCEEE77A1E
:10196C0017EE903A039302940191009216EE903A7E
:10197C0017EE102A444906F0D4FF3B4A3B4BD31ACE
:10198C00DB081B0443F003034049184606F04EFFE6
:10199C0006F0F2FF0346002BFAD1364B1B7803F00E
:1019AC000803DBB2002B3FF426AF06220021384897
:1019BC0008F030FA08AB3649184607F080FF344B74
:1019CC00B3F90030184607F08FFDF0EE407A314B3A
:1019DC00C3ED007A2E4BB3F90230184607F084FDA4
:1019EC00F0EE407A2B4BC3ED017A294BB3F904305E
:1019FC00184607F079FDF0EE407A264BC3ED027ADB
:101A0C00194A1A4BD31ADB081B0443F00300214B71
:101A1C00D3ED007ABCEEE77A1E4BD3ED017AFCEEE7
:101A2C00E76A1C4BD3ED027AFCEEE77A17EE903A9C
:101A3C00009316EE903A17EE102A174906F029FF7C
:101A4C00094A0A4BD31ADB081B0443F003030F4962
:101A5C00184606F0EBFE06F08FFF0346002BFAD17A
:101A6C00C9E600BF465400200C9F0000DC9E00001D
:101A7C00E4A0000044540020045400200C54002026
:101A8C001C54002028540020F0A0000048540020D2
:101A9C0014540020345400202CA1000000B583B055
:101AAC000190019B1B68184600F0C3F80346002BFD
:101ABC0004D10B494FF4F67002F040F9019B1B68FE
:101ACC001F2B02D84FF0A04306E0019B1B6803F0CC
:101ADC001F02019B1A60034B184603B05DF804FB10
:101AEC0088A100000003005000B585B001900846A5
:101AFC0011461A4603468DF803300B468DF802301A
:101B0C0013468DF8013001AB1846FFF7C7FF039061
:101B1C009DF803209DF802305B001A439DF80130BC
:101B2C009B001A439DF818301B0242EA03019DF8F2
:101B3C001C301B04019A1943039B02F5E07243F815
:101B4C00221000BF05B05DF804FB00B585B0039012
:101B5C000023019300230093002301220121039809
:101B6C00FFF7C2FF00BF05B05DF804FB00B585B000
:101B7C0003900B468DF80B309DF80B300022019230
:101B8C0000220092002200210398FFF7ADFF00BF56
:101B9C0005B05DF804FB00B585B0019001AB1846AB
:101BAC00FFF77CFF0390019B012202FA03F3194615
:101BBC00039800F02AF800BF05B05DF804FB00B5EF
:101BCC0085B0019001AB1846FFF768FF0390019BAD
:101BDC00012202FA03F31946039800F020F800BF23
:101BEC0005B05DF804FB00B583B001900091009B3B
:101BFC00002B03D10198FFF7E2FF02E00198FFF7F9
:101C0C00CAFF00BF03B05DF804FB82B001900091E5
:101C1C00019B009AC3F8082500BF02B0704782B040
:101C2C0001900091019B009AC3F80C2500BF02B0F3
:101C3C00704784B00190019B5B09029300230393CE
:101C4C00029B002B03D0029B012B04D007E04FF02A
:101C5C00FF33039303E04FF6FF73039300BF019B25
:101C6C0003F01F030193039A019B22FA03F303F081
:101C7C000103002B14BF01230023DBB2184604B070
:101C8C007047000000B583B00190019B032B03D972
:101C9C000749412002F052F8064A019B13441B7875
:101CAC0000211846FFF79FFF00BF03B05DF804FB4F
:101CBC00B8A1000008A2000000B583B00190019B00
:101CCC00032B03D90749472002F038F8064A019B39
:101CDC0013441B7801211846FFF785FF00BF03B0A2
:101CEC005DF804FBB8A1000008A2000000B583B0A9
:101CFC000023019305E00198FFF7DEFF019B013300
:101D0C000193019B032BF6D900BF00BF03B05DF814
:101D1C0004FB000000B583B00023019309E0094ADD
:101D2C00019B13441B781846FFF70FFF019B0133EF
:101D3C000193019B032BF2D9FFF7D8FF00BF03B02F
:101D4C005DF804FB08A2000000B583B000230193EA
:101D5C000AE0094A019B13441B7803211846FFF73C
:101D6C0005FF019B01330193019B032BF1D900BFAC
:101D7C0000BF03B05DF804FB0CA2000000B583B0FB
:101D8C000190019B03F00103002B01D0FFF7C2FF70
:101D9C00019B03F00203002B01D0FFF7D5FF00BF1E
:101DAC0003B05DF804FB0000BFF34F8F00BF064B80
:101DBC00DB6803F4E0620449044B1343CB60BFF3CC
:101DCC004F8F00BF00BFFDE700ED00E00400FA05F7
:101DDC0082B0164B1B680193154B1B680093019B3B
:101DEC00082B1FD1009B052B1AD801A252F823F007
:101DFC00151E0000191E00001D1E0000211E0000F3
:101E0C00251E0000291E000001230CE001230AE01E
:101E1C00012308E0012306E0012304E0012302E092
:101E2C00012300E00023184602B070473001001077
:101E3C003401001082B0164B1B680193154B1B68C4
:101E4C000093019B082B1FD1009B052B1AD801A2D4
:101E5C0052F823F0791E00007D1E0000811E000048
:101E6C00851E0000891E00008D1E000001230CE061
:101E7C0001230AE0012308E0012306E0012304E02A
:101E8C00012302E0012300E00023184602B0704752
:101E9C00300100103401001082B0164B1B68019306
:101EAC00154B1B680093019B082B1FD1009B052B26
:101EBC001AD801A252F823F0DD1E0000E11E00002A
:101ECC00E51E0000E91E0000ED1E0000F11E0000E2
:101EDC0001230CE000230AE0002308E0002306E0C5
:101EEC00002304E0002302E0002300E00023184656
:101EFC0002B07047300100103401001082B0164B54
:101F0C001B680193154B1B680093019B082B1FD179
:101F1C00009B052B1AD801A252F823F0411F000098
:101F2C00451F0000491F00004D1F0000511F0000FD
:101F3C00551F000001230CE000230AE0002308E0F9
:101F4C00002306E0002304E0002302E0002300E06D
:101F5C000023184602B07047300100103401001005
:101F6C0082B0164B1B680193154B1B680093019BA9
:101F7C00082B1FD1009B052B1AD801A252F823F075
:101F8C00A51F0000A91F0000AD1F0000B11F00001D
:101F9C00B51F0000B91F000001230CE000230AE06C
:101FAC00002308E0002306E0002304E0002302E005
:101FBC00002300E00023184602B0704730010010E7
:101FCC003401001082B0164B1B680193154B1B6833
:101FDC000093019B082B1FD1009B052B1AD801A243
:101FEC0052F823F0092000000D2000001120000001
:101FFC0015200000192000001D20000001230CE01A
:10200C0000230AE0002308E0002306E0002304E09C
:10201C00002302E0002300E00023184602B07047C2
:10202C00300100103401001082B0164B1B68019374
:10203C00154B1B680093019B082B1FD1009B052B94
:10204C001AD801A252F823F06D2000007120000074
:10205C0075200000792000007D2000008120000008
:10206C0001230CE001230AE0012308E0012306E030
:10207C00012304E0012302E0012300E000231846C1
:10208C0002B07047300100103401001082B0164BC2
:10209C001B680193154B1B680093019B082B1FD1E8
:1020AC00009B052B1AD801A252F823F0D120000076
:1020BC00D5200000D9200000DD200000E120000028
:1020CC00E520000000230CE000230AE0002308E0D8
:1020DC00002306E0012304E0012302E0012300E0D9
:1020EC000023184602B07047300100103401001074
:1020FC0008B5FFF7CBFF0346002B07D04FF010239A
:10210C004FF08042D3F80832C2F8583500BF08BDF2
:10211C0000BF044BD3F80034002BFAD000BF00BF33
:10212C00704700BF00E0014000B583B00190054A44
:10213C00019BC2F80435FFF7EBFF00BF03B05DF85D
:10214C0004FB00BF00E00140024B034A1A6000BFD1
:10215C00704700BF540000200090D00308B5FFF773
:10216C0037FE0346002B0ED04FF080430022C3F8FD
:10217C000C214FF080430022C3F810214FF0804314
:10218C000022C3F83825FFF755FE0346002B76D006
:10219C004FF08053734AD3F80434C2F820354FF013
:1021AC008053704AD3F80834C2F824354FF080536A
:1021BC006C4AD3F80C34C2F828354FF08053694A76
:1021CC00D3F81034C2F82C354FF08053654AD3F84D
:1021DC001434C2F830354FF08053624AD3F81834B7
:1021EC00C2F834354FF080535E4AD3F81C34C2F831
:1021FC0040354FF080535B4AD3F82034C2F8443555
:10220C004FF08053574AD3F82434C2F848354FF076
:10221C008053544AD3F82834C2F84C354FF08053CD
:10222C00504AD3F82C34C2F850354FF080534D4AF5
:10223C00D3F83034C2F854354FF08053494AD3F8B0
:10224C003434C2F860354FF08053464AD3F83834F2
:10225C00C2F864354FF08053424AD3F83C34C2F88C
:10226C0068354FF080533F4AD3F84034C2F86C3590
:10227C004FF080533B4AD3F84434C2F87035FFF723
:10228C000BFE0346002B02D0374B384A1A60FFF77F
:10229C0035FE0346002B03D0354BFB22C3F8182523
:1022AC00FFF75EFE0346002B0AD0324B1B6823F06F
:1022BC000F02314B1B6803F00F032E4913430B60C5
:1022CC00FFF780FE0346002B03D02C4B4FF400721B
:1022DC001A60FFF7A9FE0346002B0DD04FF0804388
:1022EC00D3F8003403F00103002B05D04FF08043EA
:1022FC006FF00102C3F80024214BD3F88830204A38
:10230C0043F47003C2F88830BFF34F8F00BFBFF3A4
:10231C006F8F00BFFFF7ECFE4FF01023D3F80032A5
:10232C00002B05DB4FF01023D3F80432002B15DA09
:10233C000120FFF7F9FE4FF010231222C3F8002200
:10234C00FFF7E6FE4FF010231222C3F80422FFF72A
:10235C00DFFE0020FFF7E8FEFFF726FDFFF7F4FE97
:10236C0000BF08BD00C000408C56004048810300EF
:10237C0000F00040E40E004058020010409602406D
:10238C0000ED00E0FEE7000000B585B00190019B78
:10239C00002B0AD0074B43F001030393019B9B01D5
:1023AC000293039B0298984700E000BF05B05DF8CC
:1023BC0004FB00BF40A2000000B583B00190019B5C
:1023CC001B68184600F077F80346002B04D10B4924
:1023DC004FF4F67001F0B2FC019B1B681F2B02D866
:1023EC004FF0A04306E0019B1B6803F01F02019B0A
:1023FC001A60034B184603B05DF804FB10A20000F2
:10240C000003005000B585B0019001AB1846FFF7F2
:10241C00D3FF0390019B012202FA03F319460398A0
:10242C0000F035F800BF05B05DF804FB00B585B0D1
:10243C00019001AB1846FFF7BFFF0390019B0122EF
:10244C0002FA03F31946039800F02BF800BF05B00D
:10245C005DF804FB00B585B0019001AB1846FFF7A1
:10246C00ABFF0390039800F00AF80246019B22FA96
:10247C0003F303F00103184605B05DF804FB82B0CA
:10248C000190019BD3F81035184602B0704782B00A
:10249C0001900091019B009AC3F8082500BF02B07F
:1024AC00704782B001900091019B009AC3F80C25F3
:1024BC0000BF02B0704784B00190019B5B0902938E
:1024CC0000230393029B002B03D0029B012B04D00F
:1024DC0007E04FF0FF33039303E04FF6FF730393D2
:1024EC0000BF019B03F01F030193039A019B22FA87
:1024FC0003F303F00103002B14BF01230023DBB211
:10250C00184604B0704700B585B001904FF0A0425A
:10251C00019B1B6803F5E07340F20C6142F8231039
:10252C004FF0A042019B5B6803F5E07340F20C6135
:10253C0042F82310019B1B681846FFF763FF019BB1
:10254C005B681846FFF75EFF4FF0A042019B1B68CB
:10255C0003F5E07340F20D6142F823104FF0A042F6
:10256C00019B5B6803F5E07340F20D6142F82310A8
:10257C000420FFF709FF002303931EE0019B5B6817
:10258C001846FFF767FF0346002B03D0039B002B75
:10259C0017D124E0019B1B681846FFF747FF042066
:1025AC00FFF7F2FE019B1B681846FFF72BFF042078
:1025BC00FFF7EAFE039B01330393039B082BDDDD3E
:1025CC0000E000BF019B5B681846FFF72FFF04205B
:1025DC00FFF7DAFE019B5B681846FFF713FF05B0A7
:1025EC005DF804FB00B589B001900091009B079346
:1025FC00019B1B788DF80C30019B1B798DF81030EA
:10260C00019B5B798DF81130019B9B68DBB28DF8D7
:10261C001230019BDB68DBB28DF81330019B1B6918
:10262C000593019B5B690693074A079B52F823307D
:10263C000649079A51F8221003AA1046984700BF82
:10264C0009B05DF804FB00BFAC540020B45400206A
:10265C0000B587B00390029101920093039B1B7805
:10266C0005931249059B019A41F823201049059BBB
:10267C00009A41F82320029B5B7B002B02D002982E
:10268C00FFF741FF00230493039B181D019B002BB4
:10269C0001D0084A00E00022059B029900F096FB4D
:1026AC000490049B184607B05DF804FBAC54002062
:1026BC00B4540020F125000008B5064B1B68002B14
:1026CC0003D10549512001F039FB024B1B68984797
:1026DC0008BD00BFBC5400204CA2000082B0019089
:1026EC00019B044A934201D1034B00E0002318469E
:1026FC0002B0704700200040BC54002000B587B0E9
:10270C0001900091019B002B03D11849772001F017
:10271C0015FB0198FFF7E2FF0590059B002B1ED0DF
:10272C0000238DF81330002001F0E6F9059B1B798E
:10273C00002B03D001238DF8133005E0059B009A84
:10274C001A60059B01221A71002001F0E9F99DF82D
:10275C001330002B03D011230393039B02E00023BF
:10276C000393039B184607B05DF804FB4CA20000D2
:10277C0000B585B00190019B002B03D10A499B2029
:10278C0001F0DCFA0198FFF7A9FF0390039B002BE3
:10279C0005D0039B00221A60039B00221A7100BF14
:1027AC0005B05DF804FB00BF4CA2000082B00346EC
:1027BC008DF807309DF90730002B0CDB9DF80730A6
:1027CC0003F01F0205499DF907305B09012000FA4F
:1027DC0002F241F8232000BF02B0704700E100E094
:1027EC0082B003468DF807309DF90730002B13DBC0
:1027FC009DF8073003F01F0209499DF907305B096A
:10280C00012000FA02F2203341F82320BFF34F8F4E
:10281C0000BFBFF36F8F00BF00BF02B0704700BF97
:10282C0000E100E082B003468DF807309DF90730D7
:10283C00002B0DDB9DF8073003F01F0206499DF9B4
:10284C0007305B09012000FA02F2603341F82320C3
:10285C0000BF02B0704700BF00E100E082B0034649
:10286C0000918DF807309DF90730002B0ADB009B97
:10287C00DAB20C499DF907305201D2B20B4483F8FD
:10288C0000230BE0009BDAB207499DF8073003F0F8
:10289C000F03043B5201D2B20B441A7600BF02B0B4
:1028AC00704700BF00E100E000ED00E082B0019055
:1028BC00019B03F06043B3F1005F0CBF01230023C5
:1028CC00DBB2184602B0704782B00190019B1B0B23
:1028DC005BB2184602B0704700B583B003460A4697
:1028EC008DF8073013468DF806309DF80630072B0F
:1028FC0003D908496B2001F021FA9DF806209DF9B7
:10290C00073011461846FFF7A9FF00BF03B05DF86A
:10291C0004FB00BFA8A2000000B583B003468DF8ED
:10292C0007309DF907301846FFF740FF00BF03B092
:10293C005DF804FB00B583B003468DF807309DF9B4
:10294C0007301846FFF74CFF00BF03B05DF804FBDF
:10295C0000B583B003468DF807309DF90730184653
:10296C00FFF760FF00BF03B05DF804FB82B001907D
:10297C000B468DF803309DF80330019A1344012265
:10298C001A6000BF02B0704784B001900B46ADF8DE
:10299C000230BDF80230019A134400221A60BDF8CF
:1029AC000230019A13441B680393039B00BF04B0CD
:1029BC00704782B001900B46ADF80230BDF8023082
:1029CC00019A13441B68002B14BF01230023DBB2B4
:1029DC00184602B0704782B001900091019BD3F869
:1029EC000022009BDB431A40019BC3F8002200BF6E
:1029FC0002B0704782B001900091019B009AC3F81D
:102A0C00042300BF02B0704782B001900091019B7B
:102A1C00009AC3F8082300BF02B0704782B001903F
:102A2C00019B0622C3F8002500BF02B0704782B09C
:102A3C000190019B0022C3F8002500BF02B0704733
:102A4C0084B0039002910192039B029AC3F808256B
:102A5C00039B019AC3F80C2500BF04B0704782B0E9
:102A6C0001900091019B009AC3F8242500BF02B08D
:102A7C00704784B00190019BD3F8C4340393019B3D
:102A8C00039AC3F8C424039B184604B0704782B061
:102A9C0001900B468DF803309DF80320019BC3F881
:102AAC00882500BF02B0704784B003900291019258
:102ABC00029A039BC3F84425039B019AC3F848254B
:102ACC0000BF04B0704784B0039002910192029A47
:102ADC00039BC3F83425039B019AC3F8382500BF28
:102AEC0004B0704782B001900091019B009AC3F82A
:102AFC00002200BF02B0704782B00190019BD3F856
:102B0C004C35184602B0704782B00190019BD3F847
:102B1C000032184602B0704782B00190019BD3F886
:102B2C003C35184602B0704782B00190019B0122DF
:102B3C00C3F8502500BF02B0704782B00190019BD2
:102B4C000022C3F8502500BF02B0704782B001903C
:102B5C00019B0122C3F8402500BF02B0704782B030
:102B6C000190019B0022C3F8402500BF02B07047C2
:102B7C0000B583B00190019B1B68184600F060F80B
:102B8C000346002B04D10B494FF4F67001F0D6F834
:102B9C00019B1B681F2B02D84FF0A04306E0019B42
:102BAC001B6803F01F02019B1A60034B184603B00D
:102BBC005DF804FBD8A200000003005000B585B0FE
:102BCC000190084611461A4603468DF803300B4611
:102BDC008DF8023013468DF8013001AB1846FFF723
:102BEC00C7FF03909DF803209DF802305B001A4349
:102BFC009DF801309B001A439DF818301B0242EAE5
:102C0C0003019DF81C301B04019A1943039B02F528
:102C1C00E07243F8221000BF05B05DF804FB00B56C
:102C2C0085B003900023019300230093002301221D
:102C3C0000210398FFF7C2FF00BF05B05DF804FB4D
:102C4C0084B00190019B5B09029300230393029BC8
:102C5C00002B03D0029B012B04D007E04FF0FF3375
:102C6C00039303E04FF6FF73039300BF019B03F044
:102C7C001F030193039A019B22FA03F303F0010350
:102C8C00002B14BF01230023DBB2184604B070479D
:102C9C0084B0019003230393019B03F00103002BE9
:102CAC0002D04FF402430393019B03F00203002B69
:102CBC0002D048F201230393019B03F00403002B81
:102CCC0002D048F202230393039B184604B07047CA
:102CDC0000B585B00190009101238DF80F30009B59
:102CEC001B7B032B56D801A252F823F0712D000048
:102CFC00892D0000492D0000092D0000009B9B68C8
:102D0C0003F48023002B07D00198FFF7F5FE024651
:102D1C00009B1B699A420DD1009B9B6803F4802396
:102D2C00002B39D10198FFF7E7FE0246009B5B6947
:102D3C009A4231D000238DF80F302DE00198FFF727
:102D4C00DBFE0246009B1B699A4207D10198FFF7F4
:102D5C00E3FE0246009B5B699A421FD000238DF86C
:102D6C000F301BE00198FFF7C7FE0246009B1B6962
:102D7C009A4215D000238DF80F3011E00198FFF71F
:102D8C00CBFE0246009B1B699A420BD000238DF8A8
:102D9C000F3007E000BF06E000BF04E000BF02E018
:102DAC0000BF00E000BF9DF80F3083F00103DBB2E1
:102DBC00002B05D00198FFF73AFE0198FFF72EFE85
:102DCC009DF80F30184605B05DF804FB00B58BB0CC
:102DDC000590049103920293049B002B03D14A4962
:102DEC00E72000F0ABFF049B1A68049B5B689A42D7
:102DFC0003D14549E82000F0A1FF059B1B791A4639
:102E0C00342302FB03F3414A13440893089B93F8C1
:102E1C002D30002B03D008230793079B70E0059BF4
:102E2C001A68059B1B791946394B53F82130194602
:102E3C001046FFF763FC0346002B03D011230793C6
:102E4C00079B5DE0089B039A1A60089B029A5A60E4
:102E5C00089B00229A60089B002283F83020089B74
:102E6C00002283F82F20049B5A7B089B83F8322086
:102E7C00049B18680023019306230093032300226C
:102E8C000021FFF79BFE049B586800230193062347
:102E9C000093032300220021FFF790FE059B1B6883
:102EAC000993049B1968049B5B681A460998FFF701
:102EBC00C7FD049B9B6819460998FFF7D0FD089B3A
:102ECC001B68002B15D0059B1B681846FFF7FCFCF4
:102EDC0003461A46049B1B7B19461046FFF7FCFC65
:102EEC00059B1B681846FFF7EFFC03461846FFF7D7
:102EFC0013FD089B012283F82D2000230793079BC9
:102F0C0018460BB05DF804FB10A30000C45400205D
:102F1C0068A3000000B585B00190019B1B791A468F
:102F2C00342302FB03F3204A13440393039B93F8CB
:102F3C002D30002B04D11D494FF49B7000F0FEFE88
:102F4C00039B1B68002B08D0019B1B681846FFF7DE
:102F5C00BBFC03461846FFF7EDFC019800F050F857
:102F6C00019B1B681846FFF703FC039B93F8323058
:102F7C0083F00103DBB2002B0DD0019B1B68D3F84F
:102F8C0008351846FFF74BFE019B1B68D3F80C3530
:102F9C001846FFF744FE039B002283F82D2000BF48
:102FAC0005B05DF804FB00BFC454002010A3000062
:102FBC0000B585B00190019B1B791A46342302FBA6
:102FCC0003F30D4A13440393039B93F82D30012B09
:102FDC0004D00A4940F24F1000F0B0FE019B1B6870
:102FEC001846FFF71BFD039B022283F82D2000BF20
:102FFC0005B05DF804FB00BFC454002010A3000012
:10300C0000B585B00190019B1B791A46342302FB55
:10301C0003F3134A13440393039B93F82D30002BB3
:10302C0004D110494FF4AD7000F088FE019B1B6871
:10303C000293039B00229A600B490298FFF7E4FC71
:10304C004FF4BC510298FFF7C6FC0298FFF7EFFC57
:10305C00039B012283F82D2000BF05B05DF804FB13
:10306C00C454002010A3000002029C0100B583B0E0
:10307C0001900091009B03F00103002B03D00198F9
:10308C00FFF752FD02E00198FFF757FD009B03F09C
:10309C000203002B03D00198FFF758FD02E00198C2
:1030AC00FFF75DFD00BF03B05DF804FB30B589B0E0
:1030BC0003900291019200930023079308238DF84B
:1030CC001B30039B002283F82E20019BDB681846E3
:1030DC00FFF7ECFB034683F00103DBB2002B03D0BC
:1030EC0010230793079BFDE19D490298FFF78CFC89
:1030FC00039B93F82F30DBB2002B09D0039B9B680A
:10310C0019460298FFF776FC11230793079BE9E118
:10311C00009B03F00403002B06D1009B03F010036B
:10312C00002B01D1012300E0002303F00103DAB2EC
:10313C00039B83F82F20039B019A03F10C04154683
:10314C000FCD0FC42B682360009B1B0903F00103F8
:10315C00002B14BF01230023DAB2039B83F8302029
:10316C00039B009A1A62019B5B7819460298FFF741
:10317C008EFC4FF482710298FFF706FC4FF49271AB
:10318C000298FFF701FC4FF4B0710298FFF7FCFBBB
:10319C004FF4A4710298FFF7F7FB00990298FFF720
:1031AC0065FF019B1B78032B00F2DE8001A252F815
:1031BC0023F000BFF33200003B3300009B320000D1
:1031CC00D1310000009B03F01003002B04D06549A3
:1031DC004FF4D97000F0B2FD009B03F00803002BF4
:1031EC0004D0604940F2B31000F0A8FD009B03F03E
:1031FC000403002B04D05B494FF4DA7000F09EFD01
:10320C00019B1B691846FFF751FB034683F0010332
:10321C00DBB2002B03D010230793079B62E14FF422
:10322C0080710298FFF75EFC019BD968019B5B687B
:10323C001A460298FFF738FC4FF4A8710298FFF772
:10324C00A3FB20210298FFF791FB08210298FFF7BE
:10325C008DFB00BF4FF4A8710298FFF7AAFB034641
:10326C0083F00103DBB2002BF4D14FF4A871029868
:10327C00FFF78AFB019B1969019B9B681A46029810
:10328C00FFF712FC039B4FF480229A606FE0019BC6
:10329C00D968019B5B681A460298FFF705FC019BF5
:1032AC001B691846FFF702FB034683F00103DBB2F0
:1032BC00002B03D010230793079B13E1019B196983
:1032CC00019B9B681A460298FFF7FDFB4FF4845153
:1032DC000298FFF707FC039B02229A6020210298B8
:1032EC00FFF744FB43E0019BD968019B5B681A46DE
:1032FC000298FFF7D9FB009B03F02003002B09D0A9
:10330C004FF480710298FFF7EDFB039B4FF4802282
:10331C009A6007E04FF400710298FFF7E3FB039B00
:10332C0002229A6020210298FFF720FB1FE0019BEC
:10333C00D968019B5B681A460298FFF7C4FB4FF4EF
:10334C0080510298FFF7CEFB039B02229A60002368
:10335C008DF81B3020210298FFF708FB07E000BF17
:10336C0002029C0110A300000723079300BF009BDF
:10337C0003F00803002B09D1019B1B78032B05D00C
:10338C009DF81B3019460298FFF7F0FA039B1B6857
:10339C00002B1FD0009B03F00403002B02D0039BD7
:1033AC0000229A60009B03F04003002B05D1039B85
:1033BC009B6843F00202039B9A60039B9B6843F457
:1033CC000072039B9A60039B9B6819460298FFF757
:1033DC0011FB86E000238DF81A304FF4A47102988B
:1033EC00FFF7E7FA0346002B02D001238DF81A30C1
:1033FC004FF482710298FFF7DCFA0346002B07D0DA
:10340C004FF482710298FFF7BFFA01238DF81A303E
:10341C004FF492710298FFF7CCFA0346002B38D088
:10342C004FF492710298FFF7AFFA4FF4B071029813
:10343C00FFF7BFFA03468DF819300298FFF764FBCB
:10344C0005909DF8193083F00103DBB2002B04D1F9
:10345C00059B03F40073002B0AD120210298FFF77F
:10346C0085FA14210298FFF781FA00238DF81A309F
:10347C009DF81930002B0CD0059B03F48073002BA6
:10348C0007D04FF4A4710298FFF77EFA00238DF851
:10349C001A309DF81A3083F00103DBB2002B9CD15B
:1034AC000298FFF7E6FA0490039B002283F82F2082
:1034BC00049B002B04D00498FFF7EAFB079010E064
:1034CC00009B03F04003002B0BD103990298FFF7EC
:1034DC00FFFB034683F00103DBB2002B01D0032377
:1034EC000793079B184609B030BD00BF00B587B0E5
:1034FC00039002910192039B1B79002B09D1029B33
:10350C005B68B3F5803F04D2029B9B68B3F5803FA8
:10351C0012D3039B1B79012B09D1029B5B68B3F57A
:10352C00803F04D2029B9B68B3F5803F04D31B49B8
:10353C0040F26A2000F002FC00230593039B1B79E8
:10354C001A46342302FB03F3154A13440493049BD9
:10355C001B68002B08D1029B1B78022B04D10F494E
:10356C0040F2722000F0EAFB049B1B68002B08D190
:10357C00029B1B78032B04D1084940F2732000F006
:10358C00DDFB039B1968019B029A0498FFF78EFDE3
:10359C000590059B184607B05DF804FB10A30000CE
:1035AC00C454002000B58BB00390019200930B46DD
:1035BC008DF80B3000238DF814309DF80B308DF8FE
:1035CC001530009B069300230793019B089300235F
:1035DC0009939DF83030002B01D0202200E000220E
:1035EC0005AB19460398FFF781FF034618460BB04D
:1035FC005DF804FB00B58BB00390019200930B4671
:10360C008DF80B3001238DF814309DF80B308DF8AC
:10361C001530009B069300230793019B089300230E
:10362C00099305AB002219460398FFF75FFF034689
:10363C0018460BB05DF804FB30B58BB001900091CF
:10364C00009B1B68002B04D1A24940F2C12000F062
:10365C0075FB4FF492710198FFF7ABF90346002B01
:10366C003ED04FF492710198FFF78EF94FF48271AE
:10367C000198FFF79EF9034683F00103DBB2002BA0
:10368C002ED0009B9B6819460198FFF7BDF9009B53
:10369C0002229A60009B9B6819460198FFF7AAF9D1
:1036AC004FF4B0710198FFF784F9034683F00103DE
:1036BC00DBB2002B07D10198FFF726FA034603F47F
:1036CC000073002B07D120210198FFF74FF914212B
:1036DC000198FFF74BF9009B012283F82E20F6E0AE
:1036EC004FF482710198FFF764F90346002B5DD00B
:1036FC004FF482710198FFF747F9009B1B6A03F0A6
:10370C004003002B1AD1009B93F82E3083F0010359
:10371C00DBB2002B12D000990198FFF7D9FA0346BF
:10372C00002B14BF01230023DBB283F00103DBB2B7
:10373C0003F00103DAB2009B83F82E20009B1B6A76
:10374C0003F00403002B79D1009B04AC03F10C05AE
:10375C000FCD0FC42B6823604FF4B0710198FFF7A5
:10376C0013F94FF4AE710198FFF70EF9009B93F823
:10377C00303083F00103DBB2002B04D1009B93F8B3
:10378C002E30002B5AD000210198FFF7ABF9009B8B
:10379C0000229A6050490198FFF736F90198FFF71B
:1037AC0093F803461846FFF7D3F847E04FF4A4719B
:1037BC000198FFF7E9F8009B1B7B002B22D1009BA3
:1037CC0004AC03F10C050FCD0FC42B682360009BD8
:1037DC0093F8303083F00103DBB2002B2ED00021A4
:1037EC000198FFF77FF9009B00229A603A490198F3
:1037FC00FFF70AF90198FFF767F803461846FFF739
:10380C00A7F81BE04FF400710198FFF76BF9009BD0
:10381C0040F202229A6030490198FFF7F5F8009BBC
:10382C009B6819460198FFF7E5F808210198FFF706
:10383C009DF820210198FFF799F848E00198FFF7CF
:10384C0018F90990099B03F00203002B03D0012304
:10385C008DF80C301DE0099B03F00403002B03D002
:10386C0002238DF80C3014E0099B03F00103002BAC
:10387C0003D003238DF80C300BE0009B93F82E3013
:10388C00002B03D004238DF80C3002E000238DF8BC
:10389C000C30009B93F8303083F00103DBB2002B2B
:1038AC0003D0009B002283F82F20009B1B6A03F09F
:1038BC000403002B04D0009B93F82E30002B06D071
:1038CC00009B1B68009A516803AA104698470BB0DE
:1038DC0030BD00BF10A3000002029C0108B50349D3
:1038EC000348FFF7A9FE00BF08BD00BFC454002069
:1038FC000030004008B503494FF04020FFF79CFE14
:10390C0000BF08BDF854002086B0039002910192CC
:10391C0001238DF817309DF81730204A039B136054
:10392C001E4A029B53601D4A019B9360039B44F209
:10393C000102934212D0039B44F20202934220D123
:10394C00019B164AD360154BDB681B68134A9361C5
:10395C00124BDB685B68114AD36112E0019B0F4A82
:10396C0013610E4B1B699B680C4A53610B4B1B6913
:10397C001B680A4A9361094B1B695B68074AD36150
:10398C0000BF72B600BF00BF9DF81730DBB2002B32
:10399C00FAD162B600BF00BF06B070472C550020AC
:1039AC0000B583B002900091019244F2010071467F
:1039BC006A4600F003F803B000BD00BF30B58BB011
:1039CC0007900691059272B600BF05F011FA04F04B
:1039DC00D3FF0346002BFAD1079B44F2010293421A
:1039EC0016D0079B44F2020293423ED1059B0993E9
:1039FC002C4A2D4BD31ADB081B0443F00100099B06
:103A0C005B681A46099B1B68284904F02EFF39E0B5
:103A1C00059B0893234A244BD31ADB081B0443F061
:103A2C000104089B9D68089B9B68184601F072FB7B
:103A3C0003461846089B5B681946089B1B68069A48
:103A4C0002920193009103462A461949204604F03C
:103A5C004EFF144A144BD31ADB081B0443F001032A
:103A6C001449184604F0E2FE0CE00E4A0E4BD31A31
:103A7C00DB081B0443F00103069A0F49184604F0B7
:103A8C00E3FE00BF0D4B1B6803F00103002B00D0BD
:103A9C0000BE059A06990798FFF736FF00BF0BB0DA
:103AAC0030BD00BF0C9F0000DC9E0000F0A40000A5
:103ABC000CA5000034A5000048A50000F0ED00E0C6
:103ACC0072B600BF034B1B680133024A136000BF80
:103ADC00704700BF4C550020064B1B68013B054A44
:103AEC001360044B1B68002B01D162B600BF00BFF2
:103AFC00704700BF4C55002000B583B0019000F01A
:103B0C0025F80346012B03D00449432000F016F995
:103B1C00FFF7D6FF00BF03B05DF804FB60A5000003
:103B2C0000B583B003468DF8073000F00FF803465C
:103B3C00012B03D00449512000F000F9FFF7CCFF12
:103B4C0000BF03B05DF804FB60A5000084B0EFF388
:103B5C0005830193019BC3F308030393039B002B81
:103B6C000DD1EFF314830093009B0293029B03F09F
:103B7C000103002B0CBF01230023DBB200E0012367
:103B8C00184604B07047000082B0052301930BE087
:103B9C00094A019B52F82330002B01D0019B07E00E
:103BAC0000BF019B013B0193019B002BF0DA062324
:103BBC00184602B0704700BF505500200E4B1B68D2
:103BCC00022B15D10C4B5B68032B11D10A4B9B6854
:103BDC00052B0DD1084BDB68092B09D1064B1B6952
:103BEC00052B05D1044B5B69092B01D1012300E0A6
:103BFC0000231846704700BF5800002000B583B062
:103C0C00FFF7DCFF0346002B05D0062200212C48D1
:103C1C0006F000F950E02B4B01225A61FFF7B4FF7C
:103C2C00019046E0264A019B52F823305A1C244945
:103C3C00019B41F82320234A019B002142F82310C9
:103C4C001F4B5B690A2B06D11D4B00225A611D4B81
:103C5C0001221A612AE01A4B1B69062B06D1184B5C
:103C6C0000221A61174B0122DA601FE0144BDB684B
:103C7C000A2B06D1124B0022DA60124B01229A60F9
:103C8C0014E00F4B9B68062B06D10D4B00229A605B
:103C9C000C4B01225A6009E0094B5B680A2B05D1D9
:103CAC00074B00225A60074B01221A60FFF76CFF8A
:103CBC000190019B062BB5D100BF03B05DF804FB4E
:103CCC005800002050550020194B9B6A194A9360EC
:103CDC00174B9B6A174A5361174B1B68144A52F8CF
:103CEC002330144A1360144B5B68114A52F823308A
:103CFC00104A5360104B9B680D4A52F823300D4A02
:103D0C00D3600D4BDB680A4A52F82330094A136121
:103D1C00094B1B69064A52F82330064A9361064B3D
:103D2C005B69034A52F82330024AD36100BF7047E3
:103D3C0070000020685500205800002000B585B0A8
:103D4C0003460091ADF80630BDF806300293009B97
:103D5C00039302AB1A46002144F20200FFF72EFE39
:103D6C0000BF05B05DF804FB10B487B00190009162
:103D7C00019B009A53E8004F104643E8000191F074
:103D8C00000FF7D1059404900391059B184607B0DA
:103D9C005DF8044B704710B487B001900091019B03
:103DAC00009A53E8004F44EA020043E8000191F006
:103DBC00000FF6D1059404900391049B184607B0AC
:103DCC005DF8044B704710B487B001900091019BD3
:103DDC00009A53E8004F04EA020043E8000191F016
:103DEC00000FF6D1059404900391059B184607B07B
:103DFC005DF8044B704710B487B001900091019BA3
:103E0C00009A53E8004F04EB020043E8000191F0E4
:103E1C00000FF6D1059404900391049B184607B04B
:103E2C005DF8044B704710B487B001900091019B72
:103E3C00009A53E8004FA4EB020043E8000191F014
:103E4C00000FF6D1059404900391049B184607B01B
:103E5C005DF8044B704700B583B0019001210198C7
:103E6C00FFF799FF0346184603B05DF804FB00B555
:103E7C0083B0019000210198FFF7A5FF0346184677
:103E8C0003B05DF804FB000000B583B001900B4655
:103E9C008DF80330019B002B03D10849E820FFF774
:103EAC004DFF019BDA689DF803300199098A01FBEB
:103EBC0003F31344184603B05DF804FB10AB000089
:103ECC0000B583B001900091019B002B03D10849F0
:103EDC00F520FFF733FF009B019AD2689B1A019AD9
:103EEC00128AB3FBF2F3DBB2184603B05DF804FBA5
:103EFC0010AB000000B585B00190019B002B01D1E7
:103F0C000E234CE0019B1B68002B03D12649FF209C
:103F1C00FFF714FF019B5B68002B04D122494FF47F
:103F2C008070FFF70BFF019B9B68002B04D11E498F
:103F3C0040F20110FFF702FF019BDB68002B04D15C
:103F4C0019494FF48170FFF7F9FE019B1B8A002B76
:103F5C0004D1154940F20310FFF7F0FE019B9A685B
:103F6C00019B5B68D31A8DF80F30019B1B68019A7B
:103F7C0052681A6007E0019B1A681368591C11609B
:103F8C009DF80F201A709DF80F305A1E8DF80F20D7
:103F9C00002BF0D1019B1B6800221A7100231846DC
:103FAC0005B05DF804FB00BF10AB000000B585B098
:103FBC000190019B002B04D11C494FF49270FFF728
:103FCC00BDFE002303930020FFF796FD019B1B68A9
:103FDC001A68019B5B689A421FD9019B1B681A687F
:103FEC00013A1A601B681B7819460198FFF74CFFC1
:103FFC000390019B9A68019B1B681B68D31A8DF870
:10400C000B30019B1B681B799DF80B209A4204D93D
:10401C00019B1B689DF80B201A710020FFF780FD97
:10402C00039B184605B05DF804FB00BF10AB000005
:10403C0010B584B001900091019B002B04D1114963
:10404C0040F24710FFF77AFE009B002B04D10D497C
:10405C004FF4A470FFF772FE009B03930020FFF750
:10406C004BFD019B1B681C68621C1A60039901982C
:10407C00FFF726FF034623700020FFF751FD00BF1A
:10408C0004B010BD10AB0000044BD3F80034002B6F
:10409C0014BF01230023DBB2184670470000014017
:1040AC0000B583B000230193144B1B78002B02D076
:1040BC008523019314E0114B00229A600F4B0022D0
:1040CC005A600E4B00221A610C4B0022DA600C482D
:1040DC0001F0E0FC019001F003FD084B01221A7085
:1040EC00FFF7D2FF0346002B02D0044B01229A703B
:1040FC00019B184603B05DF804FB00BF88550020F7
:10410C005142000084B001900091019B1B68039305
:10411C0006E0039A009B9A420DD0039B1B68039305
:10412C00039B002BF5D1019B1A68009B1A60019B25
:10413C00009A1A6000E000BF04B0704784B0019090
:10414C00019B1B680393039B002B03D0039B1A68F2
:10415C00019B1A60039B184604B0704700B583B0EE
:10416C000190224B1B78002B03D12149F620FFF73D
:10417C00E5FD1E4B9B78DBB2002B12D0019B002B74
:10418C0003D0019B5B68012098470020FFF7B4FC2B
:10419C00164BDB680133154AD3600020FFF7C0FCD7
:1041AC0017E00020FFF7A8FC019B002B03D001991E
:1041BC001048FFF7A7FF0D4BDB68002B01D101F076
:1041CC00A3FC0A4BDB680133084AD3600020FFF7DD
:1041DC00A7FC064BDB68002B04D105494FF4897012
:1041EC00FFF7ACFD00BF03B05DF804FB8855002061
:1041FC0074AB00009855002000B585B003468DF8CF
:10420C0007309DF80730002B02D10C4B039301E0D3
:10421C000B4B03930398FFF791FF0290029B002B2B
:10422C0006D0029B5B689DF8072010469847F1E783
:10423C0000BF00BF05B05DF804FB00BF9055002027
:10424C009855002000B583B003468DF807309DF8D3
:10425C000730002B05D10A4B01225A700020FFF7C2
:10426C00CBFF9DF80730012B05D1054B01229A702D
:10427C000120FFF7C1FF00BF03B05DF804FB00BFD6
:10428C008855002000B583B00190019B002B03D111
:10429C000C493120FFF752FD019B9B68002B0CD081
:1042AC00019B5B69019A1069019A1168019A9268E5
:1042BC009847019B00229A6000E000BF03B05DF8B4
:1042CC0004FB00BFD0AB00000EB400B584B001906D
:1042DC00019B002B03D118494220FFF72FFD019BB6
:1042EC005B69002B03D114494320FFF727FD019B89
:1042FC001B68002B03D110494420FFF71FFD019BC5
:10430C005B68002B03D10C494520FFF717FD059B7B
:10431C00002B0AD00023039306AB039303AB1A467E
:10432C000599019800F0B0F900E000BF04B05DF809
:10433C0004EB03B0704700BFD0AB000000B583B0F6
:10434C0001900B468DF80330019B1A68019B9B680A
:10435C00581C0199886013449DF803201A70019B26
:10436C009A68019B5B689A4202D30198FFF78AFF17
:10437C0000BF03B05DF804FB00B587B00390029159
:10438C000192009300230593009B03F00103002B83
:10439C0024D00BE0029B01330293059B0133059360
:1043AC009DF8133019460398FFF7C8FF029B1B7842
:1043BC008DF813309DF81330002BEBD106E0019BE8
:1043CC00013B019320210398FFF7B8FF019A059B4D
:1043DC009A422ED9019B002BF1D12AE0029B002B93
:1043EC000BD0029805F0B0FC059006E0019B013B58
:1043FC00019320210398FFF7A1FF019A059B9A4294
:10440C000FD9019B002BF1D10BE0029B01330293DE
:10441C00059B013305939DF8133019460398FFF75C
:10442C008DFF029B1B788DF813309DF81330002BF9
:10443C00EBD100BF07B05DF804FB000000B589B0FC
:10444C000390029101920093029B07930123069320
:10445C0007E0079A019BB2FBF3F30793069B01332A
:10446C000693079A019B9A42F3D2009A069B9A42B2
:10447C0001D9009B06930B9B03F00103002B22D167
:10448C000A9B002B1FD00B9B03F00203002B06D0C2
:10449C00009B002B03D130238DF8173002E0202332
:1044AC008DF8173008E00A9B013B0A939DF81730F2
:1044BC0019460398FFF742FF0A9B002B03D0069A7C
:1044CC000A9B9A42EFD301230793009B012B03D93C
:1044DC00009B013B009309E0029A079BB2FBF3F3AC
:1044EC000493049A019B9A4200D205E0079B019A1F
:1044FC0002FB03F30793E8E7029A079BB2FBF3F383
:10450C000493049B079A02FB03F3029AD31A0293B7
:10451C00154A049B13441B7819460398FFF70EFFAA
:10452C00079A019BB2FBF3F30793079B002BE3D194
:10453C000B9B03F00103002B11D00A9B002B0ED018
:10454C0006E00A9B013B0A9320210398FFF7F6FE35
:10455C000A9B002B03D0069A0A9B9A42F1D300BF08
:10456C0009B05DF804FB00BF7CAC000000B589B05D
:10457C000590049103920293049B002BB8BF5B42FD
:10458C0006930123079307E0039B069A92FBF3F330
:10459C000693079B01330793039B069A9A42F3DA1F
:1045AC00029A079B9A4201D9029B07930A9B002B04
:1045BC000AD0049B002B04DB0B9B03F00403002BA1
:1045CC0002D00A9B013B0A930B9B03F00203002BC6
:1045DC0002D0029B002B16D00B9B03F00103002B87
:1045EC0011D10A9B002B0ED006E00A9B013B0A93CB
:1045FC0020210598FFF7A2FE0A9B002B03D0079AF7
:10460C000A9B9A42F1D3049B002B07DA049B5B4272
:10461C0004932D210598FFF791FE08E00B9B03F006
:10462C000403002B03D02B210598FFF787FE0B9B6F
:10463C0003F00203002B19D00B9B03F00103002B9A
:10464C0014D1029B002B11D10A9B002B0ED006E03B
:10465C000A9B013B0A9330210598FFF76FFE0A9BDA
:10466C00002B03D0079A0A9B9A42F1D304990B9B17
:10467C0001930A9B0093029B039A0598FFF7DEFEB9
:10468C0000BF09B05DF804FB00B58FB00590049134
:10469C000392059B002B04D1AD4940F25220FFF749
:1046AC004DFB059B5B69002B04D1A9494FF4157098
:1046BC00FFF744FB059B1B68002B04D1A44940F277
:1046CC005520FFF73BFB059B5B68002B04D1A049F1
:1046DC0040F25620FFF732FB049B002B00F0938135
:1046EC00049B1B788DF83730049B013304939DF8A1
:1046FC003730002B00F07E819DF83730252B40F0B1
:10470C006D8100230A9301230C93049B1B788DF875
:10471C0037309DF83730302B0DD0302B1BDC2B2B4A
:10472C0011D02D2B17D10A9B43F001030A93049B44
:10473C000133049312E00A9B43F002030A93049B97
:10474C00013304930AE00A9B43F004030A93049B8D
:10475C000133049302E000230C9300BF0C9B002B4D
:10476C00D3D1002309939DF837302A2B0CD1039B0E
:10477C001B68191D039A11601B68099A134409934D
:10478C00049B013304931AE0049B1B788DF837309B
:10479C009DF837302F2B12D99DF83730392B0ED886
:1047AC00049B01330493099A13469B0013445B004A
:1047BC001A469DF837301344303B0993D3E7002356
:1047CC000B93049B1B788DF837309DF837302E2BCC
:1047DC001DD1049B01330493049B1B788DF8373057
:1047EC009DF837302F2B12D99DF83730392B0ED836
:1047FC00049B013304930B9A13469B0013445B00F8
:10480C001A469DF837301344303B0B93E4E7049B76
:10481C001B788DF837309DF837306C2B03D09DF812
:10482C003730682B07D1049B01330493049B1B780E
:10483C008DF83730EFE79DF83730252B00F0C4802A
:10484C00252BC0F2C680782B00F3C380582BC0F206
:10485C00C080583B202B00F2BC8001A252F823F000
:10486C0061490000DF490000DF490000DF4900001A
:10487C00DF490000DF490000DF490000DF4900008C
:10488C00DF490000DF490000DF490000F14800006B
:10489C0013490000DF490000DF490000DF49000038
:1048AC00DF49000013490000DF490000DF49000028
:1048BC00DF490000DF490000DF490000DF4900004C
:1048CC00A1490000DF490000DF49000085490000D4
:1048DC00DF49000037490000DF490000DF490000D4
:1048EC0061490000039B1B68191D039A11601B682A
:1048FC000C930C9B8DF81F309DF81F3019460598B2
:10490C00FFF71CFD66E0039B1B68191D039A1160E1
:10491C001B680C930A9B0193099B00930B9B0A2227
:10492C000C990598FFF722FE54E0039B1B68191D98
:10493C00039A11601B680C930C990A9B0193099BB9
:10494C0000930B9B0A220598FFF778FD42E000BF0D
:10495C0024AC0000039B1B68191D039A11601B6893
:10496C000C930C990A9B0193099B00930B9B1022AF
:10497C000598FFF763FD2DE0039B1B68191D039A37
:10498C0011601B6808930A9B099A08990598FFF710
:10499C00F3FC1FE0039B1B68191D039A11601B6835
:1049AC000C9330210598FFF7C9FC78210598FFF787
:1049BC00C5FC0C99002301930823009308231022B3
:1049CC000598FFF73BFD05E025210598FFF7B6FCA0
:1049DC0000E000BF049B0133049305E09DF83730E1
:1049EC0019460598FFF7AAFC049B1B78002B7FF453
:1049FC0077AE00E000BF059B1B7B002B04D0059815
:104A0C00FFF740FC00E000BF0FB05DF804FB00BFF7
:104A1C0000B583B001900198FFF76CFA0346184675
:104A2C0003B05DF804FB00B58BB001900091019BC5
:104A3C001B8A043B0793009A079B1344DA1C079BC1
:104A4C00B2FBF3F38DF81B300198FFF7AFFA05902A
:104A5C00059B002B01D1002338E0059B00221A7125
:104A6C00059B01225A71079B9AB2059BDA80059B24
:104A7C0009939DF81B30013B0493099B019A1A6022
:104A8C00002308931DE00198FFF790FA0390039B15
:104A9C00002B0ED0059B5B790133DAB2059B5A7162
:104AAC00099B039A1A60039B019A1A60039B099352
:104ABC0004E0059800F00EF8002307E0089B013392
:104ACC000893089A049B9A42DDD3059B18460BB0B9
:104ADC005DF804FB00B58BB00190019B0793079B1D
:104AEC005B798DF81B30019B08939DF81B30013BC3
:104AFC0005930023099305E0089B1B680893099B09
:104B0C0001330993099A059B9A42F5D3089B1B68BC
:104B1C000493019B0893002309930BE0089B1B68EB
:104B2C00039308990498FFF783FA039B0893099B56
:104B3C00013309939DF81B30099A9A42EED300BFBA
:104B4C0000BF0BB05DF804FB00B585B00190019B74
:104B5C000393039B043301211846FFF74CF900BF64
:104B6C0005B05DF804FB00B587B00190019B05937F
:104B7C00059B043301211846FFF755F903460393AF
:104B8C0003AB0493049B1B78002B02D10198FFF715
:104B9C00A1FF00BF07B05DF804FB000000B591B0A9
:104BAC000390029101920093039B002B03D1434984
:104BBC00B620FFF7C3F8039B0993039B0F93099B44
:104BCC00DB881A46099B5B7902FB03F3043B0893D1
:104BDC00009A089B9A4203D33849C420FFF7AEF8D9
:104BEC00099BDB880793009B1A1D079BB2FBF3F311
:104BFC000E93009B0433079AB3FBF2F2079901FB67
:104C0C0002F29B1A0D93019B1A68009B1344089A9D
:104C1C009A4203D2089A009BD31A01E0019B1B68AD
:104C2C000C93019B0C9A1A6005E00F9B1B680F9369
:104C3C000E9B013B0E930E9B002BF6D100230B9386
:104C4C00079A0D9BD31A0A930A9A0C9B934228BF7E
:104C5C0013460A932AE0029A0B9B134406930F9A6D
:104C6C000D9B1344043305939DF84830002B05D05D
:104C7C000A9A0599069805F097F804E00A9A06999D
:104C8C00059805F091F800230D930F9B1B680F936B
:104C9C000C9A0A9BD31A0C930B9A0A9B13440B93F2
:104CAC00079A0C9B934228BF13460A930C9B002B2C
:104CBC00D1D100BF00BF11B05DF804FB8CAC00007B
:104CCC0000B589B00590049103920293039B07935E
:104CDC0007AA00230093029B04990598FFF75EFF37
:104CEC00079B039A9A4203D00349F620FFF726F854
:104CFC0000BF09B05DF804FB8CAC000000B589B0B6
:104D0C000590049103920293039B079307AA012336
:104D1C000093029B04990598FFF740FF079B039AA9
:104D2C009A4204D004494FF48070FFF707F800BF93
:104D3C0009B05DF804FB00BF8CAC000082B00190A0
:104D4C00019B9B68024A12781344184602B07047C4
:104D5C0041AD000000B583B001900091019B002B88
:104D6C0003D108498320FEF7E9FF019B9B68009A59
:104D7C009A4202D2009B013300E00023184603B094
:104D8C005DF804FBE8AC000000B585B00190019B18
:104D9C001B681B680393019B1B685B680293029A58
:104DAC00039B9A4203D3029A039BD31A07E0019800
:104DBC00FFF7C4FF0246039BD21A029B134418460A
:104DCC0005B05DF804FB000000B585B00190019BB7
:104DDC00002B03D10D499820FEF7B0FF019B1B68F7
:104DEC001B680393019B1B685B68029302990198F3
:104DFC00FFF7B0FF0246039B93420CBF0123002335
:104E0C00DBB2184605B05DF804FB00BFE8AC00004F
:104E1C0010B586B00190009100230593019B002BE7
:104E2C0003D15249A320FEF789FF009B002B03D12D
:104E3C004E49A420FEF782FF0020FEF75DFE01988C
:104E4C00FFF7C2FF03468DF813309DF8133083F043
:104E5C000103DBB2002B03D1019B1B7C002B7AD10D
:104E6C00019B1B685B680393019B1B685A68019B41
:104E7C001C6811460198FFF76DFF034663609DF8AF
:104E8C001330002B0AD0019B1B681A68019B1C680D
:104E9C0011460198FFF75EFF03462360019BDB6818
:104EAC00013B072B37D801A252F823F0D94E000052
:104EBC00E94E0000234F0000FB4E0000234F000082
:104ECC00234F0000234F00000D4F0000019B5A6838
:104EDC00039B1344009A12781A702DE0019B5A68B8
:104EEC00039B5B001344009A12881A8024E0019BF8
:104EFC005A68039B9B001344009A12681A601BE0CB
:104F0C00019B5A68039BDB00D118009BD3E900235B
:104F1C00C1E9002310E0019B5B681946019BDB682B
:104F2C00039A02FB03F30B441846019BDB681A46F9
:104F3C00009904F039FF00BF0198FFF725FF02909C
:104F4C00019B1B689B68029A9A4207D9019B1B68BC
:104F5C00029A9A6002E00423059300E000BF00204F
:104F6C00FEF7DEFD059B184606B010BDE8AC000050
:104F7C0010B586B00390029113468DF807300023CC
:104F8C000593039B002B03D14249E720FEF7D6FE85
:104F9C00029B002B03D13F49E820FEF7CFFE0020F7
:104FAC00FEF7AAFD039800F077F8034683F001039F
:104FBC00DBB2002B64D0039B1B681B6804939DF829
:104FCC00073083F00103DBB2002B0AD0039B1B6874
:104FDC001A68039B1C6811460398FFF7BBFE034637
:104FEC002360039BDB68013B072B38D801A252F8E6
:104FFC0023F000BF21500000315000006B50000026
:10500C00435000006B5000006B5000006B500000D0
:10501C0055500000039B5A68049B13441A78029B5A
:10502C001A702FE0039B5A68049B5B0013441A8888
:10503C00029B1A8026E0039B5A68049B9B00134436
:10504C001A68029B1A601DE0039B5A68049BDB00E4
:10505C001344D3E900230299C1E9002312E0039B16
:10506C005B681946039BDB68049A02FB03F30B4451
:10507C001946039BDB681A46029804F095FE01E082
:10508C00052305930020FEF74BFD059B184606B043
:10509C0010BD00BFE8AC000000B585B00190019BCD
:1050AC00002B04D10B4940F22B20FEF747FE019B4D
:1050BC001B681B680393019B1B685B680293039A34
:1050CC00029B9A420CBF01230023DBB2184605B0A9
:1050DC005DF804FBE8AC000082B00190019B9B687A
:1050EC0000229A60019B9B6800221A61019B9B68BD
:1050FC0000225A61019B9B680022DA60019B9B682D
:10510C0000225A60019B9B6800221A6000BF02B00B
:10511C007047000000B585B00190019800F00EF8C2
:10512C000390039B002B01D0039B00E0024B18461D
:10513C0005B05DF804FB00BF44AD000086B00190E3
:10514C00164B0593164B04931FE0049A059BD31A38
:10515C00DB10DA0F13445B10DB00059A1344039346
:10516C00039B1B680293029A019B9A4202D9039BF0
:10517C0004930AE0029A019B9A4203D2039B0833E0
:10518C00059302E0039B5B6804E0059A049B9A423A
:10519C00DBD30023184606B0704700BF2CB10000CB
:1051AC004CB2000000B583B00190019B043318464B
:1051BC00FDF7B0FE00BF03B05DF804FB00B583B093
:1051CC000190019B04331846FDF7F2FE00BF03B0BB
:1051DC005DF804FB00B591B003900291019200239D
:1051EC000F93029B1B788DF82830029B5B788DF80F
:1051FC002930029B9B780B93029BDB780C93029BD0
:10520C005B680D93029B9B680E93039B04330AA966
:10521C00019A1846FEF76AF90F900F9B184611B0C9
:10522C005DF804FB82B00190019B1B681B68002B8E
:10523C000CBF01230023DBB2184602B070470000FC
:10524C0000B58DB00190019B002B03D1474937204D
:10525C00FEF774FD019B1B680A930A9B1B7E8DF85D
:10526C0027300A9B1B689A689DF82730DB00134493
:10527C000893089B5B795B088DF81F309DF81F30F5
:10528C008DF80D30089B1B680493089B1B798DF8D7
:10529C000E30089B9B7903F00103002B47D0089B31
:1052AC005B7903F00103002B41D19DF827300133CA
:1052BC000A9A1268127B934239DA089B5B795B0875
:1052CC00DAB20A9B1B6899689DF827300133DB0022
:1052DC000B445B795B08DBB29A4228D10A9B1B68B2
:1052EC009A689DF827300133DB0013440693069B24
:1052FC001B680593069B1B798DF80F30069B5B7919
:10530C0003F00103002B01D0022300E003238DF8EE
:10531C000C30069B9B795B0103F020030B930A9BDB
:10532C001B7EDBB20133DAB20A9B1A7611E0089BC2
:10533C005B7903F00103DBB28DF80C30002305938D
:10534C0000238DF80F30089B9B795B0103F0200341
:10535C000B93019B083303A90B9A1846FFF73AFFEE
:10536C00034618460DB05DF804FB00BF4CB20000BC
:10537C0000B585B001900091019B002B03D10D4924
:10538C007120FEF7DBFC019B1B681B681B68002B64
:10539C000BD0019B1B681B685B680393019B1B680C
:1053AC001B681B6803990098984700BF05B05DF80F
:1053BC0004FB00BF4CB2000000B589B001900B4655
:1053CC008DF80330019B002B03D13E498720FEF75B
:1053DC00B5FC019B1B68069300238DF81F30002041
:1053EC00FEF78AFB9DF80330002B05D10198FFF7DF
:1053FC0019FF0346002B10D0019B5B680699002215
:10540C001846FFF7B5FD0346002B03D101238DF899
:10541C001F3002E0069B00221A600020FEF780FB82
:10542C009DF81F3083F00103DBB2002B44D1069BA7
:10543C001B681B69002B02D1069B043302E0069B00
:10544C001B681B690593069B5B691022059918461E
:10545C0004F010FD0346002B1CD0019B08331846AA
:10546C00FFF7A0FE019B03F10800019B164A05996A
:10547C00FDF7EEF80490049B002B03D01149B420E7
:10548C00FEF75CFC019B08331846FFF797FE069B62
:10549C00059A5A61069B00221A760198FFF7D0FEF6
:1054AC000390039B002B09D003990198FFF760FF31
:1054BC0001238DF803308FE700BF00E000BF09B077
:1054CC005DF804FB4CB20000D954000000B587B065
:1054DC0001900091019B002B03D12049D220FEF7B3
:1054EC002DFC009B0493049B1B681B68002B03D1B1
:1054FC001A49D820FEF722FC019B1B78002B20D1E7
:10550C0000230593049B1B681B7E8DF80F309DF8C0
:10551C000F3001338DF80F30049B1B681B681B7B0D
:10552C009DF80F209A420ED2049B1B689DF80F2009
:10553C001A760498FFF784FE0590059B002B02D188
:10554C0009E00323059305990498FFF711FF012146
:10555C000498FFF731FF07B05DF804FB4CB2000074
:10556C0010B584B001900091019B002B04D125490A
:10557C004FF48470FEF7E2FB019B5B68002B04D1B7
:10558C00204940F20910FEF7D9FB019B5B689B6830
:10559C00002B04D11B494FF48570FEF7CFFB009B09
:1055AC00002B04D1174940F20B10FEF7C7FB019BEF
:1055BC0003F10800019B144A0099FDF749F8039088
:1055CC00039B0293029B002B01D0029B17E0019BD3
:1055DC0008331846FFF7F2FD019B1B6800221A6086
:1055EC00019B1B68009A1C1D13460FCB84E80F000F
:1055FC00019B1A68019B1B6804325A6100231846F0
:10560C0004B010BD4CB20000D954000000B585B0F8
:10561C0001900091019B002B04D11A4940F22D10EE
:10562C00FEF78CFB009B002B04D116494FF49770AE
:10563C00FEF784FB009B9B68002B04D1114940F2C0
:10564C002F10FEF77BFB009B1B7B002B04D10D491D
:10565C004FF49870FEF772FB00230393019B5B6879
:10566C006A4611461846FFF7D3FB0390039B002BA9
:10567C0003D100210198FFF79FFE039B184605B04C
:10568C005DF804FB4CB2000000B583B00190019BA7
:10569C005B681846FEF72EFC0346184603B05DF80F
:1056AC0004FB00B585B001900091009B0393039B14
:1056BC00D3F8A0305B6800991846FEF7B9FC00BF20
:1056CC0005B05DF804FB000000B58FB003900192AB
:1056DC001A460B468DF80B3013468DF80A30039B97
:1056EC00002B03D13D498E20FEF728FB019B002B9C
:1056FC0003D13A498F20FEF721FB039B5B681846C8
:10570C00FEF754FC0C900C9B002B01D1042360E0A1
:10571C000C9B039AC3F8A0209DF80B305B00D9B208
:10572C000C9B019AC3F884200C9B9DF80A2083F8EB
:10573C0088200C9B0A4683F889200C9B002283F856
:10574C008A209DF84030002B16D09DF80A30812B12
:10575C0007D9039B5B680C991846FEF769FC092373
:10576C0037E00C9B9DF80A200199184604F01CFBAD
:10577C000C9A0C9BC3F884200C9B03F184010C9BAA
:10578C008C3300221A605A609A60DA601A610C9BA2
:10579C00134AC3F88C200C9B0C9AC3F890200C9BDA
:1057AC00C3F894100C9B012283F89820039B1A6871
:1057BC000C9B8C3319461046FFF728FF0D900D9B60
:1057CC00002B05D0039B5B680C991846FEF730FC48
:1057DC000D9B18460FB05DF804FB00BFB8B200007B
:1057EC00AF56000000B5A9B0059003930B468DF899
:1057FC00133013468DF81230059B002B03D117493B
:10580C00CB20FEF79BFA039B002B03D11349CC2032
:10581C00FEF794FA9DF8A830802B01D9092318E0E3
:10582C009DF812308DF81C309DF8A82007AB013381
:10583C000399184604F0B8FA9DF8A8300133DBB28E
:10584C0007AA9DF81310012000900598FFF73CFF64
:10585C000346184629B05DF804FB00BFB8B200003F
:10586C0082B003468DF807309DF90730002B0CDB16
:10587C009DF8073003F01F0205499DF907305B09BD
:10588C00012000FA02F241F8232000BF02B0704759
:10589C0000E100E082B0034600918DF807309DF9DD
:1058AC000730002B0ADB009BDAB20C499DF907305C
:1058BC005201D2B20B4483F800230BE0009BDAB206
:1058CC0007499DF8073003F00F03043B5201D2B295
:1058DC000B441A7600BF02B0704700BF00E100E035
:1058EC0000ED00E082B00190019B1B0B5BB21846EF
:1058FC0002B0704700B583B003460A468DF80730F6
:10590C0013468DF806309DF80630072B03D908494D
:10591C006B20FEF713FA9DF806209DF9073011460F
:10592C001846FFF7B7FF00BF03B05DF804FB00BFDC
:10593C001CB3000000B583B003468DF807309DF909
:10594C0007301846FFF78CFF00BF03B05DF804FB6F
:10595C0082B003468DF807300F4A9DF90730002BB3
:10596C0000DA1F335B115BB252F823209DF907302C
:10597C00594203F01F0301F01F0158BF4B425BB2A9
:10598C0022FA03F303F00103002B14BF01230023BD
:10599C00DBB2184602B0704700E100E082B0019023
:1059AC004FF08042019BC2F8043300BF02B0704735
:1059BC0082B001904FF08042019BC2F8083300BFC7
:1059CC0002B0704782B003468DF807309DF807305F
:1059DC0003F1804301221A6000BF02B0704784B00B
:1059EC000346ADF80630BDF8063003F180430022C3
:1059FC001A60BDF8063003F180431B680393039BC8
:105A0C0000BF04B0704782B00346ADF80630BDF855
:105A1C00063003F180431B68002B14BF01230023C5
:105A2C00DBB2184602B0704782B001904FF0804252
:105A3C00019BC2F8183500BF02B0704700B583B0A7
:105A4C0006238DF807304FF08040FFF74BFF0346DD
:105A5C001846FFF77DFF034683F00103DBB2002BF2
:105A6C0013D04FF08040FFF73DFF03461A469DF8D8
:105A7C00073019461046FFF73DFF4FF08040FFF707
:105A8C0031FF03461846FFF755FF00BF03B05DF822
:105A9C0004FB000000B585B00190019B002B03D1E5
:105AAC000D49A420FEF74AF9002303930B4B1B79F5
:105ABC00002B02D08523039308E0084A019B136056
:105ACC00064B01221A71054B00225A71039B184692
