:020000022000DC
:1070000000000420197202000172020003720200E3
:1070100005720200077202000972020000000000FF
:107020000000000000000000000000000B720200E1
:107030000D720200000000000F72020011720200C7
:10704000096E030013720200A97B0300F58D030093
:107050000D8E030013720200A17A03001372020066
:107060001372020013720200137202001372020004
:1070700013720200137202001372020013720200F4
:10708000137202009963030013720200137202006C
:107090001372020013720200990C040013720200B2
:1070A00013720200137202001372020013720200C4
:1070B00013720200137202000000000000000000C2
:1070C00013720200137202001372020013720200A4
:1070D0001372020013720200137202001372020094
:1070E000137202001372020013720200000000000B
:1070F0000000000013720200000000001372020082
:10710000000000000000000000000000000000007F
:10711000000000000000000000000000000000006F
:10712000000000000000000000000000000000005F
:10713000000000000000000000000000000000004F
:10714000000000000000000000000000000000003F
:10715000000000000000000000000000000000002F
:10716000000000000000000000000000000000001F
:10717000000000000000000000000000000000000F
:1071800000000000000000000000000000000000FF
:1071900000000000000000000000000000000000EF
:1071A00000000000000000000000000000000000DF
:1071B00000000000000000000000000000000000CF
:1071C00000000000000000000000000000000000BF
:1071D00000000000000000000000000000000000AF
:1071E000000000000000000000000000000000009F
:1071F000000000000000000000000000000000008F
:10720000FEE7FEE7FEE7FEE7FEE7FEE7FEE7FEE756
:10721000FEE7FEE700F002B8FFF7FCBF0F484FF0B3
:107220000701884385460E4880470E48016841F4AF
:1072300070010160BFF34F8FBFF36F8F00F01AB87A
:1072400009480A490A4A884207D0521A05D00378E9
:1072500001300B700131013AF9D170470000042070
:1072600049B2020088ED00E0E81904006022002025
:1072700074220020344935480A1A02D0072291436B
:107280008D46334933480A1A06D00722914381F3C9
:107290000988022282F314882F483049304A00F0CE
:1072A00041F830483049314A00F03CF83048314923
:1072B000314A00F037F831483149324A00F032F8AB
:1072C00031483249324A00F02DF832483249334AC7
:1072D00000F028F832483349334A00F023F83348A5
:1072E0003349002200F029F832483349002200F0E7
:1072F00024F832483249091A1AF06AFA314A90479A
:107300001F482049884205D00268043003B49047E2
:1073100003BCF7E700208646EC46002000212A4AFD
:107320009047FEE7884207D0521A05D00378013013
:107330000B700131013AF9D17047884202D00270D6
:107340000130FAE7704700000000042000E003204D
:1073500000000420000004201464040074220020B3
:107360007C2A0020CC730200CC730200E4170400D6
:10737000146404007422002074220020FC1904000C
:10738000FC190400FC190400FC190400FC19040099
:10739000FC190400FC190400FC1904001164040029
:1073A0001C6C04007C2A00207C2A00207C2A0020FF
:1073B000D8960020D8960020D8960020D896002095
:0C73C000D8B6002041720200259902009E
:1073CC0076DF704700BF18467ADF704700BF18465B
:1073DC007CDF704700BF18468FDF704700BF184630
:1073EC0033DF704700BF184600B585B00190019B94
:1073FC00002B0AD0074B43F001030393019B9B0125
:10740C000293039B0298984700E000BF05B05DF81B
:10741C0004FB00BFC01F040000B583B00190019BAA
:10742C001B68184600F06DF80346002B04D10B497D
:10743C004FF4F67000F0FAFE019B1B681F2B02D86C
:10744C004FF0A04306E0019B1B6803F01F02019B59
:10745C001A60034B184603B05DF804FBFC190400DA
:10746C000003005000B585B00190084611461A463D
:10747C0003468DF803300B468DF8023013468DF819
:10748C00013001AB1846FFF7C7FF03909DF80320AE
:10749C009DF802305B001A439DF801309B001A43A3
:1074AC009DF818301B0242EA03019DF81C301B04A6
:1074BC00019A1943039B02F5E07243F8221000BFB6
:1074CC0005B05DF804FB00B585B0019001AB184622
:1074DC00FFF7A2FF0390019B012202FA03F3194666
:1074EC00039800F004F800BF05B05DF804FB82B00F
:1074FC0001900091019B009AC3F8082500BF02B0CF
:10750C00704784B00190019B5B09029300230393A5
:10751C00029B002B03D0029B012B04D007E04FF001
:10752C00FF33039303E04FF6FF73039300BF019BFC
:10753C0003F01F030193039A019B22FA03F303F058
:10754C000103002B14BF01230023DBB2184604B047
:10755C00704700B583B00190019B0433184610F0BE
:10756C00ADFF00BF03B05DF804FB00B589B005901A
:10757C0003921A460B468DF8133013468DF81230D1
:10758C0000230793059B181D9DF812209DF81310DE
:10759C009DF8283000931346039A11F089FA07904E
:1075AC00079B184609B05DF804FB00B587B0039043
:1075BC0001921A460B468DF80B3013468DF80A30A3
:1075CC0000230593039B181D9DF80A309DF80B10A2
:1075DC00019A11F095FA0590059B184607B05DF8D5
:1075EC0004FB00B583B00190019B002B0AD04FF433
:1075FC007A70FFF7F9FE019B013B0193019B002B75
:10760C00F5D100E000BF03B05DF804FB00B583B01A
:10761C000EF018FF0190019B0093009B002B04D0EF
:10762C00054A3E21009811F023FF00200EF070FF58
:10763C0000BF03B05DF804FBE41A040008B5084B66
:10764C001B68084A1360064B00221A60064B002286
:10765C001A700649AE2017F043FC00BF08BD00BFEE
:10766C00B028002094840020998400207C220020E3
:10767C0000B589B012F070FE12F0D4FE464B1B68B8
:10768C00022B40F0848040238DF81E30434B069330
:10769C0000238DF81F3076E09DF81F30404A52F8D9
:1076AC0023209DF81F303F4951F823309A4265D072
:1076BC000699212017F014FC9DF81F301A46D200B1
:1076CC00D31A5B00DBB20833DBB20699184617F00D
:1076DC0007FC9DF81F301A46D200D31A5B00DBB2B0
:1076EC001533DBB20699184617F0FAFB06992220DF
:1076FC0017F0F6FB0699032017F0F2FB069904200D
:10770C0017F0EEFB9DF81E201C230093264B3C210A
:10771C00069817F079FB05901420FFF762FF059B84
:10772C000493049B002B04D0204A6321049811F08D
:10773C009FFE9DF81F301A4A52F823309DF81E20E8
:10774C001C2100913C21069817F05EFB059014203B
:10775C00FFF747FF059B0393039B002B04D0134AB1
:10776C006B21039811F084FE9DF81F209DF81F30AB
:10777C000B4951F822200B4941F823209DF81F306A
:10778C0001338DF81F309DF81F30072B84D900BFB3
:10779C0009B05DF804FB00BFB02800207C2200205B
:1077AC00508C00207C2A002080490400E41A04003C
:1077BC0000B585B00FF04EFF0390039B0293029B24
:1077CC00002B04D0144AA121029811F051FE134A47
:1077DC006B461268114619800233120C1A7003237F
:1077EC008DF801306B460E4A194613200FF0A2FF9C
:1077FC000390039B0193019B002B04D0064AA82104
:10780C00019811F035FE0121132010F00FF800BF84
:10781C0005B05DF804FB00BFE41A0400801B0400F3
:10782C00B180020082B001900091019B1B78002B6B
:10783C0003D1044B01221A7000E000BF00BF02B05C
:10784C00704700BF9084002000B589B002AB0022C5
:10785C001A605A609A60DA600F2302930E23039326
:10786C004FF0CC73049302238DF8143002A900233B
:10787C00144A15480FF0E6F80790079B0693069BF1
:10788C00002B04D0114ACA21069811F0F1FD0E48C4
:10789C00FFF75FFE002301930723009303230022CD
:1078AC0000210E20FFF7DEFD002301930723009338
:1078BC000323002200210F20FFF7D4FD00BF09B0E5
:1078CC005DF804FB31780200741F0400E41A040014
:1078DC0000B58BB003AB00221A605A609A60DA6074
:1078EC00022303931F2304934FF0CC7305930223BD
:1078FC008DF8183003AB1946194817F043F9099065
:10790C00099B0893089B002B04D0164AE221089887
:10791C0011F0AEFD144817F0C9F90990099B0793B3
:10792C00079B002B04D00F4AE421079811F0A0FD0F
:10793C0000230193072300930323002200211F201F
:10794C00FFF790FD002301930723009303230022EC
:10795C0000210220FFF786FD00BF0BB05DF804FB91
:10796C00841F0400E41A04007C22002000B5C7B078
:10797C0046ABA3F588731960114646ABA3F2091305
:10798C0002461A7046ABA3F586730A461A8046ABBC
:10799C00A3F5847300221A600433FB2200211846DD
:1079AC0019F0BCFE46ABA3F5847346AAA2F20912E9
:1079BC0012781A7046ABA3F58673198846ABA3F5FB
:1079CC00887304AA501C0A46196819F071FE164BEC
:1079DC0000221A7046ABA3F586731B88DBB2013309
:1079EC00DBB204AA0021009139211048FFF7BDFD3C
:1079FC004590459B4493449B002B05D00C4A4FF477
:107A0C008271449811F034FD00BF074B1B78DBB238
:107A1C0083F00103DBB2002BF7D1459B5BB2184618
:107A2C0047B05DF804FB00BF90840020741F040075
:107A3C00E41A040000B589B0034602918DF80F30AA
:107A4C001346ADF80C30234B00221A700DF10F02C7
:107A5C0001230093012339211F48FFF786FD07906E
:107A6C00079B0693069B002B05D01C4A40F2151170
:107A7C00069811F0FDFC00BF164B1B78DBB283F0AF
:107A8C000103DBB2002BF7D1124B00221A70BDF8A8
:107A9C000C30DBB2029A39210F48FFF786FD0790B4
:107AAC00079B0593059B002B05D00C4A4FF48D7159
:107ABC00059811F0DDFC00BF064B1B78DBB283F0A0
:107ACC000103DBB2002BF7D1079B5BB2184609B060
:107ADC005DF804FB90840020741F0400E41A040079
:107AEC0000B585B0019001220199AF20FFF7A2FFEC
:107AFC0003468DF80F309DF80F30002B01D1012378
:107B0C0000E00023184605B05DF804FB00B585B015
:107B1C00019001220199AE20FFF78CFF03468DF8EE
:107B2C000F309DF80F30002B01D1012300E0002312
:107B3C00184605B05DF804FB00B583B00DF10703E2
:107B4C001846FFF7CDFF034683F00103DBB2002B91
:107B5C0002D04FF0FF3318E09DF8073003F001031B
:107B6C00002B02D16FF001030FE00DF10703184653
:107B7C00FFF7CCFF034683F00103DBB2002B02D0EE
:107B8C006FF0020301E09DF80730184603B05DF872
:107B9C0004FB00B585B001900091009B9BB21A4686
:107BAC000199FC20FFF746FF03468DF80F309DF836
:107BBC000F30002B01D0FF23FFE7184605B05DF80E
:107BCC0004FB000000B5A9B01E232693FFF7B4FFF9
:107BDC002590259B002B01DC0023BBE0259B9A0004
:107BEC0001AB11461846FFF7D4FF03468DF89330CE
:107BFC0000232793A7E001AA279B13441B788DF839
:107C0C009230279B0133A0336B4413F89C3C8DF8C6
:107C1C009130279B0233A0336B4413F89C3C8DF8B6
:107C2C009030279B0333A0336B4413F89C3C8DF8A6
:107C3C008F309DF89230269A9A4262DD9DF89130F1
:107C4C00269A9A425DDD9DF89030269A9A4258DD2C
:107C5C009DF88F30269A9A4253DD404B01221A70C0
:107C6C003F4B1B68002B03D13E4B1B68002B66D08F
:107C7C003B4B1A683C4B1B68D31A2293394B1A683E
:107C8C003A4B1B68D31A2193394A3A4BD31ADB0867
:107C9C001B0443F00300229A219B374917F06DFF18
:107CAC0000F082FA354B1B685B42229A9A4202DA48
:107CBC00334B02221A60314B1B68229A9A4202DD26
:107CCC002F4B03221A602D4B1B685B42219A9A4260
:107CDC0002DA2B4B01221A60284B1B68219A9A421C
:107CEC0002DD274B00221A601F4B00221A601F4B2B
:107CFC0000221A601A4B00221A601A4B00221A60DA
:107D0C001DE09DF88F209DF89030D31A164A136011
:107D1C009DF892209DF89130D31A144A13600F4BA2
:107D2C001B78002B0CD00D4B00221A700E4B1B68CD
:107D3C000B4A13600D4B1B680A4A136000E000BF2E
:107D4C00279B04332793279BDA1C259B9B009A4285
:107D5C00FFF651AF184629B05DF804FB9C2A0020B1
:107D6C00A82A0020AC2A0020A02A0020A42A002047
:107D7C0010190400E0180400841B04007422002075
:107D8C007822002000B591B08F238DF807300DF1CB
:107D9C00070301221946A620FFF7E8FD03468DF8DC
:107DAC003F309DF93F300E930E9B002B05D0BC4A03
:107DBC0040F2AD110E9811F05BFB0DF1070301229F
:107DCC001946A220FFF736FE03468DF83F309DF88A
:107DDC00073063F03F03DBB28DF807300DF107037A
:107DEC0001221946A220FFF7C1FD03468DF83F3052
:107DFC009DF93F300D930D9B002B05D0A84A40F206
:107E0C00B3110D9811F034FB2A238DF807300DF1C6
:107E1C00070301221946A320FFF7A8FD03468DF89E
:107E2C003F309DF93F300C930C9B002B05D09C4AA6
:107E3C004FF4DC710C9811F01BFB0DF107030122C0
:107E4C001946AA20FFF7F6FD03468DF83F309DF842
:107E5C00073023F00303DBB28DF807309DF93F3078
:107E6C000B930B9B002B05D08D4A40F2BD110B9848
:107E7C0011F0FEFA0DF1070301221946AA20FFF7B3
:107E8C0075FD03468DF83F309DF93F300A930A9BF0
:107E9C00002B05D0824A40F2BF110A9811F0E8FA83
:107EAC000DF1070301221946AB20FFF7C3FD034672
:107EBC008DF83F309DF93F30002B01D00023EAE0D4
:107ECC009DF8073023F00103DBB28DF807300DF17C
:107EDC00070301221946AB20FFF748FD03468DF836
:107EEC003F309DF93F300993099B002B05D06C4A1C
:107EFC004FF4E371099811F0BBFA04238DF80730A5
:107F0C000DF10703012219468F20FFF72FFD0346C1
:107F1C008DF83F309DF93F300893089B002B05D01E
:107F2C005F4A40F2CB11089811F0A2FA00238DF8A9
:107F3C0007300DF10703012219468920FFF716FDC2
:107F4C0003468DF83F309DF93F300793079B002B7C
:107F5C0005D0534A4FF4E871079811F089FA32238F
:107F6C008DF807300DF10703012219468B20FFF71E
:107F7C00FDFC03468DF83F309DF93F300693069B80
:107F8C00002B05D0464A4FF4EA71069811F070FAAE
:107F9C00A0238DF807300DF10703012219468C2020
:107FAC00FFF7E4FC03468DF83F309DF93F30059315
:107FBC00059B002B05D03A4A40F2D911059811F0D7
:107FCC0057FA0DF1070301221946E520FFF732FDA0
:107FDC0003468DF83F309DF93F300493049B002BF2
:107FEC0005D02F4A40F2DD11049811F041FA0DF141
:107FFC00070301221946A220FFF71CFD03468DF84A
:10800C003F309DF93F30002B01D0002343E09DF819
:10801C00073023F01F03DBB28DF807300DF1070397
:10802C0001221946A220FFF7A1FC03468DF83F3030
:10803C009DF93F300393039B002B05D0184A4FF456
:10804C00F271039811F014FA00238DF807300DF13A
:10805C00070301221946A120FFF788FC03468DF87F
:10806C003F3025238DF807300DF107030122194607
:10807C008020FFF77BFC03468DF83F309DF93F30A5
:10808C000293029B002B05D0054A40F2EB1102989B
:10809C0011F0EEF90123184611B05DF804FB00BF96
:1080AC00E41A040000B587B001900B468DF803303C
:1080BC00334B01221A70334A334BD31ADB081B049F
:1080CC0043F003033149184617F038FD304B0122B9
:1080DC001A70304B1B68002B16D12F4B1B682D4A86
:1080EC0013602E4B00221A702A4B1B68012B02D1F5
:1080FC002B4817F03DF8C820FFF773FA2849AF203A
:10810C0016F0EEFE00F050F801238DF80B300DF157
:10811C000B0301221946AB20FFF728FC03460593FD
:10812C0045238DF80B300DF10B03012219468020ED
:10813C00FFF71CFC03460593059B0493049B002B43
:10814C0005D0184A40F20321049811F091F90DF171
:10815C000B0301221946E720FFF76CFC034605933D
:10816C00059B0393039B002B06D00E4A40F205217E
:10817C00039811F07DF900BF00BF07B05DF804FB58
:10818C00A384002010190400E0180400901B0400C4
:10819C009A840020B0280020948400209884002029
:1081AC007C220020E41A040000B585B01B4B1B7820
:1081BC00002B23D01A4B184611F076FF0390039B2B
:1081CC000293029B002B05D0164A40F263210298C1
:1081DC0011F04EF9124B144A4FF4A031184611F01D
:1081EC000BFF0390039B0193019B002B11D00D4AB5
:1081FC0040F26521019811F03BF90AE0084B0A4A5C
:10820C004FF4A031184611F0F7FE0390034B0122F6
:10821C001A7000BF05B05DF804FB00BF9984002004
:10822C0088220020E41A04004976020000B583B0CD
:10823C0003460091ADF80630BDF80630009A194699
:10824C00034811F015F900BF03B05DF804FB00BF43
:10825C00EFBEADDE00B585B001900091009B1B68B0
:10826C00082B28BF082302934FF6FF700AF0A6FBD9
:10827C000346ADF80E30009B00221A6012E0009B02
:10828C001B68591C009A11605B00019A1344BDF8DD
:10829C000E201A80BDF80E3018460AF08FFB0346EC
:1082AC00ADF80E30BDF80E304FF6FF72934204D08D
:1082BC00029B5A1E0292002BE1D100BF05B05DF863
:1082CC0004FB000000B583B00AF0BEFB0190019BDB
:1082DC000093009B002B05D0044A40F2AF2100987C
:1082EC0011F0C6F800BF03B05DF804FBE41A0400FB
:1082FC0000B587B003468DF807309DF80730002B8A
:10830C0002D0FFF7DFFF43E010224FF6FF71224847
:10831C0019F004FA214B08221A6020491E48FFF775
:10832C0099FF1E4B1B6819461B480AF0CBFA0590A7
:10833C00059B0493049B002B05D0194A40F2C621DF
:10834C00049811F095F8154B1B68194612480AF061
:10835C0001FB0590059B062B0AD0059B0393039B01
:10836C00002B05D00E4A40F2CD21039811F080F875
:10837C0003210C4804F0A0F90590059B0293029B85
:10838C00002B05D0064A40F2D121029811F070F86A
:10839C0000BF07B05DF804FBA4840020B484002067
:1083AC00E41A0400C87D002000B587B00190019844
:1083BC000AF052FE01980BF0F1F901980AF0B0FEA8
:1083CC00019B1B780D2B1DD00D2B60DC032B02D0D9
:1083DC00092B1BD05BE0019B9A88314B1A80019BC7
:1083EC005B8819462F4805F081FF0590059B029389
:1083FC00029B002B4DD02C4A40F2EA21029811F03E
:10840C0037F846E00020FFF773FF45E0019B1B7C2B
:10841C0003F00103DBB2002B3DD0019B1B7A072B31
:10842C0039D1224B1B68072B35D8204B1B685A1CA3
:10843C001E490A601A4A11881D4A22F813101B4B58
:10844C001B6819461A480AF085FA0590059B062BFD
:10845C000AD0059B0493049B002B05D0124A40F2D2
:10846C000631049811F004F8104B1B68194610489B
:10847C000AF028FA0590059B0393039B002B0AD066
:10848C00094A40F20A31039810F0F2FF03E000BFF2
:10849C0002E000BF00E000BF00BF07B05DF804FBC6
:1084AC009E840020C8220020E41A0400B48400201A
:1084BC00A484002000B583B00190054A40F21B3122
:1084CC00019810F0D5FF00BF03B05DF804FB00BFAE
:1084DC00E41A040000B583B011F016FD0190019B65
:1084EC000093009B002B05D0044A4FF46471009854
:1084FC0010F0BEFF00BF03B05DF804FBE41A0400EB
:10850C0070B58AB005900491049B1B78042B00F283
:10851C00F58001A252F823F039850200858502000E
:10852C00D1850200E9850200F1860200764A774B7C
:10853C00D31ADB081B0443F003037549184617F0E4
:10854C00FDFA049B5988049B04331A4671480DF0BC
:10855C0085F90990099B0793079B002B05D06E4A60
:10856C0040F2A631079810F083FF6A4800F040FBF8
:10857C0005980DF041F9C4E0634A644BD31ADB084B
:10858C001B0443F003036549184617F0D7FA049B04
:10859C005B884FF6FF72934200F0B280049B5B88BD
:1085AC0013211846FEF70CFF0990099B0893089BB2
:1085BC00002B00F0A580584A40F2B731089810F013
:1085CC0057FF9DE0504A514BD31ADB081B0443F074
:1085DC0003035349184617F0B1FA92E04A4A4B4B41
:1085EC00D31ADB081B0443F003034E49184617F05B
:1085FC00A5FA049B1A7A4C4B1A70049B5A7A4B4B73
:10860C001A70049B9A7A4A4B1A70474B1B78494A4A
:10861C00A2FB0323DB08DBB21A46474B1A60424B22
:10862C001A78444BA3FB0213D9080B469B000B444E
:10863C005B00D31ADBB21A463F4B5A603B4B1B789C
:10864C003C4AA2FB0323DB08DBB21A463A4B9A6086
:10865C00364B1A78374BA3FB0213D9080B469B00F9
:10866C000B445B00D31ADBB21A46334BDA60304B47
:10867C001B78304AA2FB0323DB08DBB21A462E4BD5
:10868C001A612B4B1A782B4BA3FB0213D9080B4600
:10869C009B000B445B00D31ADBB21A46264B5A6183
:1086AC00194A1A4BD31ADB081B0443F00300224B64
:1086BC001B681D46204B5B681E461F4B9B681A4669
:1086CC001D4BDB6819461C4B1B691C461A4B5B691E
:1086DC00039302940191009233462A46174917F0EE
:1086EC00A8FA0EE0084A094BD31ADB081B0443F026
:1086FC0003031349184617F021FA02E000BF00E00B
:10870C0000BF00BF0AB070BD10190400E0180400CF
:10871C00381D0400947D0020E41A0400641D04003C
:10872C00901D0400A81D04009B8400209C84002044
:10873C009D840020CDCCCCCC0C2A0020C01D040084
:10874C00E01D040000B587B001900091009B1B78E0
:10875C00022B40D0022B42DC002B02D0012B23D069
:10876C003DE0009B5988009B9B891A461F480DF0E1
:10877C000CFA05901E4A1F4BD31ADB081B0443F05E
:10878C0003031D49184617F0D9F9059B0393039B66
:10879C00002B05D0194A4FF47B71039810F068FE3A
:1087AC00174B01221A701DE0114A124BD31ADB0829
:1087BC001B0443F003031349184617F0BFF9059B3C
:1087CC000493049B002B0CD00C4A4FF47D7104983D
:1087DC0010F04EFE05E00A4B00221A7002E000BFBA
:1087EC0000E000BF00BF07B05DF804FB787D0020FF
:1087FC0010190400E0180400F81D0400E41A040029
:10880C00A28400202C1E040000B587B09DF8003017
:10881C00012262F303038DF800309DF80030012231
:10882C0062F307138DF800306B460A221C49184678
:10883C00FEF7CEFD0590059B0493049B002B05D001
:10884C00184A40F21141049810F012FE01AB0822B4
:10885C000021184618F062FF4FF4C873ADF80430CD
:10886C004FF44873ADF806300023ADF808304FF4E0
:10887C00C873ADF80A3001AB1846FEF7A5FD05909C
:10888C00059B0393039B002B05D0064A40F21B412A
:10889C00039810F0EDFD00BF07B05DF804FB00BFBE
:1088AC00641E0400E41A040000B583B000210948DA
:1088BC0007F022FC0190019B0093009B002B05D03C
:1088CC00054A40F22441009810F0D2FD00BF03B0DD
:1088DC005DF804FBA87D0020E41A040000B583B009
:1088EC000190054A40F23141019810F0C1FD00BFE2
:1088FC0003B05DF804FB00BFE41A040000B58DB0B2
:10890C0005AB00221A605A609A6000230493284B2E
:10891C00049304AB1946274808F0EBF80B900B9B1B
:10892C000A930A9B002B05D0234A40F242410A9835
:10893C0010F09EFD214B0593214B0693214B079381
:10894C0005AB194620480CF0DFFD0B900B9B0993EF
:10895C00099B002B05D0184A40F24941099810F0A8
:10896C0087FD01AB0C220021184618F0D7FE174BDF
:10897C0000221A70164B00221A70164B0193104BE2
:10898C000293104B039301AB194613480DF027F8D3
:10899C000B900B9B0893089B002B05D0064A40F2CA
:1089AC005641089810F064FD00BF0DB05DF804FB53
:1089BC00E9880200BC7D0020E41A04000D85020049
:1089CC00C18402009C280020947D0020A0840020FB
:1089DC00A184002051870200787D002000B585B06D
:1089EC000190019B1B78002B11D10B4B1B883B2159
:1089FC001846FEF7E5FC0390039B0293029B002BA9
:108A0C0005D0064A40F26B41029810F031FD00BFD0
:108A1C0005B05DF804FB00BFB4280020E41A040084
:108A2C0000B587B0039002911346ADF80630029B57
:108A3C000593059B5B68002B03D0059B5B68039833
:108A4C00984700BF07B05DF804FB000000B583B089
:108A5C000190054A4FF49161019810F009FD00BF97
:108A6C0003B05DF804FB00BFE41A040000B58BB042
:108A7C0001AB1C220021184618F050FE0023019374
:108A8C004FF4A03302934FF4F023039303238DF898
:108A9C0010300023ADF8123000238DF814300C4B3D
:108AAC0006930C4B079301AB184604F0EDF80990B4
:108ABC00099B0893089B002B05D0074A40F29F4165
:108ACC00089810F0D5FC00BF0BB05DF804FB00BF9C
:108ADC00E9890200598A0200E41A040000B583B047
:108AEC000190019905480CF091FC019904480CF097
:108AFC00FEFE00BF03B05DF804FB00BF947D0020B8
:108B0C00787D002000B585B0002001F0B1FF039006
:108B1C00039B0293029B002B05D0134A40F2B941F0
:108B2C00029810F0A5FC02F02CF90390039B019322
:108B3C00019B002B05D00C4A40F2BD41019810F06E
:108B4C0097FCFEF74DFC0390039B0093009B002BBE
:108B5C0005D0054A40F2C141009810F089FC00BFD5
:108B6C0005B05DF804FB00BFE41A040000B58DB03D
:108B7C0001900B468DF803309DF80330ADF82E3084
:108B8C0003AB20220021184618F0C8FDBDF82E308A
:108B9C00DBB28DF80830BDF82E301B0A9BB2DBB26D
:108BAC008DF8093001238DF80C30104B0593019B87
:108BBC000693019B5B89ADF81E300223ADF8223081
:108BCC0002AB09930023ADF8203001238DF81C3043
:108BDC00019B1869019B9A8903AB194607F036FE75
:108BEC00034618460DB05DF804FB00BF2D8A020049
:108BFC0000B583B00190019B002B01D10E2304E042
:108C0C0001210198FFF7B2FF0346184603B05DF847
:108C1C0004FB000000B5BDB003468DF80F309DF885
:108C2C000F30072B00F2BF8001A252F823F000BFD7
:108C3C00558D0200B38D0200B38D02005D8C0200D5
:108C4C00958C0200CB8C0200018D02005B8D020022
:108C5C005C4A5D4BD31ADB081B0443F003035B49EE
:108C6C00184616F06BFF022001F002FF3B903B9B75
:108C7C003493349B002B00F09880554A40F2F3411A
:108C8C00349810F0F5FB90E04E4A4F4BD31ADB08AA
:108C9C001B0443F003034F49184616F04FFF042002
:108CAC0001F0E6FE3B903B9B3593359B002B7ED031
:108CBC00474A40F2F941359810F0DAFB77E0414A27
:108CCC00414BD31ADB081B0443F0030342491846FB
:108CDC0016F034FF032001F0CBFE3B903B9B369308
:108CEC00369B002B65D03A4A40F2FF41369810F083
:108CFC00BFFB5EE0334A344BD31ADB081B0443F052
:108D0C0003033649184616F019FF032001F0B0FE94
:108D1C003B903B9B3893389B002B05D02C4A40F260
:108D2C000551389810F0A4FB2D4803F02EFE3B9013
:108D3C003B9B3793379B002B3DD0254A40F2075184
:108D4C00379810F095FB36E0FFF7DCFE36E0082391
:108D5C0033930823329332AB12AA33A904A809F037
:108D6C00C9FD3B903B9B3A933A9B002B05D0184A8C
:108D7C0040F217513A9810F07BFB339A329B12A8B1
:108D8C0004A900930346164803F0D9FD3B903B9B86
:108D9C003993399B002B10D00D4A40F2225139984F
:108DAC0010F066FB09E000BF08E000BF06E000BF62
:108DBC0004E000BF02E000BF00E000BF00BF3DB018
:108DCC005DF804FB10190400E0180400701E040088
:108DDC00E41A0400841E0400981E0400B81E04004B
:108DEC00C87D002000B58BB00190009101980AF06D
:108DFC000FFD019B1B88562B00F09F80562B00F318
:108E0C00AF803B2B00F086803B2B00F3A980392BE5
:108E1C000CD0392B00F3A480212B61D0212B00F333
:108E2C009F80102B11D0112B40D099E0544A554BF8
:108E3C00D31ADB081B0443F003035349184616F0FE
:108E4C007DFE52480CF0D8FC95E04D4A4D4BD31AA0
:108E5C00DB081B0443F003034D49184616F06EFE65
:108E6C00072001F005FE0890089B0593059B002B3D
:108E7C0005D0484A40F24551059810F0F9FA019B8B
:108E8C009A88454B1A80444B1B881946434807F077
:108E9C0052FE0890089B0493049B002B62D03D4A21
:108EAC004FF4A961049810F0E3FA5BE0344A354BB7
:108EBC00D31ADB081B0443F003033949184616F098
:108ECC003DFE354B4FF6FF721A80019B9A882F4B53
:108EDC009B899A4248D12D4B4FF6FF729A8143E001
:108EEC0000238DF80C3000238DF80D30019B9B88EE
:108EFC0003AA11461846FEF76FFA0890089B0693D2
:108F0C00069B002B32D0234A40F25E51069810F09B
:108F1C00AFFA2BE0019B9B8813211846FEF750FA01
:108F2C000890089B0793079B002B21D0194A40F20D
:108F3C006651079810F09CFA1AE0019B9B8813214C
:108F4C001846FEF73DFA0890089B0993099B002BE5
:108F5C0010D0104A40F26E51099810F089FA09E0CD
:108F6C0000BF08E000BF06E000BF04E000BF02E065
:108F7C0000BF00E000BF00BF0BB05DF804FB00BFFA
:108F8C0010190400E0180400D81E0400947D002081
:108F9C00F01E0400E41A0400B4280020BC7D00205C
:108FAC00FC1E040000B587B003468DF807309DF811
:108FBC000730043B0A2B64D801A252F823F000BFFF
:108FCC00FF8F02008F9002008F9002002B90020006
:108FDC008F9002008F900200F98F02008F90020098
:108FEC008F9002008F9002005D900200FFF78AFDC7
:108FFC004EE0294B1B8813211846FEF7E1F905902A
:10900C00059B082B3FD0059B0393039B002B3AD069
:10901C00224A40F28B51039810F02AFA33E0204B8D
:10902C009B894FF6FF7293422FD11E4803F0ADFC83
:10903C000590059B082B28D0059B0493049B002BC3
:10904C0023D0164A40F29551049810F011FA1CE006
:10905C00134B9B894FF6FF72934218D010480CF0BB
:10906C00CBFB0590059B052B11D10F4A0F4BD31A47
:10907C00DB081B0443F003030D49184616F05EFD94
:10908C0005E000BF04E000BF02E000BF00E000BF4D
:10909C0000BF07B05DF804FBB4280020E41A0400FC
:1090AC00947D0020C87D002010190400E0180400F5
:1090BC000C1F040000B587B017F008FD0590059B48
:1090CC000493049B002B05D0164A40F2B55104982A
:1090DC0010F0CEF90023019301AB1946012017F0D3
:1090EC000BFE0590059B0393039B002B05D00D4AAB
:1090FC0040F2BB51039810F0BBF901AB184617F0C6
:10910C00EFFE0590059B0293029B002B05D0054AB0
:10911C0040F2BF51029810F0ABF900BF07B05DF8F8
:10912C0004FB00BFE41A040000B583B00A4A0A210C
:10913C00082010F0B3FA0190019B0093009B002BC8
:10914C0005D0064A40F2CA51009810F091F900BFC0
:10915C0003B05DF804FB00BFB8840020E41A0400DF
:10916C0000B587B001901749032001F09BFC0590D6
:10917C00059B0493049B002B05D0134A4FF4BB6151
:10918C00049810F075F90DF10B031946002001F04D
:10919C005BFE0590059B0393039B002B05D00A4AAD
:1091AC0040F2DB51039810F063F99DF80B30022B61
:1091BC000CBF01230023DAB2019B1A7000BF07B069
:1091CC005DF804FBB18F0200E41A040000B587B00F
:1091DC0009F04EFA0590059B0493049B002B05D0D7
:1091EC00384A40F2E951049810F042F96B460522D6
:1091FC000021184618F092FA9DF8003043F0010354
:10920C008DF800309DF800306FF341038DF800307D
:10921C009DF800306FF382038DF800309DF800301C
:10922C006FF3C3038DF800309DF80030032262F316
:10923C0006138DF800309DF800306FF3C7138DF8CE
:10924C00003007238DF8013010238DF802309DF883
:10925C00033043F001038DF803309DF8033043F0E5
:10926C0002038DF803309DF8043043F001038DF8B0
:10927C0004309DF8043043F002038DF804306B4643
:10928C00184609F0DFFA0590059B0393039B002B0E
:10929C0005D00C4A40F2FC51039810F0E9F80A484A
:1092AC0009F0A8FA0590059B0293029B002B05D0B0
:1092BC00044A40F2FF51029810F0DAF800BF07B0F0
:1092CC005DF804FBE41A0400B583020000B5AFB0EE
:1092DC0001ABAC220021184618F020FA02238DF8BD
:1092EC00043001238DF8063005238DF80730022356
:1092FC00ADF81C30184B089301238DF87D300123F9
:10930C008DF880302823239340F6B833249301231F
:10931C008DF881304FF44863259344F250632693C3
:10932C000E4B2A9301AB19460D4803F0E9F82D902A
:10933C002D9B2C932C9B002B05D00A4A4FF4C46117
:10934C002C9810F095F80121054803F0CCF800BFDB
:10935C002FB05DF804FB00BFB8280020218C020060
:10936C00C87D0020E41A040000B585B06B460822C5
:10937C000021184618F0D2F90B4B00930B4B0193BC
:10938C006B46184604F0EEFE0390039B0293029B7F
:10939C00002B05D0064A40F23361029810F068F8B1
:1093AC0000BF05B05DF804FBE98A02009C28002090
:1093BC00E41A040000B583B04FF48041002016F08D
:1093CC00EBF80190019B0093009B002B05D0064A03
:1093DC0040F23C61009810F04BF816F073F800BFA7
:1093EC0003B05DF804FB00BFE41A040000B583B0C1
:1093FC0014F066FE0190019B0093009B002B05D09E
:10940C00044A4FF4C961009810F032F800BF03B061
:10941C005DF804FBE41A040008B510F005FA16F028
:10942C0033FC034683F00103DBB2002B01D014F0B4
:10943C005DFE00BF08BD000000B5C7B046ABA3F58C
:10944C0088731960114646ABA3F2091302461A70D1
:10945C0046ABA3F586730A461A8046ABA3F5847314
:10946C0000221A600433FB220021184618F056F92A
:10947C0046ABA3F5847346AAA2F2091212781A70AD
:10948C0046ABA3F58673198846ABA3F5887304AA7B
:10949C00501C0A46196818F00BF9164B00221A706A
:1094AC0046ABA3F586731B88DBB20133DBB204AA8F
:1094BC00002100916B211048FEF757F84590459B11
:1094CC004493449B002B05D00C4A40F26D614498A8
:1094DC000FF0CEFF00BF074B1B78DBB283F001030C
:1094EC00DBB2002BF7D1459B5BB2184647B05DF859
:1094FC0004FB00BF90840020741F0400E41A0400D5
:10950C0000B589B0034602918DF80F301346ADF8C3
:10951C000C30234B00221A700DF10F020123009323
:10952C0001236B211F48FEF720F80790079B069339
:10953C00069B002B05D01C4A40F27E6106980FF06A
:10954C0097FF00BF164B1B78DBB283F00103DBB235
:10955C00002BF7D1124B00221A70BDF80C30DBB285
:10956C00029A6B210F48FEF720F80790079B059392
:10957C00059B002B05D00C4A40F2836105980FF037
:10958C0077FF00BF064B1B78DBB283F00103DBB225
:10959C00002BF7D1079B5BB2184609B05DF804FBB2
:1095AC0090840020741F0400E41A040000B583B0FA
:1095BC0070238DF807300DF1070301221946202086
:1095CC00FFF73AFF00BF03B05DF804FB00B583B0B2
:1095DC000DF10703012219461720FFF791FF9DF8A3
:1095EC00073003F00503002B01D0012300E000231A
:1095FC00184603B05DF804FB00B58BB003900291E4
:10960C000192FFF7E3FF0346002B13D000230993CD
:10961C000DE0099BDBB22833D8B204AA099B134492
:10962C0001221946FFF76CFF099B01330993099B33
:10963C00052BEEDD9DF811301B029DF81020134414
:10964C0008939DF813301B029DF8122013440793C6
:10965C009DF815301B029DF8142013440693089BAB
:10966C00B3F5004F03DB089BA3F580330893079BEE
:10967C00B3F5004F03DB079BA3F580330793069BE1
:10968C00B3F5004F03DB069BA3F5803306930898D4
:10969C0017F0A4FE4FF00002264B17F025FD0246F2
:1096AC000B46104619464FF00002234B17F0B4FD41
:1096BC0002460B461046194617F0A2FE0246039BC3
:1096CC001A60079817F08AFE4FF00002194B17F03A
:1096DC000BFD02460B46104619464FF00002164B86
:1096EC0017F09AFD02460B461046194617F088FEF5
:1096FC000246029B1A60069817F070FE4FF00002AB
:10970C000C4B17F0F1FC02460B46104619464FF075
:10971C000002094B17F080FD02460B461046194615
:10972C0017F06EFE0246019B1A6000BF0BB05DF88D
:10973C0004FB00BF000010400000E04000B585B005
:10974C004FF0000303934FF0000302934FF000031C
:10975C0001930023009335E0009B9B002A4A981844
:10976C00009B9B00294A9918009B9B00284A134494
:10977C001A46FFF741FF244A009B9B001344D3ED8C
:10978C00007A9DED037A77EE277ACDED037A1F4AA6
:10979C00009B9B001344D3ED007A9DED027A77EE8B
:1097AC00277ACDED027A1A4A009B9B001344D3ED25
:1097BC00007A9DED017A77EE277ACDED017A009B48
:1097CC0001330093009B132BC6DD9DED037AF3EE62
:1097DC00046AC7EE267A0F4BC3ED007A9DED027A30
:1097EC00F3EE046AC7EE267A0B4BC3ED007A9DEDBF
:1097FC00017AF3EE046AC7EE267A084BC3ED007AC1
:10980C0000BF05B05DF804FB88830020D8830020DE
:10981C0028840020788400207C8400208084002010
:10982C0000B585B000230393304A31493148FFF726
:10983C00E3FE314B1B78DBB2002B52D02B4BD3ED1C
:10984C00007AB7EE087AF4EEC77AF1EE10FA00DC83
:10985C0047E02A4B1B78DBB283F00103DBB2002B11
:10986C003FD0022126480CF073F90390039B02931E
:10987C00029B002B05D0234A40F2CF6102980FF0D7
:10988C00F7FD1E4B01221A701F4A204BD31ADB081E
:10989C001B0443F003031E49184616F04FF941F21E
:1098AC008830FDF79EFE002115480CF051F903900D
:1098BC00039B0193019B002B05D0124A40F2D5610A
:1098CC0001980FF0D5FD0D4B00221A700E4A0F4B6C
:1098DC00D31ADB081B0443F003030E49184616F099
:1098EC002DF900BF05B05DF804FB00BF8C8400208F
:1098FC008884002084840020A2840020A18400207D
:10990C00787D0020E41A040010190400E01804000B
:10991C00701B0400501B040000B58FB042F2107392
:10992C000D9300238DF833301620FDF7CCFD20204D
:10993C00FDF7C9FD002301930223009300230122AC
:10994C0001211620FDF78EFD0023019302230093C5
:10995C000023012201212020FDF784FD0420FDF7C6
:10996C0040FEBB4ABB4BD31ADB081B0443F003037A
:10997C00B949184616F0E2F8FDF766FFFDF7A8FFA7
:10998C00B64815F0D7FA10F04DFDB44815F0F0FBC1
:10999C00012000F081FC00F0A7FBFDF737FEFEF77D
:1099AC00F1F9FFF703FEFFF7C9FEAD4B4FF00002D4
:1099BC001A60AB4B1B68AB4A1360AA4B1B68AA4AD4
:1099CC001360FEF787FDFDF7F3FEA84B00221A701B
:1099DC00A74B00221A70A74A0121A74810F0D2FA0F
:1099EC000B900B9B0A930A9B002B05D0A34A40F2C9
:1099FC000C710A980FF03CFDA14A0021A14810F00F
:109A0C00C1FA0B900B9B0993099B002B05D09B4A29
:109A1C0040F20F7109980FF02BFD9B4B954A4FF4B8
:109A2C008041184610F0E8FA0B9B0893089B002B1A
:109A3C0005D0924A40F2117108980FF019FDFFF70A
:109A4C00B9FC0DF10E031846FFF78AFBFFF76CFB10
:109A5C00FFF7CCFCFFF72EFBFEF7D6FEFEF724FF3C
:109A6C00FFF782FCFFF732FCFFF7B0FBFEF746FF77
:109A7C00FEF7FCFF01238DF80E30754A754BD31A97
:109A8C00DB081B0443F003038049184616F056F814
:109A9C009DF80E301846FEF72BFCFEF785FBFFF702
:109AAC00BBFC7B4B1B78002B00F05B810FE164202F
:109ABC00FDF797FDFEF740F80346002B40F30781B6
:109ACC00FEF780F800238DF81F3000F00DFB714B72
:109ADC001B68002B26D1012000F0D2FA5F4815F04C
:109AEC00ABFB03468DF81F309DF81F3083F001034C
:109AFC00DBB2002B01D001F0B5FC554A554BD31A03
:109B0C00DB081B0443F003036349184616F016F8F0
:109B1C00FA20FDF766FD00F0E7FA5E4B4FF0FF32DE
:109B2C001A60D9E05B4B1B68012B26D1022000F098
:109B3C00A7FA4A4815F08CFB03468DF81F309DF8A8
:109B4C001F3083F00103DBB2002B01D001F08AFC43
:109B5C003F4A404BD31ADB081B0443F003034F4925
:109B6C00184615F0EBFFFA20FDF73BFD00F0BCFAB0
:109B7C00484B4FF0FF321A60AEE0464B1B68022B8D
:109B8C002DD1032000F07CFA454B1B68012B11D022
:109B9C00324815F065FA03468DF81F30404B012210
:109BAC001A609DF81F3083F00103DBB2002B01D04B
:109BBC0001F058FC264A274BD31ADB081B0443F050
:109BCC0003033849184615F0B9FFFA20FDF709FDD3
:109BDC0000F08AFA2F4B4FF0FF321A607CE02D4BCD
:109BEC001B68032B62D1012000F04AFA032000F01D
:109BFC0047FA022000F044FA294B1B68022B11D0C3
:109C0C00164815F0B5FA03468DF81F30244B022286
:109C1C001A609DF81F3083F00103DBB2002B01D0DA
:109C2C0001F020FC0A4A0B4BD31ADB081B0443F04F
:109C3C0003031D49184615F081FFFA20FDF7D1FCEE
:109C4C0000F052FA134B4FF0FF321A6044E000BFA1
:109C5C0010190400E0180400341F04007C220020BA
:109C6C008C84002088840020848400209984002027
:109C7C00988400207D760200A01F0400E41A0400E2
:109C8C00497602009C1F0400A82200204C1F0400EF
:109C9C00A384002078220020B01B0400B41B040015
:109CAC00B0280020BC1B0400C41B04002E4A2F4B00
:109CBC00D31ADB081B0443F003032D49184615F097
:109CCC003DFF00F011FA2B4B4FF0FF321A602A4B7C
:109CDC001B68002B7FF4EBAE04238DF80F300DF1D5
:109CEC000F0301221946AB20FDF740FE03460B93F0
:109CFC000B9B0693069B002B05D0204A4FF4F0617A
:109D0C0006980FF0B5FB0DF10F0301221946E72061
:109D1C00FDF790FE03460B930B9B0593059B002BC5
:109D2C0005D0164A40F2827105980FF0A1FB25234D
:109D3C008DF80F300DF10F03012219468020FDF72D
:109D4C0015FE03460B930E4B00221A700B9B0493CB
:109D5C00049B002B05D0094A40F2877104980FF040
:109D6C0087FBFFF75DFD9AE610190400E01804006C
:109D7C00CC1B040078220020B0280020E41A040038
:109D8C00A384002000B583B00190019B1B6818468A
:109D9C0000F01FF90346002B04D10B494FF4F67069
:109DAC00FEF744FA019B1B681F2B02D84FF0A0430F
:109DBC0006E0019B1B6803F01F02019B1A60034B1A
:109DCC00184603B05DF804FBC81F040000030050E4
:109DDC0000B585B00190084611461A4603468DF829
:109DEC0003300B468DF8023013468DF8013001AB71
:109DFC001846FFF7C7FF03909DF803209DF802302B
:109E0C005B001A439DF801309B001A439DF81830F3
:109E1C001B0242EA03019DF81C301B04019A1943F2
:109E2C00039B02F5E07243F8221000BF05B05DF809
:109E3C0004FB00B585B0039000230193002300932D
:109E4C000023012201210398FFF7C2FF00BF05B0D8
:109E5C005DF804FB00B585B003900B468DF80B3014
:109E6C009DF80B300022019200220092002200216A
:109E7C000398FFF7ADFF00BF05B05DF804FB00B51C
:109E8C0085B0019001AB1846FFF77CFF0390019B56
:109E9C00012202FA03F31946039800F086F800BF7A
:109EAC0005B05DF804FB00B585B0019001AB184618
:109EBC00FFF768FF0390019B012202FA03F3194696
:109ECC00039800F07CF800BF05B05DF804FB00B50A
:109EDC0085B0019001AB1846FFF754FF0390039B2C
:109EEC00D3F804350293029BDA43019B012101FA5A
:109EFC0003F31A40039BC3F80825019B01229A40E7
:109F0C00029B1A40039BC3F80C2500BF05B05DF8FB
:109F1C0004FB00B583B001900091009B002B03D192
:109F2C000198FFF7C0FF02E00198FFF7A8FF00BF00
:109F3C0003B05DF804FB00B585B0019001AB184689
:109F4C00FFF720FF0390039800F01FF80246019BD7
:109F5C0022FA03F303F00103184605B05DF804FB85
:109F6C0000B585B0019001AB1846FFF70BFF0390CD
:109F7C00039800F012F80246019B22FA03F303F057
:109F8C000103184605B05DF804FB82B00190019BFB
:109F9C00D3F81035184602B0704782B00190019B7F
:109FAC00D3F80435184602B0704782B00190009186
:109FBC00019B009AC3F8082500BF02B0704782B01D
:109FCC0001900091019B009AC3F80C2500BF02B0D0
:109FDC00704784B00190019B5B09029300230393AB
:109FEC00029B002B03D0029B012B04D007E04FF007
:109FFC00FF33039303E04FF6FF73039300BF019B02
:10A00C0003F01F030193039A019B22FA03F303F05D
:10A01C000103002B14BF01230023DBB2184604B04C
:10A02C007047000000B585B00190019B032B03D94C
:10A03C0011493A20FEF7FAF8104A019B13441B7899
:10A04C001846FFF78DFF0346002B14BF0123002396
:10A05C008DF80F309DF80F30002B14BF0123002317
:10A06C00DBB283F00103DBB203F00103DBB2184671
:10A07C0005B05DF804FB00BFF81F04004820040085
:10A08C0000B583B00190019B032B03D907494120F4
:10A09C00FEF7CCF8064A019B13441B7800211846A6
:10A0AC00FFF737FF00BF03B05DF804FBF81F040097
:10A0BC004820040000B583B00190019B032B03D909
:10A0CC0007494720FEF7B2F8064A019B13441B7858
:10A0DC0001211846FFF71DFF00BF03B05DF804FB1C
:10A0EC00F81F04004820040000B583B0002301933E
:10A0FC0005E00198FFF7DEFF019B01330193019B03
:10A10C00032BF6D900BF00BF03B05DF804FB00B50C
:10A11C0083B00023019305E00198FFF7B1FF019B89
:10A12C0001330193019B032BF6D900BF00BF03B091
:10A13C005DF804FB00B583B00190019B032B03D9A0
:10A14C0007495F20FEF772F8064A019B13441B78FF
:10A15C001846FFF7BCFE00BF03B05DF804FB00BF60
:10A16C00F81F04004820040000B583B000230193BD
:10A17C0009E0094A019B13441B781846FFF759FE66
:10A18C00019B01330193019B032BF2D9FFF7ACFF29
:10A19C0000BF03B05DF804FB4820040000B585B097
:10A1AC000190019B032B03D91149AC20FEF73EF81B
:10A1BC00104A019B13441B781846FFF7BCFE03465C
:10A1CC00002B14BF012300238DF80F309DF80F30A6
:10A1DC00002B14BF01230023DBB283F00103DBB29D
:10A1EC0003F00103DBB2184605B05DF804FB00BFB9
:10A1FC00F81F04004C20040000B583B00023019329
:10A20C000AE0094A019B13441B7803211846FFF707
:10A21C0021FE019B01330193019B032BF1D900BF5C
:10A22C0000BF03B05DF804FB4C20040084B0019027
:10A23C004FF0FF330293002303930DE00A4A039B74
:10A24C0013441B781A46019B934202D1039B029341
:10A25C0005E0039B01330393039B032BEED9029B75
:10A26C00184604B0704700BF4C20040000B583B002
:10A27C000190019B032B03D90549CB20FDF7D6FF99
:10A28C00044A019B13441B78184603B05DF804FB89
:10A29C00F81F04004C20040000B583B00190019B12
:10A2AC0003F00103002B01D0FFF75EFF019B03F0CD
:10A2BC000203002B01D0FFF79FFF00BF03B05DF836
:10A2CC0004FB000000B583B00190019B1B6818468D
:10A2DC0000F04CF80346002B04D10B494FF4F670F8
:10A2EC00FDF7A4FF019B1B681F2B02D84FF0A04366
:10A2FC0006E0019B1B6803F01F02019B1A60034BD5
:10A30C00184603B05DF804FB502004000003005015
:10A31C0000B585B001900B468DF8033001AB1846A3
:10A32C00FFF7D0FF0390019A039B02F5E07253F8FC
:10A33C002230019A23F44031039B02F5E07243F87A
:10A34C002210019A039B02F5E07253F822309DF81B
:10A35C00032012041146019A1943039B02F5E07283
:10A36C0043F8221000BF05B05DF804FB84B00190E7
:10A37C00019B5B09029300230393029B002B03D0E8
:10A38C00029B012B04D007E04FF0FF33039303E053
:10A39C004FF6FF73039300BF019B03F01F03019360
:10A3AC00039A019B22FA03F303F00103002B14BF61
:10A3BC0001230023DBB2184604B0704700B583B00C
:10A3CC000190019B032B04D80198FFF7E7FE03468D
:10A3DC0000E00023184603B05DF804FB00B587B01D
:10A3EC0003460A468DF8073013468DF806300023D5
:10A3FC008DF81730002304939DF807301846FFF7AB
:10A40C0015FF0490049B032B62D89DF80630022B99
:10A41C0052D0022B5CDC002B31D0012B58D13549AA
:10A42C00049A13465B0013440B441B788DF81730C9
:10A43C003049049A13465B0013440B4401331B78D8
:10A44C00002B0ED02C4B2D4A4FF4804118460FF0A8
:10A45C00D3FD0390039B002B03D1284A9DF80730B2
:10A46C0013702449049A13465B0013440B440233C3
:10A47C001978234A049B13440A461A7028E01E4B91
:10A48C0018460FF011FE1E4A049B13441978194804
:10A49C00049A13465B001344034402331B7899421D
:10A4AC0015D11449049A13465B0013440B44023330
:10A4BC001B788DF817300AE00E49049A13465B009E
:10A4CC0013440B4401331B788DF8173000E000BFA8
:10A4DC009DF81730002B09D00A4B1B68002B05D0B8
:10A4EC00084B1B689DF817201046984700BF07B013
:10A4FC005DF804FB7885002000290020848500206D
:10A50C00888500207485002000B583B00190019BE4
:10A51C001B7802211846FFF761FF00BF03B05DF8FE
:10A52C0004FB000000B583B00C4B1B78002B0FD044
:10A53C000023019308E0019B022B02D00198FFF746
:10A54C00B9FD019B01330193019B032BF3D901E06E
:10A55C00FFF7CAFD00BF03B05DF804FB7085002057
:10A56C002DE9D04F92B003468DF83F300023119364
:10A57C0000231093CC4B1B78002B04D0CA4A002329
:10A58C001370FFF7CFFF9DF83F30172B00F23F827F
:10A59C0001A252F823F000BF05A602001DA602007E
:10A5AC001DA60200B9A6020055A70200D1A7020001
:10A5BC0065A8020085A8020095A80200C1A80200A7
:10A5CC00DFA80200FDA802001BA9020029A90200B5
:10A5DC0029A9020029A9020029A9020029A902001F
:10A5EC00BDA90200CBA90200DFA90200F3A9020059
:10A5FC000DAA02000DAA0200FFF794FFAB4B184600
:10A60C000FF052FD1190AA4A9DF83F301370FFE1F4
:10A61C000020FFF707FD0346002B0DD00020FFF7AD
:10A62C0049FD9DF83F30022B02D14FF4E16301E06C
:10A63C004FF47A6310930BE00020FFF721FD9DF897
:10A64C003F30022B01D1C82301E04FF4C8731093A3
:10A65C00974A9DF83F301370944C109B0022009346
:10A66C0001924FF000024FF00003DDE9006739461C
:10A67C00CB03314643EA51433146CA0312F57A7192
:10A68C00029143F1000303934FF4FA624FF000037D
:10A69C00DDE9020116F0DAFE02460B4613460022F3
:10A6AC00194620460FF0A8FC1190B1E10020FFF7ED
:10A6BC00B9FC0346002B0DD00020FFF7FBFC9DF8E6
:10A6CC003F30032B02D14FF4487301E04FF47A630F
:10A6DC0010930BE00020FFF7D3FC9DF83F30032BC9
:10A6EC0001D1C82301E04FF4C8731093704A9DF850
:10A6FC003F3013706D4C109B0022049305924FF069
:10A70C0000024FF00003DDE904673946CB03314604
:10A71C0043EA51433146CA0312F57A71069143F16B
:10A72C00000307934FF4FA624FF00003DDE90601D2
:10A73C0016F08CFE02460B461346002219462046A4
:10A74C000FF05AFC119063E10020FFF76BFC0346FD
:10A75C00002B06D00020FFF7ADFC4FF47A6310936A
:10A76C0005E00020FFF78CFC4FF4C8731093504A9F
:10A77C009DF83F3013704D4C109B00229A46934627
:10A78C004FF000024FF000034FEACB3343EA5A4339
:10A79C004FEACA3212F57A71089143F1000309931A
:10A7AC004FF4FA624FF00003DDE9080116F04EFE9B
:10A7BC0002460B4613460022194620460FF01CFC9D
:10A7CC00119025E10020FFF72DFC0346002B0CD047
:10A7DC000020FFF76FFC9DF83F30052B01D1C823FB
:10A7EC0001E04FF47A6310930BE00020FFF748FC74
:10A7FC009DF83F30052B01D1C82301E04FF4C873FD
:10A80C0010932B4A9DF83F301370284C109B00225C
:10A81C00984691464FF000024FF000034FEAC933BF
:10A82C0043EA58434FEAC83212F57A710A9143F160
:10A83C0000030B934FF4FA624FF00003DDE90A01B9
:10A84C0016F004FE02460B4613460022194620461B
:10A85C000FF0D2FB1190DBE00020FFF76BFC144AE9
:10A86C009DF83F301370114B002240F26661184680
:10A87C000FF0C2FB1190CBE00020FFF701FC0C4A5B
:10A88C009DF83F301370C3E0074B01221A70012072
:10A89C00FFF750FC054B002240F2666118460FF0A2
:10A8AC00ABFB1190B4E000BF69850020C0280020EC
:10A8BC0068850020594B01221A700120FFF73AFCE1
:10A8CC00574B00224FF4005118460FF095FB119096
:10A8DC009EE0524B01221A700120FFF72BFC504BCB
:10A8EC00002240F2666118460FF086FB11908FE053
:10A8FC004A4B01221A700120FFF71CFC484B002226
:10A90C004FF4005118460FF077FB119080E0FFF7E1
:10A91C00FEFB444A9DF83F30137079E0424B1846D9
:10A92C000FF0C2FB11909DF83F30C3F1110310934F
:10A93C00109B002B35D0119B002B32D1109B012B7F
:10A94C0028D9394C109B9BB21A46C82302FB03F33F
:10A95C00DA171E4617464FF000024FF00003FB03B8
:10A96C0043EA5643F20312F57A710C9143F100035A
:10A97C000D934FF4FA624FF00003DDE90C0116F071
:10A98C0065FD02460B4613460022194620460FF081
:10A99C0033FB11900220FFF773FB244B01221A703A
:10A9AC0036E00220FFF786FB204B00221A702FE0C6
:10A9BC00FFF7B8FD1B4A9DF83F30137028E0FFF7F6
:10A9CC00B1FD0020FFF75CFB164A9DF83F30137079
:10A9DC001EE0FFF7A7FD0120FFF752FB114A9DF87F
:10A9EC003F30137014E0FFF79DFD0020FFF748FB8C
:10A9FC000120FFF745FB0B4A9DF83F30137007E031
:10AA0C00FFF785FB074A9DF83F30137000E000BF4D
:10AA1C00119B184612B0BDE8D08F00BF698500208D
:10AA2C00C028002068850020E028002070850020C8
:10AA3C0000B583B00190074B1B6803F00103002B9A
:10AA4C0004D0054B1B781846FFF78AFD00BF03B0F6
:10AA5C005DF804FB6C8500206885002000B583B090
:10AA6C0001900220FFF766FB00BF03B05DF804FB0A
:10AA7C0000B585B003468DF8073000230393084BCF
:10AA8C001B6803F00103002B05D09DF80730184616
:10AA9C00FFF766FD0390039B184605B05DF804FBB9
:10AAAC006C85002000B585B00190009100230393C4
:10AABC002A4A019B13602A4A009B1360019B03F0F6
:10AACC000203002B2AD00023029308E0012201216B
:10AADC00029800F055F80390029B01330293029BFD
:10AAEC00032B02D8039B002BF0D0039B002B06D129
:10AAFC0040F2333204211B480EF0BAFB0390039B47
:10AB0C00002B02D10EF03CFC0390039B002B05D1D3
:10AB1C00154A002115480FF035FA0390019B03F0FC
:10AB2C000103002B14D00120FFF7B6FB039B002B75
:10AB3C0005D10F4A00210F480FF024FA0390039B14
:10AB4C00002B05D10C4A01210C480FF01BFA039085
:10AB5C00039B184605B05DF804FB00BF6C85002014
:10AB6C00748500208C20040015A5020088200400A8
:10AB7C003DAA02008020040069AA0200842004007F
:10AB8C0084B001900B468DF8033013468DF80230DB
:10AB9C0000230393019B032B3CD89DF80230012B1F
:10ABAC000BD19DF80330012B04D1019BDBB20E338A
:10ABBC00DBB200E000238DF802309DF80330022B4D
:10ABCC000FD0022B23DC002B16D0012B1FD11449E4
:10ABDC00019A13465B0013440B449DF802201A7033
:10ABEC001AE00F49019A13465B0013440B440133DE
:10ABFC009DF802201A700FE00949019A13465B0078
:10AC0C0013440B4402339DF802201A7004E007230E
:10AC1C00039301E007230393039B184604B070478A
:10AC2C007885002000B585B001900B468DF8033077
:10AC3C00019B032B14D89DF80330002B01D0032368
:10AC4C0000E000238DF80F300198FFF70FFB024650
:10AC5C009DF80F3019461046FFF75AFB002300E011
:10AC6C000623184605B05DF804FB00B583B00190CF
:10AC7C0001210198FFF7D6FF0346184603B05DF893
:10AC8C0004FB00B583B0012200210020FFF778FF00
:10AC9C000190019B002B04D0019B072B01D0019B41
:10ACAC001CE0072202210120FFF76AFF0190019BA3
:10ACBC00002B04D0019B072B01D0019B0EE004223A
:10ACCC0002210020FFF75CFF0190019B002B04D0B8
:10ACDC00019B072B01D0019B00E00023184603B019
:10ACEC005DF804FB00B583B0012202210020FFF7C0
:10ACFC0047FF0190019B002B04D0019B072B01D037
:10AD0C00019B1CE0072202210120FFF739FF019073
:10AD1C00019B002B04D0019B072B01D0019B0EE063
:10AD2C000A2200210020FFF72BFF0190019B002B32
:10AD3C0004D0019B072B01D0019B00E00023184697
:10AD4C0003B05DF804FB00B583B001900120FFF760
:10AD5C0035FB0346002B03D0019B02221A700CE03A
:10AD6C000020FFF72BFB0346002B03D0019B0B228B
:10AD7C001A7002E0019B00221A7000BF03B05DF84C
:10AD8C0004FB00B583B00020FFF76FFF0190019B1F
:10AD9C00002B04D0019B062B01D0019B0CE0012061
:10ADAC00FFF763FF0190019B002B04D0019B062B46
:10ADBC0001D0019B00E00023184603B05DF804FBB2
:10ADCC0000B585B001900091019B1B88102B02D01F
:10ADDC00112B18D02FE01A4B1B68002B0DD1FFF74D
:10ADEC0050FF0390039B002B07D0164B1B68002BC6
:10ADFC0003D0144B1B6803989847114B1B68013305
:10AE0C000F4A136017E00E4B1B68013B0C4A136092
:10AE1C000B4B1B68002B0DD1FFF764FF0390039BBA
:10AE2C00002B07D0074B1B68002B03D0054B1B686E
:10AE3C000398984700BF00BF05B05DF804FB00BF46
:10AE4C00908500208C85002000B585B00190009184
:10AE5C00002303930A4A019B1360009B002B02D032
:10AE6C000098FFF770FF074B1B68002B02D1FFF710
:10AE7C0039FF0390039B184605B05DF804FB00BF37
:10AE8C008C85002090850020BFF34F8F00BF064BB0
:10AE9C00DB6803F4E0620449044B1343CB60BFF35B
:10AEAC004F8F00BF00BFFDE700ED00E00400FA0586
:10AEBC0082B0164B1B680193154B1B680093019BCA
:10AECC00082B1FD1009B052B1AD801A252F823F096
:10AEDC00F5AE0200F9AE0200FDAE020001AF0200B9
:10AEEC0005AF020009AF020001230CE001230AE0C8
:10AEFC00012308E0012306E0012304E0012302E022
:10AF0C00012300E00023184602B070473001001006
:10AF1C003401001082B0164B1B680193154B1B6853
:10AF2C000093019B082B1FD1009B052B1AD801A263
:10AF3C0052F823F059AF02005DAF020061AF02007E
:10AF4C0065AF020069AF02006DAF020001230CE097
:10AF5C0001230AE0012308E0012306E0012304E0B9
:10AF6C00012302E0012300E00023184602B07047E1
:10AF7C00300100103401001082B0164B1B68019395
:10AF8C00154B1B680093019B082B1FD1009B052BB5
:10AF9C001AD801A252F823F0BDAF0200C1AF0200D3
:10AFAC00C5AF0200C9AF0200CDAF0200D1AF0200A5
:10AFBC0001230CE000230AE0002308E0002306E054
:10AFCC00002304E0002302E0002300E000231846E5
:10AFDC0002B07047300100103401001082B0164BE3
:10AFEC001B680193154B1B680093019B082B1FD109
:10AFFC00009B052B1AD801A252F823F021B00200B5
:10B00C0025B0020029B002002DB0020031B00200C0
:10B01C0035B0020001230CE000230AE0002308E015
:10B02C00002306E0002304E0002302E0002300E0FC
:10B03C000023184602B07047300100103401001094
:10B04C0082B0164B1B680193154B1B680093019B38
:10B05C00082B1FD1009B052B1AD801A252F823F004
:10B06C0085B0020089B002008DB0020091B00200E0
:10B07C0095B0020099B0020001230CE000230AE015
:10B08C00002308E0002306E0002304E0002302E094
:10B09C00002300E00023184602B070473001001076
:10B0AC003401001082B0164B1B680193154B1B68C2
:10B0BC000093019B082B1FD1009B052B1AD801A2D2
:10B0CC0052F823F0E9B00200EDB00200F1B002003A
:10B0DC00F5B00200F9B00200FDB0020001230CE053
:10B0EC0000230AE0002308E0002306E0002304E02C
:10B0FC00002302E0002300E00023184602B0704752
:10B10C00300100103401001082B0164B1B68019303
:10B11C00154B1B680093019B082B1FD1009B052B23
:10B12C001AD801A252F823F04DB1020051B102001D
:10B13C0055B1020059B102005DB1020061B10200CB
:10B14C0001230CE001230AE0012308E0012306E0BF
:10B15C00012304E0012302E0012300E00023184650
:10B16C0002B07047300100103401001082B0164B51
:10B17C001B680193154B1B680093019B082B1FD177
:10B18C00009B052B1AD801A252F823F0B1B1020092
:10B19C00B5B10200B9B10200BDB10200C1B10200EB
:10B1AC00C5B1020000230CE000230AE0002308E0F4
:10B1BC00002306E0012304E0012302E0012300E068
:10B1CC000023184602B07047300100103401001003
:10B1DC0008B5FFF7CBFF0346002B07D04FF0102329
:10B1EC004FF08042D3F80832C2F8583500BF08BD82
:10B1FC0000BF044BD3F80034002BFAD000BF00BFC3
:10B20C00704700BF00E0014000B583B00190054AD3
:10B21C00019BC2F80435FFF7EBFF00BF03B05DF8EC
:10B22C0004FB00BF00E00140024B034A1A6000BF60
:10B23C00704700BF202900200090D00308B5FFF70D
:10B24C0037FE0346002B0ED04FF080430022C3F88C
:10B25C000C214FF080430022C3F810214FF08043A3
:10B26C000022C3F83825FFF755FE0346002B76D095
:10B27C004FF08053734AD3F80434C2F820354FF0A2
:10B28C008053704AD3F80834C2F824354FF08053F9
:10B29C006C4AD3F80C34C2F828354FF08053694A05
:10B2AC00D3F81034C2F82C354FF08053654AD3F8DC
:10B2BC001434C2F830354FF08053624AD3F8183446
:10B2CC00C2F834354FF080535E4AD3F81C34C2F8C0
:10B2DC0040354FF080535B4AD3F82034C2F84435E4
:10B2EC004FF08053574AD3F82434C2F848354FF006
:10B2FC008053544AD3F82834C2F84C354FF080535D
:10B30C00504AD3F82C34C2F850354FF080534D4A84
:10B31C00D3F83034C2F854354FF08053494AD3F83F
:10B32C003434C2F860354FF08053464AD3F8383481
:10B33C00C2F864354FF08053424AD3F83C34C2F81B
:10B34C0068354FF080533F4AD3F84034C2F86C351F
:10B35C004FF080533B4AD3F84434C2F87035FFF7B2
:10B36C000BFE0346002B02D0374B384A1A60FFF70E
:10B37C0035FE0346002B03D0354BFB22C3F81825B2
:10B38C00FFF75EFE0346002B0AD0324B1B6823F0FE
:10B39C000F02314B1B6803F00F032E4913430B6054
:10B3AC00FFF780FE0346002B03D02C4B4FF40072AA
:10B3BC001A60FFF7A9FE0346002B0DD04FF0804317
:10B3CC00D3F8003403F00103002B05D04FF0804379
:10B3DC006FF00102C3F80024214BD3F88830204AC7
:10B3EC0043F47003C2F88830BFF34F8F00BFBFF334
:10B3FC006F8F00BFFFF7ECFE4FF01023D3F8003235
:10B40C00002B05DB4FF01023D3F80432002B15DA98
:10B41C000120FFF7F9FE4FF010231222C3F800228F
:10B42C00FFF7E6FE4FF010231222C3F80422FFF7B9
:10B43C00DFFE0020FFF7E8FEFFF726FDFFF7F4FE26
:10B44C0000BF08BD00C000408C560040488103007E
:10B45C0000F00040E40E00405802001040960240FC
:10B46C0000ED00E0FEE76DDF704700BF184679DFA6
:10B47C00704700BF18467DDF704700BF184664DF79
:10B48C00704700BF184682B003460091ADF80630F5
:10B49C00BDF80630DAB2009B1A70BDF806301B0AF4
:10B4AC009AB2009B0133D2B21A700223184602B032
:10B4BC00704700B589B0039002911346ADF8063081
:10B4CC00029B1B8803F10902BDF806309A4201D990
:10B4DC000C2353E004AB1846FFF7C5FF0790079BFE
:10B4EC000693069B002B01D0069B47E0029B1B8812
:10B4FC001A46039B134408221A70029B1B880133C3
:10B50C009AB2029B1A80029B1B881A46039B134417
:10B51C001B221A70029B1B8801339AB2029B1A8061
:10B52C00029B1B881A46039B981804AB0133062216
:10B53C00194616F0BDF8029B1B8806339AB2029B83
:10B54C001A809DF8103023F00103DBB2002B07D1D9
:10B55C00029B1B881A46039B134400221A7006E0B8
:10B56C00029B1B881A46039B134401221A70029BF0
:10B57C001B8801339AB2029B1A800023184609B02B
:10B58C005DF804FB00B589B0039002910192ADF80F
:10B59C000230039B1B78012B05D1039B5B78002B9E
:10B5AC0001D1072392E0019B1B889A1CBDF8023045
:10B5BC009A420ED8039B1B78012B0CD1019B1B8844
:10B5CC001A46039B5B7813449A1CBDF802309A42CE
:10B5DC0001D90C237AE0019B1B88BDF80220D31AF9
:10B5EC009BB2023BADF81C30BDF81C30ADF81230EC
:10B5FC00019B1B880233029A13440DF1120211466F
:10B60C001846FFF738FF0690069B0593059B002B09
:10B61C0001D0059B5AE0039B1B78022B06D0039BA1
:10B62C005B789AB2BDF812309A4209D3BDF8123049
:10B63C00BDF81C209A4203D309238DF81F3017E064
:10B64C0008238DF81F30039B1B78012B0CD1039B17
:10B65C005B789BB2BDF81C209A4205D3039B5B78A8
:10B66C009BB2ADF8123003E0BDF81C30ADF81230CF
:10B67C00BDF81230FE2B01D90C2327E0BDF8123097
:10B68C00DAB2019B1B881946029B0B440132D2B2E1
:10B69C001A70019B1B8801339AB2019B1A80019B83
:10B6AC001B881A46029B13449DF81F201A70019B9D
:10B6BC001B8801339AB2019B1A80019B1A88BDF832
:10B6CC00123013449AB2019B1A800023184609B019
:10B6DC005DF804FB00B589B0039002911346ADF8F8
:10B6EC000630029B1B881A1DBDF806309A4201D900
:10B6FC000C233BE00DF116031846FFF7B8FE07903C
:10B70C00079B0693069B002B01D0069B2EE0029B09
:10B71C001B881A46039B134403221A70029B1B8836
:10B72C0001339AB2029B1A80029B1B881A46039B18
:10B73C00134419221A70029B1B8801339AB2029B84
:10B74C001A80BDF81620029B1B881946039B0B44DC
:10B75C0019461046FFF797FE03461946029B1A88B6
:10B76C008BB213449AB2029B1A800023184609B07C
:10B77C005DF804FB84B0029101921A4603468DF8E1
:10B78C000F301346ADF80C30019B1B88DA1CBDF84A
:10B79C000C309A4201D90C2328E0019B1B881A46D5
:10B7AC00029B134402221A70019B1B8801339AB22C
:10B7BC00019B1A80019B1B881A46029B1344012291
:10B7CC001A70019B1B8801339AB2019B1A80019B52
:10B7DC001B881A46029B13449DF80F201A70019B7C
:10B7EC001B8801339AB2019B1A800023184604B0BF
:10B7FC00704784B0029101921A4603468DF80F30BF
:10B80C001346ADF80C30019B1B88DA1CBDF80C30CC
:10B81C009A4201D90C2328E0019B1B881A46029BF3
:10B82C00134402221A70019B1B8801339AB2019BAC
:10B83C001A80019B1B881A46029B13440A221A7019
:10B84C00019B1B8801339AB2019B1A80019B1B88B8
:10B85C001A46029B13449DF80F201A70019B1B88FB
:10B86C0001339AB2019B1A800023184604B070472A
:10B87C0000B58FB0039001930B468DF80B30134637
:10B88C008DF80A3000238DF83330109B1B88ADF8EF
:10B89C00303000230D9371E0039B5A680D9B9B0085
:10B8AC001A4405AB106818600DF11B0105AB0022A2
:10B8BC001846FFF7E4FD0A900A9B0993099B002B9D
:10B8CC0001D0099B7CE09DF81B309DF80A209A4220
:10B8DC0051D19DF83330002B01D0002300E002231E
:10B8EC008DF82330109B1B881A469DF81B301A4488
:10B8FC009DF823301A44BDF844309A4201DD0C23E4
:10B90C005EE09DF8333083F00103DBB2002B16D0E0
:10B91C00109B1B8801339AB2109B1A80109B1B88BA
:10B92C001A46019B13449DF80B201A70109B1B8820
:10B93C0001339AB2109B1A8001238DF83330109B7F
:10B94C001B881A46019B1A440DF11B0105AB1846C6
:10B95C00FFF795FD0A900A9B0793079B002B01D0DC
:10B96C00079B2DE0109B1A889DF81B309BB213444B
:10B97C009AB2109B1A800D9B01330D93039B1B886D
:10B98C001A460D9B934287DB9DF83330002B16D063
:10B99C00109B1A88BDF83030D31A9BB2013BADF81E
:10B9AC002E30BDF82E30FF2B01D90C2308E0BDF84A
:10B9BC003030019A1344BDF82E20D2B21A700023F5
:10B9CC0018460FB05DF804FB00B58BB005900393DF
:10B9DC000B468DF8133013468DF812309DF813106A
:10B9EC00BDF8343001930C9B0093039B0222059805
:10B9FC00FFF73EFF0990099B0893089B002B01D091
:10BA0C00089B14E09DF81210BDF8343001930C9B88
:10BA1C000093039B10220598FFF72AFF0990099BBE
:10BA2C000793079B002B01D0079B00E000231846CF
:10BA3C000BB05DF804FB82B00190019B1B88052BB9
:10BA4C000AD9019B1B88B3F5486F07D9019B1B884A
:10BA5C004FF6FF72934201D0072325E0019B5B88D0
:10BA6C00052B0AD9019B5B88B3F5486F07D9019B5D
:10BA7C005B884FF6FF72934201D0072314E0019BC1
:10BA8C001B884FF6FF7293420DD0019B5B884FF6DB
:10BA9C00FF72934207D0019B1A88019B5B889A42E4
:10BAAC0001D9072300E00023184602B0704700B507
:10BABC0087B0039002910192ADF80230019B1B8874
:10BACC009A1DBDF802309A4201D90C234DE003981F
:10BADC00FFF7B1FF0590059B0493049B002B01D04D
:10BAEC00049B42E0019B1B881A46029B13440522CF
:10BAFC001A70019B1B8801339AB2019B1A80019B1F
:10BB0C001B881A46029B134412221A70019B1B8835
:10BB1C0001339AB2019B1A80039B1A88019B1B88E4
:10BB2C001946029B0B4419461046FFF7ACFC034622
:10BB3C001946019B1A888BB213449AB2019B1A8046
:10BB4C00039B5A88019B1B881946029B0B44194680
:10BB5C001046FFF798FC03461946019B1A888BB2D6
:10BB6C0013449AB2019B1A800023184607B05DF863
:10BB7C0004FB00B587B0039002910192ADF802303E
:10BB8C00039B9B8802330593019B1B881A46059BDC
:10BB9C0013449A1CBDF802309A4201D90C2354E08C
:10BBAC00059BFE2B01D90C234FE0059BDAB2019BC0
:10BBBC001B881946029B0B440132D2B21A70019BAE
:10BBCC001B8801339AB2019B1A80019B1B881A4671
:10BBDC00029B1344FF221A70019B1B8801339AB2FB
:10BBEC00019B1A80039B1A88019B1B881946029B98
:10BBFC000B4419461046FFF746FC03461946019BB9
:10BC0C001A888BB213449AB2019B1A80039B9B88AF
:10BC1C00002B19D0039B9B68002B01D1072314E048
:10BC2C00019B1B881A46029B9818039B9968039BDF
:10BC3C009B881A4615F03CFD019B1A88039B9B8838
:10BC4C0013449AB2019B1A800023184607B05DF882
:10BC5C0004FB00B589B0039002910192ADF802305B
:10BC6C00039B9B6A002B01D1072372E000238DF804
:10BC7C001F3066E0039B996A9DF81F2013465B00FA
:10BC8C0013449B000B440693069B9B88023305933D
:10BC9C00059BFE2B01D90C235BE0059BDAB2019BC3
:10BCAC001B881946029B0B440132D2B21A70019BBD
:10BCBC001B8801339AB2019B1A80019B1B881A4680
:10BCCC00029B134416221A70019B1B8801339AB2F3
:10BCDC00019B1A80069B1A88019B1B881946029BA4
:10BCEC000B4419461046FFF7CEFB03461946019B41
:10BCFC001A888BB213449AB2019B1A80069B9B88BC
:10BD0C00002B19D0069B9B68002B01D1072320E048
:10BD1C00019B1B881A46029B9818069B9968069BE8
:10BD2C009B881A4615F0C4FC019B1A88069B9B88BD
:10BD3C0013449AB2019B1A809DF81F3001338DF881
:10BD4C001F30039B93F82C309DF81F209A4291D3FF
:10BD5C000023184609B05DF804FB00B595B00590BA
:10BD6C000491039200231393039B1B88ADF84A3074
:10BD7C00039B00221A80059B93F82D30002B0ED0CC
:10BD8C00BDF84A301A4603990498FFF792FB1390BA
:10BD9C00139B1193119B002B01D0119BD8E0059B99
:10BDAC009B78002B0ED0BDF84A301A4603990498A4
:10BDBC00FFF790FC1390139B1093109B002B01D05A
:10BDCC00109BC5E0059BDB78002B10D0059BDB7826
:10BDDC0058B2BDF84A30039A0499FFF7CBFC139084
:10BDEC00139B0F930F9B002B01D00F9BB0E0059B77
:10BDFC005B68002B11D0059B5B6893F90000BDF8C4
:10BE0C004A30039A0499FFF7F4FC1390139B0E939A
:10BE1C000E9B002B01D00E9B9AE0059B1B89002BDF
:10BE2C0014D0059B03F10800BDF84A300193039B25
:10BE3C000093049B06220221FFF7C6FD1390139B6F
:10BE4C000D930D9B002B01D00D9B81E0059B1B8A54
:10BE5C00002B14D0059B03F11000BDF84A30019360
:10BE6C00039B0093049B07220321FFF7ADFD139066
:10BE7C00139B0C930C9B002B01D00C9B68E0059B37
:10BE8C001B8B002B14D0059B03F11800BDF84A3016
:10BE9C000193039B0093049B15221421FFF794FD3F
:10BEAC001390139B0B930B9B002B01D00B9B4FE020
:10BEBC00059B1B6A002B0FD0059B186ABDF84A30F6
:10BECC00039A0499FFF7F3FD1390139B0A930A9BB3
:10BEDC00002B01D00A9B3BE0059B5B6A002B0FD02B
:10BEEC00059B586ABDF84A30039A0499FFF741FE46
:10BEFC001390139B0993099B002B01D0099B27E0FE
:10BF0C00059B93F82C30002B0ED0BDF84A30039AC9
:10BF1C0004990598FFF79DFE1390139B0893089BBB
:10BF2C00002B01D0089B13E0059B1B78002B0ED037
:10BF3C00BDF84A30039A04990598FFF723FB139038
:10BF4C00139B0793079B002B01D0079B00E0139BCF
:10BF5C00184615B05DF804FB86B0039001921A46A2
:10BF6C000B46ADF80A3013468DF80930039B002BB5
:10BF7C0002D0019B002B01D100235CE00023ADF823
:10BF8C0016300CE0BDF81630039A13441B789AB2A5
:10BF9C00BDF8163013449BB20133ADF81630BDF822
:10BFAC0016305A1CBDF80A309A420FDA019B1B88D6
:10BFBC00BDF816209A42E5D3BDF816300133039A2A
:10BFCC0013441B789DF809209A42DBD1BDF816204A
:10BFDC00BDF80A309A4201D300232CE0BDF816308C
:10BFEC000233ADF81430BDF81630039A13441B78A5
:10BFFC00002B08D0BDF81630039A13441B789BB263
:10C00C00013B9BB200E00023ADF81230BDF81230BA
:10C01C00002B08D0BDF81420BDF812301A44BDF81E
:10C02C000A309A4201DD002305E0019BBDF8142083
:10C03C001A80BDF81230184606B0704700B585B0AE
:10C04C0001900B46ADF8023013468DF801300023F9
:10C05C00ADF80C309DF8013003AABDF80210019820
:10C06C00FFF77AFF0346ADF80E30BDF80E30002B0B
:10C07C0001D1002304E0BDF80C301A46019B134497
:10C08C00184605B05DF804FB72DF704700BF184618
:10C09C0073DF704700BF184674DF704700BF184647
:10C0AC0082B00190019B93F83034184602B070476F
:10C0BC0084B00190002303930AE0019A039B13447C
:10C0CC001B78002B01D0012306E0039B0133039363
:10C0DC00039B052BF1D90023184604B070470000D0
:10C0EC0082B003468DF807309DF807305A1C074B79
:10C0FC0083FB02135910D317C91A0B469B000B4430
:10C10C00D11ACBB2184602B0704700BF676666669C
:10C11C0082B001900091009BDB7B012B04D1009B32
:10C12C009A88019BA3F8242400BF02B0704700B585
:10C13C0085B001900091019B002283F82E24009B76
:10C14C009A88019BB3F824349A4216D1019B1B792F
:10C15C0083F00103DBB2002B0FD00121019800F01A
:10C16C00ABFA0390039B002B07D0019B9B6B002B1E
:10C17C0003D0019B9B6B0398984700BF05B05DF8FB
:10C18C0004FB00B585B001900091009B1B88262B09
:10C19C001ED1009B1B7A012B03D0009B1B7A022B18
:10C1AC0017D1019B9B781846FFF79AFF0346194657
:10C1BC00019800F081FA0390039B002B09D0019B9E
:10C1CC009B6B002B05D0019B9B6B0398984700E061
:10C1DC0000BF05B05DF804FB00B585B001900B46BF
:10C1EC008DF80330019B03F227431846FFF760FFDD
:10C1FC0003468DF80F309DF80330013B032B33D8E9
:10C20C0001A252F823F000BF25C2020049C202006D
:10C21C005DC2020069C20200019B9B79002B0DD00C
:10C22C00019B93F8243083F00103DBB2002B05D083
:10C23C009DF80F30002B01D0012316E0019BDB7918
:10C24C00002B05D09DF80F30002B01D002230CE001
:10C25C00019B1B7A002B01D0032306E0019B5B7A28
:10C26C00002B01D0042300E00023184605B05DF834
:10C27C0004FB00BF82B001900091019B012283F866
:10C28C003120019B0022C3F82024019B03F226429B
:10C29C00009B5A60009B00229A60009B02221A703D
:10C2AC00009B80229A810023184602B0704782B00E
:10C2BC0001900091019B022283F83120019B93F89D
:10C2CC002430002B03D0009B07221A7002E0009B45
:10C2DC0003221A70019B1B699AB2009B9A81019BE5
:10C2EC000022C3F82024019B03F22642009B5A60D3
:10C2FC00019BDA68009B9A600023184602B07047D5
:10C30C0000B583B00190019B5B79002B0FD0019B92
:10C31C0093F82E3483F00103DBB2002B07D0019885
:10C32C00FFF7BEFE0346002B01D0012300E00023E3
:10C33C0003F00103DBB2184603B05DF804FB00B553
:10C34C0085B001900B468DF80330019BD3F8100497
:10C35C00019BB3F8143401221946FFF76FFE0390CA
:10C36C00039B002B03D0039B9DF803201A70019BA9
:10C37C0003F15400019B03F58261019B3C331A4687
:10C38C00FFF782FE0346184605B05DF804FB00B5C6
:10C39C0085B001900091019B5A69009B9A60019BAA
:10C3AC009B699AB2009B9A81019B93F82430002BD5
:10C3BC0004D0019B062283F83C2003E0019B012260
:10C3CC0083F83C200198FFF79BFF0346002B13D00A
:10C3DC00009B02221A7504210198FFF7B0FF03900D
:10C3EC00039B0293029B002B01D0029B0FE0019B4D
:10C3FC00052283F8312003E0019B032283F83120CE
:10C40C00019B03F58262019BC3F82024002318468C
:10C41C0005B05DF804FB00B585B001900091019B5F
:10C42C00DA69009B9A60019B1B6A9AB2009B9A8105
:10C43C00019B93F82430002B04D0019B062283F837
:10C44C003C2003E0019B012283F83C200198FFF77C
:10C45C0057FF0346002B13D0009B02221A750421B0
:10C46C000198FFF76CFF0390039B0293029B002B38
:10C47C0001D0029B0FE0019B062283F8312003E0E0
:10C48C00019B042283F83120019B03F58262019BFE
:10C49C00C3F820240023184605B05DF804FB82B0D5
:10C4AC000190019B9B78002B06D0019B93F82030C8
:10C4BC00002B01D0002300E00123184602B0704786
:10C4CC0084B00190019B93F82430002B03D0EE2311
:10C4DC00ADF80E3002E01F23ADF80E30BDF80E3073
:10C4EC00184604B0704782B001900B468DF80330AB
:10C4FC00019B9DF8032083F8302000BF02B07047E9
:10C50C0030B587B001900091009B002B02D0019BAD
:10C51C00002B01D10E23B8E0009B78331846FFF7AF
:10C52C00BEFF034683F00103DBB2002B01D00723CF
:10C53C00ABE0019B00229A70019A009B141D03F141
:10C54C0078050FCD0FC40FCD0FC495E8070084E814
:10C55C000700019B002283F83020009BD3F8A42015
:10C56C00019B5A63009BD3F8A820019B9A63019B03
:10C57C004FF6FF72A3F82424019B03F58262019B02
:10C58C00C3F82024019B03F22643072200211846FE
:10C59C0015F0C4F8019B1B7883F00103DBB2002B70
:10C5AC0003D0019BFF2283F85420019B03F1550219
:10C5BC00019BC3F810240198FFF782FF03461A462B
:10C5CC00019BA3F814240098019B03F15501019BD6
:10C5DC0003F214431A46FFF7C0FB0590059B049326
:10C5EC00049B002B01D0049B4FE0019B03F23122F2
:10C5FC00019BC3F818240198FFF762FF03461A4603
:10C60C00019BA3F81C24009B03F13C00019BD3F875
:10C61C001814019B03F21C431A46FFF79EFB05906E
:10C62C00059B0393039B002B01D0039B2DE0019BE7
:10C63C00012283F85120019B9B699AB2019BA3F8BC
:10C64C004820019B012283F83C20019B00221A64A4
:10C65C00019B002283F85020019B5A69019B5A646C
:10C66C00019B03F15400019B3C331A460021FFF758
:10C67C000BFD0590059B0293029B002B01D0029BA6
:10C68C0003E0019B01221A70059B184607B030BDD0
:10C69C0082B00190019B1B68012B07D0019B1B688A
:10C6AC00022B03D0019B1B68042B01D1012300E05A
:10C6BC000023184602B0704700B585B001900B46B8
:10C6CC008DF80330019B1B7883F00103DBB2002B48
:10C6DC0001D0082309E1019B9DF803209A70019B6E
:10C6EC0003F2264307220021184615F017F8019B88
:10C6FC009B79002B03D0019B9B78012B0FD0019BC6
:10C70C00DB79002B03D0019B9B78012B07D0019B7D
:10C71C00DB79002B14D0019B9B78022B10D1019B51
:10C72C005B6B002B08D0019B012283F82D24019B0D
:10C73C005B6B0820984703E0019B002283F82D24B3
:10C74C009DF8033019460198FFF746FD03461A463B
:10C75C00019B9A70019B5B6B002B20D0019B9B78FB
:10C76C00032B03D0019B9B78042B18D1019B5B7985
:10C77C00002B14D0019B93F82E3483F00103DBB211
:10C78C00002B0CD0019B002283F83024019B01224A
:10C79C0083F82F24019B5B6B0720984703E0019BD8
:10C7AC00002283F82F24019B3C33182200211846C9
:10C7BC0014F0B4FF019B012283F83C20019B2C3325
:10C7CC001846FFF765FF0346002B06D0019BDB6A7A
:10C7DC00DAB2019B83F8512003E0019B012283F81C
:10C7EC005120019B93F82430002B12D0019B28334D
:10C7FC001846FFF74DFF0346002B06D0019B9B6AA2
:10C80C00DAB2019B83F8522003E0019B012283F8EA
:10C81C005220019B002283F85020019B9B78042B13
:10C82C0031D801A252F823F089C8020049C802008D
:10C83C0059C8020069C8020079C80200019B3C3348
:10C84C0019460198FFF716FD03901DE0019B3C3340
:10C85C0019460198FFF72BFD039015E0019B3C3323
:10C86C0019460198FFF793FD03900DE0019B3C33B3
:10C87C0019460198FFF7CFFD039005E0019B0022BC
:10C88C0083F8312000E000BF019B9B78002B20D067
:10C89C00019B03F15400019BD3F82014019B3C3302
:10C8AC001A46FFF7F1FB0390039B002B01D0039B6F
:10C8BC001BE0019B93F85420019B93F830301946F0
:10C8CC001046FFF7E5FB0390039B002B01D0039B65
:10C8DC000BE0019B5B6B002B06D0019B5B6B019A01
:10C8EC0092F83120104698470023184605B05DF8A1
:10C8FC0004FB00BF00B585B001900091009B039331
:10C90C00019B1B88262B10D0262B13DC102B02D05E
:10C91C00112B05D00EE001990398FFF7F9FB0AE003
:10C92C0001990398FFF703FC05E001990398FFF7C1
:10C93C0028FC00E000BF00BF05B05DF804FB84B02C
:10C94C000390029101920093039B93F82F3483F090
:10C95C000103DBB2002B01D0082313E0039B002260
:10C96C0083F82F24019B002B02D1049B002B01D0B8
:10C97C00012300E0002303F00103DAB2039B83F8E8
:10C98C0030240023184604B0704700B585B00190E0
:10C99C00019B93F854301846FFF77EFB019B012254
:10C9AC0083F82E24019B002283F83024019B002263
:10C9BC0083F8502006210198FFF7C1FC0390039BDC
:10C9CC000293029B002B01D0029B12E0019B9B78EF
:10C9DC0019460198FFF770FE0390039B002B07D0BC
:10C9EC00019B9B6B002B03D0019B9B6B039898477F
:10C9FC000023184605B05DF804FB75DF704700BFD7
:10CA0C00184676DF704700BF18467ADF704700BFC4
:10CA1C0018467BDF704700BF1846000084B0034601
:10CA2C00ADF806300023039316E00F49039A134622
:10CA3C009B0013449B000B441B88BDF806209A42B4
:10CA4C0007D1039A13469B0013449B00064A1344D8
:10CA5C0006E0039B01330393039B002BE5D00023DB
:10CA6C00184604B0704700BFB885002082B0019012
:10CA7C000B46ADF80230019BBDF802201A80019BD9
:10CA8C0000221A72019B054903F10A020B4603CBE3
:10CA9C001060516000BF02B0704700BFE8850020F5
:10CAAC0082B00190019B4FF6FF721A8000BF02B05A
:10CABC00704788B00390029111461A460B46ADF8A8
:10CACC0006301346ADF80430039B9B881A46BDF81C
