:100000000000042071030000590300005B0300009E
:100010005D0300005F0300006103000000000000BA
:10002000000000000000000000000000630300006A
:100030006503000000000000670300006903000082
:100040006B0300006B030000C9310000F1410000A8
:100050006B0300006B0300006B0300006B030000E8
:100060006B0300006B0300006B0300006B030000D8
:100070006B0300006B0300006B0300006B030000C8
:100080006B0300006B0300006B0300006B030000B8
:100090006B0300006B0300006B0300006B030000A8
:1000A0006B0300006B0300006B0300006B03000098
:1000B0006B0300006B030000000000000000000064
:1000C0006B0300006B0300006B0300006B03000078
:1000D0006B0300006B0300006B0300006B03000068
:1000E0006B0300006B0300006B03000000000000C6
:1000F000000000006B030000000000006B03000024
:1001000000000000000000000000000000000000EF
:1001100000000000000000000000000000000000DF
:1001200000000000000000000000000000000000CF
:1001300000000000000000000000000000000000BF
:1001400000000000000000000000000000000000AF
:10015000000000000000000000000000000000009F
:10016000000000000000000000000000000000008F
:10017000000000000000000000000000000000007F
:10018000000000000000000000000000000000006F
:10019000000000000000000000000000000000005F
:1001A000000000000000000000000000000000004F
:1001B000000000000000000000000000000000003F
:1001C000000000000000000000000000000000002F
:1001D000000000000000000000000000000000001F
:1001E000000000000000000000000000000000000F
:1001F00000000000000000000000000000000000FF
:10020000344935480A1A02D0072291438D463349B2
:1002100033480A1A06D00722914381F30988022243
:1002200082F314882F483049304A00F041F83048B2
:100230003049314A00F03CF830483149314A00F049
:1002400037F831483149324A00F032F83148324902
:10025000324A00F02DF832483249334A00F028F88B
:1002600032483349334A00F023F8334833490022F7
:1002700000F029F832483349002200F024F83248CF
:100280003249091A05F0AEF9314A90471F48204912
:10029000884205D00268043003B4904703BCF7E7F6
:1002A00000208646EC46002000212A4A9047FEE7BF
:1002B000884207D0521A05D0037801300B70013103
:1002C000013AF9D17047884202D002700130FAE752
:1002D000704700000000042000E00320000004201C
:1002E00000000420D4650000000000205C00002015
:1002F000CC030000CC030000F8550000D4650000DA
:100300000000002000000020445600004456000079
:100310004456000044560000445600004456000075
:100320004456000044560000D165000030660000CD
:100330005C0000205C0000205C00002058090020C8
:100340005809002058090020580900205829002089
:1003500099030000D1450000FEE7FEE7FEE7FEE757
:10036000FEE7FEE7FEE7FEE7FEE7FEE700F002B885
:10037000FFF7FCBF0F484FF00701884385460E4842
:1003800080470E48016841F470010160BFF34F8F50
:10039000BFF36F8FFFF734BF09480A490A4A884202
:1003A00007D0521A05D0037801300B700131013AA1
:1003B000F9D1704700000420BD51000088ED00E035
:0C03C00044560000000000200000002057
:1003CC0000B585B00190019B002B0AD0074B43F080
:1003DC0001030393019B9B010293039B0298984793
:1003EC0000E000BF05B05DF804FB00BF50560000F4
:1003FC0000B583B00190019B002B0AD04FF47A70AA
:10040C00FFF7DEFF019B013B0193019B002BF5D114
:10041C0000E000BF03B05DF804FB08B504F0E8FC95
:10042C0000BF08BD00B589B0039002910192019BF9
:10043C00002B33D00023079303230693029A079BC8
:10044C001344019A1946002004F082FC0590079A87
:10045C00059B13440793019A059BD31A0193059BA3
:10046C00002B13D10F4B1B7883F00103DBB2002B55
:10047C0013D10120FFF7BCFF069B013B0693069BA3
:10048C00002B03D1074B00221A7007E0054B012209
:10049C001A70019B002BD1D100E000BF00BF09B046
:1004AC005DF804FB5C00002000B585B00390029160
:1004BC00054B00934023054A0299039800F012F86B
:1004CC0000BF05B05DF804FB3104000060000020A3
:1004DC0082B0019000BF02B0704782B0019000BFA3
:1004EC0002B0704700B5A1B005900491039202933D
:1004FC00049801F081FF039B1593029B1693002334
:10050C00179300238DF8603000231993229B1A93C4
:10051C0000231F930FA91F9B0822049802F046F892
:10052C0008231F93119B1293BDF84030ADF84C304B
:10053C00BDF84230ADF84E3000238DF851309DF8A7
:10054C003C3003F00303DBB2012B26D10F9BC3F32A
:10055C0095231C939DF83C30C3F3C203DBB28DF89A
:10056C005030BDF83C30C3F38313DBB21B931B9BA1
:10057C009A0009A91F9B049802F018F81B9B9B007A
:10058C001F9A13441F9312AA09A915AB0093134683
:10059C001B9A1C9800F0D0FE2FE09DF83C3003F025
:1005AC000303DBB2022B28D1BDF83E30C3F3891311
:1005BC009BB21E939DF83C30C3F3C203DBB28DF8A3
:1005CC0050301E9B082B28BF08231D9307A91F9B87
:1005DC001D9A049801F0EAFF1F9A1D9B13441F9368
:1005EC001E9A1D9BD31A1E9315AB12AA07A81D9910
:1005FC0000F044FF1E9B002BE3D1049801F00BFF8D
:10060C0000BF21B05DF804FB82B00190019BDB6858
:10061C0001225A7100BF02B07047000000B583B0D0
:10062C004FF0FF330193FFF7F8FE0421084800F068
:10063C009FFD0190019B002B03DA0649412001F03C
:10064C00D4F80348FFF7E0FF00BF03B05DF804FBEC
:10065C00205600006856000000B583B00190009150
:10066C00019B1B681B6800990198984700BF03B059
:10067C005DF804FB00B583B00190019B1B685B68BF
:10068C000198984700BF03B05DF804FB00B583B038
:10069C000190019B1B689B680198984700BF03B0B1
:1006AC005DF804FB82B001900B468DF80330019B82
:1006BC00DB689DF803201A7100BF02B0704782B04E
:1006CC000190019BDB681B79184602B0704782B021
:1006DC000190019BDB6801225A7100BF02B0704788
:1006EC0082B00190019BDB685B79184602B07047C1
:1006FC0000B585B0019000910C4B01221A700C488A
:10070C0001F0DEFD0390039B002B01D0039B08E05E
:10071C00084801F06BFF084A084BD31ADB08029318
:10072C000023184605B05DF804FB00BF080200204A
:10073C0030560000D456000020560000F85500003A
:10074C00024A034BD31ADB081846704720560000A8
:10075C00F855000000B587B001900B468DF80330BA
:10076C009DF80330002B1FD0FFF7EAFF0490002305
:10077C00059313E0059B9B000E4A13440393039BC4
:10078C001B881A46019B1B689A4204D1019B059A4F
:10079C001A60002309E0059B01330593059A049B1D
:1007AC009A42E7D3052300E00023184607B05DF812
:1007BC0004FB00BF0000002000B585B001900B4683
:1007CC008DF803309DF8032001AB11461846FFF756
:1007DC00C1FF0346002B07D1019BDB00054A1344E4
:1007EC000393039B1B6800E00023184605B05DF8DB
:1007FC0004FB00BFF855000084B001900B468DF847
:10080C000330019BDB00174A134402939DF803301D
:10081C00013B032B1CD801A252F823F0390800002D
:10082C0041080000490800005308000002238DF81D
:10083C000F3011E004238DF80F300DE0029B1B7973
:10084C008DF80F3008E0029B5B798DF80F3003E0D8
:10085C0000238DF80F3000BF9DF80F30184604B000
:10086C00704700BFF855000084B001900091002340
:10087C008DF80F30019B1B7803F00403DBB2002BC7
:10088C0024D0019B1B78C3F30103DBB2012B02D0F4
:10089C00022B0CD017E0009B1B68019A1288C2F344
:1008AC008312D2B213449A1C009B1A600BE0009B7B
:1008BC001B68019A5288C2F3891292B213449A1C93
:1008CC00009B1A6000BF01238DF80F309DF80F308C
:1008DC00184604B07047000000B58BB00023ADF88B
:1008EC0026303E4801F00EF83D4801F00BF83D4B28
:1008FC009B6804933C4B1B680693049A069B13401D
:10090C0002339B00374A13440433089304AB194653
:10091C000898FFF7A9FF0346002B09D0049A069B01
:10092C00134002339B002F4A134404330893EDE722
:10093C0000BF0023079311E0049B5A1C0492069AF3
:10094C001340079A920001A90A44264902339B00DE
:10095C000B445B681360079B01330793079B012BC8
:10096C00EAD99DF80430C3F30103DBB2012B10D09C
:10097C00022B1CD1BDF80A30ADF82630BDF806307C
:10098C00C3F389139BB203339A08049B1344049357
:10099C0013E0BDF80A30ADF82630BDF80430C3F3CF
:1009AC008313DBB21A46049B1344049305E00F49EE
:1009BC004FF4C27000F019FF00BF094800F0AEFF01
:1009CC000590059B002B02D0049B064A9360BDF852
:1009DC00263018460BB05DF804FB00BF2006002043
:1009EC001C0600200802002008000020E45600002D
:1009FC0000B585B00021074800F00DFF0390039B64
:100A0C000293029B83F310030193019B184605B0DC
:100A1C005DF804FB2406002000B589B00390029118
:100A2C0001920093039B1B0C0793FFF7E1FF0690C9
:100A3C00FFF786FE0246079B934204D3214940F2FE
:100A4C00A91000F0D2FE069B1904009B5A1C0A9BAD
:100A5C001340079A0A431C4902339B000B445A600B
:100A6C00009A0A9B134002339B00174A1344043329
:100A7C000593039B03F00703D9B2059A137861F32E
:100A8C00C5031370019B03F00F03D9B2059A1388A9
:100A9C0061F389131380029BC3F31501059A136844
:100AAC0061F39F231360059A1378012161F301030D
:100ABC001370059A13786FF38203137000BF09B09B
:100ACC005DF804FBE45600000802002000B58BB072
:100ADC000390029113468DF80730039B0233089361
:100AEC0001238DF81F30002000F038FE3E4B5A6871
:100AFC00029B1A603D4B1A683B4B99683A4B5B68FA
:100B0C00CB1A13440133099314E00121384800F047
:100B1C00C9FEFFF7E1FE05900599354800F0C2FECD
:100B2C00324B1A68304B99682F4B5B68CB1A1344C5
:100B3C0001330993089A099B9A42E6D89DF81F3015
:100B4C00002B48D0002304939DF80730002B17D0BE
:100B5C009DF81030012262F301038DF810309DF8DE
:100B6C00103043F004038DF81030039B03F00F0397
:100B7C00DAB2BDF8103062F38913ADF8103016E01C
:100B8C009DF81030022262F301038DF810309DF8AD
:100B9C00103043F004038DF81030039BC3F30903AA
:100BAC009AB2BDF8123062F38F13ADF812300E4BBF
:100BBC005A680E4B1B68134002339B000A4A1344BD
:100BCC0004330693049A069B1A60074B5A68089BD9
:100BDC001344054A5360002000F0D4FD9DF81F30EB
:100BEC0018460BB05DF804FB08020020080000203A
:100BFC002406002000B58BB005900491039202935B
:100C0C001E4B1B68079306AB012219460298FFF78F
:100C1C005DFF0346002B24D0069B0233099300236F
:100C2C00089311E0089B9B00039A1A44099B591CDA
:100C3C00099107990B401268114902339B000B4430
:100C4C005A60089B01330893089A029B9A42E9D395
:100C5C00069A079B00931346029A04990598FFF78E
:100C6C00DBFE074B1B78002B04D000F07DF803460D
:100C7C00002BFAD100BF0BB05DF804FB080000207C
:100C8C000802002000B583B00190009100230022DF
:100C9C0000990198FFF7AEFF00BF03B05DF804FBAD
:100CAC0000B587B0039002910192019B059305AAB0
:100CBC00012302990398FFF79DFF00BF07B05DF871
:100CCC0004FB00B587B00390029101920093019B45
:100CDC000493009B059304AA022302990398FFF73F
:100CEC0089FF00BF07B05DF804FB00B589B0039025
:100CFC00029101920093019B0593009B06930A9B22
:100D0C00079305AA032302990398FFF773FF00BF0B
:100D1C0009B05DF804FB00B58BB003900291019211
:100D2C000093019B0593009B06930C9B07930D9BD3
:100D3C0008930E9B099305AA052302990398FFF7C4
:100D4C0059FF00BF0BB05DF804FB0000054B9A681F
:100D5C00044B5B689A420CBF01230023DBB218469C
:100D6C00704700BF0802002000B599B0FFF7EEFFF6
:100D7C000346002B01D00023B9E19B4B0022C3F8A2
:100D8C001824BFF34F8F00BF974B9B680493974B6E
:100D9C001B681093049A109B134002339B00924AD9
:100DAC001344043311930023179300231693002349
:100DBC000F9304AB19461198FFF756FD0346002B11
:100DCC0019D0894BD3F81834002B14D1864B5A68A0
:100DDC00049B9A4205D8844B5B68834A936000233A
:100DEC0085E1049A109B134002339B007E4A134406
:100DFC0004331193DDE70023159311E0049B5A1C77
:100E0C000492109A1340159A920001A90A4476494B
:100E1C0002339B000B445B681360159B01331593E5
:100E2C00159B012BEAD99DF8043003F00303DBB2C8
:100E3C00022B40F09C80BDF80630C3F389139BB2A3
:100E4C000D93BDF80630C3F389139BB2502B28BF0A
:100E5C0050239BB20C930C9BC3F309039AB2BDF8BD
:100E6C00063062F38F13ADF806300C9B08330B93EE
:100E7C009DF80430C3F3C203DBB20F930B995C48AB
:100E8C0001F029FA1790179B002B00F0D3801798CC
:100E9C0001F0B2FA01A9169B0822179801F068FB21
:100EAC00169B08331693049BDA43109B13400133B3
:100EBC009B000A930C9A0A9B9A4242D90A9B002BDC
:100ECC0008D0049A109B134002339B00464A1344EB
:100EDC00043300E0474B08930A9B002B02D00A9B7B
:100EEC00DBB201E00C9BDBB28DF81F300A9B002BB0
:100EFC0001D0404B00E0002306930A9B002B06D048
:100F0C000C9BDAB20A9BDBB2D31ADBB200E00023F3
:100F1C008DF817309DF81F20169B0899179801F033
:100F2C0027FB9DF81F30169A13441693069B002B33
:100F3C0016D09DF81720169B0699179801F018FBF0
:100F4C000EE0049A109B134002339B00264A134474
:100F5C0004330993169B0C9A0999179801F008FB16
:100F6C000D9B03339A08049B1344049362E09DF891
:100F7C00043003F00303DBB2012B5BD1BDF804306A
:100F8C00C3F38313DBB2062B28BF0623DAB2BDF8FA
:100F9C00043062F38913ADF80430BDF80430C3F3A8
:100FAC008313DBB202330E939DF80430C3F3C203F8
:100FBC00DBB20F930E9B9B0019460D4801F08BF989
:100FCC001790179B002B35D0179801F015FA01A933
:100FDC00169B0822179801F0CBFA169B0833169330
:100FEC00002315931DE000BF08020020080000201C
:100FFC003056000014020020049B5A1C0492109AD4
:10100C00134002339B003C4A1344191D169B0422C7
:10101C00179801F0ADFA169B04331693159B013308
:10102C001593BDF80430C3F38313DBB21A46159B3A
:10103C009342E1D3179B002B39D02F4BD3F81034AC
:10104C0014932D4BD3F81834002B1BD0179801F0A8
:10105C00E2F946E000238DF84F301498FFF740FB7F
:10106C000346002B02D001238DF84F309DF84F30F2
:10107C00002B03D017991498FFF7EEFA149BDB683A
:10108C001B681493149B002BE4D1179801F0C3F93F
:10109C00002000F063FB184BD3F81834002B02D15E
:1010AC00049B154A9360002000F06CFB19E0124B76
:1010BC00D3F81034129306E01298FFF7E7FA129B5C
:1010CC00DB681B681293129B002BF5D10B4A0C4B5F
:1010DC00D31ADB081B0443F002030A491846FFF736
:1010EC00D1FDFFF733FE034683F00103DBB2184654
:1010FC0019B05DF804FB00BF080200201856000070
:10110C00F85500004857000000B585B00023039344
:10111C0023E0164BD3F81034029301238DF80730DB
:10112C000FE00298FFF7CBFA03461A46039B934253
:10113C0003D100238DF8073006E0029BDB681B68A7
:10114C000293029B002BECD19DF80730002B01D0B1
:10115C00039B07E0039B01330393039B092BD8DD0F
:10116C004FF0FF33184605B05DF804FB0802002071
:10117C0000B585B001900B468DF80330FFF7C4FF26
:10118C000390039BB3F1FF3F01D1039B22E0039B30
:10119C00DBB219460198FFF785FA104BD3F81034DF
:1011AC00002B08D10D4A019BC2F81034019BDB685F
:1011BC0000221A600DE0094BD3F81034DA68019B59
:1011CC00DB6812681A60054BD3F81034DB68019A9F
:1011DC001A60039B184605B05DF804FB080200205A
:1011EC0000B583B00C4BD3F8103401930A4B012299
:1011FC001A7009E00198FFF76AFA0198FFF73AFABA
:10120C00019BDB681B680193019B002BF2D100BF93
:10121C0000BF03B05DF804FB0802002082B001900F
:10122C00009100BF02B0704710B584B003900291DA
:10123C00039BDB88002B0AD0039BDB881A461F4BD1
:10124C00009313461E4A1F49029800F095FC039B1D
:10125C001B7A052B2ED0039B5B7A002B12D0039BA1
:10126C009B881A46039B1B7A19461046FFF7C4FA53
:10127C0003461A46144B53F822301A461349029867
:10128C0000F07AFC039B1B6819460298FFF7C6FF17
:10129C00039B1B7A1A460E4B53F82240039B9B88E8
:1012AC0000211846FFF788FA03462246094902989E
:1012BC0000F062FC00BF04B010BD00BF7C57000002
:1012CC008C570000C457000020000020DC570000A1
:1012DC000C000020E057000000B585B0039002918F
:1012EC0013468DF80730039B1B7A052B0FD0039BFD
:1012FC005B7A002B06D00D4B1B681A460C490298E2
:10130C0000F03AFC0B49029800F036FC07E09DF81F
:10131C000730002B03D00749029800F02DFC0298EF
:10132C0000F008FC00BF05B05DF804FB20000020B5
:10133C00DC570000EC57000030B58BB007900691DD
:10134C00059204930E9B1B7B8DF827300E9B00227D
:10135C001A730E990498FFF767FF059B062B7FD82D
:10136C0001A252F823F000BF911300009B13000060
:10137C00AB130000BF130000DD13000005140000C8
:10138C003514000007990E9800F0F6FB69E0069BF7
:10139C001B681A4607990E9800F0EEFB61E0069B5D
:1013AC001A68069B04331B6807990E9800F0E4FB3F
:1013BC0057E0069B1A68069B04331968069B083392
:1013CC001B6800930B4607990E9800F0D5FB48E07C
:1013DC00069B1968069B04331868069B08331B6828
:1013EC00069A0C3212680192009303460A4607993A
:1013FC000E9800F0C1FB34E0069B1868069B043382
:10140C001C68069B08331B68069A0C3212680699F6
:10141C001031096802910192009323460246079904
:10142C000E9800F0A9FB1CE0069B1C68069B04337D
:10143C001D68069B08331B68069A0C3212680699C5
:10144C0010310968069814300068039002910192DB
:10145C0000932B46224607990E9800F08DFB00E076
:10146C0000BF00220E990498FFF736FF0E9B9DF8E3
:10147C0027201A7300BF0BB030BD00BF00B587B07A
:10148C000390029101920093029B082B60D8009B61
:10149C001B7B8DF81330009B00221A730099019866
:1014AC00FFF7C2FE0023059314E0059A029B9A42B3
:1014BC0009D2039A059B13441B781A4626490098B7
:1014CC0000F05AFB03E02549009800F055FB059B02
:1014DC0001330593059B072BE7D92149009800F0B0
:1014EC004BFB0023059326E0059A029B9A421BD2E4
:1014FC00039A059B13441B788DF812309DF812301B
:10150C007E2B0AD89DF81230184603F094FF034640
:10151C00002B02D09DF8123000E02E231A46114900
:10152C00009800F029FB03E00F49009800F024FB21
:10153C00059B01330593059B072BD5D901220099F7
:10154C000198FFF7C9FE009B9DF813201A7300E069
:10155C0000BF07B05DF804FBF0570000F85700001F
:10156C00FC570000005800000458000086B003909F
:10157C000291019201238DF817309DF81730204A03
:10158C00039B13601E4A029B53601D4A019B936090
:10159C00039B44F20102934212D0039B44F20202D9
:1015AC00934220D1019B164AD360154BDB681B6814
:1015BC00134A9361124BDB685B68114AD36112E0EA
:1015CC00019B0F4A13610E4B1B699B680C4A5361BC
:1015DC000B4B1B691B680A4A9361094B1B695B68BF
:1015EC00074AD36100BF72B600BF00BF9DF8173029
:1015FC00DBB2002BFAD162B600BF00BF06B0704759
:10160C002806002000B583B002900091019244F2AC
:10161C00010071466A4600F003F803B000BD00BF3C
:10162C0030B58BB007900691059272B600BFFFF7EC
:10163C00D7FDFFF799FB0346002BFAD1079B44F229
:10164C000102934216D0079B44F2020293423ED110
:10165C00059B09932C4A2D4BD31ADB081B0443F032
:10166C000100099B5B681A46099B1B682849FFF718
:10167C0028FB39E0059B0893234A244BD31ADB083B
:10168C001B0443F00104089B9D68089B9B6818464B
:10169C0000F0CAFF03461846089B5B681946089B76
:1016AC001B68069A02920193009103462A46194937
:1016BC002046FFF730FB144A144BD31ADB081B04EB
:1016CC0043F0010314491846FFF7DCFA0CE00E4A0C
:1016DC000E4BD31ADB081B0443F00103069A0F4987
:1016EC001846FFF7DDFA00BF0D4B1B6803F0010332
:1016FC00002B00D000BE059A06990798FFF736FF1D
:10170C0000BF0BB030BD00BF18560000F8550000EC
:10171C0008580000245800004C5800006058000085
:10172C00F0ED00E072B600BF034B1B680133024AB8
:10173C00136000BF704700BF48060020064B1B68B3
:10174C00013B054A1360044B1B68002B01D162B6A8
:10175C0000BF00BF704700BF4806002000B583B033
:10176C00019000F025F80346012B03D004494320D7
:10177C0000F03BF8FFF7D6FF00BF03B05DF804FBA9
:10178C007858000000B583B003468DF8073000F0A0
:10179C000FF80346012B03D00449512000F025F823
:1017AC00FFF7CCFF00BF03B05DF804FB78580000D6
:1017BC0084B0EFF305830193019BC3F308030393F8
:1017CC00039B002B0DD1EFF314830093009B02932A
:1017DC00029B03F00103002B0CBF01230023DBB29F
:1017EC0000E00123184604B0704700B585B00346ED
:1017FC000091ADF80630BDF806300293009B0393C0
:10180C0002AB1A46002144F20200FFF709FF00BFA9
:10181C0005B05DF804FB10B487B001900091019BFA
:10182C00009A53E8004F104643E8000191F0000F76
:10183C00F7D1059404900391059B184607B05DF809
:10184C00044B704710B487B001900091019B009A33
:10185C0053E8004F44EA020043E8000191F0000F06
:10186C00F6D1059404900391049B184607B05DF8DB
:10187C00044B704710B487B001900091019B009A03
:10188C0053E8004F04EA020043E8000191F0000F16
:10189C00F6D1059404900391059B184607B05DF8AA
:1018AC00044B704710B487B001900091019B009AD3
:1018BC0053E8004F04EB020043E8000191F0000FE5
:1018CC00F6D1059404900391049B184607B05DF87B
:1018DC00044B704710B487B001900091019B009AA3
:1018EC0053E8004FA4EB020043E8000191F0000F15
:1018FC00F6D1059404900391049B184607B05DF84B
:10190C00044B704700B583B0019001210198FFF79B
:10191C0099FF0346184603B05DF804FB00B583B08D
:10192C00019000210198FFF7A5FF0346184603B06C
:10193C005DF804FB00B583B001900B468DF80330C5
:10194C00019B002B03D10849E820FFF74EFF019BB8
:10195C00DA689DF803300199098A01FB03F31344FB
:10196C00184603B05DF804FBD858000000B583B0EE
:10197C0001900091019B002B03D10849F520FFF742
:10198C0034FF009B019AD2689B1A019A128AB3FB0E
:10199C00F2F3DBB2184603B05DF804FBD858000034
:1019AC0000B585B00190019B002B01D10E234CE0BA
:1019BC00019B1B68002B03D12649FF20FFF715FF65
:1019CC00019B5B68002B04D122494FF48070FFF718
:1019DC000CFF019B9B68002B04D11E4940F20110A7
:1019EC00FFF703FF019BDB68002B04D119494FF46F
:1019FC008170FFF7FAFE019B1B8A002B04D115495D
:101A0C0040F20310FFF7F1FE019B9A68019B5B68A3
:101A1C00D31A8DF80F30019B1B68019A52681A601B
:101A2C0007E0019B1A681368591C11609DF80F2080
:101A3C001A709DF80F305A1E8DF80F20002BF0D124
:101A4C00019B1B6800221A710023184605B05DF833
:101A5C0004FB00BFD858000000B585B00190019B75
:101A6C00002B04D11C494FF49270FFF7BEFE0023EB
:101A7C0003930020FFF772FE019B1B681A68019B01
:101A8C005B689A421FD9019B1B681A68013A1A605D
:101A9C001B681B7819460198FFF74CFF0390019BBC
:101AAC009A68019B1B681B68D31A8DF80B30019B3D
:101ABC001B681B799DF80B209A4204D9019B1B686B
:101ACC009DF80B201A710020FFF75CFE039B184653
:101ADC0005B05DF804FB00BFD858000010B584B009
:101AEC0001900091019B002B04D1114940F2471049
:101AFC00FFF77BFE009B002B04D10D494FF4A47023
:101B0C00FFF773FE009B03930020FFF727FE019B5A
:101B1C001B681C68621C1A6003990198FFF726FF6A
:101B2C00034623700020FFF72DFE00BF04B010BD4C
:101B3C00D858000000B583B00190019B002B03D155
:101B4C000C493120FFF751FE019B9B68002B0CD0F8
:101B5C00019B5B69019A1069019A1168019A92685C
:101B6C009847019B00229A6000E000BF03B05DF82B
:101B7C0004FB00BF345900000EB400B584B00190D2
:101B8C00019B002B03D118494220FFF72EFE019B2D
:101B9C005B69002B03D114494320FFF726FE019B00
:101BAC001B68002B03D110494420FFF71EFE019B3C
:101BBC005B68002B03D10C494520FFF716FE059BF3
:101BCC00002B0AD00023039306AB039303AB1A46F6
:101BDC000599019800F0B0F900E000BF04B05DF881
:101BEC0004EB03B0704700BF3459000000B583B05C
:101BFC0001900B468DF80330019B1A68019B9B6882
:101C0C00581C0199886013449DF803201A70019B9D
:101C1C009A68019B5B689A4202D30198FFF78AFF8E
:101C2C0000BF03B05DF804FB00B587B003900291D0
:101C3C000192009300230593009B03F00103002BFA
:101C4C0024D00BE0029B01330293059B01330593D7
:101C5C009DF8133019460398FFF7C8FF029B1B78B9
:101C6C008DF813309DF81330002BEBD106E0019B5F
:101C7C00013B019320210398FFF7B8FF019A059BC4
:101C8C009A422ED9019B002BF1D12AE0029B002B0A
:101C9C000BD0029803F00AFC059006E0019B013B77
:101CAC00019320210398FFF7A1FF019A059B9A420B
:101CBC000FD9019B002BF1D10BE0029B0133029356
:101CCC00059B013305939DF8133019460398FFF7D4
:101CDC008DFF029B1B788DF813309DF81330002B71
:101CEC00EBD100BF07B05DF804FB000000B589B074
:101CFC000390029101920093029B07930123069398
:101D0C0007E0079A019BB2FBF3F30793069B0133A1
:101D1C000693079A019B9A42F3D2009A069B9A4229
:101D2C0001D9009B06930B9B03F00103002B22D1DE
:101D3C000A9B002B1FD00B9B03F00203002B06D039
:101D4C00009B002B03D130238DF8173002E02023A9
:101D5C008DF8173008E00A9B013B0A939DF8173069
:101D6C0019460398FFF742FF0A9B002B03D0069AF3
:101D7C000A9B9A42EFD301230793009B012B03D9B3
:101D8C00009B013B009309E0029A079BB2FBF3F323
:101D9C000493049A019B9A4200D205E0079B019A96
:101DAC0002FB03F30793E8E7029A079BB2FBF3F3FA
:101DBC000493049B079A02FB03F3029AD31A02932F
:101DCC00154A049B13441B7819460398FFF70EFF22
:101DDC00079A019BB2FBF3F30793079B002BE3D10C
:101DEC000B9B03F00103002B11D00A9B002B0ED090
:101DFC0006E00A9B013B0A9320210398FFF7F6FEAD
:101E0C000A9B002B03D0069A0A9B9A42F1D300BF7F
:101E1C0009B05DF804FB00BFE059000000B589B0C3
:101E2C000590049103920293049B002BB8BF5B4274
:101E3C0006930123079307E0039B069A92FBF3F3A7
:101E4C000693079B01330793039B069A9A42F3DA96
:101E5C00029A079B9A4201D9029B07930A9B002B7B
:101E6C000AD0049B002B04DB0B9B03F00403002B18
:101E7C0002D00A9B013B0A930B9B03F00203002B3D
:101E8C0002D0029B002B16D00B9B03F00103002BFE
:101E9C0011D10A9B002B0ED006E00A9B013B0A9342
:101EAC0020210598FFF7A2FE0A9B002B03D0079A6E
:101EBC000A9B9A42F1D3049B002B07DA049B5B42EA
:101ECC0004932D210598FFF791FE08E00B9B03F07E
:101EDC000403002B03D02B210598FFF787FE0B9BE7
:101EEC0003F00203002B19D00B9B03F00103002B12
:101EFC0014D1029B002B11D10A9B002B0ED006E0B3
:101F0C000A9B013B0A9330210598FFF76FFE0A9B51
:101F1C00002B03D0079A0A9B9A42F1D304990B9B8E
:101F2C0001930A9B0093029B039A0598FFF7DEFE30
:101F3C0000BF09B05DF804FB00B58FB005900491AB
:101F4C000392059B002B04D1AD4940F25220FFF7C0
:101F5C004CFC059B5B69002B04D1A9494FF415700F
:101F6C00FFF743FC059B1B68002B04D1A44940F2EE
:101F7C005520FFF73AFC059B5B68002B04D1A04968
:101F8C0040F25620FFF731FC049B002B00F09381AC
:101F9C00049B1B788DF83730049B013304939DF818
:101FAC003730002B00F07E819DF83730252B40F028
:101FBC006D8100230A9301230C93049B1B788DF8ED
:101FCC0037309DF83730302B0DD0302B1BDC2B2BC2
:101FDC0011D02D2B17D10A9B43F001030A93049BBC
:101FEC000133049312E00A9B43F002030A93049B0F
:101FFC00013304930AE00A9B43F004030A93049B05
:10200C000133049302E000230C9300BF0C9B002BC4
:10201C00D3D1002309939DF837302A2B0CD1039B85
:10202C001B68191D039A11601B68099A13440993C4
:10203C00049B013304931AE0049B1B788DF8373012
:10204C009DF837302F2B12D99DF83730392B0ED8FD
:10205C00049B01330493099A13469B0013445B00C1
:10206C001A469DF837301344303B0993D3E70023CD
:10207C000B93049B1B788DF837309DF837302E2B43
:10208C001DD1049B01330493049B1B788DF83730CE
:10209C009DF837302F2B12D99DF83730392B0ED8AD
:1020AC00049B013304930B9A13469B0013445B006F
:1020BC001A469DF837301344303B0B93E4E7049BEE
:1020CC001B788DF837309DF837306C2B03D09DF88A
:1020DC003730682B07D1049B01330493049B1B7886
:1020EC008DF83730EFE79DF83730252B00F0C480A2
:1020FC00252BC0F2C680782B00F3C380582BC0F27E
:10210C00C080583B202B00F2BC8001A252F823F077
:10211C00112200008F2200008F2200008F2200006D
:10212C008F2200008F2200008F2200008F220000DF
:10213C008F2200008F2200008F220000A1210000BE
:10214C00C32100008F2200008F2200008F2200008C
:10215C008F220000C32100008F2200008F2200007C
:10216C008F2200008F2200008F2200008F2200009F
:10217C00512200008F2200008F2200003522000027
:10218C008F220000E72100008F2200008F22000028
:10219C0011220000039B1B68191D039A11601B6818
:1021AC000C930C9B8DF81F309DF81F301946059829
:1021BC00FFF71CFD66E0039B1B68191D039A116059
:1021CC001B680C930A9B0193099B00930B9B0A229F
:1021DC000C990598FFF722FE54E0039B1B68191D10
:1021EC00039A11601B680C930C990A9B0193099B31
:1021FC0000930B9B0A220598FFF778FD42E000BF85
:10220C0088590000039B1B68191D039A11601B68F9
:10221C000C930C990A9B0193099B00930B9B102226
:10222C000598FFF763FD2DE0039B1B68191D039AAE
:10223C0011601B6808930A9B099A08990598FFF787
:10224C00F3FC1FE0039B1B68191D039A11601B68AC
:10225C000C9330210598FFF7C9FC78210598FFF7FE
:10226C00C5FC0C990023019308230093082310222A
:10227C000598FFF73BFD05E025210598FFF7B6FC17
:10228C0000E000BF049B0133049305E09DF8373058
:10229C0019460598FFF7AAFC049B1B78002B7FF4CA
:1022AC0077AE00E000BF059B1B7B002B04D005988C
:1022BC00FFF740FC00E000BF0FB05DF804FB00BF6F
:1022CC0000B583B001900198FFF76AFB03461846EE
:1022DC0003B05DF804FB00B58BB001900091019B3D
:1022EC001B8A043B0793009A079B1344DA1C079B39
:1022FC00B2FBF3F38DF81B300198FFF7ADFB0590A3
:10230C00059B002B01D1002338E0059B00221A719C
:10231C00059B01225A71079B9AB2059BDA80059B9B
:10232C0009939DF81B30013B0493099B019A1A6099
:10233C00002308931DE00198FFF78EFB0390039B8D
:10234C00002B0ED0059B5B790133DAB2059B5A71D9
:10235C00099B039A1A60039B019A1A60039B0993C9
:10236C0004E0059800F00EF8002307E0089B013309
:10237C000893089A049B9A42DDD3059B18460BB030
:10238C005DF804FB00B58BB00190019B0793079B94
:10239C005B798DF81B30019B08939DF81B30013B3A
:1023AC0005930023099305E0089B1B680893099B80
:1023BC0001330993099A059B9A42F5D3089B1B6834
:1023CC000493019B0893002309930BE0089B1B6863
:1023DC00039308990498FFF781FB039B0893099BCF
:1023EC00013309939DF81B30099A9A42EED300BF32
:1023FC0000BF0BB05DF804FB00B585B00190019BEC
:10240C000393039B043301211846FFF74BFA00BFDB
:10241C0005B05DF804FB00B587B00190019B0593F6
:10242C00059B043301211846FFF754FA0346039326
:10243C0003AB0493049B1B78002B02D10198FFF78C
:10244C00A1FF00BF07B05DF804FB000000B591B020
:10245C000390029101920093039B002B03D14349FB
:10246C00B620FFF7C2F9039B0993039B0F93099BBB
:10247C00DB881A46099B5B7902FB03F3043B089348
:10248C00009A089B9A4203D33849C420FFF7ADF950
:10249C00099BDB880793009B1A1D079BB2FBF3F388
:1024AC000E93009B0433079AB3FBF2F2079901FBDE
:1024BC0002F29B1A0D93019B1A68009B1344089A15
:1024CC009A4203D2089A009BD31A01E0019B1B6825
:1024DC000C93019B0C9A1A6005E00F9B1B680F93E1
:1024EC000E9B013B0E930E9B002BF6D100230B93FE
:1024FC00079A0D9BD31A0A930A9A0C9B934228BFF6
:10250C0013460A932AE0029A0B9B134406930F9AE4
:10251C000D9B1344043305939DF84830002B05D0D4
:10252C000A9A0599069802F0F1FF04E00A9A0699B6
:10253C00059802F0EBFF00230D930F9B1B680F9384
:10254C000C9A0A9BD31A0C930B9A0A9B13440B9369
:10255C00079A0C9B934228BF13460A930C9B002BA3
:10256C00D1D100BF00BF11B05DF804FBF0590000E1
:10257C0000B589B00590049103920293039B0793D5
:10258C0007AA00230093029B04990598FFF75EFFAE
:10259C00079B039A9A4203D00349F620FFF725F9CB
:1025AC0000BF09B05DF804FBF059000000B589B01C
:1025BC000590049103920293039B079307AA0123AE
:1025CC000093029B04990598FFF740FF079B039A21
:1025DC009A4204D004494FF48070FFF706F900BF0B
:1025EC0009B05DF804FB00BFF059000082B0019007
:1025FC00019B9B6800229A60019B9B6800221A61D8
:10260C00019B9B6800225A61019B9B680022DA6047
:10261C00019B9B6800225A60019B9B6800221A60F8
:10262C0000BF02B07047000000B585B00190019862
:10263C0000F00EF80390039B002B01D0039B00E0ED
:10264C00024B184605B05DF804FB00BF4C5A000065
:10265C0086B00190164B0593164B04931FE0049A19
:10266C00059BD31ADB10DA0F13445B10DB00059AC1
:10267C0013440393039B1B680293029A019B9A4297
:10268C0002D9039B04930AE0029A019B9A4203D25B
:10269C00039B0833059302E0039B5B6804E0059AF7
:1026AC00049B9A42DBD30023184606B0704700BF48
:1026BC00345E0000545F000010B586B003900192A8
:1026CC001A460B468DF80B301346ADF80830039BB9
:1026DC005C68039B9868BDF808309DF80B10019A54
:1026EC00A0470590059B184606B010BD10B586B0E6
:1026FC00039001921A460B468DF80B301346ADF839
:10270C000830039B1C68039B9868BDF808309DF843
:10271C000B10019AA0470590059B184606B010BDFA
:10272C0082B00346ADF80630BDF9063007EE903A9C
:10273C00F8EEE77A9FED037A67EE877AB0EE670AD8
:10274C0002B0704723DBF93D00B585B001900B4614
:10275C008DF8033002AA012310210198FFF7ACFF7A
:10276C000390039B002B11D19DF8033003F003035E
:10277C00DAB29DF8083062F3C4038DF8083002AA6F
:10278C00012310210198FFF7B1FF0390039B18461A
:10279C0005B05DF804FB00B587B001900B468DF8D1
:1027AC00033004AA012310210198FFF785FF05903F
:1027BC00059B002B11D19DF8033003F00703DAB20F
:1027CC009DF8103062F347138DF8103004AA0123E2
:1027DC0010210198FFF78AFF0590059B002B06D16D
:1027EC0003AA012320210198FFF766FF0590059BA2
:1027FC00002B12D19DF803301B0903F00703DAB24A
:10280C009DF80C3062F347138DF80C3003AA0123AA
:10281C0020210198FFF76AFF0590059B002B06D13C
:10282C0002AA012312210198FFF746FF0590059B90
:10283C00002B13D19DF80330DB09DBB203F001034D
:10284C00DAB29DF8083062F3C7138DF8083002AA8B
:10285C00012312210198FFF749FF0590059B1846AB
:10286C0007B05DF804FB00B585B001900B468DF800
:10287C00033002AA012320210198FFF71DFF0390CA
:10288C00039B002B11D19DF8033003F00303DAB244
:10289C009DF8083062F3C4038DF8083002AA0123B6
:1028AC0020210198FFF722FF0390039B184605B0E7
:1028BC005DF804FB00B589B00390029113468DF8C6
:1028CC00073006AA012322210298FFF7F5FE079094
:1028DC00079B002B11D19DF8073003F00103DAB2EE
:1028EC009DF8183062F386138DF8183006AA012370
:1028FC0022210298FFF7FAFE0790079B002B06D1C6
:10290C0005AA012324210398FFF7D6FE0790079B05
:10291C00002B1ED19DF80730DB43DBB203F0010323
:10292C00DAB29DF8143062F3C7138DF814309DF8A9
:10293C00073003F00103DAB29DF8143062F386130A
:10294C008DF8143005AA012324210398FFF7CEFE3D
:10295C000790079B184609B05DF804FB00B587B0DB
:10296C0001900B468DF8033004AA01232021019815
:10297C00FFF7A2FE0590059B002B2FD19DF803308D
:10298C00DB0803F00103DAB29DF8103062F3410367
:10299C008DF810309DF8033003F00703DAB29DF880
:1029AC00103062F384038DF810309DF803301B094E
:1029BC0003F00303DAB29DF8103062F346138DF87E
:1029CC0010309DF8103043F080038DF8103004AABD
:1029DC00012320210198FFF789FE0590059B002B10
:1029EC0006D103AA012322210198FFF765FE059069
:1029FC00059B002B13D19DF803309B09DBB203F030
:102A0C000303DAB29DF80C3062F301038DF80C303D
:102A1C0003AA012322210198FFF768FE0590059B6C
:102A2C00002B06D102AA012323210198FFF744FEB3
:102A3C000590059B002B12D19DF803301B0903F068
:102A4C000303DAB29DF8083062F383038DF8083083
:102A5C0002AA012323210198FFF748FE0590059B4C
:102A6C00184607B05DF804FB00B585B001900B4625
:102A7C008DF8033002AA012321210198FFF71CFED7
:102A8C000390039B002B11D19DF8033003F003033B
:102A9C00DAB29DF8083062F346138DF8083002AABA
:102AAC00012321210198FFF721FE0390039B184677
:102ABC0005B05DF804FB00B585B0019000910623CC
:102ACC00009A18210198FFF7F7FD0390039B184615
:102ADC0005B05DF804FB00B585B0019000910623AC
:102AEC00009A28210198FFF7E7FD0390039B1846F5
:102AFC0005B05DF804FB00B587B00390029101921C
:102B0C00019A01230F210298FFF7D6FD0590059B32
:102B1C00002B07D1019B5A1C01230F210398FFF7AF
:102B2C00CBFD0590059B184607B05DF804FB00B57E
:102B3C0087B0039002910192019B5A1C012317212B
:102B4C000298FFF7B9FD0590059B002B06D1019A61
:102B5C00012327210398FFF7AFFD0590059B18462D
:102B6C0007B05DF804FB00B589B0039002911346E1
:102B7C008DF8073005AA012322210298FFF79CFD4E
:102B8C000790079B002B11D19DF8073003F0010330
:102B9C00DAB29DF8143062F300038DF8143005AAF4
:102BAC00012322210298FFF7A1FD0790079B002B20
:102BBC0006D106AA012321210398FFF77DFD07907A
:102BCC00079B002B11D19DF8073003F00103DAB2FB
:102BDC009DF8183062F382038DF8183006AA012391
:102BEC0021210398FFF782FD0790079B184609B037
:102BFC005DF804FB00B589B003900291019205AA1F
:102C0C00012322210298FFF757FD0790079B002B09
:102C1C0015D106AA012321210398FFF74DFD07903A
:102C2C009DF81830C3F38003DBB21A469DF81430BC
:102C3C00C3F30003DBB21340DAB2019B1A70079B9B
:102C4C00184609B05DF804FB00B585B001900B4641
:102C5C008DF8033002AA012310210198FFF72CFDF7
:102C6C000390039B002B11D19DF8033003F0030359
:102C7C00DAB29DF8083062F301038DF8083002AA2D
:102C8C00012310210198FFF731FD0390039B184697
:102C9C0005B05DF804FB00B587B001900B468DF8CC
:102CAC00033004AA012311210198FFF705FD0590BB
:102CBC00059B002B11D19DF8033003F00303DAB20E
:102CCC009DF8103062F301038DF8103004AA012333
:102CDC0011210198FFF70AFD0590059B002B06D1E9
:102CEC0003AA012312210198FFF7E6FC0590059B2E
:102CFC00002B12D19DF803301B0903F00103DAB24B
:102D0C009DF80C3062F386138DF80C3003AA012366
:102D1C0012210198FFF7EAFC0590059B184607B0B5
:102D2C005DF804FB00B585B001900B468DF80330BF
:102D3C0002AA012312210198FFF7BEFC0390039B0A
:102D4C00002B11D19DF8033003F00F03DAB29DF87C
:102D5C00083062F303038DF8083002AA0123122114
:102D6C000198FFF7C3FC0390039B184605B05DF870
:102D7C0004FB00B585B001900B468DF8033002AA18
:102D8C00012320210198FFF797FC0390039B002B54
:102D9C001DD19DF8033003F00303DAB29DF808301F
:102DAC0062F301038DF808309DF803301B0903F022
:102DBC000103DAB29DF8083062F382038DF8083013
:102DCC0002AA012320210198FFF790FC0390039B9A
:102DDC00184605B05DF804FB00B585B001900B46B4
:102DEC008DF8033002AA012321210198FFF764FC1E
:102DFC000390039B002B11D19DF8033003F00103CA
:102E0C00DAB29DF8083062F382038DF8083002AA1A
:102E1C00012321210198FFF769FC0390039B1846BD
:102E2C0005B05DF804FB00B585B001900B468DF83C
:102E3C00033002AA012321210198FFF73DFC0390E6
:102E4C00039B002B1DD19DF803301B0903F00103DC
:102E5C00DAB29DF8083062F3C7138DF808309DF88C
:102E6C00033003F00303DAB29DF8083062F3461323
:102E7C008DF8083002AA012321210198FFF736FCB6
:102E8C000390039B184605B05DF804FB00B585B0B4
:102E9C000190019B002B0AD0074B43F001030393D5
:102EAC00019B9B010293039B0298984700E000BF93
:102EBC0005B05DF804FB00BF905F000000B583B067
:102ECC000190019B1B68184600F077F80346002B15
:102EDC0004D10B494FF4F670FEF787FC019B1B687D
:102EEC001F2B02D84FF0A04306E0019B1B6803F098
:102EFC001F02019B1A60034B184603B05DF804FBDC
:102F0C00545F00000003005000B585B0019001AB88
:102F1C001846FFF7D3FF0390019B012202FA03F33B
:102F2C001946039800F035F800BF05B05DF804FBB6
:102F3C0000B585B0019001AB1846FFF7BFFF0390B9
:102F4C00019B012202FA03F31946039800F02BF8B7
:102F5C0000BF05B05DF804FB00B585B0019001AB76
:102F6C001846FFF7ABFF0390039800F00AF80246EF
:102F7C00019B22FA03F303F00103184605B05DF838
:102F8C0004FB82B00190019BD3F81035184602B0B7
:102F9C00704782B001900091019B009AC3F80825FC
:102FAC0000BF02B0704782B001900091019B009A63
:102FBC00C3F80C2500BF02B0704784B00190019B90
:102FCC005B09029300230393029B002B03D0029B0B
:102FDC00012B04D007E04FF0FF33039303E04FF6CF
:102FEC00FF73039300BF019B03F01F030193039A2C
:102FFC00019B22FA03F303F00103002B14BF0123FE
:10300C000023DBB2184604B0704700B585B00190C0
:10301C004FF0A042019B1B6803F5E07340F20C617A
:10302C0042F823104FF0A042019B5B6803F5E0735C
:10303C0040F20C6142F82310019B1B681846FFF705
:10304C0063FF019B5B681846FFF75EFF4FF0A042E1
:10305C00019B1B6803F5E07340F20D6142F82310ED
:10306C004FF0A042019B5B6803F5E07340F20D61E9
:10307C0042F823100420FFF709FF002303931EE0FE
:10308C00019B5B681846FFF767FF0346002B03D0D4
:10309C00039B002B17D124E0019B1B681846FFF7FC
:1030AC0047FF0420FFF7F2FE019B1B681846FFF751
:1030BC002BFF0420FFF7EAFE039B01330393039BD2
:1030CC00082BDDDD00E000BF019B5B681846FFF7B5
:1030DC002FFF0420FFF7DAFE019B5B681846FFF711
:1030EC0013FF05B05DF804FB00B589B001900091A9
:1030FC00009B0793019B1B788DF80C30019B1B796F
:10310C008DF81030019B5B798DF81130019B9B6819
:10311C00DBB28DF81230019BDB68DBB28DF813301B
:10312C00019B1B690593019B5B690693074A079BEF
:10313C0052F823300649079A51F8221003AA104678
:10314C00984700BF09B05DF804FB00BF4C06002097
:10315C005406002000B587B00390029101920093B1
:10316C00039B1B7805931249059B019A41F8232078
:10317C001049059B009A41F82320029B5B7B002B96
:10318C0002D00298FFF741FF00230493039B181D04
:10319C00019B002B01D0084A00E00022059B0299FC
:1031AC0000F02AFB0490049B184607B05DF804FB62
:1031BC004C06002054060020F530000008B5064BE4
:1031CC001B68002B03D105495120FEF70EFB024B67
:1031DC001B68984708BD00BF5C0600209C5F000080
:1031EC0082B00190019B044A934201D1034B00E051
:1031FC000023184602B07047002000405C060020F7
:10320C0000B587B001900091019B002B03D11849A8
:10321C007720FEF7EAFA0198FFF7E2FF0590059B8D
:10322C00002B1ED000238DF813300020FEF796FAE9
:10323C00059B1B79002B03D001238DF8133005E07F
:10324C00059B009A1A60059B01221A710020FEF75B
:10325C0099FA9DF81330002B03D011230393039B91
:10326C0002E000230393039B184607B05DF804FBB0
:10327C009C5F000082B003468DF807309DF9073043
:10328C00002B0CDB9DF8073003F01F0205499DF95C
:10329C0007305B09012000FA02F241F8232000BF3D
:1032AC0002B0704700E100E082B003468DF80730B1
:1032BC009DF90730002B0DDB9DF8073003F01F0242
:1032CC0006499DF907305B09012000FA02F26033D0
:1032DC0041F8232000BF02B0704700BF00E100E0BE
:1032EC0082B0034600918DF807309DF90730002B12
:1032FC000ADB009BDAB20C499DF907305201D2B2BD
:10330C000B4483F800230BE0009BDAB207499DF8CD
:10331C00073003F00F03043B5201D2B20B441A7670
:10332C0000BF02B0704700BF00E100E000ED00E01C
:10333C0082B00190019B03F06043B3F1005F0CBFBE
:10334C0001230023DBB2184602B0704782B0019013
:10335C00019B1B0B5BB2184602B0704700B583B0E3
:10336C0003460A468DF8073013468DF806309DF853
:10337C000630072B03D908496B20FEF736FA9DF867
:10338C0006209DF9073011461846FFF7A9FF00BF2C
:10339C0003B05DF804FB00BFF85F000000B583B01C
:1033AC0003468DF807309DF907301846FFF762FF8A
:1033BC0000BF03B05DF804FB00B583B003468DF885
:1033CC0007309DF907301846FFF76EFF00BF03B0BA
:1033DC005DF804FB82B001900B468DF803309DF82C
:1033EC000330019A134401221A6000BF02B07047E7
:1033FC0084B001900B46ADF80230BDF80230019A52
:10340C00134400221A60BDF80230019A13441B6861
:10341C000393039B00BF04B0704782B001900B462E
:10342C00ADF80230BDF80230019A13441B68002B32
:10343C0014BF01230023DBB2184602B0704782B0E0
:10344C0001900091019B009AC3F8042300BF02B0C5
:10345C00704782B001900091019B009AC3F8082339
:10346C0000BF02B0704782B00190019B0622C3F8E6
:10347C00002500BF02B0704782B00190019B002272
:10348C00C3F8002500BF02B0704784B003900291CE
:10349C000192039B029AC3F80825039B019AC3F877
:1034AC000C2500BF04B0704782B001900091019BC5
:1034BC00009AC3F8242500BF02B0704784B0019075
:1034CC00019BD3F8C4340393019B039AC3F8C4241F
:1034DC00039B184604B0704782B001900B468DF8E0
:1034EC0003309DF80320019BC3F8882500BF02B070
:1034FC00704784B0039002910192029A039BC3F827
:10350C004425039B019AC3F8482500BF04B07047BB
:10351C0084B0039002910192029A039BC3F8342564
:10352C00039B019AC3F8382500BF04B0704782B0E2
:10353C0001900091019B009AC3F8002200BF02B0D9
:10354C00704782B00190019BD3F84C35184602B0FD
:10355C00704782B00190019BD3F80032184602B03C
:10356C00704782B00190019BD3F83C35184602B0ED
:10357C00704782B00190019B0122C3F8502500BF17
:10358C0002B0704782B00190019B0022C3F8502515
:10359C0000BF02B0704782B00190019B0122C3F8BA
:1035AC00402500BF02B0704782B00190019B002201
:1035BC00C3F8402500BF02B07047000000B583B0CF
:1035CC000190019B1B68184600F04FF80346002B36
:1035DC0004D10B494FF4F670FEF707F9019B1B68F9
:1035EC001F2B02D84FF0A04306E0019B1B6803F091
:1035FC001F02019B1A60034B184603B05DF804FBD5
:10360C00286000000003005000B585B0019008460A
:10361C0011461A4603468DF803300B468DF80230DE
:10362C0013468DF8013001AB1846FFF7C7FF039026
:10363C009DF803209DF802305B001A439DF8013081
:10364C009B001A439DF818301B0242EA03019DF8B7
:10365C001C301B04019A1943039B02F5E07243F8DA
:10366C00221000BF05B05DF804FB84B00190019BF3
:10367C005B09029300230393029B002B03D0029B54
:10368C00012B04D007E04FF0FF33039303E04FF618
:10369C00FF73039300BF019B03F01F030193039A75
:1036AC00019B22FA03F303F00103002B14BF012347
:1036BC000023DBB2184604B0704784B0019003239A
:1036CC000393019B03F00103002B02D04FF4024340
:1036DC000393019B03F00203002B02D048F2012359
:1036EC000393019B03F00403002B02D048F2022346
:1036FC000393039B184604B07047000000B585B0D7
:10370C000190009101238DF80F30009B1B7B032B44
:10371C0056D801A252F823F09D370000B5370000AF
:10372C007537000035370000009B9B6803F480233D
:10373C00002B07D00198FFF704FF0246009B1B6982
:10374C009A420DD1009B9B6803F48023002B39D146
:10375C000198FFF7F6FE0246009B5B699A4231D056
:10376C0000238DF80F302DE00198FFF7EAFE02469A
:10377C00009B1B699A4207D10198FFF7F2FE0246A3
:10378C00009B5B699A421FD000238DF80F301BE021
:10379C000198FFF7D6FE0246009B1B699A4215D092
:1037AC0000238DF80F3011E00198FFF7DAFE024686
:1037BC00009B1B699A420BD000238DF80F3007E059
:1037CC0000BF06E000BF04E000BF02E000BF00E065
:1037DC0000BF9DF80F3083F00103DBB2002B05D046
:1037EC000198FFF749FE0198FFF73DFE9DF80F3059
:1037FC00184605B05DF804FB00B58BB0059004913C
:10380C0003920293049B002B03D14A49E720FDF756
:10381C00ECFF049B1A68049B5B689A4203D14549F0
:10382C00E820FDF7E2FF059B1B791A46342302FBC7
:10383C0003F3414A13440893089B93F82D30002B53
:10384C0003D008230793079B70E0059B1A68059B20
:10385C001B791946394B53F8213019461046FFF79E
:10386C00CFFC0346002B03D011230793079B5DE08D
:10387C00089B039A1A60089B029A5A60089B0022C4
:10388C009A60089B002283F83020089B002283F862
:10389C002F20049B5A7B089B83F83220049B1868CA
:1038AC000023019306230093032300220021FFF73A
:1038BC00ABFE049B5868002301930623009303235B
:1038CC0000220021FFF7A0FE059B1B680993049BB7
:1038DC001968049B5B681A460998FFF7D6FD049B90
:1038EC009B6819460998FFF7DFFD089B1B68002BA6
:1038FC0015D0059B1B681846FFF728FD03461A4692
:10390C00049B1B7B19461046FFF728FD059B1B6883
:10391C001846FFF71BFD03461846FFF73FFD089BB3
:10392C00012283F82D2000230793079B18460BB028
:10393C005DF804FB6060000064060020B8600000C5
:10394C0000B585B00190019B1B791A46342302FB0C
:10395C0003F30D4A13440393039B93F82D30012B6F
:10396C0004D00A4940F24F10FDF73FFF019B1B6842
:10397C001846FFF778FD039B022283F82D2000BF29
:10398C0005B05DF804FB00BF640600206060000019
:10399C0000B583B001900091009B03F00103002B54
:1039AC0003D00198FFF7E5FD02E00198FFF7EAFD6F
:1039BC00009B03F00203002B03D00198FFF7EBFDF3
:1039CC0002E00198FFF7F0FD00BF03B05DF804FBC7
:1039DC0030B589B0039002910192009300230793B4
:1039EC0008238DF81B30039B002283F82E20019BAB
:1039FC00DB681846FFF79CFC034683F00103DBB23F
:103A0C00002B03D010230793079BFDE19D490298DF
:103A1C00FFF71FFD039B93F82F30DBB2002B09D06F
:103A2C00039B9B6819460298FFF709FD1123079326
:103A3C00079BE9E1009B03F00403002B06D1009BDC
:103A4C0003F01003002B01D1012300E0002303F04D
:103A5C000103DAB2039B83F82F20039B019A03F135
:103A6C000C0415460FCD0FC42B682360009B1B095B
:103A7C0003F00103002B14BF01230023DAB2039BD4
:103A8C0083F83020039B009A1A62019B5B781946DD
:103A9C000298FFF721FD4FF482710298FFF7A8FC02
:103AAC004FF492710298FFF7A3FC4FF4B071029897
:103ABC00FFF79EFC4FF4A4710298FFF799FC009954
:103ACC000298FFF765FF019B1B78032B00F2DE8049
:103ADC0001A252F823F000BF173C00005F3C00002D
:103AEC00BF3B0000F53A0000009B03F01003002BD5
:103AFC0004D065494FF4D970FDF777FE009B03F0B5
:103B0C000803002B04D0604940F2B310FDF76DFEA2
:103B1C00009B03F00403002B04D05B494FF4DA70D4
:103B2C00FDF763FE019B1B691846FFF701FC03467A
:103B3C0083F00103DBB2002B03D010230793079B08
:103B4C0062E14FF480710298FFF7F1FC019BD96898
:103B5C00019B5B681A460298FFF7CBFC4FF4A871E7
:103B6C000298FFF745FC20210298FFF733FC08214F
:103B7C000298FFF72FFC00BF4FF4A8710298FFF7D3
:103B8C004CFC034683F00103DBB2002BF4D14FF461
:103B9C00A8710298FFF72CFC019B1969019B9B688B
:103BAC001A460298FFF7A5FC039B4FF480229A60FB
:103BBC006FE0019BD968019B5B681A460298FFF77E
:103BCC0098FC019B1B691846FFF7B2FB034683F078
:103BDC000103DBB2002B03D010230793079B13E1E7
:103BEC00019B1969019B9B681A460298FFF790FC90
:103BFC004FF484510298FFF79AFC039B02229A60BF
:103C0C0020210298FFF7E6FB43E0019BD968019B5A
:103C1C005B681A460298FFF76CFC009B03F02003CC
:103C2C00002B09D04FF480710298FFF780FC039BA6
:103C3C004FF480229A6007E04FF400710298FFF76E
:103C4C0076FC039B02229A6020210298FFF7C2FBAC
:103C5C001FE0019BD968019B5B681A460298FFF72D
:103C6C0057FC4FF480510298FFF761FC039B022232
:103C7C009A6000238DF81B3020210298FFF7AAFBD5
:103C8C0007E000BF02029C0160600000072307935D
:103C9C0000BF009B03F00803002B09D1019B1B788C
:103CAC00032B05D09DF81B3019460298FFF792FBA9
:103CBC00039B1B68002B1FD0009B03F00403002BFD
:103CCC0002D0039B00229A60009B03F04003002B60
:103CDC0005D1039B9B6843F00202039B9A60039BF4
:103CEC009B6843F40072039B9A60039B9B68194684
:103CFC000298FFF7A4FB86E000238DF81A304FF4EE
:103D0C00A4710298FFF789FB0346002B02D0012314
:103D1C008DF81A304FF482710298FFF77EFB034640
:103D2C00002B07D04FF482710298FFF761FB01233F
:103D3C008DF81A304FF492710298FFF76EFB034620
:103D4C00002B38D04FF492710298FFF751FB4FF4CF
:103D5C00B0710298FFF761FB03468DF81930029899
:103D6C00FFF7F7FB05909DF8193083F00103DBB2E8
:103D7C00002B04D1059B03F40073002B0AD12021E6
:103D8C000298FFF727FB14210298FFF723FB00236F
:103D9C008DF81A309DF81930002B0CD0059B03F4CC
:103DAC008073002B07D04FF4A4710298FFF720FB0F
:103DBC0000238DF81A309DF81A3083F00103DBB222
:103DCC00002B9CD10298FFF779FB0490039B0022F7
:103DDC0083F82F20049B002B04D00498FFF76DFC74
:103DEC00079010E0009B03F04003002B0BD10399CC
:103DFC000298FFF783FC034683F00103DBB2002B30
:103E0C0001D003230793079B184609B030BD00BFB0
:103E1C0000B587B0039002910192039B1B79002B94
:103E2C0009D1029B5B68B3F5803F04D2029B9B686F
:103E3C00B3F5803F04D31B4940F26A20FDF7D5FC53
:103E4C0000230593039B1B791A46342302FB03F3CF
:103E5C00154A13440493049B1B68002B08D1029B46
:103E6C001B78022B04D10F4940F27220FDF7BDFCE8
:103E7C00049B1B68002B08D1029B1B78032B04D1DD
:103E8C00084940F27320FDF7B0FC039B1968019BB5
:103E9C00029A0498FFF79CFD0590059B184607B005
:103EAC005DF804FB606000006406002000B58BB078
:103EBC000390019200930B468DF80B3000238DF884
:103ECC0014309DF80B308DF81530009B06930023B1
:103EDC000793019B0893002309939DF83030002B26
:103EEC0001D0202200E0002205AB19460398FFF711
:103EFC008FFF034618460BB05DF804FB00B58BB082
:103F0C000390019200930B468DF80B3001238DF832
:103F1C0014309DF80B308DF81530009B0693002360
:103F2C000793019B08930023099305AB00221946C4
:103F3C000398FFF76DFF034618460BB05DF804FBC2
:103F4C0030B58BB001900091009B1B68002B04D105
:103F5C00A24940F2C120FDF748FC4FF49271019840
:103F6C00FFF75BFA0346002B3ED04FF49271019899
:103F7C00FFF73EFA4FF482710198FFF74EFA0346B1
:103F8C0083F00103DBB2002B2ED0009B9B681946FB
:103F9C000198FFF75EFA009B02229A60009B9B68D7
:103FAC0019460198FFF74BFA4FF4B0710198FFF7DF
:103FBC0034FA034683F00103DBB2002B07D10198DE
:103FCC00FFF7C7FA034603F40073002B07D1202137
:103FDC000198FFF7FFF914210198FFF7FBF9009BFB
:103FEC00012283F82E20F6E04FF482710198FFF73E
:103FFC0014FA0346002B5DD04FF482710198FFF741
:10400C00F7F9009B1B6A03F04003002B1AD1009BAD
:10401C0093F82E3083F00103DBB2002B12D0009901
:10402C000198FFF76BFB0346002B14BF0123002301
:10403C00DBB283F00103DBB203F00103DAB2009BC5
:10404C0083F82E20009B1B6A03F00403002B79D10C
:10405C00009B04AC03F10C050FCD0FC42B6823603F
:10406C004FF4B0710198FFF7C3F94FF4AE7101989A
:10407C00FFF7BEF9009B93F8303083F00103DBB2FD
:10408C00002B04D1009B93F82E30002B5AD000212A
:10409C000198FFF74CFA009B00229A605049019856
:1040AC00FFF7D7F90198FFF751F903461846FFF7C8
:1040BC0083F947E04FF4A4710198FFF799F9009B3D
:1040CC001B7B002B22D1009B04AC03F10C050FCD04
:1040DC000FC42B682360009B93F8303083F00103EE
:1040EC00DBB2002B2ED000210198FFF720FA009BA9
:1040FC0000229A603A490198FFF7ABF90198FFF753
:10410C0025F903461846FFF757F91BE04FF40071E9
:10411C000198FFF70CFA009B40F202229A6030499A
:10412C000198FFF796F9009B9B6819460198FFF7D9
:10413C0086F908210198FFF74DF920210198FFF726
:10414C0049F948E00198FFF7B9F90990099B03F088
:10415C000203002B03D001238DF80C301DE0099BCA
:10416C0003F00403002B03D002238DF80C3014E071
:10417C00099B03F00103002B03D003238DF80C30B3
:10418C000BE0009B93F82E30002B03D004238DF80A
:10419C000C3002E000238DF80C30009B93F830308B
:1041AC0083F00103DBB2002B03D0009B002283F8C9
:1041BC002F20009B1B6A03F00403002B04D0009BF0
:1041CC0093F82E30002B06D0009B1B68009A516888
:1041DC0003AA104698470BB030BD00BF60600000CA
:1041EC0002029C0108B503490348FFF7A9FE00BF72
:1041FC0008BD00BF640600200030004000B585B04B
:10420C000190019B002B0AD0074B43F00103039351
:10421C00019B9B010293039B0298984700E000BF0F
:10422C0005B05DF804FB00BF9063000000B583B0DF
:10423C000190019B1B68184600F06DF80346002B9B
:10424C0004D10B494FF4F670FDF7CFFA019B1B68B4
:10425C001F2B02D84FF0A04306E0019B1B6803F014
:10426C001F02019B1A60034B184603B05DF804FB58
:10427C003C6200000003005000B585B00190084678
:10428C0011461A4603468DF803300B468DF8023062
:10429C0013468DF8013001AB1846FFF7C7FF0390AA
:1042AC009DF803209DF802305B001A439DF8013005
:1042BC009B001A439DF818301B0242EA03019DF83B
:1042CC001C301B04019A1943039B02F5E07243F85E
:1042DC00221000BF05B05DF804FB00B585B001905D
:1042EC0001AB1846FFF7A2FF0390019B012202FAD3
:1042FC0003F31946039800F004F800BF05B05DF80D
:10430C0004FB82B001900091019B009AC3F8082530
:10431C0000BF02B0704784B00190019B5B0902930F
:10432C0000230393029B002B03D0029B012B04D090
:10433C0007E04FF0FF33039303E04FF6FF73039353
:10434C0000BF019B03F01F030193039A019B22FA08
:10435C0003F303F00103002B14BF01230023DBB292
:10436C00184604B0704700B583B00190019B04332C
:10437C001846FFF7E5FA00BF03B05DF804FB00B583
:10438C0089B0059003921A460B468DF813301346EC
:10439C008DF8123000230793059B181D9DF81220F1
:1043AC009DF813109DF8283000931346039AFFF7DD
:1043BC007DFD0790079B184609B05DF804FB00B51E
:1043CC0087B0039001921A460B468DF80B301346BA
:1043DC008DF80A3000230593039B181D9DF80A30B5
:1043EC009DF80B10019AFFF789FD0590059B184667
:1043FC0007B05DF804FB00B583B00190019B002B66
:10440C000AD04FF47A70FFF7F9FE019B013B019340
:10441C00019B002BF5D100E000BF03B05DF804FB5D
:10442C0000B58BB0059003921A460B468DF81330ED
:10443C001346ADF81030059B09939DF813309BB2D1
:10444C00ADF81E30099B19780DF11E020123009363
:10445C0001230C48FFF793FF0890089B002B01D019
:10446C0000230AE0099B1978BDF81030DBB2039ADF
:10447C000448FFF7A4FF0890002318460BB05DF822
:10448C0004FB00BF806300002DE9F0438BB002AF4A
:10449C00F8607A601A460B46FB7213463B816B46FA
:1044AC001E46FB68FB613B89591C4B1EBB610A46CF
:1044BC000023904699464FF000024FF000034FEA5C
:1044CC00C90343EA58734FEAC8020A46002314464C
:1044DC001D464FF000024FF00003EB0043EA54730B
:1044EC00E2000B460733DB08DB00ADEB030D02AB40
:1044FC0000337B61FA7A7B691A707B6901333A89E4
:10450C007968184601F002F8FB6919783B89DBB22F
:10451C000133DBB2012200927A690F48FFF72FFFBB
:10452C0038613B69002B0AD10C4A0D4BD31ADB08BE
:10453C001B0443F003030B491846FCF7A3FBFCF7E1
:10454C0013FC0346002BFAD10023B546184624373A
:10455C00BD46BDE8F08300BF806300001856000024
:10456C00F85500006C62000000B587B06B46002265
:10457C001A605A609A60DA600F2300930E2301933D
:10458C004FF0CC73029302238DF80C306946002354
:10459C0000220A48FEF7DEFD0590059B0493049B60
:1045AC00002B04D0064A8E210498FDF72BF8034803
:1045BC00FFF7D9FE00BF07B05DF804FB8063000075
:1045CC00A062000000B58FB000238DF833301620A8
:1045DC00FFF783FE2020FFF780FE002301930223C8
:1045EC0000930023012201211620FFF745FE002332
:1045FC000193022300930023012201212020FFF7C5
:10460C003BFE0420FFF7F7FE00210020FCF770F8BA
:10461C000B900B9B002B04D0B34AA5210B98FCF7F5
:10462C00F1FFFBF7FBFFB14AB14BD31ADB081B04BC
:10463C0043F00303AF491846FCF724FBFFF794FF44
:10464C001E238DF82730AC4B0693AC4B07930DF122
:10465C00270308936B238DF81730A74B0293A74BB6
:10466C0003930DF11703049302A906ABA44A184651
:10467C00FEF741FAA24B1B78682B03D1A04B5B7859
:10468C003D2B00E000BF994A994BD31ADB081B0461
:10469C0043F003009A4B1B781A46994B5B78994967
:1046AC00FCF70FFB02A906AB01221846FEF75BFADA
:1046BC0002A906AB944A1846FEF79CFA924B1B785B
:1046CC00002BF5D102A906AB01221846FEF7F2F831
:1046DC0002AB02211846FEF7C6F802AB03211846BE
:1046EC00FEF732F806AB03211846FEF7BDF902AB14
:1046FC0000211846FEF73DFB02AB10211846FEF7D1
:10470C0092FB02AB00211846FEF766FB02AB0321BD
:10471C001846FEF799FA02AB05211846FEF702FB84
:10472C0002AB12211846FEF7B6FA02AB222118464C
:10473C00FEF731F806AB34211846FEF70FF90023CB
:10474C000D93724B4FF000029A60704B9B686F4A4E
:10475C0053606E4B5B686D4A13606CE002A906AB4C
:10476C006B4A1846FEF7E3F9694B5B7803F00103DB
:10477C00DBB2002B5FD0664B5B7803F00203DBB23D
:10478C00002B58D006220021624800F0F5FE0622CC
:10479C000021614800F0F0FE02AB5E491846FEF7BE
:1047AC009AF902AB5C491846FEF785F9594BB3F9F7
:1047BC0000301846FDF7B4FFF0EE407A574BC3EDCE
:1047CC00007A544BB3F902301846FDF7A9FFF0EE0E
:1047DC00407A524BC3ED017A4E4BB3F90430184674
:1047EC00FDF79EFFF0EE407A4C4BC3ED027A474B3F
:1047FC0093ED007A494BD3ED007A77EE277A434B51
:10480C00C3ED007A414B93ED017A444BD3ED017A21
:10481C0077EE277A3D4BC3ED017A3C4B93ED027A50
:10482C003E4BD3ED027A77EE277A384BC3ED027A02
:10483C000D9B01330D930D9B092B8FDD334B93EDAA
:10484C00007AF2EE046AC7EE267A304BC3ED007A9A
:10485C002E4B93ED017AF2EE046AC7EE267A2B4BBF
:10486C00C3ED017A294B93ED027AF2EE046AC7EE9E
:10487C00267A264BC3ED027A1C4A1D4BD31ADB0851
:10488C001B0443F00300214BD3ED027AF5EEC07A02
:10489C00F1EE10FA0BD51D4BD3ED027ABFEE007A78
:1048AC00F4EEC77AF1EE10FA01DD1D4A00E01D4A64
:1048BC00164BD3ED027AFDEEE77A17EE901A134BF6
:1048CC00D3ED027AF5EEC07AF1EE10FA2CDD0F4B37
:1048DC0093ED027A0D4BD3ED027AFDEEE77AF8EE0A
:1048EC00E77A77EE677A2BE0A0620000185600009A
:1048FC00F8550000F8620000954400002D440000BB
:10490C00B406002018630000BA060020BC06002084
:10491C00B806002098060020A0060020A80600205B
:10492C00486300004C6300007B4BD3ED027AFDEE34
:10493C00E77AB8EEE77A784BD3ED027A77EE677ABE
:10494C009FED767A67EE877AFDEEE77A17EE903A6E
:10495C0000930B467249FCF7C8F900230D93D5E080
:10496C0002A906AB6F4A1846FEF7E1F86D4B5B786F
:10497C0003F00103DBB2002B00F0C880694B5B78BD
:10498C0003F00203DBB2002B00F0C08006220021F2
:10499C00654800F0F1FD06220021644800F0ECFDB2
:1049AC0002AB61491846FEF796F802AB5F49184610
:1049BC00FEF781F85C4BB3F900301846FDF7B0FEFA
:1049CC00F0EE407A5A4BC3ED007A574BB3F90230F4
:1049DC001846FDF7A5FEF0EE407A554BC3ED017A73
:1049EC00514BB3F904301846FDF79AFEF0EE407ABD
:1049FC004F4BC3ED027A4E4B93ED007A464BD3ED01
:104A0C00007A77EE677A4A4BC3ED007A484B93ED08
:104A1C00017A414BD3ED017A77EE677A444BC3EDC3
:104A2C00017A434B93ED027A3B4BD3ED027A77EE4E
:104A3C00677A3F4BC3ED027A3D4B93ED007A3C4BCA
:104A4C00D3ED007A27EE277A394BD3ED016A384B38
:104A5C00D3ED017A66EEA77A37EE277A344BD3ED95
:104A6C00026A334BD3ED027A66EEA77A77EE277A99
:104A7C00CDED0A7A2F4A304BD31ADB081B0443F0D6
:104A8C000300DDED0A7AF5EEC07AF1EE10FA0AD5E4
:104A9C00DDED0A7ABFEE007AF4EEC77AF1EE10FA89
:104AAC0001DD264A00E0264ADDED0A7AFDEEE77AC2
:104ABC0017EE901ADDED0A7AF5EEC07AF1EE10FAE7
:104ACC000ADDDDED0A7AFDEEE77AF8EEE77A9DED88
:104ADC000A7A77EE677A09E0DDED0A7AFDEEE77A7D
:104AEC00B8EEE77ADDED0A7A77EE677A9FED0B7A0E
:104AFC0067EE877AFDEEE77A17EE903A00930B4655
:104B0C001049FCF7F2F80D9B01330D930D9B322BE2
:104B1C007FF726AF13E600BFBC0600200000C8429A
:104B2C0050630000B806002098060020A006002064
:104B3C00A806002018560000F85500004863000035
:104B4C004C6300006863000082B0204B0193019B12
:104B5C0002221A61019B02225A61019B1C4A9A6132
:104B6C00019B1C4ADA61019B4FF400721A62019B93
:104B7C0000229A62019B00225A62019B0022DA6297
:104B8C00019B134A9A64019B134ADA64019B10221D
:104B9C001A65019B00229A65019B00225A65019BB4
:104BAC000022DA65019B07330C4A10681860019BE0
:104BBC000B4A106818609188927999809A71019BC0
:104BCC0020229A7100BF02B0704700BFC8060020B7
:104BDC00986300004007002040090020A4630000F7
:104BEC00A863000000B589B00390029101920023E4
:104BFC000693039BDB680593039B1B690493049A40
:104C0C00059B9A4205D9049A059BD31A013B07933D
:104C1C0007E0039B9A680499059BCB1A1344013B4C
:104C2C000793039B9A68059BD31A079A934228BF54
:104C3C0013460793079A019B934228BF1346079389
:104C4C00039B5A68059B1344079A0299184600F077
:104C5C005DFC069A079B13440693029A079B134428
:104C6C000293019A079BD31A0193059A079B13444D
:104C7C000593039B9B68059A9A4201D100230593E7
:104C8C00039B059ADA60019B002BB5D1069B184655
:104C9C0009B05DF804FB00B589B003900291019254
:104CAC00039BDB680793039B9A68079BD31A0693B5
:104CBC00069A019B9A420ED9039B5A68079B134490
:104CCC00019A0299184600F021FC079A019B1A449C
:104CDC00039BDA601AE0069B0593039B5A68079BBB
:104CEC001344059A0299184600F010FC019A069B91
:104CFC00D31A0593039B5868029A069B1344059A92
:104D0C00194600F003FC039B059ADA6000BF09B05A
:104D1C005DF804FB86B00190019B1B690493019B19
:104D2C00DB680393049A039B9A4208D8019B9A6808
:104D3C00039BD21A049B1344013B059304E0049A91
:104D4C00039BD31A013B0593059B184606B070478D
:104D5C0000B589B0039002910192029B0693039BCC
:104D6C005A1C13465B001344DB00204A1344059382
:104D7C00059B5B69022B29D0022B2ED8002B02D06D
:104D8C00012B13D029E00598FFF7C4FF0490049A77
:104D9C00019B9A4202D20023079321E0019B0793C7
:104DAC00019A06990598FFF776FF19E00598FFF729
:104DBC00B1FF0490019A049B934228BF13460793BA
:104DCC00079A06990598FFF766FF09E0019A06997C
:104DDC000598FFF707FF079002E00023079300BF39
:104DEC00079B184609B05DF804FB00BFC8060020FD
:104DFC0008B5FFF7A9FE00BF08BD0000BFF34F8F39
:104E0C0000BF064BDB6803F4E0620449044B134318
:104E1C00CB60BFF34F8F00BF00BFFDE700ED00E09C
:104E2C000400FA0582B0164B1B680193154B1B68E6
:104E3C000093019B082B1FD1009B052B1AD801A2B4
:104E4C0052F823F0694E00006D4E0000714E0000C8
:104E5C00754E0000794E00007D4E000001230CE0E1
:104E6C0001230AE0012308E0012306E0012304E00A
:104E7C00012302E0012300E00023184602B0704732
:104E8C00300100103401001082B0164B1B680193E6
:104E9C00154B1B680093019B082B1FD1009B052B06
:104EAC001AD801A252F823F0CD4E0000D14E0000CA
:104EBC00D54E0000D94E0000DD4E0000E14E000042
:104ECC0001230CE001230AE0012308E0012306E0A2
:104EDC00012304E0012302E0012300E00023184633
:104EEC0002B07047300100103401001082B0164B34
:104EFC001B680193154B1B680093019B082B1FD15A
:104F0C00009B052B1AD801A252F823F0314F000058
:104F1C00354F0000394F00003D4F0000414F00005D
:104F2C00454F000001230CE000230AE0002308E0B9
:104F3C00002306E0002304E0002302E0002300E04D
:104F4C000023184602B070473001001034010010E5
:104F5C0082B0164B1B680193154B1B680093019B89
:104F6C00082B1FD1009B052B1AD801A252F823F055
:104F7C00954F0000994F00009D4F0000A14F00007D
:104F8C00A54F0000A94F000001230CE000230AE00C
:104F9C00002308E0002306E0002304E0002302E0E5
:104FAC00002300E00023184602B0704730010010C7
:104FBC003401001082B0164B1B680193154B1B6813
:104FCC000093019B082B1FD1009B052B1AD801A223
:104FDC0052F823F0F94F0000FD4F00000150000083
:104FEC0005500000095000000D50000001230CE09A
:104FFC0000230AE0002308E0002306E0002304E07D
:10500C00002302E0002300E00023184602B07047A2
:10501C00300100103401001082B0164B1B68019354
:10502C00154B1B680093019B082B1FD1009B052B74
:10503C001AD801A252F823F05D5000006150000014
:10504C0065500000695000006D5000007150000068
:10505C0001230CE000230AE0002308E0002306E013
:10506C00002304E0002302E0002300E000231846A4
:10507C0002B07047300100103401001082B0164BA2
:10508C001B680193154B1B680093019B082B1FD1C8
:10509C00009B052B1AD801A252F823F0C150000036
:1050AC00C5500000C9500000CD500000D150000088
:1050BC00D550000001230CE001230AE0012308E095
:1050CC00012306E0012304E0012302E0012300E0B8
:1050DC000023184602B07047300100103401001054
:1050EC0082B0164B1B680193154B1B680093019BF8
:1050FC00082B1FD1009B052B1AD801A252F823F0C4
:10510C0025510000295100002D51000031510000A3
:10511C00355100003951000000230CE000230AE057
:10512C00002308E0002306E0012304E0012302E051
:10513C00012300E00023184602B070473001001034
:10514C003401001008B5FFF7CBFF0346002B07D046
:10515C004FF010234FF08042D3F80832C2F8583584
:10516C0000BF08BD00BF044BD3F80034002BFAD0AD
:10517C0000BF00BF704700BF00E0014000B583B026
:10518C000190054A019BC2F80435FFF7EBFF00BF05
:10519C0003B05DF804FB00BF00E00140024B034A82
:1051AC001A6000BF704700BF440000200090D0037D
:1051BC0008B5FFF737FE0346002B0ED04FF08043A7
:1051CC000022C3F80C214FF080430022C3F81021B9
:1051DC004FF080430022C3F83825FFF755FE0346F5
:1051EC00002B76D04FF08053734AD3F80434C2F8B6
:1051FC0020354FF08053704AD3F80834C2F8243568
:10520C004FF080536C4AD3F80C34C2F828354FF069
:10521C008053694AD3F81034C2F82C354FF08053C0
:10522C00654AD3F81434C2F830354FF08053624AD3
:10523C00D3F81834C2F834354FF080535E4AD3F8A3
:10524C001C34C2F840354FF080535B4AD3F82034FD
:10525C00C2F844354FF08053574AD3F82434C2F87F
:10526C0048354FF08053544AD3F82834C2F84C35A3
:10527C004FF08053504AD3F82C34C2F850354FF0CD
:10528C0080534D4AD3F83034C2F854354FF0805324
:10529C00494AD3F83434C2F860354FF08053464A4B
:1052AC00D3F83834C2F864354FF08053424AD3F8FF
:1052BC003C34C2F868354FF080533F4AD3F8403441
:1052CC00C2F86C354FF080533B4AD3F84434C2F8E3
:1052DC007035FFF70BFE0346002B02D0374B384AD4
:1052EC001A60FFF735FE0346002B03D0354BFB222B
:1052FC00C3F81825FFF75EFE0346002B0AD0324B8D
:10530C001B6823F00F02314B1B6803F00F032E496F
:10531C0013430B60FFF780FE0346002B03D02C4B8E
:10532C004FF400721A60FFF7A9FE0346002B0DD054
:10533C004FF08043D3F8003403F00103002B05D069
:10534C004FF080436FF00102C3F80024214BD3F8D7
:10535C008830204A43F47003C2F88830BFF34F8F73
:10536C0000BFBFF36F8F00BFFFF7ECFE4FF01023B1
:10537C00D3F80032002B05DB4FF01023D3F80432A6
:10538C00002B15DA0120FFF7F9FE4FF01023122243
:10539C00C3F80022FFF7E6FE4FF010231222C3F8E9
:1053AC000422FFF7DFFE0020FFF7E8FEFFF726FDE3
:1053BC00FFF7F4FE00BF08BD00C000408C56004053
:1053CC004881030000F00040E40E00405802001039
:1053DC004096024000ED00E0002A04BF0020704718
:1053EC008446097848B2002844BF6FF0010070472A
:1053FC00BCF1000F18BFCCF800100021C3E900115C
:10540C00002818BF012070477F298EBF6FF0010064
:10541C0001700120704740F65012C2F2000213686E
:10542C00002B02BF40F24803C2F2000313605A681B
:10543C009268126810470921FFF7EDBF7F2884BFDF
:10544C000020704746F2C452C0F20002515C46F292
:10545C004452C0F20002105C08407047A0F1610198
:10546C001A2938BF20387047A0F141011A2938BFDA
:10547C00203070477F2884BF0020704746F2C4520A
:10548C00C0F20002515C46F24452C0F20002105CC1
:10549C0008407047A0F161011A2938BF20387047C5
:1054AC00A0F141011A2938BF20307047411C8207F6
:1054BC000CD010F8012B3AB3820707D010F8012B4F
:1054CC0012B3820702D010F8012BEAB14FF0013C65
:1054DC0050F8042BCCFA52F37BB950F8042BCCFACD
:1054EC0052F353B950F8042BCCFA52F32BB950F8B1
:1054FC00042BCCFA52F3002BEAD004381BBAB3FAC3
:10550C0083F300EBD3000130401A704772B384462A
:10551C0090EA01039B0721D1830709D011F8013BC5
:10552C0000F8013B013A20D08307F7D100E0844614
:10553C00202A0AD32DE9F007B1E8F807A0E8F8070C
:10554C00203A202AF8D2BDE8F007042A06D351F8F5
:10555C00043B40F8043B043A042AF8D22AB111F86F
:10556C00013B00F8013B013AF9D16046704700BF9E
:10557C0000220B0011001A0084465AB3830704D092
:10558C0000F8011B013AF9D124E0C9B241EA01212A
:10559C0041EA0141202A11D3203A2DE9F0030B46B0
:1055AC000C460D460E460F4688468946A0E8FA037F
:1055BC00203AFBD2BDE8F00320320BD0042A05D3ED
:1055CC0040F8041B043A05D0042AF9D200F8011B58
:1055DC00013AFBD160467047072904D90023024ADF
:0C55EC00C0E90031106070475409002035
:1055F800985F0000000000005860000000000000F4
:105608001C61000000000000DC61000000000000D8
:08561800E0560000000003034E
:105620004456000000000000585600000000002012
:1056300068010020A0000020A8000020A800002091
:04564000180000004E
:10564400B5040000E7040000DD0400000338FDD8C1
:10565400704700007274745F6C6F675F6261636BA4
:10566400656E6400433A5C45453431345F456D6290
:1056740065646465645F53797374656D735C6E52BD
:1056840046355F53444B5F31372E312E305F6464AF
:1056940064653536305C636F6D706F6E656E747300
:1056A4005C6C69627261726965735C6C6F675C7370
:1056B40072635C6E72665F6C6F675F64656661756A
:1056C4006C745F6261636B656E64732E63000000CB
:1056D400700100207F000000F00100206170700064
:1056E400433A5C45453431345F456D6265646465B5
:1056F400645F53797374656D735C6E5246355F53A2
:10570400444B5F31372E312E305F64646465353627
:10571400305C636F6D706F6E656E74735C6C696220
:105724007261726965735C6C6F675C7372635C6EE3
:1057340072665F6C6F675F66726F6E74656E642EFF
:10574400630000004261636B656E647320666C7570
:1057540073686564000000006572726F7200000077
:105764007761726E696E6700696E666F0000000093
:1057740064656275670000001B5B306D000000000B
:105784001B5B313B33306D001B5B313B33316D00B0
:105794001B5B313B33326D001B5B313B33336D009C
:1057A4001B5B313B33346D001B5B313B33356D0088
:1057B4001B5B313B33366D001B5B313B33376D0074
:1057C40025734C6F67732064726F70706564202852
:1057D40025642925730D0A00257300003C25733EBA
:1057E4002025733A200000000D0A000020253032E5
:1057F40078000000202020007C00000025630000C9
:1058040020000000415353455254494F4E20464115
:10581400494C45442061742025733A2575000000E5
:105824004552524F52202575205B25735D206174CB
:105834002025733A25750D0A50432061743A2030AF
:105844007825303878000000456E64206F66206546
:1058540072726F72207265706F727400554E4B4E87
:105864004F574E204641554C5420617420307825C2
:1058740030385800433A5C45453431345F456D62F5
:1058840065646465645F53797374656D735C6E52AB
:1058940046355F53444B5F31372E312E305F64649D
:1058A40064653536305C636F6D706F6E656E7473EE
:1058B4005C6C69627261726965735C7574696C5C55
:1058C4006170705F7574696C5F706C6174666F721F
:1058D4006D2E6300433A5C45453431345F456D6257
:1058E40065646465645F53797374656D735C6E524B
:1058F40046355F53444B5F31372E312E305F64643D
:1059040064653536305C636F6D706F6E656E74738D
:105914005C6C69627261726965735C62616C6C6F04
:10592400635C6E72665F62616C6C6F632E63000011
:10593400433A5C45453431345F456D626564646562
:10594400645F53797374656D735C6E5246355F534F
:10595400444B5F31372E312E305F646464653536D5
:10596400305C65787465726E616C5C667072696EC9
:1059740074665C6E72665F667072696E74662E63BE
:1059840000000000433A5C45453431345F456D62A4
:1059940065646465645F53797374656D735C6E529A
:1059A40046355F53444B5F31372E312E305F64648C
:1059B40064653536305C65787465726E616C5C66FE
:1059C4007072696E74665C6E72665F667072696E20
:1059D40074665F666F726D61742E630030313233AA
:1059E400343536373839414243444546433A5C45B9
:1059F400453431345F456D6265646465645F537931
:105A04007374656D735C6E5246355F53444B5F31FE
:105A1400372E312E305F646464653536305C636FD5
:105A24006D706F6E656E74735C6C696272617269BD
:105A340065735C6D656D6F626A5C6E72665F6D65E1
:105A44006D6F626A2E630000556E6B6E6F776E2009
:105A54006572726F7220636F646500004E52465F18
:105A640053554343455353004E52465F4552524F9C
:105A7400525F5356435F48414E444C45525F4D4933
:105A84005353494E470000004E52465F4552524F11
:105A9400525F534F46544445564943455F4E4F5415
:105AA4005F454E41424C4544000000004E52465F63
:105AB4004552524F525F494E5445524E414C00009C
:105AC4004E52465F4552524F525F4E4F5F4D454DC9
