:1000000000000420190200000102000003020000A9
:1000100005020000070200000902000000000000C5
:100020000000000000000000000000000B020000C3
:100030000D020000000000000F020000110200008D
:100040001302000013020000B91B0000DD2D0000A8
:10005000F52D00001302000013020000130200003F
:10006000130200001302000013020000130200003C
:10007000130200001302000013020000130200002C
:10008000130200001302000013020000130200001C
:10009000130200001302000013020000130200000C
:1000A00013020000130200001302000013020000FC
:1000B0001302000013020000000000000000000016
:1000C00013020000130200001302000013020000DC
:1000D00013020000130200001302000013020000CC
:1000E00013020000130200001302000000000000D1
:1000F00000000000130200000000000013020000D6
:1001000000000000000000000000000000000000EF
:1001100000000000000000000000000000000000DF
:1001200000000000000000000000000000000000CF
:1001300000000000000000000000000000000000BF
:1001400000000000000000000000000000000000AF
:10015000000000000000000000000000000000009F
:10016000000000000000000000000000000000008F
:10017000000000000000000000000000000000007F
:10018000000000000000000000000000000000006F
:10019000000000000000000000000000000000005F
:1001A000000000000000000000000000000000004F
:1001B000000000000000000000000000000000003F
:1001C000000000000000000000000000000000002F
:1001D000000000000000000000000000000000001F
:1001E000000000000000000000000000000000000F
:1001F00000000000000000000000000000000000FF
:10020000FEE7FEE7FEE7FEE7FEE7FEE7FEE7FEE7C6
:10021000FEE7FEE700F002B8FFF7FCBF0F484FF023
:100220000701884385460E4880470E48016841F41F
:1002300070010160BFF34F8FBFF36F8F00F01AB8EA
:1002400009480A490A4A884207D0521A05D0037859
:1002500001300B700131013AF9D1704700000420E0
:100260006116000088ED00E0FC5F00000000002047
:1002700000000020344935480A1A02D00722914371
:100280008D46334933480A1A06D00722914381F339
:100290000988022282F314882F483049304A00F03E
:1002A00041F830483049314A00F03CF83048314993
:1002B000314A00F037F831483149324A00F032F81B
:1002C00031483249324A00F02DF832483249334A37
:1002D00000F028F832483349334A00F023F8334815
:1002E0003349002200F029F832483349002200F057
:1002F00024F832483249091A05F042FE314A904743
:100300001F482049884205D00268043003B4904752
:1003100003BCF7E700208646EC46002000212A4A6D
:100320009047FEE7884207D0521A05D00378013083
:100330000B700131013AF9D17047884202D0027046
:100340000130FAE7704700000000042000E00320BD
:1003500000000420000004201471000000000020B0
:1003600064000020CC030000CC030000945F000078
:100370001471000000000020000000201060000048
:1003800010600000106000001060000010600000AD
:10039000106000001060000010600000117100008B
:1003A00078710000640000206400002064000020D8
:1003B0002C5D00202C5D00202C5D00202C5D002099
:0C03C0002C7D002041020000690E0000AE
:1003CC0000B585B00190019B002B0AD0074B43F080
:1003DC0001030393019B9B010293039B0298984793
:1003EC0000E000BF05B05DF804FB00BF40610000F9
:1003FC0000B583B00190019B1B68184600F06DF8A6
:10040C000346002B04D10B494FF4F67002F035FE75
:10041C00019B1B681F2B02D84FF0A04306E0019BE9
:10042C001B6803F01F02019B1A60034B184603B0B4
:10043C005DF804FB106000000003005000B585B0AF
:10044C000190084611461A4603468DF803300B46B8
:10045C008DF8023013468DF8013001AB1846FFF7CA
:10046C00C7FF03909DF803209DF802305B001A43F0
:10047C009DF801309B001A439DF818301B0242EA8C
:10048C0003019DF81C301B04019A1943039B02F5D0
:10049C00E07243F8221000BF05B05DF804FB00B514
:1004AC0085B0019001AB1846FFF7A2FF0390019BAA
:1004BC00012202FA03F31946039800F004F800BF76
:1004CC0005B05DF804FB82B001900091019B009A8D
:1004DC00C3F8082500BF02B0704784B00190019B9F
:1004EC005B09029300230393029B002B03D0029B16
:1004FC00012B04D007E04FF0FF33039303E04FF6DA
:10050C00FF73039300BF019B03F01F030193039A36
:10051C00019B22FA03F303F00103002B14BF012308
:10052C000023DBB2184604B0704700B583B00190CD
:10053C00019B0433184601F0B5FF00BF03B05DF812
:10054C0004FB00B589B0059003921A460B468DF852
:10055C00133013468DF8123000230793059B181D9A
:10056C009DF812209DF813109DF828300093134627
:10057C00039A02F091FA0790079B184609B05DF8B0
:10058C0004FB00B587B0039001921A460B468DF818
:10059C000B3013468DF80A3000230593039B181D6E
:1005AC009DF80A309DF80B10019A02F09DFA059007
:1005BC00059B184607B05DF804FB00B583B00190AD
:1005CC00019B002B0AD04FF47A70FFF7F9FE019BC8
:1005DC00013B0193019B002BF5D100E000BF03B060
:1005EC005DF804FB82B001900091019B1B78002BFD
:1005FC0003D1044B01221A7000E000BF00BF02B00F
:10060C00704700BF5401002000B589B002AB002236
:10061C001A605A609A60DA600F2302930E230393D8
:10062C004FF0CC73049302238DF8143002A90023ED
:10063C00144A154801F086FA0790079B0693069B0F
:10064C00002B04D0114A8021069802F023FC0E489E
:10065C00FFF76BFF00230193072300930323002272
:10066C0000210E20FFF7EAFE0023019307230093DD
:10067C000323002200210F20FFF7E0FE00BF09B08A
:10068C005DF804FBF10500001461000040600000FF
:10069C0000B58BB003AB00221A605A609A60DA6026
:1006AC00022303931F2304934FF0CC73059302236F
:1006BC008DF8183003AB1946194803F0F1FE099078
:1006CC00099B0893089B002B04D0164A9821089884
:1006DC0002F0E0FB144803F039FF0990099B0793E3
:1006EC00079B002B04D00F4A9A21079802F0D2FBEB
:1006FC0000230193072300930323002200211F20D2
:10070C00FFF79CFE00230193072300930323002291
:10071C0000210220FFF792FE00BF0BB05DF804FB36
:10072C0024610000406000000000002000B5C7B04C
:10073C0046ABA3F588731960114646ABA3F20913B7
:10074C0002461A7046ABA3F586730A461A8046AB6E
:10075C00A3F5847300221A600433FB22002118468F
:10076C0005F0B4FB46ABA3F5847346AAA2F20912BA
:10077C0012781A7046ABA3F58673198846ABA3F5AD
:10078C00887304AA501C0A46196805F069FB154BBE
:10079C0000221A7046ABA3F586731B88DBB20133BB
:1007AC00DBB204AA002100916B210F48FFF7C9FEB0
:1007BC004590459B4493449B002B04D00B4AB92194
:1007CC00449802F067FB00BF064B1B78DBB283F04A
:1007DC000103DBB2002BF7D1459B5BB2184647B047
:1007EC005DF804FB5401002014610000406000001F
:1007FC0000B589B0034602918DF80F301346ADF861
:10080C000C30224B00221A700DF10F0201230093C1
:10081C0001236B211E48FFF794FE0790079B06935C
:10082C00069B002B04D01B4ACA21069802F032FB0F
:10083C0000BF164B1B78DBB283F00103DBB2002B3D
:10084C00F7D1124B00221A70BDF80C30DBB2029AB1
:10085C006B210F48FFF795FE0790079B0593059BAF
:10086C00002B04D00B4ACF21059802F013FB00BFDC
:10087C00064B1B78DBB283F00103DBB2002BF7D104
:10088C00079B5BB2184609B05DF804FB54010020CD
:10089C00146100004060000000B5C7B046ABA3F582
:1008AC0088731960114646ABA3F2091302461A70FD
:1008BC0046ABA3F586730A461A8046ABA3F5847340
:1008CC0000221A600433FB220021184605F0FEFAC0
:1008DC0046ABA3F5847346AAA2F2091212781A70D9
:1008EC0046ABA3F58673198846ABA3F5887304AAA7
:1008FC00501C0A46196805F0B3FA154B00221A7001
:10090C0046ABA3F586731B88DBB20133DBB204AABA
:10091C000021009139210F48FFF713FE4590459BAC
:10092C004493449B002B04D00B4AE821449802F0DA
:10093C00B1FA00BF064B1B78DBB283F00103DBB2CC
:10094C00002BF7D1459B5BB2184647B05DF804FB12
:10095C0054010020146100004060000000B589B013
:10096C00034602918DF80F301346ADF80C30224B34
:10097C0000221A700DF10F0201230093012339217B
:10098C001E48FFF7DEFD0790079B0693069B002B86
:10099C0004D01B4AF921069802F07CFA00BF164BD2
:1009AC001B78DBB283F00103DBB2002BF7D1124BC7
:1009BC0000221A70BDF80C30DBB2029A39210F48B4
:1009CC00FFF7DFFD0790079B0593059B002B04D0D9
:1009DC000B4AFE21059802F05DFA00BF064B1B780E
:1009EC00DBB283F00103DBB2002BF7D1079B5BB2C8
:1009FC00184609B05DF804FB540100201461000096
:100A0C004060000000B583B070238DF807300DF105
:100A1C000703012219462020FFF788FE00BF03B010
:100A2C005DF804FB00B583B00DF1070301221946F4
:100A3C001720FFF7DDFE9DF8073003F00503002BB0
:100A4C0001D0012310E00A4A0A4BD31ADB081B041D
:100A5C0043F003030849184604F0E8F904F058FA87
:100A6C000346002BFAD10023184603B05DF804FBB3
:100A7C00B45F0000945F0000A060000000B58BB074
:100A8C00039002910192FFF7CDFF0346002B13D088
:100A9C00002309930DE0099BDBB22833D8B204AADA
:100AAC00099B134401221946FFF7A2FE099B01334F
:100ABC000993099B052BEEDD9DF811301B029DF867
:100ACC001020134408939DF813301B029DF812203C
:100ADC00134407939DF815301B029DF81420134402
:100AEC000693089BB3F5004F03DB089BA3F58033FB
:100AFC000893079BB3F5004F03DB079BA3F58033EB
:100B0C000793069BB3F5004F03DB069BA3F58033DD
:100B1C000693089805F0D2F84FF00002264B04F02B
:100B2C0053FF02460B46104619464FF00002234B6A
:100B3C0004F0E2FF02460B461046194605F0D0F8C9
:100B4C000246039B1A60079805F0B8F84FF00002B4
:100B5C00194B04F039FF02460B46104619464FF06C
:100B6C000002164B04F0C8FF02460B46104619460D
:100B7C0005F0B6F80246029B1A60069805F09EF83E
:100B8C004FF000020C4B04F01FFF02460B461046C0
:100B9C0019464FF00002094B04F0AEFF02460B461B
:100BAC001046194605F09CF80246019B1A6000BFDE
:100BBC000BB05DF804FB00BF000010400000E040EB
:100BCC0000B58BB08F238DF807300DF10703012290
:100BDC001946A620FFF760FE03468DF827309DF9D5
:100BEC0027300893089B002B05D0624A4FF4DF7125
:100BFC00089802F04FF90DF1070301221946A220C3
:100C0C00FFF7ACFE03468DF827309DF8073063F0F4
:100C1C003F03DBB28DF807300DF1070301221946B3
:100C2C00A220FFF739FE03468DF827309DF92730B7
:100C3C000793079B002B05D04E4A4FF4E27107989F
:100C4C0002F028F92A238DF807300DF10703012251
:100C5C001946A320FFF720FE03468DF827309DF997
:100C6C0027300693069B002B05D0424A40F2C9114F
:100C7C00069802F00FF90DF1070301221946AA207C
:100C8C00FFF76CFE03468DF827309DF8073023F0F4
:100C9C000303DBB28DF807309DF927300593059BD4
:100CAC00002B05D0334A4FF4E771059802F0F2F8A7
:100CBC000DF1070301221946AA20FFF7EDFD0346AB
:100CCC008DF827309DF927300493049B002B05D019
:100CDC00284A4FF4E871049802F0DCF804238DF8EC
:100CEC0007300DF10703012219468F20FFF7D4FDC1
:100CFC0003468DF827309DF927300393039B002B77
:100D0C0005D01C4A4FF4EA71039802F0C3F80DF1B8
:100D1C00070301221946AB20FFF720FE03468DF88E
:100D2C0027309DF92730002B01D000231DE09DF8C2
:100D3C00073023F00103DBB28DF807300DF1070308
:100D4C0001221946AB20FFF7A7FD03468DF827308B
:100D5C009DF927300293029B002B05D0054A40F2E7
:100D6C00DB11029802F096F8012318460BB05DF8DF
:100D7C0004FB00BF4060000000B585B04FF00003DD
:100D8C0003934FF0000302934FF0000301930023F1
:100D9C00009335E0009B9B002A4A9818009B9B000F
:100DAC00294A9918009B9B00284A13441A46FFF7BE
:100DBC0065FE244A009B9B001344D3ED007A9DED05
:100DCC00037A77EE277ACDED037A1F4A009B9B00BE
:100DDC001344D3ED007A9DED027A77EE277ACDEDB0
:100DEC00027A1A4A009B9B001344D3ED007A9DEDC6
:100DFC00017A77EE277ACDED017A009B01330093CF
:100E0C00009B132BC6DD9DED037AF3EE046AC7EE4F
:100E1C00267A0F4BC3ED007A9DED027AF3EE046A4D
:100E2C00C7EE267A0B4BC3ED007A9DED017AF3EEFB
:100E3C00046AC7EE267A084BC3ED007A00BF05B0F2
:100E4C005DF804FB64000020B400002004010020C5
:100E5C00580100205C0100206001002000B589B021
:100E6C0000238DF81F301620FFF719FB2020FFF709
:100E7C0016FB00230193022300930023012201217E
:100E8C001620FFF7DBFA00230193022300930023C3
:100E9C00012201212020FFF7D1FA0420FFF78DFB5E
:100EAC000021002003F0F8FC0690069B002B05D0D7
:100EBC003D4A40F2FF11069801F0ECFF03F082FC72
:100ECC003A4A3B4BD31ADB081B0443F00303394962
:100EDC00184603F0ABFFFFF797FBFFF7D9FB012098
:100EEC0000F0C8F900F07EF9FFF76AFEFFF78AFD03
:100EFC00FFF742FF4FF000030393039B0493049B03
:100F0C0005936420FFF759FB03AA04A905AB184607
:100F1C00FFF7B4FD254A264BD31ADB081B0443F01C
:100F2C000300DDED037AF5EEC07AF1EE10FA0AD586
:100F3C00DDED037ABFEE007AF4EEC77AF1EE10FA2B
:100F4C0001DD1D4A00E01D4ADDED037AFDEEE77A76
:100F5C0017EE901ADDED037AF5EEC07AF1EE10FA89
:100F6C000ADD9DED037ADDED037AFDEEE77AF8EE0E
:100F7C00E77A77EE677A09E0DDED037AFDEEE77A42
:100F8C00B8EEE77ADDED037A77EE677A9FED0C7AAF
:100F9C0067EE877AFDEEE77A17EE903A00930B46F0
:100FAC00084903F076FFACE740600000B45F000036
:100FBC00945F0000DC600000F4600000F86000004A
:100FCC000000C842FC60000000B583B00190019B9A
:100FDC001B68184600F0C3F80346002B04D10B49DC
:100FEC004FF4F67002F049F8019B1B681F2B02D8D6
:100FFC004FF0A04306E0019B1B6803F01F02019B0E
:10100C001A60034B184603B05DF804FB48610000FE
:10101C000003005000B585B00190084611461A46F1
:10102C0003468DF803300B468DF8023013468DF8CD
:10103C00013001AB1846FFF7C7FF03909DF8032062
:10104C009DF802305B001A439DF801309B001A4357
:10105C009DF818301B0242EA03019DF81C301B045A
:10106C00019A1943039B02F5E07243F8221000BF6A
:10107C0005B05DF804FB00B585B003900023019327
:10108C00002300930023012201210398FFF7C2FFE4
:10109C0000BF05B05DF804FB00B585B003900B46AE
:1010AC008DF80B309DF80B3000220192002200923B
:1010BC00002200210398FFF7ADFF00BF05B05DF8DB
:1010CC0004FB00B585B0019001AB1846FFF77CFF1F
:1010DC000390019B012202FA03F31946039800F0D6
:1010EC002AF800BF05B05DF804FB00B585B001908F
:1010FC0001AB1846FFF768FF0390019B012202FA2F
:10110C0003F31946039800F020F800BF05B05DF812
:10111C0004FB00B583B001900091009B002B03D120
:10112C000198FFF7E2FF02E00198FFF7CAFF00BF4A
:10113C0003B05DF804FB82B001900091019B009A12
:10114C00C3F8082500BF02B0704782B0019000912F
:10115C00019B009AC3F80C2500BF02B0704784B005
:10116C000190019B5B09029300230393029B002BCC
:10117C0003D0029B012B04D007E04FF0FF33039305
:10118C0003E04FF6FF73039300BF019B03F01F03B3
:10119C000193039A019B22FA03F303F00103002B42
:1011AC0014BF01230023DBB2184604B070470000C3
:1011BC0000B583B00190019B032B03D9074947204D
:1011CC0001F05BFF064A019B13441B780121184672
:1011DC00FFF79FFF00BF03B05DF804FB78610000D0
:1011EC00C861000000B583B00023019305E00198AD
:1011FC00FFF7DEFF019B01330193019B032BF6D913
:10120C0000BF00BF03B05DF804FB000000B583B065
:10121C000023019309E0094A019B13441B781846EB
:10122C00FFF729FF019B01330193019B032BF2D99B
:10123C00FFF7D8FF00BF03B05DF804FBC8610000E6
:10124C0000B583B0002301930AE0094A019B1344C3
:10125C001B7803211846FFF71FFF019B01330193F5
:10126C00019B032BF1D900BF00BF03B05DF804FB59
:10127C00CC61000000B583B00190019B03F0010329
:10128C00002B01D0FFF7C2FF019B03F00203002BE0
:10129C0001D0FFF7D5FF00BF03B05DF804FB0000E1
:1012AC00BFF34F8F00BF064BDB6803F4E0620449C9
:1012BC00044B1343CB60BFF34F8F00BF00BFFDE760
:1012CC0000ED00E00400FA0582B0164B1B68019398
:1012DC00154B1B680093019B082B1FD1009B052B02
:1012EC001AD801A252F823F00D13000011130000BC
:1012FC0015130000191300001D130000211300002A
:10130C0001230CE001230AE0012308E0012306E09D
:10131C00012304E0012302E0012300E0002318462E
:10132C0002B07047300100103401001082B0164B2F
:10133C001B680193154B1B680093019B082B1FD155
:10134C00009B052B1AD801A252F823F07113000050
:10135C0075130000791300007D1300008113000049
:10136C008513000001230CE001230AE0012308E0AF
:10137C00012306E0012304E0012302E0012300E045
:10138C000023184602B070473001001034010010E1
:10139C0082B0164B1B680193154B1B680093019B85
:1013AC00082B1FD1009B052B1AD801A252F823F051
:1013BC00D5130000D9130000DD130000E113000069
:1013CC00E5130000E913000001230CE000230AE000
:1013DC00002308E0002306E0002304E0002302E0E1
:1013EC00002300E00023184602B0704730010010C3
:1013FC003401001082B0164B1B680193154B1B680F
:10140C000093019B082B1FD1009B052B1AD801A21E
:10141C0052F823F0391400003D1400004114000070
:10142C0045140000491400004D14000001230CE089
:10143C0000230AE0002308E0002306E0002304E078
:10144C00002302E0002300E00023184602B070479E
:10145C00300100103401001082B0164B1B68019350
:10146C00154B1B680093019B082B1FD1009B052B70
:10147C001AD801A252F823F09D140000A114000008
:10148C00A5140000A9140000AD140000B114000054
:10149C0001230CE000230AE0002308E0002306E00F
:1014AC00002304E0002302E0002300E000231846A0
:1014BC0002B07047300100103401001082B0164B9E
:1014CC001B680193154B1B680093019B082B1FD1C4
:1014DC00009B052B1AD801A252F823F0011500002D
:1014EC0005150000091500000D1500001115000070
:1014FC001515000001230CE000230AE0002308E08E
:10150C00002306E0002304E0002302E0002300E0B7
:10151C000023184602B0704730010010340100104F
:10152C0082B0164B1B680193154B1B680093019BF3
:10153C00082B1FD1009B052B1AD801A252F823F0BF
:10154C0065150000691500006D150000711500008F
:10155C00751500007915000001230CE001230AE049
:10156C00012308E0012306E0012304E0012302E04B
:10157C00012300E00023184602B070473001001030
:10158C003401001082B0164B1B680193154B1B687D
:10159C000093019B082B1FD1009B052B1AD801A28D
:1015AC0052F823F0C9150000CD150000D11500002C
:1015BC00D5150000D9150000DD15000000230CE046
:1015CC0000230AE0002308E0002306E0012304E0E6
:1015DC00012302E0012300E00023184602B070470B
:1015EC00300100103401001008B5FFF7CBFF0346A3
:1015FC00002B07D04FF010234FF08042D3F8083265
:10160C00C2F8583500BF08BD00BF044BD3F80034F6
:10161C00002BFAD000BF00BF704700BF00E00140B4
:10162C0000B583B00190054A019BC2F80435FFF761
:10163C00EBFF00BF03B05DF804FB00BF00E001400E
:10164C00024B034A1A6000BF704700BF080000201D
:10165C000090D00308B5FFF737FE0346002B0ED0E1
:10166C004FF080430022C3F80C214FF0804300223E
:10167C00C3F810214FF080430022C3F83825FFF740
:10168C0055FE0346002B76D04FF08053734AD3F8A7
:10169C000434C2F820354FF08053704AD3F8083424
:1016AC00C2F824354FF080536C4AD3F80C34C2F88E
:1016BC0028354FF08053694AD3F81034C2F82C35D2
:1016CC004FF08053654AD3F81434C2F830354FF0DC
:1016DC008053624AD3F81834C2F834354FF0805333
:1016EC005E4AD3F81C34C2F840354FF080535B4A45
:1016FC00D3F82034C2F844354FF08053574AD3F80E
:10170C002434C2F848354FF08053544AD3F8283467
:10171C00C2F84C354FF08053504AD3F82C34C2F8F1
:10172C0050354FF080534D4AD3F83034C2F854350D
:10173C004FF08053494AD3F83434C2F860354FF037
:10174C008053464AD3F83834C2F864354FF080538E
:10175C00424AD3F83C34C2F868354FF080533F4AC4
:10176C00D3F84034C2F86C354FF080533B4AD3F871
:10177C004434C2F87035FFF70BFE0346002B02D041
:10178C00374B384A1A60FFF735FE0346002B03D05F
:10179C00354BFB22C3F81825FFF75EFE0346002BE2
:1017AC000AD0324B1B6823F00F02314B1B6803F03D
:1017BC000F032E4913430B60FFF780FE0346002BEB
:1017CC0003D02C4B4FF400721A60FFF7A9FE0346AE
:1017DC00002B0DD04FF08043D3F8003403F00103FD
:1017EC00002B05D04FF080436FF00102C3F80024AA
:1017FC00214BD3F88830204A43F47003C2F8883068
:10180C00BFF34F8F00BFBFF36F8F00BFFFF7ECFE2E
:10181C004FF01023D3F80032002B05DB4FF01023D0
:10182C00D3F80432002B15DA0120FFF7F9FE4FF044
:10183C0010231222C3F80022FFF7E6FE4FF010230C
:10184C001222C3F80422FFF7DFFE0020FFF7E8FEA8
:10185C00FFF726FDFFF7F4FE00BF08BD00C00040F7
:10186C008C5600404881030000F00040E40E00401C
:10187C00580200104096024000ED00E000B585B023
:10188C000190019B002B0AD0074B43F001030393FB
:10189C00019B9B010293039B0298984700E000BFB9
:1018AC0005B05DF804FB00BF0062000000B583B01A
:1018BC000190019B1B68184600F077F80346002B3B
:1018CC0004D10B494FF4F67001F0D7FB019B1B6858
:1018DC001F2B02D84FF0A04306E0019B1B6803F0BE
:1018EC001F02019B1A60034B184603B05DF804FB02
:1018FC00D06100000003005000B585B0019001AB31
:10190C001846FFF7D3FF0390019B012202FA03F361
:10191C001946039800F035F800BF05B05DF804FBDC
:10192C0000B585B0019001AB1846FFF7BFFF0390DF
:10193C00019B012202FA03F31946039800F02BF8DD
:10194C0000BF05B05DF804FB00B585B0019001AB9C
:10195C001846FFF7ABFF0390039800F00AF8024615
:10196C00019B22FA03F303F00103184605B05DF85E
:10197C0004FB82B00190019BD3F81035184602B0DD
:10198C00704782B001900091019B009AC3F8082522
:10199C0000BF02B0704782B001900091019B009A89
:1019AC00C3F80C2500BF02B0704784B00190019BB6
:1019BC005B09029300230393029B002B03D0029B31
:1019CC00012B04D007E04FF0FF33039303E04FF6F5
:1019DC00FF73039300BF019B03F01F030193039A52
:1019EC00019B22FA03F303F00103002B14BF012324
:1019FC000023DBB2184604B0704700B585B00190E7
:101A0C004FF0A042019B1B6803F5E07340F20C61A0
:101A1C0042F823104FF0A042019B5B6803F5E07382
:101A2C0040F20C6142F82310019B1B681846FFF72B
:101A3C0063FF019B5B681846FFF75EFF4FF0A04207
:101A4C00019B1B6803F5E07340F20D6142F8231013
:101A5C004FF0A042019B5B6803F5E07340F20D610F
:101A6C0042F823100420FFF709FF002303931EE024
:101A7C00019B5B681846FFF767FF0346002B03D0FA
:101A8C00039B002B17D124E0019B1B681846FFF722
:101A9C0047FF0420FFF7F2FE019B1B681846FFF777
:101AAC002BFF0420FFF7EAFE039B01330393039BF8
:101ABC00082BDDDD00E000BF019B5B681846FFF7DB
:101ACC002FFF0420FFF7DAFE019B5B681846FFF737
:101ADC0013FF05B05DF804FB00B589B001900091CF
:101AEC00009B0793019B1B788DF80C30019B1B7995
:101AFC008DF81030019B5B798DF81130019B9B6840
:101B0C00DBB28DF81230019BDB68DBB28DF8133041
:101B1C00019B1B690593019B5B690693074A079B15
:101B2C0052F823300649079A51F8221003AA10469E
:101B3C00984700BF09B05DF804FB00BF2C5400208F
:101B4C003454002000B587B00390029101920093A9
:101B5C00039B1B7805931249059B019A41F823209E
:101B6C001049059B009A41F82320029B5B7B002BBC
:101B7C0002D00298FFF741FF00230493039B181D2A
:101B8C00019B002B01D0084A00E00022059B029922
:101B9C0000F096FB0490049B184607B05DF804FB1C
:101BAC002C54002034540020E51A000008B5064BD4
:101BBC001B68002B03D10549512001F05EFA024B42
:101BCC001B68984708BD00BF3C5400200C62000005
:101BDC0082B00190019B044A934201D1034B00E077
:101BEC000023184602B07047002000403C540020EF
:101BFC0000B587B001900091019B002B03D11849CF
:101C0C00772001F03AFA0198FFF7E2FF0590059B67
:101C1C00002B1ED000238DF81330002001F0E6F9C4
:101C2C00059B1B79002B03D001238DF8133005E0A5
:101C3C00059B009A1A60059B01221A71002001F085
:101C4C00E9F99DF81330002B03D011230393039B68
:101C5C0002E000230393039B184607B05DF804FBD6
:101C6C000C62000000B585B00190019B002B03D1E4
:101C7C000A499B2001F001FA0198FFF7A9FF039094
:101C8C00039B002B05D0039B00221A60039B0022B0
:101C9C001A7100BF05B05DF804FB00BF0C620000B8
:101CAC0082B003468DF807309DF90730002B0CDB12
:101CBC009DF8073003F01F0205499DF907305B09B9
:101CCC00012000FA02F241F8232000BF02B0704755
:101CDC0000E100E082B003468DF807309DF9073033
:101CEC00002B13DB9DF8073003F01F0209499DF907
:101CFC0007305B09012000FA02F2203341F823205F
:101D0C00BFF34F8F00BFBFF36F8F00BF00BF02B098
:101D1C00704700BF00E100E082B003468DF8073049
:101D2C009DF90730002B0DDB9DF8073003F01F02E7
:101D3C0006499DF907305B09012000FA02F2603375
:101D4C0041F8232000BF02B0704700BF00E100E063
:101D5C0082B0034600918DF807309DF90730002BB7
:101D6C000ADB009BDAB20C499DF907305201D2B262
:101D7C000B4483F800230BE0009BDAB207499DF873
:101D8C00073003F00F03043B5201D2B20B441A7616
:101D9C0000BF02B0704700BF00E100E000ED00E0C2
:101DAC0082B00190019B03F06043B3F1005F0CBF64
:101DBC0001230023DBB2184602B0704782B00190B9
:101DCC00019B1B0B5BB2184602B0704700B583B089
:101DDC0003460A468DF8073013468DF806309DF8F9
:101DEC000630072B03D908496B2001F046F99DF802
:101DFC0006209DF9073011461846FFF7A9FF00BFD2
:101E0C0003B05DF804FB00BF6862000000B583B04E
:101E1C0003468DF807309DF907301846FFF740FF51
:101E2C0000BF03B05DF804FB00B583B003468DF82A
:101E3C0007309DF907301846FFF74CFF00BF03B081
:101E4C005DF804FB00B583B003468DF807309DF9AF
:101E5C0007301846FFF760FF00BF03B05DF804FBC6
:101E6C0082B001900B468DF803309DF80330019A37
:101E7C00134401221A6000BF02B0704784B0019075
:101E8C000B46ADF80230BDF80230019A1344002223
:101E9C001A60BDF80230019A13441B680393039B2C
:101EAC0000BF04B0704782B001900B46ADF8023011
:101EBC00BDF80230019A13441B68002B14BF012398
:101ECC000023DBB2184602B0704782B0019000913B
:101EDC00019BD3F80022009BDB431A40019BC3F803
:101EEC00002200BF02B0704782B001900091019BAC
:101EFC00009AC3F8042300BF02B0704782B001906F
:101F0C000091019B009AC3F8082300BF02B07047F0
:101F1C0082B00190019B0622C3F8002500BF02B0DD
:101F2C00704782B00190019B0022C3F8002500BFCE
:101F3C0002B0704784B0039002910192039B029A05
:101F4C00C3F80825039B019AC3F80C2500BF04B005
:101F5C00704782B001900091019B009AC3F8242530
:101F6C0000BF02B0704784B00190019BD3F8C43419
:101F7C000393019B039AC3F8C424039B184604B033
:101F8C00704782B001900B468DF803309DF803200A
:101F9C00019BC3F8882500BF02B0704784B0039042
:101FAC0002910192029A039BC3F84425039B019A68
:101FBC00C3F8482500BF04B0704784B00390029169
:101FCC000192029A039BC3F83425039B019AC3F830
:101FDC00382500BF04B0704782B001900091019B7E
:101FEC00009AC3F8002200BF02B0704782B0019083
:101FFC00019BD3F84C35184602B0704782B0019063
:10200C00019BD3F80032184602B0704782B00190A1
:10201C00019BD3F83C35184602B0704782B0019052
:10202C00019B0122C3F8502500BF02B0704782B05B
:10203C000190019B0022C3F8502500BF02B07047ED
:10204C0082B00190019B0122C3F8402500BF02B071
:10205C00704782B00190019B0022C3F8402500BF5D
:10206C0002B0704700B583B00190019B1B68184605
:10207C0000F060F80346002B04D10B494FF4F670C6
:10208C0000F0FBFF019B1B681F2B02D84FF0A043F5
:10209C0006E0019B1B6803F01F02019B1A60034BB7
:1020AC00184603B05DF804FB986200000003005072
:1020BC0000B585B00190084611461A4603468DF8C6
:1020CC0003300B468DF8023013468DF8013001AB0E
:1020DC001846FFF7C7FF03909DF803209DF80230C8
:1020EC005B001A439DF801309B001A439DF8183091
:1020FC001B0242EA03019DF81C301B04019A194390
:10210C00039B02F5E07243F8221000BF05B05DF8A6
:10211C0004FB00B585B003900023019300230093CA
:10212C000023012200210398FFF7C2FF00BF05B076
:10213C005DF804FB84B00190019B5B0902930023C2
:10214C000393029B002B03D0029B012B04D007E0CE
:10215C004FF0FF33039303E04FF6FF73039300BF7D
:10216C00019B03F01F030193039A019B22FA03F3D3
:10217C0003F00103002B14BF01230023DBB218462C
:10218C0004B0704784B0019003230393019B03F0C8
:10219C000103002B02D04FF402430393019B03F085
:1021AC000203002B02D048F201230393019B03F09E
:1021BC000403002B02D048F202230393039B18461E
:1021CC0004B0704700B585B00190009101238DF8E3
:1021DC000F30009B1B7B032B56D801A252F823F027
:1021EC00652200007D2200003D220000FD21000040
:1021FC00009B9B6803F48023002B07D00198FFF70A
:10220C00F5FE0246009B1B699A420DD1009B9B6810
:10221C0003F48023002B39D10198FFF7E7FE024627
:10222C00009B5B699A4231D000238DF80F302DE072
:10223C000198FFF7DBFE0246009B1B699A4207D10F
:10224C000198FFF7E3FE0246009B5B699A421FD0A0
:10225C0000238DF80F301BE00198FFF7C7FE0246F4
:10226C00009B1B699A4215D000238DF80F3011E0AA
:10227C000198FFF7CBFE0246009B1B699A420BD0DC
:10228C0000238DF80F3007E000BF06E000BF04E02C
:10229C0000BF02E000BF00E000BF9DF80F3083F0EC
:1022AC000103DBB2002B05D00198FFF73AFE019831
:1022BC00FFF72EFE9DF80F30184605B05DF804FBB5
:1022CC0000B58BB00590049103920293049B002BF4
:1022DC0003D14A49E72000F0D0FE049B1A68049B06
:1022EC005B689A4203D14549E82000F0C6FE059B85
:1022FC001B791A46342302FB03F3414A1344089317
:10230C00089B93F82D30002B03D008230793079BD1
:10231C0070E0059B1A68059B1B791946394B53F8DD
:10232C00213019461046FFF763FC0346002B03D0FF
:10233C0011230793079B5DE0089B039A1A60089B87
:10234C00029A5A60089B00229A60089B002283F82C
:10235C003020089B002283F82F20049B5A7B089B7B
:10236C0083F83220049B1868002301930623009302
:10237C00032300220021FFF79BFE049B58680023D7
:10238C00019306230093032300220021FFF790FE04
:10239C00059B1B680993049B1968049B5B681A4690
:1023AC000998FFF7C7FD049B9B6819460998FFF72E
:1023BC00D0FD089B1B68002B15D0059B1B6818468D
:1023CC00FFF7FCFC03461A46049B1B7B1946104680
:1023DC00FFF7FCFC059B1B681846FFF7EFFC034658
:1023EC001846FFF713FD089B012283F82D200023CC
:1023FC000793079B18460BB05DF804FBD0620000F6
:10240C00445400202863000000B585B00190019B66
:10241C001B791A46342302FB03F3204A134403931B
:10242C00039B93F82D30002B04D11D494FF49B7066
:10243C0000F023FE039B1B68002B08D0019B1B683C
:10244C001846FFF7BBFC03461846FFF7EDFC019856
:10245C0000F050F8019B1B681846FFF703FC039B28
:10246C0093F8323083F00103DBB2002B0DD0019BCB
:10247C001B68D3F808351846FFF74BFE019B1B6809
:10248C00D3F80C351846FFF744FE039B002283F863
:10249C002D2000BF05B05DF804FB00BF44540020A4
:1024AC00D062000000B585B00190019B1B791A46E3
:1024BC00342302FB03F30D4A13440393039B93F859
:1024CC002D30012B04D00A4940F24F1000F0D5FDFD
:1024DC00019B1B681846FFF71BFD039B022283F828
:1024EC002D2000BF05B05DF804FB00BF4454002054
:1024FC00D062000000B585B00190019B1B791A4693
:10250C00342302FB03F3134A13440393039B93F802
:10251C002D30002B04D110494FF4AD7000F0ADFDFF
:10252C00019B1B680293039B00229A600B49029843
:10253C00FFF7E4FC4FF4BC510298FFF7C6FC02987D
:10254C00FFF7EFFC039B012283F82D2000BF05B0A1
:10255C005DF804FB44540020D062000002029C0190
:10256C0000B583B001900091009B03F00103002B98
:10257C0003D00198FFF752FD02E00198FFF757FDD9
:10258C00009B03F00203002B03D00198FFF758FDCA
:10259C0002E00198FFF75DFD00BF03B05DF804FB9E
:1025AC0030B589B0039002910192009300230793F8
:1025BC0008238DF81B30039B002283F82E20019BEF
:1025CC00DB681846FFF7ECFB034683F00103DBB234
:1025DC00002B03D010230793079BFDE19D49029824
:1025EC00FFF78CFC039B93F82F30DBB2002B09D048
:1025FC00039B9B6819460298FFF776FC11230793FF
:10260C00079BE9E1009B03F00403002B06D1009B20
:10261C0003F01003002B01D1012300E0002303F091
:10262C000103DAB2039B83F82F20039B019A03F179
:10263C000C0415460FCD0FC42B682360009B1B099F
:10264C0003F00103002B14BF01230023DAB2039B18
:10265C0083F83020039B009A1A62019B5B78194621
:10266C000298FFF78EFC4FF482710298FFF706FC7C
:10267C004FF492710298FFF701FC4FF4B07102987D
:10268C00FFF7FCFB4FF4A4710298FFF7F7FB0099DE
:10269C000298FFF765FF019B1B78032B00F2DE808D
:1026AC0001A252F823F000BFE72700002F280000FA
:1026BC008F270000C5260000009B03F01003002BA1
:1026CC0004D065494FF4D97000F0D7FC009B03F09F
:1026DC000803002B04D0604940F2B31000F0CDFC8D
:1026EC00009B03F00403002B04D05B494FF4DA7019
:1026FC0000F0C3FC019B1B691846FFF751FB034616
:10270C0083F00103DBB2002B03D010230793079B4C
:10271C0062E14FF480710298FFF75EFC019BD9686F
:10272C00019B5B681A460298FFF738FC4FF4A871BE
:10273C000298FFF7A3FB20210298FFF791FB0821D9
:10274C000298FFF78DFB00BF4FF4A8710298FFF7BA
:10275C00AAFB034683F00103DBB2002BF4D14FF448
:10276C00A8710298FFF78AFB019B1969019B9B6872
:10277C001A460298FFF712FC039B4FF480229A60D2
:10278C006FE0019BD968019B5B681A460298FFF7C2
:10279C0005FC019B1B691846FFF702FB034683F0FF
:1027AC000103DBB2002B03D010230793079B13E12B
:1027BC00019B1969019B9B681A460298FFF7FDFB68
:1027CC004FF484510298FFF707FC039B02229A6096
:1027DC0020210298FFF744FB43E0019BD968019B41
:1027EC005B681A460298FFF7D9FB009B03F02003A5
:1027FC00002B09D04FF480710298FFF7EDFB039B7F
:10280C004FF480229A6007E04FF400710298FFF7B2
:10281C00E3FB039B02229A6020210298FFF720FB26
:10282C001FE0019BD968019B5B681A460298FFF771
:10283C00C4FB4FF480510298FFF7CEFB039B02229E
:10284C009A6000238DF81B3020210298FFF708FBBB
:10285C0007E000BF02029C01D0620000072307932F
:10286C0000BF009B03F00803002B09D1019B1B78D0
:10287C00032B05D09DF81B3019460298FFF7F0FA90
:10288C00039B1B68002B1FD0009B03F00403002B41
:10289C0002D0039B00229A60009B03F04003002BA4
:1028AC0005D1039B9B6843F00202039B9A60039B38
:1028BC009B6843F40072039B9A60039B9B681946C8
:1028CC000298FFF711FB86E000238DF81A304FF4C5
:1028DC00A4710298FFF7E7FA0346002B02D00123FC
:1028EC008DF81A304FF482710298FFF7DCFA034628
:1028FC00002B07D04FF482710298FFF7BFFA012327
:10290C008DF81A304FF492710298FFF7CCFA034607
:10291C00002B38D04FF492710298FFF7AFFA4FF4B6
:10292C00B0710298FFF7BFFA03468DF81930029880
:10293C00FFF764FB05909DF8193083F00103DBB2BF
:10294C00002B04D1059B03F40073002B0AD120212A
:10295C000298FFF785FA14210298FFF781FA0023F9
:10296C008DF81A309DF81930002B0CD0059B03F410
:10297C008073002B07D04FF4A4710298FFF77EFAF6
:10298C0000238DF81A309DF81A3083F00103DBB266
:10299C00002B9CD10298FFF7E6FA0490039B0022CF
:1029AC0083F82F20049B002B04D00498FFF7EAFB3C
:1029BC00079010E0009B03F04003002B0BD1039910
:1029CC000298FFF7FFFB034683F00103DBB2002BF9
:1029DC0001D003230793079B184609B030BD00BFF5
:1029EC0000B587B0039002910192039B1B79002BD9
:1029FC0009D1029B5B68B3F5803F04D2029B9B68B4
:102A0C00B3F5803F12D3039B1B79012B09D1029B99
:102A1C005B68B3F5803F04D2029B9B68B3F5803FA3
:102A2C0004D31B4940F26A2000F027FB00230593D6
:102A3C00039B1B791A46342302FB03F3154A1344F8
:102A4C000493049B1B68002B08D1029B1B78022B60
:102A5C0004D10F4940F2722000F00FFB049B1B685D
:102A6C00002B08D1029B1B78032B04D1084940F2A0
:102A7C00732000F002FB039B1968019B029A0498D7
:102A8C00FFF78EFD0590059B184607B05DF804FB1B
:102A9C00D06200004454002000B58BB0039001922A
:102AAC0000930B468DF80B3000238DF814309DF8F5
:102ABC000B308DF81530009B069300230793019B78
:102ACC000893002309939DF83030002B01D020226D
:102ADC0000E0002205AB19460398FFF781FF03467F
:102AEC0018460BB05DF804FB00B58BB00390019257
:102AFC0000930B468DF80B3001238DF814309DF8A4
:102B0C000B308DF81530009B069300230793019B27
:102B1C0008930023099305AB002219460398FFF78D
:102B2C005FFF034618460BB05DF804FB30B58BB065
:102B3C0001900091009B1B68002B04D1A24940F22C
:102B4C00C12000F09AFA4FF492710198FFF7ABF99B
:102B5C000346002B3ED04FF492710198FFF78EF98B
:102B6C004FF482710198FFF79EF9034683F001033D
:102B7C00DBB2002B2ED0009B9B6819460198FFF707
:102B8C00BDF9009B02229A60009B9B681946019834
:102B9C00FFF7AAF94FF4B0710198FFF784F90346D7
:102BAC0083F00103DBB2002B07D10198FFF726FA63
:102BBC00034603F40073002B07D120210198FFF783
:102BCC004FF914210198FFF74BF9009B012283F870
:102BDC002E20F6E04FF482710198FFF764F903465A
:102BEC00002B5DD04FF482710198FFF747F9009BE1
:102BFC001B6A03F04003002B1AD1009B93F82E3074
:102C0C0083F00103DBB2002B12D000990198FFF77F
:102C1C00D9FA0346002B14BF01230023DBB283F047
:102C2C000103DBB203F00103DAB2009B83F82E2020
:102C3C00009B1B6A03F00403002B79D1009B04ACAE
:102C4C0003F10C050FCD0FC42B6823604FF4B0714A
:102C5C000198FFF713F94FF4AE710198FFF70EF9D5
:102C6C00009B93F8303083F00103DBB2002B04D1CE
:102C7C00009B93F82E30002B5AD000210198FFF7BF
:102C8C00ABF9009B00229A6050490198FFF736F986
:102C9C000198FFF793F803461846FFF7D3F847E07F
:102CAC004FF4A4710198FFF7E9F8009B1B7B002BF4
:102CBC0022D1009B04AC03F10C050FCD0FC42B6883
:102CCC002360009B93F8303083F00103DBB2002BC0
:102CDC002ED000210198FFF77FF9009B00229A600B
:102CEC003A490198FFF70AF90198FFF767F803468C
:102CFC001846FFF7A7F81BE04FF400710198FFF797
:102D0C006BF9009B40F202229A6030490198FFF760
:102D1C00F5F8009B9B6819460198FFF7E5F8082128
:102D2C000198FFF79DF820210198FFF799F848E0EA
:102D3C000198FFF718F90990099B03F00203002B87
:102D4C0003D001238DF80C301DE0099B03F0040324
:102D5C00002B03D002238DF80C3014E0099B03F0F8
:102D6C000103002B03D003238DF80C300BE0009BE8
:102D7C0093F82E30002B03D004238DF80C3002E096
:102D8C0000238DF80C30009B93F8303083F0010356
:102D9C00DBB2002B03D0009B002283F82F20009B7A
:102DAC001B6A03F00403002B04D0009B93F82E3015
:102DBC00002B06D0009B1B68009A516803AA104692
:102DCC0098470BB030BD00BFD062000002029C01DE
:102DDC0008B503490348FFF7A9FE00BF08BD00BFB3
:102DEC00445400200030004008B503494FF0402007
:102DFC00FFF79CFE00BF08BD7854002086B00390FE
:102E0C000291019201238DF817309DF81730204A5A
:102E1C00039B13601E4A029B53601D4A019B9360E7
:102E2C00039B44F20102934212D0039B44F2020230
:102E3C00934220D1019B164AD360154BDB681B686B
:102E4C00134A9361124BDB685B68114AD36112E041
:102E5C00019B0F4A13610E4B1B699B680C4A536113
:102E6C000B4B1B691B680A4A9361094B1B695B6816
:102E7C00074AD36100BF72B600BF00BF9DF8173080
:102E8C00DBB2002BFAD162B600BF00BF06B07047B0
:102E9C00AC54002000B583B002900091019244F232
:102EAC00010071466A4600F003F803B000BD00BF94
:102EBC0030B58BB007900691059272B600BF02F048
:102ECC0063FA02F025F80346002BFAD1079B44F273
:102EDC000102934216D0079B44F2020293423ED168
:102EEC00059B09932C4A2D4BD31ADB081B0443F08A
:102EFC000100099B5B681A46099B1B68284901F075
:102F0C00B4FF39E0059B0893234A244BD31ADB0802
:102F1C001B0443F00104089B9D68089B9B681846A2
:102F2C0001F098F803461846089B5B681946089B05
:102F3C001B68069A02920193009103462A4619498E
:102F4C00204601F0BCFF144A144BD31ADB081B04B7
:102F5C0043F001031449184601F068FF0CE00E4AD7
:102F6C000E4BD31ADB081B0443F00103069A0F49DE
:102F7C00184601F069FF00BF0D4B1B6803F00103FD
:102F8C00002B00D000BE059A06990798FFF736FF74
:102F9C0000BF0BB030BD00BFB45F0000945F0000F9
:102FAC00B0640000CC640000F4640000086500000C
:102FBC00F0ED00E072B600BF034B1B680133024A10
:102FCC00136000BF704700BFCC540020064B1B6839
:102FDC00013B054A1360044B1B68002B01D162B600
:102FEC0000BF00BF704700BFCC54002000B583B0B9
:102FFC00019000F025F80346012B03D0044943202F
:10300C0000F03BF8FFF7D6FF00BF03B05DF804FB00
:10301C002065000000B583B003468DF8073000F042
:10302C000FF80346012B03D00449512000F025F87A
:10303C00FFF7CCFF00BF03B05DF804FB2065000078
:10304C0084B0EFF305830193019BC3F3080303934F
:10305C00039B002B0DD1EFF314830093009B029381
:10306C00029B03F00103002B0CBF01230023DBB2F6
:10307C0000E00123184604B0704700B585B0034644
:10308C000091ADF80630BDF806300293009B039317
:10309C0002AB1A46002144F20200FFF709FF00BF01
:1030AC0005B05DF804FB10B487B001900091019B52
:1030BC00009A53E8004F104643E8000191F0000FCE
:1030CC00F7D1059404900391059B184607B05DF861
:1030DC00044B704710B487B001900091019B009A8B
:1030EC0053E8004F44EA020043E8000191F0000F5E
:1030FC00F6D1059404900391049B184607B05DF833
:10310C00044B704710B487B001900091019B009A5A
:10311C0053E8004F04EA020043E8000191F0000F6D
:10312C00F6D1059404900391059B184607B05DF801
:10313C00044B704710B487B001900091019B009A2A
:10314C0053E8004F04EB020043E8000191F0000F3C
:10315C00F6D1059404900391049B184607B05DF8D2
:10316C00044B704710B487B001900091019B009AFA
:10317C0053E8004FA4EB020043E8000191F0000F6C
:10318C00F6D1059404900391049B184607B05DF8A2
:10319C00044B704700B583B0019001210198FFF7F3
:1031AC0099FF0346184603B05DF804FB00B583B0E5
:1031BC00019000210198FFF7A5FF0346184603B0C4
:1031CC005DF804FB00B583B001900B468DF803301D
:1031DC00019B002B03D10849E820FFF74EFF019B10
:1031EC00DA689DF803300199098A01FB03F3134453
:1031FC00184603B05DF804FB6C65000000B583B0A5
:10320C0001900091019B002B03D10849F520FFF799
:10321C0034FF009B019AD2689B1A019A128AB3FB65
:10322C00F2F3DBB2184603B05DF804FB6C650000EA
:10323C0000B585B00190019B002B01D10E234CE011
:10324C00019B1B68002B03D12649FF20FFF715FFBC
:10325C00019B5B68002B04D122494FF48070FFF76F
:10326C000CFF019B9B68002B04D11E4940F20110FE
:10327C00FFF703FF019BDB68002B04D119494FF4C6
:10328C008170FFF7FAFE019B1B8A002B04D11549B4
:10329C0040F20310FFF7F1FE019B9A68019B5B68FB
:1032AC00D31A8DF80F30019B1B68019A52681A6073
:1032BC0007E0019B1A681368591C11609DF80F20D8
:1032CC001A709DF80F305A1E8DF80F20002BF0D17C
:1032DC00019B1B6800221A710023184605B05DF88B
:1032EC0004FB00BF6C65000000B585B00190019B2C
:1032FC00002B04D11C494FF49270FFF7BEFE002343
:10330C0003930020FFF772FE019B1B681A68019B58
:10331C005B689A421FD9019B1B681A68013A1A60B4
:10332C001B681B7819460198FFF74CFF0390019B13
:10333C009A68019B1B681B68D31A8DF80B30019B94
:10334C001B681B799DF80B209A4204D9019B1B68C2
:10335C009DF80B201A710020FFF75CFE039B1846AA
:10336C0005B05DF804FB00BF6C65000010B584B0BF
:10337C0001900091019B002B04D1114940F24710A0
:10338C00FFF77BFE009B002B04D10D494FF4A4707A
:10339C00FFF773FE009B03930020FFF727FE019BB2
:1033AC001B681C68621C1A6003990198FFF726FFC2
:1033BC00034623700020FFF72DFE00BF04B010BDA4
:1033CC006C65000000B583B00190019B002B03D10C
:1033DC000C493120FFF751FE019B9B68002B0CD050
:1033EC00019B5B69019A1069019A1168019A9268B4
:1033FC009847019B00229A6000E000BF03B05DF883
:10340C0004FB00BFC86500000EB400B584B0019089
:10341C00019B002B03D118494220FFF72EFE019B84
:10342C005B69002B03D114494320FFF726FE019B57
:10343C001B68002B03D110494420FFF71EFE019B93
:10344C005B68002B03D10C494520FFF716FE059B4A
:10345C00002B0AD00023039306AB039303AB1A464D
:10346C000599019800F0B0F900E000BF04B05DF8D8
:10347C0004EB03B0704700BFC865000000B583B013
:10348C0001900B468DF80330019B1A68019B9B68D9
:10349C00581C0199886013449DF803201A70019BF5
:1034AC009A68019B5B689A4202D30198FFF78AFFE6
:1034BC0000BF03B05DF804FB00B587B00390029128
:1034CC000192009300230593009B03F00103002B52
:1034DC0024D00BE0029B01330293059B013305932F
:1034EC009DF8133019460398FFF7C8FF029B1B7811
:1034FC008DF813309DF81330002BEBD106E0019BB7
:10350C00013B019320210398FFF7B8FF019A059B1B
:10351C009A422ED9019B002BF1D12AE0029B002B61
:10352C000BD0029802F06CFC059006E0019B013B6D
:10353C00019320210398FFF7A1FF019A059B9A4262
:10354C000FD9019B002BF1D10BE0029B01330293AD
:10355C00059B013305939DF8133019460398FFF72B
:10356C008DFF029B1B788DF813309DF81330002BC8
:10357C00EBD100BF07B05DF804FB000000B589B0CB
:10358C000390029101920093029B079301230693EF
:10359C0007E0079A019BB2FBF3F30793069B0133F9
:1035AC000693079A019B9A42F3D2009A069B9A4281
:1035BC0001D9009B06930B9B03F00103002B22D136
:1035CC000A9B002B1FD00B9B03F00203002B06D091
:1035DC00009B002B03D130238DF8173002E0202301
:1035EC008DF8173008E00A9B013B0A939DF81730C1
:1035FC0019460398FFF742FF0A9B002B03D0069A4B
:10360C000A9B9A42EFD301230793009B012B03D90A
:10361C00009B013B009309E0029A079BB2FBF3F37A
:10362C000493049A019B9A4200D205E0079B019AED
:10363C0002FB03F30793E8E7029A079BB2FBF3F351
:10364C000493049B079A02FB03F3029AD31A029386
:10365C00154A049B13441B7819460398FFF70EFF79
:10366C00079A019BB2FBF3F30793079B002BE3D163
:10367C000B9B03F00103002B11D00A9B002B0ED0E7
:10368C0006E00A9B013B0A9320210398FFF7F6FE04
:10369C000A9B002B03D0069A0A9B9A42F1D300BFD7
:1036AC0009B05DF804FB00BF7466000000B589B07A
:1036BC000590049103920293049B002BB8BF5B42CC
:1036CC0006930123079307E0039B069A92FBF3F3FF
:1036DC000693079B01330793039B069A9A42F3DAEE
:1036EC00029A079B9A4201D9029B07930A9B002BD3
:1036FC000AD0049B002B04DB0B9B03F00403002B70
:10370C0002D00A9B013B0A930B9B03F00203002B94
:10371C0002D0029B002B16D00B9B03F00103002B55
:10372C0011D10A9B002B0ED006E00A9B013B0A9399
:10373C0020210598FFF7A2FE0A9B002B03D0079AC5
:10374C000A9B9A42F1D3049B002B07DA049B5B4241
:10375C0004932D210598FFF791FE08E00B9B03F0D5
:10376C000403002B03D02B210598FFF787FE0B9B3E
:10377C0003F00203002B19D00B9B03F00103002B69
:10378C0014D1029B002B11D10A9B002B0ED006E00A
:10379C000A9B013B0A9330210598FFF76FFE0A9BA9
:1037AC00002B03D0079A0A9B9A42F1D304990B9BE6
:1037BC0001930A9B0093029B039A0598FFF7DEFE88
:1037CC0000BF09B05DF804FB00B58FB00590049103
:1037DC000392059B002B04D1AD4940F25220FFF718
:1037EC004CFC059B5B69002B04D1A9494FF4157067
:1037FC00FFF743FC059B1B68002B04D1A44940F246
:10380C005520FFF73AFC059B5B68002B04D1A049BF
:10381C0040F25620FFF731FC049B002B00F0938103
:10382C00049B1B788DF83730049B013304939DF86F
:10383C003730002B00F07E819DF83730252B40F07F
:10384C006D8100230A9301230C93049B1B788DF844
:10385C0037309DF83730302B0DD0302B1BDC2B2B19
:10386C0011D02D2B17D10A9B43F001030A93049B13
:10387C000133049312E00A9B43F002030A93049B66
:10388C00013304930AE00A9B43F004030A93049B5C
:10389C000133049302E000230C9300BF0C9B002B1C
:1038AC00D3D1002309939DF837302A2B0CD1039BDD
:1038BC001B68191D039A11601B68099A134409931C
:1038CC00049B013304931AE0049B1B788DF837306A
:1038DC009DF837302F2B12D99DF83730392B0ED855
:1038EC00049B01330493099A13469B0013445B0019
:1038FC001A469DF837301344303B0993D3E7002325
:10390C000B93049B1B788DF837309DF837302E2B9A
:10391C001DD1049B01330493049B1B788DF8373025
:10392C009DF837302F2B12D99DF83730392B0ED804
:10393C00049B013304930B9A13469B0013445B00C6
:10394C001A469DF837301344303B0B93E4E7049B45
:10395C001B788DF837309DF837306C2B03D09DF8E1
:10396C003730682B07D1049B01330493049B1B78DD
:10397C008DF83730EFE79DF83730252B00F0C480F9
:10398C00252BC0F2C680782B00F3C380582BC0F2D5
:10399C00C080583B202B00F2BC8001A252F823F0CF
:1039AC00A13A00001F3B00001F3B00001F3B000022
:1039BC001F3B00001F3B00001F3B00001F3B000093
:1039CC001F3B00001F3B00001F3B0000313A000072
:1039DC00533A00001F3B00001F3B00001F3B000040
:1039EC001F3B0000533A00001F3B00001F3B000030
:1039FC001F3B00001F3B00001F3B00001F3B000053
:103A0C00E13A00001F3B00001F3B0000C53A0000DC
:103A1C001F3B0000773A00001F3B00001F3B0000DB
:103A2C00A13A0000039B1B68191D039A11601B68C7
:103A3C000C930C9B8DF81F309DF81F301946059880
:103A4C00FFF71CFD66E0039B1B68191D039A1160B0
:103A5C001B680C930A9B0193099B00930B9B0A22F6
:103A6C000C990598FFF722FE54E0039B1B68191D67
:103A7C00039A11601B680C930C990A9B0193099B88
:103A8C0000930B9B0A220598FFF778FD42E000BFDC
:103A9C001C660000039B1B68191D039A11601B68B0
:103AAC000C930C990A9B0193099B00930B9B10227E
:103ABC000598FFF763FD2DE0039B1B68191D039A06
:103ACC0011601B6808930A9B099A08990598FFF7DF
:103ADC00F3FC1FE0039B1B68191D039A11601B6804
:103AEC000C9330210598FFF7C9FC78210598FFF756
:103AFC00C5FC0C9900230193082300930823102282
:103B0C000598FFF73BFD05E025210598FFF7B6FC6E
:103B1C0000E000BF049B0133049305E09DF83730AF
:103B2C0019460598FFF7AAFC049B1B78002B7FF421
:103B3C0077AE00E000BF059B1B7B002B04D00598E3
:103B4C00FFF740FC00E000BF0FB05DF804FB00BFC6
:103B5C0000B583B001900198FFF76AFB0346184645
:103B6C0003B05DF804FB00B58BB001900091019B94
:103B7C001B8A043B0793009A079B1344DA1C079B90
:103B8C00B2FBF3F38DF81B300198FFF7ADFB0590FA
:103B9C00059B002B01D1002338E0059B00221A71F4
:103BAC00059B01225A71079B9AB2059BDA80059BF3
:103BBC0009939DF81B30013B0493099B019A1A60F1
:103BCC00002308931DE00198FFF78EFB0390039BE5
:103BDC00002B0ED0059B5B790133DAB2059B5A7131
:103BEC00099B039A1A60039B019A1A60039B099321
:103BFC0004E0059800F00EF8002307E0089B013361
:103C0C000893089A049B9A42DDD3059B18460BB087
:103C1C005DF804FB00B58BB00190019B0793079BEB
:103C2C005B798DF81B30019B08939DF81B30013B91
:103C3C0005930023099305E0089B1B680893099BD7
:103C4C0001330993099A059B9A42F5D3089B1B688B
:103C5C000493019B0893002309930BE0089B1B68BA
:103C6C00039308990498FFF781FB039B0893099B26
:103C7C00013309939DF81B30099A9A42EED300BF89
:103C8C0000BF0BB05DF804FB00B585B00190019B43
:103C9C000393039B043301211846FFF74BFA00BF33
:103CAC0005B05DF804FB00B587B00190019B05934E
:103CBC00059B043301211846FFF754FA034603937E
:103CCC0003AB0493049B1B78002B02D10198FFF7E4
:103CDC00A1FF00BF07B05DF804FB000000B591B078
:103CEC000390029101920093039B002B03D1434953
:103CFC00B620FFF7C2F9039B0993039B0F93099B13
:103D0C00DB881A46099B5B7902FB03F3043B08939F
:103D1C00009A089B9A4203D33849C420FFF7ADF9A7
:103D2C00099BDB880793009B1A1D079BB2FBF3F3DF
:103D3C000E93009B0433079AB3FBF2F2079901FB35
:103D4C0002F29B1A0D93019B1A68009B1344089A6C
:103D5C009A4203D2089A009BD31A01E0019B1B687C
:103D6C000C93019B0C9A1A6005E00F9B1B680F9338
:103D7C000E9B013B0E930E9B002BF6D100230B9355
:103D8C00079A0D9BD31A0A930A9A0C9B934228BF4D
:103D9C0013460A932AE0029A0B9B134406930F9A3C
:103DAC000D9B1344043305939DF84830002B05D02C
:103DBC000A9A0599069802F053F804E00A9A0699B3
:103DCC00059802F04DF800230D930F9B1B680F9381
:103DDC000C9A0A9BD31A0C930B9A0A9B13440B93C1
:103DEC00079A0C9B934228BF13460A930C9B002BFB
:103DFC00D1D100BF00BF11B05DF804FB8466000098
:103E0C0000B589B00590049103920293039B07932C
:103E1C0007AA00230093029B04990598FFF75EFF05
:103E2C00079B039A9A4203D00349F620FFF725F922
:103E3C0000BF09B05DF804FB8466000000B589B0D2
:103E4C000590049103920293039B079307AA012305
:103E5C000093029B04990598FFF740FF079B039A78
:103E6C009A4204D004494FF48070FFF706F900BF62
:103E7C0009B05DF804FB00BF8466000000B583B098
:103E8C0001900091019B002B03D108498320FFF77F
:103E9C00F4F8019B9B68009A9A4202D2009B013372
:103EAC0000E00023184603B05DF804FBE066000058
:103EBC0010B586B00390029113468DF8073000239D
:103ECC000593039B002B03D14249E720FFF7D5F85C
:103EDC00029B002B03D13F49E820FFF7CEF80020CE
:103EEC00FFF784F8039800F077F8034683F001039A
:103EFC00DBB2002B64D0039B1B681B6804939DF8FA
:103F0C00073083F00103DBB2002B0AD0039B1B6844
:103F1C001A68039B1C6811460398FFF7AFFF034612
:103F2C002360039BDB68013B072B38D801A252F8B6
:103F3C0023F000BF613F0000713F0000AB3F000069
:103F4C00833F0000AB3F0000AB3F0000AB3F0000E5
:103F5C00953F0000039B5A68049B13441A78029BFC
:103F6C001A702FE0039B5A68049B5B0013441A8859
:103F7C00029B1A8026E0039B5A68049B9B00134407
:103F8C001A68029B1A601DE0039B5A68049BDB00B5
:103F9C001344D3E900230299C1E9002312E0039BE7
:103FAC005B681946039BDB68049A02FB03F30B4422
:103FBC001946039BDB681A46029801F051FF01E099
:103FCC00052305930020FFF725F8059B184606B03E
:103FDC0010BD00BFE066000000B585B00190019BEC
:103FEC00002B04D10B4940F22B20FFF746F8019B24
:103FFC001B681B680393019B1B685B680293039A05
:10400C00029B9A420CBF01230023DBB2184605B079
:10401C005DF804FBE066000082B00190019B9B6898
:10402C0000229A60019B9B6800221A61019B9B688D
:10403C0000225A61019B9B680022DA60019B9B68FD
:10404C0000225A60019B9B6800221A6000BF02B0DC
:10405C007047000000B585B00190019800F00EF893
:10406C000390039B002B01D0039B00E0024B1846EE
:10407C0005B05DF804FB00BF3C67000086B0019002
:10408C00164B0593164B04931FE0049A059BD31A09
:10409C00DB10DA0F13445B10DB00059A1344039317
:1040AC00039B1B680293029A019B9A4202D9039BC1
:1040BC0004930AE0029A019B9A4203D2039B0833B1
:1040CC00059302E0039B5B6804E0059A049B9A420B
:1040DC00DBD30023184606B0704700BF246B0000EA
:1040EC00446C000000B583B00190019B043318466A
:1040FC00FEF78AF900BF03B05DF804FB00B583B08E
:10410C000190019B04331846FEF7CCF900BF03B0B5
:10411C005DF804FB00B591B003900291019200236D
:10412C000F93029B1B788DF82830029B5B788DF8DF
:10413C002930029B9B780B93029BDB780C93029BA0
:10414C005B680D93029B9B680E93039B04330AA937
:10415C00019A1846FEF744FC0F900F9B184611B0BD
:10416C005DF804FB82B00190019B1B681B68002B5F
:10417C000CBF01230023DBB2184602B070470000CD
:10418C0000B58DB00190019B002B03D1474937201E
:10419C00FEF773FF019B1B680A930A9B1B7E8DF82D
:1041AC0027300A9B1B689A689DF82730DB00134464
:1041BC000893089B5B795B088DF81F309DF81F30C6
:1041CC008DF80D30089B1B680493089B1B798DF8A8
:1041DC000E30089B9B7903F00103002B47D0089B02
:1041EC005B7903F00103002B41D19DF8273001339B
:1041FC000A9A1268127B934239DA089B5B795B0846
:10420C00DAB20A9B1B6899689DF827300133DB00F2
:10421C000B445B795B08DBB29A4228D10A9B1B6882
:10422C009A689DF827300133DB0013440693069BF4
:10423C001B680593069B1B798DF80F30069B5B79E9
:10424C0003F00103002B01D0022300E003238DF8BF
:10425C000C30069B9B795B0103F020030B930A9BAC
:10426C001B7EDBB20133DAB20A9B1A7611E0089B93
:10427C005B7903F00103DBB28DF80C30002305935E
:10428C0000238DF80F30089B9B795B0103F0200312
:10429C000B93019B083303A90B9A1846FFF73AFFBF
:1042AC00034618460DB05DF804FB00BF446C0000DB
:1042BC0000B585B001900091019B002B03D10D49F5
:1042CC007120FEF7DAFE019B1B681B681B68002B34
:1042DC000BD0019B1B681B685B680393019B1B68DD
:1042EC001B681B6803990098984700BF05B05DF8E0
:1042FC0004FB00BF446C000000B589B001900B4674
:10430C008DF80330019B002B03D13E498720FEF72B
:10431C00B4FE019B1B68069300238DF81F30002010
:10432C00FEF764FE9DF80330002B05D10198FFF7D2
:10433C0019FF0346002B10D0019B5B6806990022E5
:10434C001846FFF7B5FD0346002B03D101238DF86A
:10435C001F3002E0069B00221A600020FEF75AFE76
:10436C009DF81F3083F00103DBB2002B44D1069B78
:10437C001B681B69002B02D1069B043302E0069BD1
:10438C001B681B690593069B5B69102205991846EF
:10439C0001F0CCFD0346002B1CD0019B08331846C2
:1043AC00FFF7A0FE019B03F10800019B164A05993B
:1043BC00FDF7C8FB0490049B002B03D01149B420DB
:1043CC00FEF75BFE019B08331846FFF797FE069B32
:1043DC00059A5A61069B00221A760198FFF7D0FEC7
:1043EC000390039B002B09D003990198FFF760FF02
:1043FC0001238DF803308FE700BF00E000BF09B048
:10440C005DF804FB446C00001944000000B587B053
:10441C0001900091019B002B03D12049D220FEF783
:10442C002CFE009B0493049B1B681B68002B03D180
:10443C001A49D820FEF721FE019B1B78002B20D1B6
:10444C0000230593049B1B681B7E8DF80F309DF891
:10445C000F3001338DF80F30049B1B681B681B7BDE
:10446C009DF80F209A420ED2049B1B689DF80F20DA
:10447C001A760498FFF784FE0590059B002B02D159
:10448C0009E00323059305990498FFF711FF012117
:10449C000498FFF731FF07B05DF804FB446C000093
:1044AC0010B584B001900091019B002B04D12549DB
:1044BC004FF48470FEF7E1FD019B5B68002B04D187
:1044CC00204940F20910FEF7D8FD019B5B689B6800
:1044DC00002B04D11B494FF48570FEF7CEFD009BD9
:1044EC00002B04D1174940F20B10FEF7C6FD019BBF
:1044FC0003F10800019B144A0099FDF723FB03907C
:10450C00039B0293029B002B01D0029B17E0019BA3
:10451C0008331846FFF7F2FD019B1B6800221A6056
:10452C00019B1B68009A1C1D13460FCB84E80F00DF
:10453C00019B1A68019B1B6804325A6100231846C0
:10454C0004B010BD446C00001944000000B583B0E9
:10455C000190019B5B681846FEF76AFE03461846FD
:10456C0003B05DF804FB000000B585B00190019B21
:10457C00002B0AD0074B43F001030393019B9B01D3
:10458C000293039B0298984700E000BF05B05DF8CA
:10459C0004FB00BF206D000000B583B00190019BAF
:1045AC00002B0AD04FF47A70FFF7DEFF019B013B22
:1045BC000193019B002BF5D100E000BF03B05DF827
:1045CC0004FB08B501F0FAF900BF08BD00B589B0CD
:1045DC00039002910192019B002B33D0002307938F
:1045EC0003230693029A079B1344019A1946002051
:1045FC0001F094F90590079A059B13440793019ACF
:10460C00059BD31A0193059B002B13D10F4B1B78E1
:10461C0083F00103DBB2002B13D10120FFF7BCFFA9
:10462C00069B013B0693069B002B03D1074B0022F4
:10463C001A7007E0054B01221A70019B002BD1D197
:10464C0000E000BF00BF09B05DF804FBD0540020AF
:10465C0000B585B003900291054B00934023054AA9
:10466C000299039800F012F800BF05B05DF804FB46
:10467C00D9450000D454002082B0019000BF02B094
:10468C00704782B0019000BF02B0704700B5A1B076
:10469C0005900491039202930498FFF7F5FA039B9B
:1046AC001593029B16930023179300238DF860300B
:1046BC0000231993229B1A9300231F930FA91F9B6E
:1046CC0008220498FFF7BAFB08231F93119B12933F
:1046DC00BDF84030ADF84C30BDF84230ADF84E303E
:1046EC0000238DF851309DF83C3003F00303DBB20E
:1046FC00012B26D10F9BC3F395231C939DF83C30C3
:10470C00C3F3C203DBB28DF85030BDF83C30C3F3B9
:10471C008313DBB21B931B9B9A0009A91F9B049864
:10472C00FFF78CFB1B9B9B001F9A13441F9312AA31
:10473C0009A915AB009313461B9A1C9800F0D0FEE8
:10474C002FE09DF83C3003F00303DBB2022B28D1A1
:10475C00BDF83E30C3F389139BB21E939DF83C30D9
:10476C00C3F3C203DBB28DF850301E9B082B28BF5D
:10477C0008231D9307A91F9B1D9A0498FFF75EFB46
:10478C001F9A1D9B13441F931E9A1D9BD31A1E9395
:10479C0015AB12AA07A81D9900F044FF1E9B002B15
:1047AC00E3D10498FFF77FFA00BF21B05DF804FB5A
:1047BC0082B00190019BDB6801225A7100BF02B0EC
:1047CC007047000000B583B04FF0FF330193FFF743
:1047DC00F8FE0421084800F09FFD0190019B002B7E
:1047EC0003DA06494120FEF748FC0348FFF7E0FFD7
:1047FC0000BF03B05DF804FBC45F0000386D00001F
:10480C0000B583B001900091019B1B681B68009957
:10481C000198984700BF03B05DF804FB00B583B066
:10482C000190019B1B685B680198984700BF03B01F
:10483C005DF804FB00B583B00190019B1B689B687D
:10484C000198984700BF03B05DF804FB82B001905B
:10485C000B468DF80330019BDB689DF803201A7121
:10486C0000BF02B0704782B00190019BDB681B79DE
:10487C00184602B0704782B00190019BDB680122A0
:10488C005A7100BF02B0704782B00190019BDB6887
:10489C005B79184602B0704700B585B00190009165
:1048AC000C4B01221A700C48FFF752F90390039B32
:1048BC00002B01D0039B08E00848FFF7ADFB084A2A
:1048CC00084BD31ADB0802930023184605B05DF899
:1048DC0004FB00BF7C560020E85F0000A46D0000C4
:1048EC00C45F0000945F0000024A034BD31ADB083C
:1048FC0018467047C45F0000945F000000B587B095
:10490C0001900B468DF803309DF80330002B1FD01F
:10491C00FFF7EAFF04900023059313E0059B9B002F
:10492C000E4A13440393039B1B881A46019B1B6876
:10493C009A4204D1019B059A1A60002309E0059B59
:10494C0001330593059A049B9A42E7D3052300E0B3
:10495C000023184607B05DF804FB00BF00000020E0
:10496C0000B585B001900B468DF803309DF80320FF
:10497C0001AB11461846FFF7C1FF0346002B07D1C8
:10498C00019BDB00054A13440393039B1B6800E067
:10499C000023184605B05DF804FB00BF945F0000CF
:1049AC0084B001900B468DF80330019BDB00174A55
:1049BC00134402939DF80330013B032B1CD801A236
:1049CC0052F823F0E1490000E9490000F1490000E8
:1049DC00FB49000002238DF80F3011E004238DF801
:1049EC000F300DE0029B1B798DF80F3008E0029B15
:1049FC005B798DF80F3003E000238DF80F3000BF8A
:104A0C009DF80F30184604B0704700BF945F00004B
:104A1C0084B00190009100238DF80F30019B1B781E
:104A2C0003F00403DBB2002B24D0019B1B78C3F3EF
:104A3C000103DBB2012B02D0022B0CD017E0009B40
:104A4C001B68019A1288C2F38312D2B213449A1CC7
:104A5C00009B1A600BE0009B1B68019A5288C2F302
:104A6C00891292B213449A1C009B1A6000BF012356
:104A7C008DF80F309DF80F30184604B070470000C9
:104A8C0000B58BB00023ADF826303E48FEF782FB14
:104A9C003D48FEF77FFB3D4B9B6804933C4B1B68EA
:104AAC000693049A069B134002339B00374A134427
:104ABC000433089304AB19460898FFF7A9FF034683
:104ACC00002B09D0049A069B134002339B002F4AFB
:104ADC00134404330893EDE700BF0023079311E060
:104AEC00049B5A1C0492069A1340079A920001A93F
:104AFC000A44264902339B000B445B681360079BF6
:104B0C0001330793079B012BEAD99DF80430C3F3BB
:104B1C000103DBB2012B10D0022B1CD1BDF80A30E3
:104B2C00ADF82630BDF80630C3F389139BB20333BE
:104B3C009A08049B1344049313E0BDF80A30ADF8B3
:104B4C002630BDF80430C3F38313DBB21A46049B42
:104B5C001344049305E00F494FF4C270FEF78DFA2D
:104B6C0000BF0948FEF722FB0590059B002B02D0E5
:104B7C00049B064A9360BDF8263018460BB05DF8CE
:104B8C0004FB00BF945A0020905A00207C56002051
:104B9C0014000020B46D000000B585B0002107485A
:104BAC00FEF781FA0390039B0293029B83F310039D
:104BBC000193019B184605B05DF804FB985A002040
:104BCC0000B589B00390029101920093039B1B0CDA
:104BDC000793FFF7E1FF0690FFF786FE0246079B5F
:104BEC00934204D3214940F2A910FEF746FA069BE2
:104BFC001904009B5A1C0A9B1340079A0A431C4930
:104C0C0002339B000B445A60009A0A9B13400233F8
:104C1C009B00174A134404330593039B03F00703CB
:104C2C00D9B2059A137861F3C5031370019B03F095
:104C3C000F03D9B2059A138861F389131380029B71
:104C4C00C3F31501059A136861F39F231360059A4A
:104C5C001378012161F301031370059A13786FF334
:104C6C008203137000BF09B05DF804FBB46D000043
:104C7C007C56002000B58BB00390029113468DF842
:104C8C000730039B0233089301238DF81F3000205B
:104C9C00FEF7ACF93E4B5A68029B1A603D4B1A6802
:104CAC003B4B99683A4B5B68CB1A1344013309931D
:104CBC0014E001213848FEF73DFAFFF7E1FE0590BC
:104CCC0005993548FEF736FA324B1A68304B99681D
:104CDC002F4B5B68CB1A134401330993089A099B39
:104CEC009A42E6D89DF81F30002B48D0002304933D
:104CFC009DF80730002B17D09DF81030012262F37D
:104D0C0001038DF810309DF8103043F004038DF83A
:104D1C001030039B03F00F03DAB2BDF8103062F3CE
:104D2C008913ADF8103016E09DF81030022262F3B2
:104D3C0001038DF810309DF8103043F004038DF80A
:104D4C001030039BC3F309039AB2BDF8123062F31F
:104D5C008F13ADF812300E4B5A680E4B1B68134074
:104D6C0002339B000A4A134404330693049A069BAD
:104D7C001A60074B5A68089B1344054A536000207D
:104D8C00FEF748F99DF81F3018460BB05DF804FB90
:104D9C007C56002014000020985A002000B58BB0DF
:104DAC0005900491039202931E4B1B68079306AB6C
:104DBC00012219460298FFF75DFF0346002B24D011
:104DCC00069B023309930023089311E0089B9B0078
:104DDC00039A1A44099B591C099107990B401268B4
:104DEC00114902339B000B445A60089B0133089312
:104DFC00089A029B9A42E9D3069A079B00931346A2
:104E0C00029A04990598FFF7DBFE074B1B78002BE1
:104E1C0004D000F07DF80346002BFAD100BF0BB094
:104E2C005DF804FB140000207C56002000B583B014
:104E3C00019000910023002200990198FFF7AEFF2A
:104E4C0000BF03B05DF804FB00B587B0039002917E
:104E5C000192019B059305AA012302990398FFF780
:104E6C009DFF00BF07B05DF804FB00B587B0039051
:104E7C00029101920093019B0493009B059304AA59
:104E8C00022302990398FFF789FF00BF07B05DF872
:104E9C0004FB00B589B00390029101920093019B31
:104EAC000593009B06930A9B079305AA032302997B
:104EBC000398FFF773FF00BF09B05DF804FB00B562
:104ECC008BB00390029101920093019B0593009B80
:104EDC0006930C9B07930D9B08930E9B099305AAB5
:104EEC00052302990398FFF759FF00BF0BB05DF83B
:104EFC0004FB0000054B9A68044B5B689A420CBF9C
:104F0C0001230023DBB21846704700BF7C560020FB
:104F1C0000B599B0FFF7EEFF0346002B01D000233C
:104F2C00B9E19B4B0022C3F81824BFF34F8F00BF8D
:104F3C00974B9B680493974B1B681093049A109B98
:104F4C00134002339B00924A134404331193002301
:104F5C0017930023169300230F9304AB1946119853
:104F6C00FFF756FD0346002B19D0894BD3F81834A4
:104F7C00002B14D1864B5A68049B9A4205D8844B5B
:104F8C005B68834A9360002385E1049A109B13406D
:104F9C0002339B007E4A134404331193DDE7002354
:104FAC00159311E0049B5A1C0492109A1340159A05
:104FBC00920001A90A44764902339B000B445B68BA
:104FCC001360159B01331593159B012BEAD99DF8A2
:104FDC00043003F00303DBB2022B40F09C80BDF8DD
:104FEC000630C3F389139BB20D93BDF80630C3F39F
:104FFC0089139BB2502B28BF50239BB20C930C9B54
:10500C00C3F309039AB2BDF8063062F38F13ADF8FF
:10501C0006300C9B08330B939DF80430C3F3C2038A
:10502C00DBB20F930B995C48FEF79DFD1790179B15
:10503C00002B00F0D3801798FEF726FE01A9169BD3
:10504C0008221798FEF7DCFE169B08331693049B78
:10505C00DA43109B134001339B000A930C9A0A9B72
:10506C009A4242D90A9B002B08D0049A109B1340F9
:10507C0002339B00464A1344043300E0474B089329
:10508C000A9B002B02D00A9BDBB201E00C9BDBB22B
:10509C008DF81F300A9B002B01D0404B00E0002301
:1050AC0006930A9B002B06D00C9BDAB20A9BDBB250
:1050BC00D31ADBB200E000238DF817309DF81F20C7
:1050CC00169B08991798FEF79BFE9DF81F30169AB1
:1050DC0013441693069B002B16D09DF81720169B95
:1050EC0006991798FEF78CFE0EE0049A109B13405D
:1050FC0002339B00264A134404330993169B0C9AE3
:10510C0009991798FEF77CFE0D9B03339A08049BB4
:10511C001344049362E09DF8043003F00303DBB204
:10512C00012B5BD1BDF80430C3F38313DBB2062B28
:10513C0028BF0623DAB2BDF8043062F38913ADF848
:10514C000430BDF80430C3F38313DBB202330E9387
:10515C009DF80430C3F3C203DBB20F930E9B9B008C
:10516C0019460D48FEF7FFFC1790179B002B35D006
:10517C001798FEF789FD01A9169B08221798FEF7D0
:10518C003FFE169B08331693002315931DE000BFBA
:10519C007C56002014000020E85F00008856002098
:1051AC00049B5A1C0492109A134002339B003C4AF5
:1051BC001344191D169B04221798FEF721FE169B0B
:1051CC0004331693159B01331593BDF80430C3F3C8
:1051DC008313DBB21A46159B9342E1D3179B002B2A
:1051EC0039D02F4BD3F8103414932D4BD3F81834EB
:1051FC00002B1BD01798FEF756FD46E000238DF8C8
:10520C004F301498FFF740FB0346002B02D00123CC
:10521C008DF84F309DF84F30002B03D01799149810
:10522C00FFF7EEFA149BDB681B681493149B002B9E
:10523C00E4D11798FEF737FD0020FDF7D7FE184B89
:10524C00D3F81834002B02D1049B154A936000202C
:10525C00FDF7E0FE19E0124BD3F81034129306E080
:10526C001298FFF7E7FA129BDB681B681293129BEC
:10527C00002BF5D10B4A0C4BD31ADB081B0443F063
:10528C0002030A491846FFF7D1FDFFF733FE034628
:10529C0083F00103DBB2184619B05DF804FB00BFC4
:1052AC007C560020B45F0000945F0000186E000074
:1052BC0000B585B00023039323E0164BD3F81034CC
:1052CC00029301238DF807300FE00298FFF7CBFA19
:1052DC0003461A46039B934203D100238DF80730F3
:1052EC0006E0029BDB681B680293029B002BECD14F
:1052FC009DF80730002B01D0039B07E0039B013383
:10530C000393039B092BD8DD4FF0FF33184605B0F0
:10531C005DF804FB7C56002000B585B001900B466F
:10532C008DF80330FFF7C4FF0390039BB3F1FF3FED
:10533C0001D1039B22E0039BDBB219460198FFF7D6
:10534C0085FA104BD3F81034002B08D10D4A019B71
:10535C00C2F81034019BDB6800221A600DE0094B87
:10536C00D3F81034DA68019BDB6812681A60054BBD
:10537C00D3F81034DB68019A1A60039B184605B009
:10538C005DF804FB7C56002000B583B00C4BD3F8C1
:10539C00103401930A4B01221A7009E00198FFF7AF
:1053AC006AFA0198FFF73AFA019BDB681B680193D4
:1053BC00019B002BF2D100BF00BF03B05DF804FBD2
:1053CC007C56002082B00190009100BF02B0704763
:1053DC0010B584B003900291039BDB88002B0AD09C
:1053EC00039BDB881A461F4B009313461E4A1F492A
:1053FC000298FEF709F8039B1B7A052B2ED0039B12
:10540C005B7A002B12D0039B9B881A46039B1B7A5A
:10541C0019461046FFF7C4FA03461A46144B53F8C4
:10542C0022301A4613490298FDF7EEFF039B1B68C6
:10543C0019460298FFF7C6FF039B1B7A1A460E4BC0
:10544C0053F82240039B9B8800211846FFF788FAEB
:10545C000346224609490298FDF7D6FF00BF04B067
:10546C0010BD00BF4C6E00005C6E0000946E00001E
:10547C002C000020AC6E000018000020B06E000064
:10548C0000B585B00390029113468DF80730039B4D
:10549C001B7A052B0FD0039B5B7A002B06D00D4B90
:1054AC001B681A460C490298FDF7AEFF0B4902988F
:1054BC00FDF7AAFF07E09DF80730002B03D0074942
:1054CC000298FDF7A1FF0298FDF77CFF00BF05B025
:1054DC005DF804FB2C000020AC6E0000BC6E0000DC
:1054EC0030B58BB007900691059204930E9B1B7BF5
:1054FC008DF827300E9B00221A730E990498FFF733
:10550C0067FF059B062B7FD801A252F823F000BF42
:10551C0039550000435500005355000067550000F5
:10552C0085550000AD550000DD55000007990E981B
:10553C00FDF76AFF69E0069B1B681A4607990E98EF
:10554C00FDF762FF61E0069B1A68069B04331B683B
:10555C0007990E98FDF758FF57E0069B1A68069BB3
:10556C0004331968069B08331B6800930B46079994
:10557C000E98FDF749FF48E0069B1968069B04331B
:10558C001868069B08331B68069A0C321268019245
:10559C00009303460A4607990E98FDF735FF34E051
:1055AC00069B1868069B04331C68069B08331B6813
:1055BC00069A0C3212680699103109680291019210
:1055CC0000932346024607990E98FDF71DFF1CE039
:1055DC00069B1C68069B04331D68069B08331B68DE
:1055EC00069A0C3212680699103109680698143024
:1055FC00006803900291019200932B462246079972
:10560C000E98FDF701FF00E000BF00220E990498F0
:10561C00FFF736FF0E9B9DF827201A7300BF0BB0C7
:10562C0030BD00BF00B587B003900291019200938A
:10563C00029B082B60D8009B1B7B8DF81330009BC2
:10564C0000221A7300990198FFF7C2FE00230593FC
:10565C0014E0059A029B9A4209D2039A059B1344C3
:10566C001B781A4626490098FDF7CEFE03E0254923
:10567C000098FDF7C9FE059B01330593059B072B8D
:10568C00E7D921490098FDF7BFFE0023059326E0DA
:10569C00059A029B9A421BD2039A059B13441B78D2
:1056AC008DF812309DF812307E2B0AD89DF81230EE
:1056BC00184600F06AFB0346002B02D09DF812300E
:1056CC0000E02E231A4611490098FDF79DFE03E0D9
:1056DC000F490098FDF798FE059B01330593059B38
:1056EC00072BD5D9012200990198FFF7C9FE009B21
:1056FC009DF813201A7300E000BF07B05DF804FB9F
:10570C00C06E0000C86E0000CC6E0000D06E0000B1
:10571C00D46E000082B0204B0193019B02221A61CF
:10572C00019B02225A61019B1C4A9A61019B1C4AF3
:10573C00DA61019B4FF400721A62019B00229A629B
:10574C00019B00225A62019B0022DA62019B134AE0
:10575C009A64019B134ADA64019B10221A65019B1F
:10576C0000229A65019B00225A65019B0022DA6592
:10577C00019B07330C4A10681860019B0B4A106898
:10578C0018609188927999809A71019B20229A7164
:10579C0000BF02B0704700BF9C5A0020D86E0000BA
:1057AC00145B0020145D0020E46E0000E86E000025
:1057BC0000B589B003900291019200230693039BDC
:1057CC00DB680593039B1B690493049A059B9A421F
:1057DC0005D9049A059BD31A013B079307E0039B59
:1057EC009A680499059BCB1A1344013B0793039BBE
:1057FC009A68059BD31A079A934228BF13460793BE
:10580C00079A019B934228BF13460793039B5A6840
:10581C00059B1344079A0299184600F021FB069A3F
:10582C00079B13440693029A079B13440293019A15
:10583C00079BD31A0193059A079B13440593039B6B
:10584C009B68059A9A4201D100230593039B059A04
:10585C00DA60019B002BB5D1069B184609B05DF8A8
:10586C0004FB00B589B0039002910192039BDB68A5
:10587C000793039B9A68079BD31A0693069A019B7E
:10588C009A420ED9039B5A68079B1344019A0299BA
:10589C00184600F0E5FA079A019B1A44039BDA605C
:1058AC001AE0069B0593039B5A68079B1344059AC1
:1058BC000299184600F0D4FA019A069BD31A059364
:1058CC00039B5868029A069B1344059A194600F0EC
:1058DC00C7FA039B059ADA6000BF09B05DF804FBB8
:1058EC0086B00190019B1B690493019BDB680393B9
:1058FC00049A039B9A4208D8019B9A68039BD21A7C
:10590C00049B1344013B059304E0049A039BD31AB4
:10591C00013B0593059B184606B0704700B589B04E
:10592C00039002910192029B0693039B5A1C13460F
:10593C005B001344DB00204A13440593059B5B6911
:10594C00022B29D0022B2ED8002B02D0012B13D0E6
:10595C0029E00598FFF7C4FF0490049A019B9A4232
:10596C0002D20023079321E0019B0793019A069929
:10597C000598FFF776FF19E00598FFF7B1FF049043
:10598C00019A049B934228BF13460793079A0699E2
:10599C000598FFF766FF09E0019A06990598FFF74D
:1059AC0007FF079002E00023079300BF079B1846F0
:1059BC0009B05DF804FB00BF9C5A002008B5FFF746
:1059CC00A9FE00BF08BD0000F0B540F2FF7681EAE9
:1059DC00030C16EA115E1EBFB64516EA1355B54206
:1059EC0052D021EA465141F48011A1FB024723EA2F
:1059FC00465343F48013AE44A0FB03650CF0004CFB
:105A0C0036197D41A1FB034747F10003A0FB0217A8
:105A1C00F619654153F10003094218BF46F001061F
:105A2C0040F2FE74B3F5007F13D2AEF5806EA6453E
:105A3C0023D24CEA0331280341EA155140EA1650AF
:105A4C003203450872F1004250F1000051EB0E5147
:105A5C00F0BDAEF2FF3EA6450FD24CEAC321E802E0
:105A6C0041EA555140EA5650F202450872F10042A3
:105A7C0050F1000051EB0E51F0BD1EEA0E0F2DD56A
:105A8C000CF000410020F0BD16EA115F04BF01F0DC
:105A9C0000410020004218BF41F0010116EA135FDB
:105AAC0004BF03F000430022124218BF43F001036D
:105ABC0006EA1354B44218BFB64503D00CF00041AB
:105ACC000020F0BD21F0004123F00043B1EB065F54
