:1000000000000420190200000102000003020000A9
:1000100005020000070200000902000000000000C5
:100020000000000000000000000000000B020000C3
:100030000D020000000000000F020000110200008D
:10004000130200001302000071190000952B00003C
:10005000AD2B000013020000130200001302000089
:10006000130200001302000013020000130200003C
:10007000130200001302000013020000130200002C
:10008000130200001302000013020000130200001C
:10009000130200001302000013020000130200000C
:1000A00013020000130200001302000013020000FC
:1000B0001302000013020000000000000000000016
:1000C00013020000130200001302000013020000DC
:1000D00013020000130200001302000013020000CC
:1000E00013020000130200001302000000000000D1
:1000F00000000000130200000000000013020000D6
:1001000000000000000000000000000000000000EF
:1001100000000000000000000000000000000000DF
:1001200000000000000000000000000000000000CF
:1001300000000000000000000000000000000000BF
:1001400000000000000000000000000000000000AF
:10015000000000000000000000000000000000009F
:10016000000000000000000000000000000000008F
:10017000000000000000000000000000000000007F
:10018000000000000000000000000000000000006F
:10019000000000000000000000000000000000005F
:1001A000000000000000000000000000000000004F
:1001B000000000000000000000000000000000003F
:1001C000000000000000000000000000000000002F
:1001D000000000000000000000000000000000001F
:1001E000000000000000000000000000000000000F
:1001F00000000000000000000000000000000000FF
:10020000FEE7FEE7FEE7FEE7FEE7FEE7FEE7FEE7C6
:10021000FEE7FEE700F002B8FFF7FCBF0F484FF023
:100220000701884385460E4880470E48016841F41F
:1002300070010160BFF34F8FBFF36F8F00F01AB8EA
:1002400009480A490A4A884207D0521A05D0037859
:1002500001300B700131013AF9D1704700000420E0
:100260001914000088ED00E0686000000000002024
:1002700000000020344935480A1A02D00722914371
:100280008D46334933480A1A06D00722914381F339
:100290000988022282F314882F483049304A00F03E
:1002A00041F830483049314A00F03CF83048314993
:1002B000314A00F037F831483149324A00F032F81B
:1002C00031483249324A00F02DF832483249334A37
:1002D00000F028F832483349334A00F023F8334815
:1002E0003349002200F029F832483349002200F057
:1002F00024F832483249091A05F078FE314A90470D
:100300001F482049884205D00268043003B4904752
:1003100003BCF7E700208646EC46002000212A4A6D
:100320009047FEE7884207D0521A05D00378013083
:100330000B700131013AF9D17047884202D0027046
:100340000130FAE7704700000000042000E00320BD
:100350000000042000000420A4740000000000201D
:1003600064000020CC030000CC030000006000000B
:10037000A474000000000020000000207C60000049
:100380007C6000007C6000007C6000007C600000FD
:100390007C6000007C6000007C600000A1740000B4
:1003A0000875000064000020640000206400002044
:1003B000305C0020305C0020305C0020305C00208D
:0C03C000307C002041020000210B0000F6
:1003CC0000B585B00190019B002B0AD0074B43F080
:1003DC0001030393019B9B010293039B0298984793
:1003EC0000E000BF05B05DF804FB00BFB061000089
:1003FC0000B583B00190019B1B68184600F06DF8A6
:10040C000346002B04D10B494FF4F67002F011FD9A
:10041C00019B1B681F2B02D84FF0A04306E0019BE9
:10042C001B6803F01F02019B1A60034B184603B0B4
:10043C005DF804FB7C6000000003005000B585B043
:10044C000190084611461A4603468DF803300B46B8
:10045C008DF8023013468DF8013001AB1846FFF7CA
:10046C00C7FF03909DF803209DF802305B001A43F0
:10047C009DF801309B001A439DF818301B0242EA8C
:10048C0003019DF81C301B04019A1943039B02F5D0
:10049C00E07243F8221000BF05B05DF804FB00B514
:1004AC0085B0019001AB1846FFF7A2FF0390019BAA
:1004BC00012202FA03F31946039800F004F800BF76
:1004CC0005B05DF804FB82B001900091019B009A8D
:1004DC00C3F8082500BF02B0704784B00190019B9F
:1004EC005B09029300230393029B002B03D0029B16
:1004FC00012B04D007E04FF0FF33039303E04FF6DA
:10050C00FF73039300BF019B03F01F030193039A36
:10051C00019B22FA03F303F00103002B14BF012308
:10052C000023DBB2184604B0704700B583B00190CD
:10053C00019B0433184601F091FE00BF03B05DF837
:10054C0004FB00B589B0059003921A460B468DF852
:10055C00133013468DF8123000230793059B181D9A
:10056C009DF812209DF813109DF828300093134627
:10057C00039A02F06DF90790079B184609B05DF8D5
:10058C0004FB00B587B0039001921A460B468DF818
:10059C000B3013468DF80A3000230593039B181D6E
:1005AC009DF80A309DF80B10019A02F079F905902C
:1005BC00059B184607B05DF804FB00B583B00190AD
:1005CC00019B002B0AD04FF47A70FFF7F9FE019BC8
:1005DC00013B0193019B002BF5D100E000BF03B060
:1005EC005DF804FB82B001900091019B1B78002BFD
:1005FC0003D1044B01221A7000E000BF00BF02B00F
:10060C00704700BF6500002000B589B002AB002226
:10061C001A605A609A60DA600F2302930E230393D8
:10062C004FF0CC73049302238DF8143002A90023ED
:10063C00144A154801F062F90790079B0693069B34
:10064C00002B04D0114A7921069802F0FFFA0E48CB
:10065C00FFF76BFF00230193072300930323002272
:10066C0000210E20FFF7EAFE0023019307230093DD
:10067C000323002200210F20FFF7E0FE00BF09B08A
:10068C005DF804FBF105000088610000AC6000001F
:10069C0000B58BB003AB00221A605A609A60DA6026
:1006AC00022303931F2304934FF0CC73059302236F
:1006BC008DF8183003AB1946194803F0CDFE09909C
:1006CC00099B0893089B002B04D0164A912108988B
:1006DC0002F0BCFA144803F053FF0990099B0793EE
:1006EC00079B002B04D00F4A9321079802F0AEFA17
:1006FC0000230193072300930323002200211F20D2
:10070C00FFF79CFE00230193072300930323002291
:10071C0000210220FFF792FE00BF0BB05DF804FB36
:10072C0098610000AC6000000000002000B5C7B06C
:10073C0046ABA3F588731960114646ABA3F20913B7
:10074C0002461A7046ABA3F586730A461A8046AB6E
:10075C00A3F5847300221A600433FB22002118468F
:10076C0005F0EAFB46ABA3F5847346AAA2F2091284
:10077C0012781A7046ABA3F58673198846ABA3F5AD
:10078C00887304AA501C0A46196805F09FFB154B88
:10079C0000221A7046ABA3F586731B88DBB20133BB
:1007AC00DBB204AA0021009139210F48FFF7C9FEE2
:1007BC004590459B4493449B002B04D00B4AB2219B
:1007CC00449802F043FA00BF064B1B78DBB283F06F
:1007DC000103DBB2002BF7D1459B5BB2184647B047
:1007EC005DF804FB6500002088610000AC6000002F
:1007FC0000B589B0034602918DF80F301346ADF861
:10080C000C30224B00221A700DF10F0201230093C1
:10081C00012339211E48FFF794FE0790079B06938E
:10082C00069B002B04D01B4AC321069802F00EFA3B
:10083C0000BF164B1B78DBB283F00103DBB2002B3D
:10084C00F7D1124B00221A70BDF80C30DBB2029AB1
:10085C0039210F48FFF795FE0790079B0593059BE1
:10086C00002B04D00B4AC821059802F0EFF900BF09
:10087C00064B1B78DBB283F00103DBB2002BF7D104
:10088C00079B5BB2184609B05DF804FB65000020BD
:10089C0088610000AC60000000B585B001900122B9
:1008AC0001998020FFF7A4FF03468DF80F309DF8C7
:1008BC000F30002B01D1012300E00023184605B0B6
:1008CC005DF804FB00B585B003468DF807300DF1DB
:1008DC000703012219468020FFF728FF03468DF8F5
:1008EC000F309DF80F30002B01D1012300E00023C5
:1008FC00184605B05DF804FB00B583B00DF1060396
:10090C001846FFF7C9FF034683F00103DBB2002B47
:10091C0001D000231BE09DF8063003F00503002BEB
:10092C0004D00D4B01221A70012310E045238DF8E1
:10093C0006309DF806301846FFF7C4FF03468DF8C5
:10094C000730054A9DF8073013709DF8073018469C
:10095C0003B05DF804FB00BF6400002000B58BB051
:10096C008F238DF807300DF1070301221946A620BD
:10097C00FFF7DCFE03468DF827309DF927300893EE
:10098C00089B002B05D0624A4FF4AE71089802F018
:10099C005DF90DF1070301221946A220FFF728FF8C
:1009AC0003468DF827309DF8073063F03F03DBB228
:1009BC008DF807300DF1070301221946A220FFF72D
:1009CC00B5FE03468DF827309DF927300793079B1A
:1009DC00002B05D04E4A4FF4B171079802F036F94E
:1009EC002A238DF807300DF1070301221946A320A5
:1009FC00FFF79CFE03468DF827309DF927300693B0
:100A0C00069B002B05D0424A40F26711069802F073
:100A1C001DF90DF1070301221946AA20FFF7E8FE84
:100A2C0003468DF827309DF8073023F00303DBB223
:100A3C008DF807309DF927300593059B002B05D0C9
:100A4C00334A4FF4B671059802F000F90DF1070323
:100A5C0001221946AA20FFF769FE03468DF82730BC
:100A6C009DF927300493049B002B05D0284A4FF4A2
:100A7C00B771049802F0EAF804238DF807300DF1F1
:100A8C000703012219468F20FFF750FE03468DF80D
:100A9C0027309DF927300393039B002B05D01C4A6C
:100AAC004FF4B971039802F0D1F80DF1070301224C
:100ABC001946AB20FFF79CFE03468DF827309DF9B5
:100ACC002730002B01D000231DE09DF8073023F0C8
:100ADC000103DBB28DF807300DF107030122194633
:100AEC00AB20FFF723FE03468DF827309DF9273006
:100AFC000293029B002B05D0054A40F27911029813
:100B0C0002F0A4F8012318460BB05DF804FB00BFFB
:100B1C00AC60000000B58BB000238DF82730162098
:100B2C00FFF7BDFC2020FFF7BAFC00230193022342
:100B3C0000930023012201211620FFF77FFC0023E4
:100B4C000193022300930023012201212020FFF7AF
:100B5C0075FC0420FFF731FD0021002004F09AF809
:100B6C000890089B002B05D07A4A40F28D1108980A
:100B7C0002F06CF804F024F8774A784BD31ADB08AF
:100B8C001B0443F003037649184604F04DFB04F0B4
:100B9C00A7FB0346002BFAD1FFF736FDFFF778FDD4
:100BAC00704803F031FE6F4803F08CFE012000F01A
:100BBC003DFA00F0F3F9FFF7D1FE6B4B1B7883F095
:100BCC000103DBB2002B41D0FFF796FE034683F006
:100BDC000103DBB2002B0FD05F4A604BD31ADB084A
:100BEC001B0443F003036149184604F01DFB04F099
:100BFC0077FB0346002BFAD100238DF80D300DF155
:100C0C000D0301221946AB20FFF790FD0346079315
:100C1C00079B0693069B002B05D04E4A40F2A7116A
:100C2C00069802F013F8079B002B0FD14A4A4B4B46
:100C3C00D31ADB081B0443F003034D49184604F098
:100C4C00F3FA04F04DFB0346002BFAD10DF10F0320
:100C5C0001221946AB20FFF769FD03460793079B5A
:100C6C000593059B002B05D03A4A4FF4D771059894
:100C7C0001F0ECFF45238DF80F300DF10F0301222D
:100C8C0019468020FFF752FD03460793079B0493F8
:100C9C00049B002B05D02F4A4FF4D971049801F016
:100CAC00D5FF6420FFF789FC00238DF80F300DF180
:100CBC000E03012219469C20FFF79AFD0346079369
:100CCC00254A264BD31ADB081B0443F003039DF87B
:100CDC000E202849184604F0B5FA04F001FB03462F
:100CEC00002BFAD10DF10F03012219468020FFF7DA
:100CFC007FFD03460793184A184BD31ADB081B04D5
:100D0C0043F003039DF80F201B49184604F09AFA90
:100D1C0004F0E6FA0346002BFAD10DF10F03012281
:100D2C001946AB20FFF764FD034607930A4A0B4BA9
:100D3C00D31ADB081B0443F003039DF80F200F4963
:100D4C00184604F07FFA04F0CBFA0346002BFAD1D4
:100D5C00A7E700BFAC60000020600000006000004E
:100D6C000C610000000000206400002024610000E1
:100D7C004861000064610000706100007C6100004B
:100D8C0000B583B00190019B1B68184600F0C3F8B6
:100D9C000346002B04D10B494FF4F67002F049F8CE
:100DAC00019B1B681F2B02D84FF0A04306E0019B50
:100DBC001B6803F01F02019B1A60034B184603B01B
:100DCC005DF804FBB86100000003005000B585B06D
:100DDC000190084611461A4603468DF803300B461F
:100DEC008DF8023013468DF8013001AB1846FFF731
:100DFC00C7FF03909DF803209DF802305B001A4357
:100E0C009DF801309B001A439DF818301B0242EAF2
:100E1C0003019DF81C301B04019A1943039B02F536
:100E2C00E07243F8221000BF05B05DF804FB00B57A
:100E3C0085B003900023019300230093002301222B
:100E4C0001210398FFF7C2FF00BF05B05DF804FB5A
:100E5C0000B585B003900B468DF80B309DF80B3028
:100E6C000022019200220092002200210398FFF739
:100E7C00ADFF00BF05B05DF804FB00B585B0019077
:100E8C0001AB1846FFF77CFF0390019B012202FA8D
:100E9C0003F31946039800F02AF800BF05B05DF87B
:100EAC0004FB00B585B0019001AB1846FFF768FF55
:100EBC000390019B012202FA03F31946039800F0F8
:100ECC0020F800BF05B05DF804FB00B583B00190BD
:100EDC000091009B002B03D10198FFF7E2FF02E089
:100EEC000198FFF7CAFF00BF03B05DF804FB82B0A6
:100EFC0001900091019B009AC3F8082500BF02B035
:100F0C00704782B001900091019B009AC3F80C25A8
:100F1C0000BF02B0704784B00190019B5B09029343
:100F2C0000230393029B002B03D0029B012B04D0C4
:100F3C0007E04FF0FF33039303E04FF6FF73039387
:100F4C0000BF019B03F01F030193039A019B22FA3C
:100F5C0003F303F00103002B14BF01230023DBB2C6
:100F6C00184604B07047000000B583B00190019B97
:100F7C00032B03D90749472001F05BFF064A019B6D
:100F8C0013441B7801211846FFF79FFF00BF03B0E5
:100F9C005DF804FBE86100002062000000B583B03E
:100FAC000023019305E00198FFF7DEFF019B01335D
:100FBC000193019B032BF6D900BF00BF03B05DF872
:100FCC0004FB000000B583B00023019309E0094A3B
:100FDC00019B13441B781846FFF729FF019B013333
:100FEC000193019B032BF2D9FFF7D8FF00BF03B08D
:100FFC005DF804FB2062000000B583B00023019370
:10100C000AE0094A019B13441B7803211846FFF799
:10101C001FFF019B01330193019B032BF1D900BFEF
:10102C0000BF03B05DF804FB2462000000B583B080
:10103C000190019B03F00103002B01D0FFF7C2FFCD
:10104C00019B03F00203002B01D0FFF7D5FF00BF7B
:10105C0003B05DF804FB0000BFF34F8F00BF064BDD
:10106C00DB6803F4E0620449044B1343CB60BFF329
:10107C004F8F00BF00BFFDE700ED00E00400FA0554
:10108C0082B0164B1B680193154B1B680093019B98
:10109C00082B1FD1009B052B1AD801A252F823F064
:1010AC00C5100000C9100000CD100000D1100000C8
:1010BC00D5100000D910000001230CE001230AE038
:1010CC00012308E0012306E0012304E0012302E0F0
:1010DC00012300E00023184602B0704730010010D5
:1010EC003401001082B0164B1B680193154B1B6822
:1010FC000093019B082B1FD1009B052B1AD801A232
:10110C0052F823F0291100002D11000031110000BC
:10111C0035110000391100003D11000001230CE0D5
:10112C0001230AE0012308E0012306E0012304E087
:10113C00012302E0012300E00023184602B07047AF
:10114C00300100103401001082B0164B1B68019363
:10115C00154B1B680093019B082B1FD1009B052B83
:10116C001AD801A252F823F08D1100009111000041
:10117C0095110000991100009D110000A1110000B3
:10118C0001230CE000230AE0002308E0002306E022
:10119C00002304E0002302E0002300E000231846B3
:1011AC0002B07047300100103401001082B0164BB1
:1011BC001B680193154B1B680093019B082B1FD1D7
:1011CC00009B052B1AD801A252F823F0F111000054
:1011DC00F5110000F9110000FD11000001120000D2
:1011EC000512000001230CE000230AE0002308E0B4
:1011FC00002306E0002304E0002302E0002300E0CB
:10120C000023184602B07047300100103401001062
:10121C0082B0164B1B680193154B1B680093019B06
:10122C00082B1FD1009B052B1AD801A252F823F0D2
:10123C0055120000591200005D12000061120000EE
:10124C00651200006912000001230CE000230AE083
:10125C00002308E0002306E0002304E0002302E062
:10126C00002300E00023184602B070473001001044
:10127C003401001082B0164B1B680193154B1B6890
:10128C000093019B082B1FD1009B052B1AD801A2A0
:10129C0052F823F0B9120000BD120000C112000078
:1012AC00C5120000C9120000CD12000001230CE091
:1012BC0000230AE0002308E0002306E0002304E0FA
:1012CC00002302E0002300E00023184602B0704720
:1012DC00300100103401001082B0164B1B680193D2
:1012EC00154B1B680093019B082B1FD1009B052BF2
:1012FC001AD801A252F823F01D130000211300008C
:10130C0025130000291300002D13000031130000D9
:10131C0001230CE001230AE0012308E0012306E08D
:10132C00012304E0012302E0012300E0002318461E
:10133C0002B07047300100103401001082B0164B1F
:10134C001B680193154B1B680093019B082B1FD145
:10135C00009B052B1AD801A252F823F08113000030
:10136C0085130000891300008D13000091130000F9
:10137C009513000000230CE000230AE0002308E092
:10138C00002306E0012304E0012302E0012300E036
:10139C000023184602B070473001001034010010D1
:1013AC0008B5FFF7CBFF0346002B07D04FF01023F7
:1013BC004FF08042D3F80832C2F8583500BF08BD50
:1013CC0000BF044BD3F80034002BFAD000BF00BF91
:1013DC00704700BF00E0014000B583B00190054AA2
:1013EC00019BC2F80435FFF7EBFF00BF03B05DF8BB
:1013FC0004FB00BF00E00140024B034A1A6000BF2F
:10140C00704700BF080000200090D00308B5FFF71C
:10141C0037FE0346002B0ED04FF080430022C3F85A
:10142C000C214FF080430022C3F810214FF0804371
:10143C000022C3F83825FFF755FE0346002B76D063
:10144C004FF08053734AD3F80434C2F820354FF070
:10145C008053704AD3F80834C2F824354FF08053C7
:10146C006C4AD3F80C34C2F828354FF08053694AD3
:10147C00D3F81034C2F82C354FF08053654AD3F8AA
:10148C001434C2F830354FF08053624AD3F8183414
:10149C00C2F834354FF080535E4AD3F81C34C2F88E
:1014AC0040354FF080535B4AD3F82034C2F84435B2
:1014BC004FF08053574AD3F82434C2F848354FF0D4
:1014CC008053544AD3F82834C2F84C354FF080532B
:1014DC00504AD3F82C34C2F850354FF080534D4A53
:1014EC00D3F83034C2F854354FF08053494AD3F80E
:1014FC003434C2F860354FF08053464AD3F8383450
:10150C00C2F864354FF08053424AD3F83C34C2F8E9
:10151C0068354FF080533F4AD3F84034C2F86C35ED
:10152C004FF080533B4AD3F84434C2F87035FFF780
:10153C000BFE0346002B02D0374B384A1A60FFF7DC
:10154C0035FE0346002B03D0354BFB22C3F8182580
:10155C00FFF75EFE0346002B0AD0324B1B6823F0CC
:10156C000F02314B1B6803F00F032E4913430B6022
:10157C00FFF780FE0346002B03D02C4B4FF4007278
:10158C001A60FFF7A9FE0346002B0DD04FF08043E5
:10159C00D3F8003403F00103002B05D04FF0804347
:1015AC006FF00102C3F80024214BD3F88830204A95
:1015BC0043F47003C2F88830BFF34F8F00BFBFF302
:1015CC006F8F00BFFFF7ECFE4FF01023D3F8003203
:1015DC00002B05DB4FF01023D3F80432002B15DA67
:1015EC000120FFF7F9FE4FF010231222C3F800225E
:1015FC00FFF7E6FE4FF010231222C3F80422FFF788
:10160C00DFFE0020FFF7E8FEFFF726FDFFF7F4FEF4
:10161C0000BF08BD00C000408C560040488103004C
:10162C0000F00040E40E00405802001040960240CA
:10163C0000ED00E000B585B00190019B002B0AD0B5
:10164C00074B43F001030393019B9B010293039B04
:10165C000298984700E000BF05B05DF804FB00BF9E
:10166C006062000000B583B00190019B1B681846B6
:10167C0000F077F80346002B04D10B494FF4F670B9
:10168C0001F0D7FB019B1B681F2B02D84FF0A04326
:10169C0006E0019B1B6803F01F02019B1A60034BC1
:1016AC00184603B05DF804FB2862000000030050EC
:1016BC0000B585B0019001AB1846FFF7D3FF03903E
:1016CC00019B012202FA03F31946039800F035F846
:1016DC0000BF05B05DF804FB00B585B0019001AB0F
:1016EC001846FFF7BFFF0390019B012202FA03F398
:1016FC001946039800F02BF800BF05B05DF804FB09
:10170C0000B585B0019001AB1846FFF7ABFF039015
:10171C00039800F00AF80246019B22FA03F303F047
:10172C000103184605B05DF804FB82B00190019BE3
:10173C00D3F81035184602B0704782B00190009172
:10174C00019B009AC3F8082500BF02B0704782B015
:10175C0001900091019B009AC3F80C2500BF02B0C8
:10176C00704784B00190019B5B09029300230393A3
:10177C00029B002B03D0029B012B04D007E04FF0FF
:10178C00FF33039303E04FF6FF73039300BF019BFA
:10179C0003F01F030193039A019B22FA03F303F056
:1017AC000103002B14BF01230023DBB2184604B045
:1017BC00704700B585B001904FF0A042019B1B68AB
:1017CC0003F5E07340F20C6142F823104FF0A04295
:1017DC00019B5B6803F5E07340F20C6142F8231047
:1017EC00019B1B681846FFF763FF019B5B6818465B
:1017FC00FFF75EFF4FF0A042019B1B6803F5E073FF
:10180C0040F20D6142F823104FF0A042019B5B683F
:10181C0003F5E07340F20D6142F823100420FFF74A
:10182C0009FF002303931EE0019B5B681846FFF73A
:10183C0067FF0346002B03D0039B002B17D124E03A
:10184C00019B1B681846FFF747FF0420FFF7F2FEC9
:10185C00019B1B681846FFF72BFF0420FFF7EAFEDD
:10186C00039B01330393039B082BDDDD00E000BFDA
:10187C00019B5B681846FFF72FFF0420FFF7DAFE89
:10188C00019B5B681846FFF713FF05B05DF804FB7E
:10189C0000B589B001900091009B0793019B1B78C8
:1018AC008DF80C30019B1B798DF81030019B5B7906
:1018BC008DF81130019B9B68DBB28DF81230019BC7
:1018CC00DB68DBB28DF81330019B1B690593019B20
:1018DC005B690693074A079B52F823300649079A1F
:1018EC0051F8221003AA1046984700BF09B05DF8C2
:1018FC0004FB00BF305300203853002000B587B0E4
:10190C000390029101920093039B1B78059312495B
:10191C00059B019A41F823201049059B009A41F838
:10192C002320029B5B7B002B02D00298FFF741FF28
:10193C0000230493039B181D019B002B01D0084A24
:10194C0000E00022059B029900F096FB0490049B9A
:10195C00184607B05DF804FB3053002038530020C4
:10196C009D18000008B5064B1B68002B03D10549D8
:10197C00512001F05EFA024B1B68984708BD00BF6E
:10198C00405300206C62000082B00190019B044A1D
:10199C00934201D1034B00E00023184602B070477C
:1019AC00002000404053002000B587B0019000910A
:1019BC00019B002B03D11849772001F03AFA0198CA
:1019CC00FFF7E2FF0590059B002B1ED000238DF83E
:1019DC001330002001F0E6F9059B1B79002B03D096
:1019EC0001238DF8133005E0059B009A1A60059BC6
:1019FC0001221A71002001F0E9F99DF81330002B37
:101A0C0003D011230393039B02E000230393039B56
:101A1C00184607B05DF804FB6C62000000B585B099
:101A2C000190019B002B03D10A499B2001F001FA84
:101A3C000198FFF7A9FF0390039B002B05D0039B94
:101A4C0000221A60039B00221A7100BF05B05DF8DA
:101A5C0004FB00BF6C62000082B003468DF80730B7
:101A6C009DF90730002B0CDB9DF8073003F01F02AB
:101A7C0005499DF907305B09012000FA02F241F893
:101A8C00232000BF02B0704700E100E082B00346A3
:101A9C008DF807309DF90730002B13DB9DF80730CC
:101AAC0003F01F0209499DF907305B09012000FA78
:101ABC0002F2203341F82320BFF34F8F00BFBFF356
:101ACC006F8F00BF00BF02B0704700BF00E100E0A5
:101ADC0082B003468DF807309DF90730002B0DDBE3
:101AEC009DF8073003F01F0206499DF907305B098A
:101AFC00012000FA02F2603341F8232000BF02B04B
:101B0C00704700BF00E100E082B0034600918DF801
:101B1C0007309DF90730002B0ADB009BDAB20C4929
:101B2C009DF907305201D2B20B4483F800230BE02D
:101B3C00009BDAB207499DF8073003F00F03043B12
:101B4C005201D2B20B441A7600BF02B0704700BFEC
:101B5C0000E100E000ED00E082B00190019B03F099
:101B6C006043B3F1005F0CBF01230023DBB21846C6
:101B7C0002B0704782B00190019B1B0B5BB2184600
:101B8C0002B0704700B583B003460A468DF80730A3
:101B9C0013468DF806309DF80630072B03D90849FB
:101BAC006B2001F046F99DF806209DF9073011468F
:101BBC001846FFF7A9FF00BF03B05DF804FB00BF98
:101BCC00B062000000B583B003468DF807309DF974
:101BDC0007301846FFF740FF00BF03B05DF804FB69
:101BEC0000B583B003468DF807309DF907301846D1
:101BFC00FFF74CFF00BF03B05DF804FB00B583B0EA
:101C0C0003468DF807309DF907301846FFF760FF43
:101C1C0000BF03B05DF804FB82B001900B468DF859
:101C2C0003309DF80330019A134401221A6000BF5F
:101C3C0002B0704784B001900B46ADF80230BDF88D
:101C4C000230019A134400221A60BDF80230019A46
:101C5C0013441B680393039B00BF04B0704782B00E
:101C6C0001900B46ADF80230BDF80230019A1344D6
:101C7C001B68002B14BF01230023DBB2184602B0F3
:101C8C00704782B001900091019BD3F80022009B19
:101C9C00DB431A40019BC3F8002200BF02B070471F
:101CAC0082B001900091019B009AC3F8042300BFFD
:101CBC0002B0704782B001900091019B009AC3F86A
:101CCC00082300BF02B0704782B00190019B06222E
:101CDC00C3F8002500BF02B0704782B00190019B91
:101CEC000022C3F8002500BF02B0704784B00390F7
:101CFC0002910192039B029AC3F80825039B019A57
:101D0C00C3F80C2500BF04B0704782B0019000915D
:101D1C00019B009AC3F8242500BF02B0704784B021
:101D2C000190019BD3F8C4340393019B039AC3F82D
:101D3C00C424039B184604B0704782B001900B4634
:101D4C008DF803309DF80320019BC3F8882500BF54
:101D5C0002B0704784B0039002910192029A039BE7
:101D6C00C3F84425039B019AC3F8482500BF04B06F
:101D7C00704784B0039002910192029A039BC3F8BE
:101D8C003425039B019AC3F8382500BF04B0704773
:101D9C0082B001900091019B009AC3F8002200BF11
:101DAC0002B0704782B00190019BD3F84C351846B5
:101DBC0002B0704782B00190019BD3F800321846F4
:101DCC0002B0704782B00190019BD3F83C351846A5
:101DDC0002B0704782B00190019B0122C3F85025DC
:101DEC0000BF02B0704782B00190019B0022C3F883
:101DFC00502500BF02B0704782B00190019B0122B8
:101E0C00C3F8402500BF02B0704782B00190019B1F
:101E1C000022C3F8402500BF02B0704700B583B064
:101E2C000190019B1B68184600F060F80346002BDC
:101E3C0004D10B494FF4F67000F0FBFF019B1B68BB
:101E4C001F2B02D84FF0A04306E0019B1B6803F048
:101E5C001F02019B1A60034B184603B05DF804FB8C
:101E6C00E06200000003005000B585B00190084608
:101E7C0011461A4603468DF803300B468DF8023096
:101E8C0013468DF8013001AB1846FFF7C7FF0390DE
:101E9C009DF803209DF802305B001A439DF8013039
:101EAC009B001A439DF818301B0242EA03019DF86F
:101EBC001C301B04019A1943039B02F5E07243F892
:101ECC00221000BF05B05DF804FB00B585B003908F
:101EDC000023019300230093002301220021039887
:101EEC00FFF7C2FF00BF05B05DF804FB84B00190A2
:101EFC00019B5B09029300230393029B002B03D0ED
:101F0C00029B012B04D007E04FF0FF33039303E057
:101F1C004FF6FF73039300BF019B03F01F03019364
:101F2C00039A019B22FA03F303F00103002B14BF65
:101F3C0001230023DBB2184604B0704784B0019033
:101F4C0003230393019B03F00103002B02D04FF4F6
:101F5C0002430393019B03F00203002B02D048F2CF
:101F6C0001230393019B03F00403002B02D048F2DE
:101F7C0002230393039B184604B0704700B585B049
:101F8C000190009101238DF80F30009B1B7B032BDC
:101F9C0056D801A252F823F01D2000003520000075
:101FAC00F51F0000B51F0000009B9B6803F4802305
:101FBC00002B07D00198FFF7F5FE0246009B1B692A
:101FCC009A420DD1009B9B6803F48023002B39D1DE
:101FDC000198FFF7E7FE0246009B5B699A4231D0FD
:101FEC0000238DF80F302DE00198FFF7DBFE024641
:101FFC00009B1B699A4207D10198FFF7E3FE02464A
:10200C00009B5B699A421FD000238DF80F301BE0B8
:10201C000198FFF7C7FE0246009B1B699A4215D038
:10202C0000238DF80F3011E00198FFF7CBFE02462C
:10203C00009B1B699A420BD000238DF80F3007E0F0
:10204C0000BF06E000BF04E000BF02E000BF00E0FC
:10205C0000BF9DF80F3083F00103DBB2002B05D0DD
:10206C000198FFF73AFE0198FFF72EFE9DF80F300E
:10207C00184605B05DF804FB00B58BB005900491D3
:10208C0003920293049B002B03D14A49E72000F0F2
:10209C00D0FE049B1A68049B5B689A4203D14549A5
:1020AC00E82000F0C6FE059B1B791A46342302FB80
:1020BC0003F3414A13440893089B93F82D30002BEB
:1020CC0003D008230793079B70E0059B1A68059BB8
:1020DC001B791946394B53F8213019461046FFF736
:1020EC0063FC0346002B03D011230793079B5DE091
:1020FC00089B039A1A60089B029A5A60089B00225C
:10210C009A60089B002283F83020089B002283F8F9
:10211C002F20049B5A7B089B83F83220049B186861
:10212C000023019306230093032300220021FFF7D1
:10213C009BFE049B58680023019306230093032302
:10214C0000220021FFF790FE059B1B680993049B5E
:10215C001968049B5B681A460998FFF7C7FD049B36
:10216C009B6819460998FFF7D0FD089B1B68002B4C
:10217C0015D0059B1B681846FFF7FCFC03461A4656
:10218C00049B1B7B19461046FFF7FCFC059B1B6848
:10219C001846FFF7EFFC03461846FFF713FD089BA4
:1021AC00012283F82D2000230793079B18460BB0C0
:1021BC005DF804FB186300004853002058630000CE
:1021CC0000B585B00190019B1B791A46342302FBA4
:1021DC0003F3204A13440393039B93F82D30002BF5
:1021EC0004D11D494FF49B7000F023FE039B1B6828
:1021FC00002B08D0019B1B681846FFF7BBFC03465D
:10220C001846FFF7EDFC019800F050F8019B1B6895
:10221C001846FFF703FC039B93F8323083F001035D
:10222C00DBB2002B0DD0019B1B68D3F80835184688
:10223C00FFF74BFE019B1B68D3F80C351846FFF7D4
:10224C0044FE039B002283F82D2000BF05B05DF8EF
:10225C0004FB00BF485300201863000000B585B094
:10226C000190019B1B791A46342302FB03F30D4AA0
:10227C0013440393039B93F82D30012B04D00A498C
:10228C0040F24F1000F0D5FD019B1B681846FFF77C
:10229C001BFD039B022283F82D2000BF05B05DF8C7
:1022AC0004FB00BF485300201863000000B585B044
:1022BC000190019B1B791A46342302FB03F3134A4A
:1022CC0013440393039B93F82D30002B04D1104936
:1022DC004FF4AD7000F0ADFD019B1B680293039BA6
:1022EC0000229A600B490298FFF7E4FC4FF4BC51B2
:1022FC000298FFF7C6FC0298FFF7EFFC039B012244
:10230C0083F82D2000BF05B05DF804FB4853002076
:10231C001863000002029C0100B583B0019000918B
:10232C00009B03F00103002B03D00198FFF752FD33
:10233C0002E00198FFF757FD009B03F00203002B0E
:10234C0003D00198FFF758FD02E00198FFF75DFDFF
:10235C0000BF03B05DF804FB30B589B00390029167
:10236C00019200930023079308238DF81B30039BE5
:10237C00002283F82E20019BDB681846FFF7ECFB4C
:10238C00034683F00103DBB2002B03D01023079329
:10239C00079BFDE19D490298FFF78CFC039B93F88A
:1023AC002F30DBB2002B09D0039B9B681946029897
:1023BC00FFF776FC11230793079BE9E1009B03F0E1
:1023CC000403002B06D1009B03F01003002B01D15A
:1023DC00012300E0002303F00103DAB2039B83F82E
:1023EC002F20039B019A03F10C0415460FCD0FC44B
:1023FC002B682360009B1B0903F00103002B14BF07
:10240C0001230023DAB2039B83F83020039B009A4C
:10241C001A62019B5B7819460298FFF78EFC4FF409
:10242C0082710298FFF706FC4FF492710298FFF745
:10243C0001FC4FF4B0710298FFF7FCFB4FF4A47150
:10244C000298FFF7F7FB00990298FFF765FF019BD5
:10245C001B78032B00F2DE8001A252F823F000BFA0
:10246C009F250000E7250000472500007D24000083
:10247C00009B03F01003002B04D065494FF4D97076
:10248C0000F0D7FC009B03F00803002B04D060493C
:10249C0040F2B31000F0CDFC009B03F00403002BC2
:1024AC0004D05B494FF4DA7000F0C3FC019B1B694C
:1024BC001846FFF751FB034683F00103DBB2002BF8
:1024CC0003D010230793079B62E14FF480710298AD
:1024DC00FFF75EFC019BD968019B5B681A4602986A
:1024EC00FFF738FC4FF4A8710298FFF7A3FB2021EB
:1024FC000298FFF791FB08210298FFF78DFB00BFB4
:10250C004FF4A8710298FFF7AAFB034683F001036E
:10251C00DBB2002BF4D14FF4A8710298FFF78AFBC1
:10252C00019B1969019B9B681A460298FFF712FCE4
:10253C00039B4FF480229A606FE0019BD968019B4A
:10254C005B681A460298FFF705FC019B1B6918464D
:10255C00FFF702FB034683F00103DBB2002B03D031
:10256C0010230793079B13E1019B1969019B9B683F
:10257C001A460298FFF7FDFB4FF484510298FFF7BF
:10258C0007FC039B02229A6020210298FFF744FB70
:10259C0043E0019BD968019B5B681A460298FFF7E0
:1025AC00D9FB009B03F02003002B09D04FF4807162
:1025BC000298FFF7EDFB039B4FF480229A6007E033
:1025CC004FF400710298FFF7E3FB039B02229A6021
:1025DC0020210298FFF720FB1FE0019BD968019B8B
:1025EC005B681A460298FFF7C4FB4FF480510298BF
:1025FC00FFF7CEFB039B02229A6000238DF81B3061
:10260C0020210298FFF708FB07E000BF02029C01A3
:10261C00186300000723079300BF009B03F0080317
:10262C00002B09D1019B1B78032B05D09DF81B3087
:10263C0019460298FFF7F0FA039B1B68002B1FD07A
:10264C00009B03F00403002B02D0039B00229A6032
:10265C00009B03F04003002B05D1039B9B6843F0C8
:10266C000202039B9A60039B9B6843F40072039BDA
:10267C009A60039B9B6819460298FFF711FB86E052
:10268C0000238DF81A304FF4A4710298FFF7E7FA83
:10269C000346002B02D001238DF81A304FF48271BF
:1026AC000298FFF7DCFA0346002B07D04FF4827137
:1026BC000298FFF7BFFA01238DF81A304FF492718C
:1026CC000298FFF7CCFA0346002B38D04FF49271E6
:1026DC000298FFF7AFFA4FF4B0710298FFF7BFFA08
:1026EC0003468DF819300298FFF764FB05909DF8AE
:1026FC00193083F00103DBB2002B04D1059B03F4EA
:10270C000073002B0AD120210298FFF785FA1421BF
:10271C000298FFF781FA00238DF81A309DF81930D2
:10272C00002B0CD0059B03F48073002B07D04FF4C7
:10273C00A4710298FFF77EFA00238DF81A309DF8E9
:10274C001A3083F00103DBB2002B9CD10298FFF707
:10275C00E6FA0490039B002283F82F20049B002BA5
:10276C0004D00498FFF7EAFB079010E0009B03F0FD
:10277C004003002B0BD103990298FFF7FFFB034694
:10278C0083F00103DBB2002B01D003230793079BDB
:10279C00184609B030BD00BF00B587B00390029158
:1027AC000192039B1B79002B09D1029B5B68B3F54B
:1027BC00803F04D2029B9B68B3F5803F12D3039BEE
:1027CC001B79012B09D1029B5B68B3F5803F04D2C6
:1027DC00029B9B68B3F5803F04D31B4940F26A20EF
:1027EC0000F027FB00230593039B1B791A46342327
:1027FC0002FB03F3154A13440493049B1B68002B40
:10280C0008D1029B1B78022B04D10F4940F2722095
:10281C0000F00FFB049B1B68002B08D1029B1B785C
:10282C00032B04D1084940F2732000F002FB039BF8
:10283C001968019B029A0498FFF78EFD0590059B81
:10284C00184607B05DF804FB1863000048530020DD
:10285C0000B58BB00390019200930B468DF80B30B2
:10286C0000238DF814309DF80B308DF81530009B3B
:10287C00069300230793019B0893002309939DF86B
:10288C003030002B01D0202200E0002205AB19468D
:10289C000398FFF781FF034618460BB05DF804FB65
:1028AC0000B58BB00390019200930B468DF80B3062
:1028BC0001238DF814309DF80B308DF81530009BEA
:1028CC00069300230793019B08930023099305AB00
:1028DC00002219460398FFF75FFF034618460BB01A
:1028EC005DF804FB30B58BB001900091009B1B6828
:1028FC00002B04D1A24940F2C12000F09AFA4FF407
:10290C0092710198FFF7ABF90346002B3ED04FF4C0
:10291C0092710198FFF78EF94FF482710198FFF7CD
:10292C009EF9034683F00103DBB2002B2ED0009BF3
:10293C009B6819460198FFF7BDF9009B02229A602B
:10294C00009B9B6819460198FFF7AAF94FF4B071E8
:10295C000198FFF784F9034683F00103DBB2002BE7
:10296C0007D10198FFF726FA034603F40073002BF6
:10297C0007D120210198FFF74FF914210198FFF797
:10298C004BF9009B012283F82E20F6E04FF4827164
:10299C000198FFF764F90346002B5DD04FF4827168
:1029AC000198FFF747F9009B1B6A03F04003002BCB
:1029BC001AD1009B93F82E3083F00103DBB2002B6D
:1029CC0012D000990198FFF7D9FA0346002B14BFD7
:1029DC0001230023DBB283F00103DBB203F001031C
:1029EC00DAB2009B83F82E20009B1B6A03F00403D1
:1029FC00002B79D1009B04AC03F10C050FCD0FC457
:102A0C002B6823604FF4B0710198FFF713F94FF462
:102A1C00AE710198FFF70EF9009B93F8303083F0FC
:102A2C000103DBB2002B04D1009B93F82E30002B5A
:102A3C005AD000210198FFF7ABF9009B00229A6055
:102A4C0050490198FFF736F90198FFF793F80346C0
:102A5C001846FFF7D3F847E04FF4A4710198FFF73D
:102A6C00E9F8009B1B7B002B22D1009B04AC03F1EB
:102A7C000C050FCD0FC42B682360009B93F83030EE
:102A8C0083F00103DBB2002B2ED000210198FFF75D
:102A9C007FF9009B00229A603A490198FFF70AF9E6
:102AAC000198FFF767F803461846FFF7A7F81BE0F5
:102ABC004FF400710198FFF76BF9009B40F2022272
:102ACC009A6030490198FFF7F5F8009B9B6819460E
:102ADC000198FFF7E5F808210198FFF79DF82021F0
:102AEC000198FFF799F848E00198FFF718F9099059
:102AFC00099B03F00203002B03D001238DF80C304B
:102B0C001DE0099B03F00403002B03D002238DF876
:102B1C000C3014E0099B03F00103002B03D00323BA
:102B2C008DF80C300BE0009B93F82E30002B03D06B
:102B3C0004238DF80C3002E000238DF80C30009B40
:102B4C0093F8303083F00103DBB2002B03D0009BF1
:102B5C00002283F82F20009B1B6A03F00403002B38
:102B6C0004D0009B93F82E30002B06D0009B1B68E2
:102B7C00009A516803AA104698470BB030BD00BFAD
:102B8C001863000002029C0108B503490348FFF7D3
:102B9C00A9FE00BF08BD00BF485300200030004014
:102BAC0008B503494FF04020FFF79CFE00BF08BD5D
:102BBC007C53002086B003900291019201238DF882
:102BCC0017309DF81730204A039B13601E4A029B56
:102BDC0053601D4A019B9360039B44F20102934294
:102BEC0012D0039B44F20202934220D1019B164A5D
:102BFC00D360154BDB681B68134A9361124BDB687F
:102C0C005B68114AD36112E0019B0F4A13610E4BB2
:102C1C001B699B680C4A53610B4B1B691B680A4A66
:102C2C009361094B1B695B68074AD36100BF72B69D
:102C3C0000BF00BF9DF81730DBB2002BFAD162B693
:102C4C0000BF00BF06B07047B053002000B583B082
:102C5C0002900091019244F2010071466A4600F024
:102C6C0003F803B000BD00BF30B58BB007900691E0
:102C7C00059272B600BF02F06FFD02F031FB034605
:102C8C00002BFAD1079B44F20102934216D0079B0A
:102C9C0044F2020293423ED1059B09932C4A2D4BE0
:102CAC00D31ADB081B0443F00100099B5B681A462E
:102CBC00099B1B68284902F0D6FA39E0059B08935A
:102CCC00234A244BD31ADB081B0443F00104089B52
:102CDC009D68089B9B68184601F098F903461846B6
:102CEC00089B5B681946089B1B68069A0292019325
:102CFC00009103462A461949204602F0C8FA144AA4
:102D0C00144BD31ADB081B0443F001031449184677
:102D1C0002F08AFA0CE00E4A0E4BD31ADB081B04A5
:102D2C0043F00103069A0F49184602F08BFA00BFD4
:102D3C000D4B1B6803F00103002B00D000BE059A5D
:102D4C0006990798FFF736FF00BF0BB030BD00BFE8
:102D5C002060000000600000B4640000D06400003B
:102D6C00F86400000C650000F0ED00E072B600BFE6
:102D7C00034B1B680133024A136000BF704700BF4E
:102D8C00D0530020064B1B68013B054A1360044BD3
:102D9C001B68002B01D162B600BF00BF704700BF9B
:102DAC00D053002000B583B0019000F025F8034605
:102DBC00012B03D00449432000F03BF8FFF7D6FF6A
:102DCC0000BF03B05DF804FB2465000000B583B0C0
:102DDC0003468DF8073000F00FF80346012B03D0A3
:102DEC000449512000F025F8FFF7CCFF00BF03B0D9
:102DFC005DF804FB2465000084B0EFF305830193B8
:102E0C00019BC3F308030393039B002B0DD1EFF33A
:102E1C0014830093009B0293029B03F00103002B8D
:102E2C000CBF01230023DBB200E00123184604B0E1
:102E3C00704700B585B003460091ADF80630BDF87B
:102E4C0006300293009B039302AB1A46002144F216
:102E5C000200FFF709FF00BF05B05DF804FB10B4DA
:102E6C0087B001900091019B009A53E8004F1046E7
:102E7C0043E8000191F0000FF7D105940490039101
:102E8C00059B184607B05DF8044B704710B487B02B
:102E9C0001900091019B009A53E8004F44EA020014
:102EAC0043E8000191F0000FF6D1059404900391D2
:102EBC00049B184607B05DF8044B704710B487B0FC
:102ECC0001900091019B009A53E8004F04EA020024
:102EDC0043E8000191F0000FF6D1059404900391A2
:102EEC00059B184607B05DF8044B704710B487B0CB
:102EFC0001900091019B009A53E8004F04EB0200F3
:102F0C0043E8000191F0000FF6D105940490039171
:102F1C00049B184607B05DF8044B704710B487B09B
:102F2C0001900091019B009A53E8004FA4EB020022
:102F3C0043E8000191F0000FF6D105940490039141
:102F4C00049B184607B05DF8044B704700B583B07E
:102F5C00019001210198FFF799FF0346184603B031
:102F6C005DF804FB00B583B0019000210198FFF7D8
:102F7C00A5FF0346184603B05DF804FB00B583B00B
:102F8C0001900B468DF80330019B002B03D10849AF
:102F9C00E820FFF74EFF019BDA689DF8033001999A
:102FAC00098A01FB03F31344184603B05DF804FBD4
:102FBC007069000000B583B001900091019B002B5B
:102FCC0003D10849F520FFF734FF009B019AD26822
:102FDC009B1A019A128AB3FBF2F3DBB2184603B0C8
:102FEC005DF804FB7069000000B585B00190019B91
:102FFC00002B01D10E234CE0019B1B68002B03D14D
:10300C002649FF20FFF715FF019B5B68002B04D1BD
:10301C0022494FF48070FFF70CFF019B9B68002B3B
:10302C0004D11E4940F20110FFF703FF019BDB683E
:10303C00002B04D119494FF48170FFF7FAFE019B64
:10304C001B8A002B04D1154940F20310FFF7F1FE47
:10305C00019B9A68019B5B68D31A8DF80F30019B1A
:10306C001B68019A52681A6007E0019B1A68136882
:10307C00591C11609DF80F201A709DF80F305A1EC4
:10308C008DF80F20002BF0D1019B1B6800221A71C8
:10309C000023184605B05DF804FB00BF7069000002
:1030AC0000B585B00190019B002B04D11C494FF455
:1030BC009270FFF7BEFE002303930020FFF772FE11
:1030CC00019B1B681A68019B5B689A421FD9019B84
:1030DC001B681A68013A1A601B681B78194601981C
:1030EC00FFF74CFF0390019B9A68019B1B681B68C0
:1030FC00D31A8DF80B30019B1B681B799DF80B20A4
:10310C009A4204D9019B1B689DF80B201A71002070
:10311C00FFF75CFE039B184605B05DF804FB00BF8F
:10312C007069000010B584B001900091019B002BD8
:10313C0004D1114940F24710FFF77BFE009B002B96
:10314C0004D10D494FF4A470FFF773FE009B039359
:10315C000020FFF727FE019B1B681C68621C1A608D
:10316C0003990198FFF726FF034623700020FFF711
:10317C002DFE00BF04B010BD7069000000B583B017
:10318C000190019B002B03D10C493120FFF751FE1C
:10319C00019B9B68002B0CD0019B5B69019A106909
:1031AC00019A1168019A92689847019B00229A60D3
:1031BC0000E000BF03B05DF804FB00BFB469000081
:1031CC000EB400B584B00190019B002B03D11849BB
:1031DC004220FFF72EFE019B5B69002B03D11449A3
:1031EC004320FFF726FE019B1B68002B03D11049DF
:1031FC004420FFF71EFE019B5B68002B03D10C499A
:10320C004520FFF716FE059B002B0AD000230393E5
:10321C0006AB039303AB1A460599019800F0B0F97D
:10322C0000E000BF04B05DF804EB03B0704700BFD2
:10323C00B469000000B583B001900B468DF80330E3
:10324C00019B1A68019B9B68581C01998860134468
:10325C009DF803201A70019B9A68019B5B689A4247
:10326C0002D30198FFF78AFF00BF03B05DF804FB9F
:10327C0000B587B00390029101920093002305934F
:10328C00009B03F00103002B24D00BE0029B0133C5
:10329C000293059B013305939DF81330194603984F
:1032AC00FFF7C8FF029B1B788DF813309DF8133085
:1032BC00002BEBD106E0019B013B019320210398ED
:1032CC00FFF7B8FF019A059B9A422ED9019B002B60
:1032DC00F1D12AE0029B002B0BD0029802F0C6FD24
:1032EC00059006E0019B013B019320210398FFF719
:1032FC00A1FF019A059B9A420FD9019B002BF1D19A
:10330C000BE0029B01330293059B013305939DF85F
:10331C00133019460398FFF78DFF029B1B788DF82D
:10332C0013309DF81330002BEBD100BF07B05DF8C4
:10333C0004FB000000B589B0039002910192009348
:10334C00029B07930123069307E0079A019BB2FBAC
:10335C00F3F30793069B01330693079A019B9A425A
:10336C00F3D2009A069B9A4201D9009B06930B9BC1
:10337C0003F00103002B22D10A9B002B1FD00B9BC7
:10338C0003F00203002B06D0009B002B03D130234B
:10339C008DF8173002E020238DF8173008E00A9BD7
:1033AC00013B0A939DF8173019460398FFF742FF2B
:1033BC000A9B002B03D0069A0A9B9A42EFD3012357
:1033CC000793009B012B03D9009B013B009309E061
:1033DC00029A079BB2FBF3F30493049A019B9A4263
:1033EC0000D205E0079B019A02FB03F30793E8E781
:1033FC00029A079BB2FBF3F30493049B079A02FB1C
:10340C0003F3029AD31A0293154A049B13441B78B4
:10341C0019460398FFF70EFF079A019BB2FBF3F3D3
:10342C000793079B002BE3D10B9B03F00103002BAD
:10343C0011D00A9B002B0ED006E00A9B013B0A938D
:10344C0020210398FFF7F6FE0A9B002B03D0069A67
:10345C000A9B9A42F1D300BF09B05DF804FB00BF90
:10346C00346A000000B589B0059004910392029370
:10347C00049B002BB8BF5B4206930123079307E024
:10348C00039B069A92FBF3F30693079B0133079376
:10349C00039B069A9A42F3DA029A079B9A4201D945
:1034AC00029B07930A9B002B0AD0049B002B04DB86
:1034BC000B9B03F00403002B02D00A9B013B0A93E5
:1034CC000B9B03F00203002B02D0029B002B16D0A7
:1034DC000B9B03F00103002B11D10A9B002B0ED088
:1034EC0006E00A9B013B0A9320210598FFF7A2FEF8
:1034FC000A9B002B03D0079A0A9B9A42F1D3049B98
:10350C00002B07DA049B5B4204932D210598FFF7EF
:10351C0091FE08E00B9B03F00403002B03D02B213E
:10352C000598FFF787FE0B9B03F00203002B19D0C5
:10353C000B9B03F00103002B14D1029B002B11D128
:10354C000A9B002B0ED006E00A9B013B0A9330210C
:10355C000598FFF76FFE0A9B002B03D0079A0A9B76
:10356C009A42F1D304990B9B01930A9B0093029B03
:10357C00039A0598FFF7DEFE00BF09B05DF804FB67
:10358C0000B58FB0059004910392059B002B04D1DC
:10359C00AD4940F25220FFF74CFC059B5B69002BB8
:1035AC0004D1A9494FF41570FFF743FC059B1B6828
:1035BC00002B04D1A44940F25520FFF73AFC059B9F
:1035CC005B68002B04D1A04940F25620FFF731FC78
:1035DC00049B002B00F09381049B1B788DF83730F3
:1035EC00049B013304939DF83730002B00F07E814F
:1035FC009DF83730252B40F06D8100230A93012371
:10360C000C93049B1B788DF837309DF83730302B9A
:10361C000DD0302B1BDC2B2B11D02D2B17D10A9B53
:10362C0043F001030A93049B0133049312E00A9BB9
:10363C0043F002030A93049B013304930AE00A9BB0
:10364C0043F004030A93049B0133049302E0002328
:10365C000C9300BF0C9B002BD3D1002309939DF836
:10366C0037302A2B0CD1039B1B68191D039A116050
:10367C001B68099A13440993049B013304931AE0C1
:10368C00049B1B788DF837309DF837302F2B12D9CF
:10369C009DF83730392B0ED8049B01330493099ACB
:1036AC0013469B0013445B001A469DF837301344B5
:1036BC00303B0993D3E700230B93049B1B788DF8C5
:1036CC0037309DF837302E2B1DD1049B01330493DA
:1036DC00049B1B788DF837309DF837302F2B12D97F
:1036EC009DF83730392B0ED8049B013304930B9A79
:1036FC0013469B0013445B001A469DF83730134465
:10370C00303B0B93E4E7049B1B788DF837309DF826
:10371C0037306C2B03D09DF83730682B07D1049BC6
:10372C0001330493049B1B788DF83730EFE79DF839
:10373C003730252B00F0C480252BC0F2C680782BA7
:10374C0000F3C380582BC0F2C080583B202B00F2F2
:10375C00BC8001A252F823F059380000D738000081
:10376C00D7380000D7380000D7380000D738000011
:10377C00D7380000D7380000D7380000D738000001
:10378C00D7380000E93700000B380000D7380000AC
:10379C00D7380000D7380000D73800000B380000AD
:1037AC00D7380000D7380000D7380000D7380000D1
:1037BC00D7380000D738000099380000D7380000FF
:1037CC00D73800007D380000D73800002F380000B3
:1037DC00D7380000D738000059380000039B1B680D
:1037EC00191D039A11601B680C930C9B8DF81F30EC
:1037FC009DF81F3019460598FFF71CFD66E0039BEA
:10380C001B68191D039A11601B680C930A9B01938A
:10381C00099B00930B9B0A220C990598FFF722FE3B
:10382C0054E0039B1B68191D039A11601B680C93D1
:10383C000C990A9B0193099B00930B9B0A220598F8
:10384C00FFF778FD42E000BFF0690000039B1B68A6
:10385C00191D039A11601B680C930C990A9B019318
:10386C00099B00930B9B10220598FFF763FD2DE03D
:10387C00039B1B68191D039A11601B6808930A9B14
:10388C00099A08990598FFF7F3FC1FE0039B1B6846
:10389C00191D039A11601B680C9330210598FFF7D2
:1038AC00C9FC78210598FFF7C5FC0C9900230193FE
:1038BC0008230093082310220598FFF73BFD05E031
:1038CC0025210598FFF7B6FC00E000BF049B0133EF
:1038DC00049305E09DF8373019460598FFF7AAFCCC
:1038EC00049B1B78002B7FF477AE00E000BF059B98
:1038FC001B7B002B04D00598FFF740FC00E000BFB9
:10390C000FB05DF804FB00BF00B583B001900198C7
:10391C00FFF76AFB0346184603B05DF804FB00B5DD
:10392C008BB001900091019B1B8A043B0793009A7A
:10393C00079B1344DA1C079BB2FBF3F38DF81B3087
:10394C000198FFF7ADFB0590059B002B01D10023DF
:10395C0038E0059B00221A71059B01225A71079BC6
:10396C009AB2059BDA80059B09939DF81B30013BAD
:10397C000493099B019A1A60002308931DE0019897
:10398C00FFF78EFB0390039B002B0ED0059B5B79FE
:10399C000133DAB2059B5A71099B039A1A60039B97
:1039AC00019A1A60039B099304E0059800F00EF845
:1039BC00002307E0089B01330893089A049B9A4262
:1039CC00DDD3059B18460BB05DF804FB00B58BB03E
:1039DC000190019B0793079B5B798DF81B30019B32
:1039EC0008939DF81B30013B05930023099305E0D8
:1039FC00089B1B680893099B01330993099A059B43
:103A0C009A42F5D3089B1B680493019B08930023EF
:103A1C0009930BE0089B1B68039308990498FFF724
:103A2C0081FB039B0893099B013309939DF81B3081
:103A3C00099A9A42EED300BF00BF0BB05DF804FBAD
:103A4C0000B585B00190019B0393039B04330121C6
:103A5C001846FFF74BFA00BF05B05DF804FB00B544
:103A6C0087B00190019B0593059B043301211846F7
:103A7C00FFF754FA0346039303AB0493049B1B78A0
:103A8C00002B02D10198FFF7A1FF00BF07B05DF832
:103A9C0004FB000000B591B00390029101920093D9
:103AAC00039B002B03D14349B620FFF7C2F9039BBC
:103ABC000993039B0F93099BDB881A46099B5B793F
:103ACC0002FB03F3043B0893009A089B9A4203D32E
:103ADC003849C420FFF7ADF9099BDB880793009B9D
:103AEC001A1D079BB2FBF3F30E93009B0433079A4A
:103AFC00B3FBF2F2079901FB02F29B1A0D93019BA7
:103B0C001A68009B1344089A9A4203D2089A009BA5
:103B1C00D31A01E0019B1B680C93019B0C9A1A6051
:103B2C0005E00F9B1B680F930E9B013B0E930E9BA6
:103B3C00002BF6D100230B93079A0D9BD31A0A93F3
:103B4C000A9A0C9B934228BF13460A932AE0029AC6
:103B5C000B9B134406930F9A0D9B1344043305934C
:103B6C009DF84830002B05D00A9A0599069802F06A
:103B7C00ADF904E00A9A0699059802F0A7F900231A
:103B8C000D930F9B1B680F930C9A0A9BD31A0C93E3
:103B9C000B9A0A9B13440B93079A0C9B934228BFD6
:103BAC0013460A930C9B002BD1D100BF00BF11B060
:103BBC005DF804FB446A000000B589B005900491DF
:103BCC0003920293039B079307AA00230093029B83
:103BDC0004990598FFF75EFF079B039A9A4203D05E
:103BEC000349F620FFF725F900BF09B05DF804FB87
:103BFC00446A000000B589B00590049103920293C9
:103C0C00039B079307AA01230093029B0499059831
:103C1C00FFF740FF079B039A9A4204D004494FF4E4
:103C2C008070FFF706F900BF09B05DF804FB00BF18
:103C3C00446A000082B00190019B9B68024A127892
:103C4C001344184602B07047CA6A000000B583B02E
:103C5C0001900091019B002B03D108498320FFF7B1
:103C6C00E8F8019B9B68009A9A4202D2009B0133B0
:103C7C0000E00023184603B05DF804FB886A0000DE
:103C8C0000B585B00190019B1B681B680393019BD9
:103C9C001B685B680293029A039B9A4203D3029AB5
:103CAC00039BD31A07E00198FFF7C4FF0246039B5E
:103CBC00D21A029B1344184605B05DF804FB0000B1
:103CCC0000B585B00190019B002B03D10D499820C4
:103CDC00FFF7AFF8019B1B681B680393019B1B68E4
:103CEC005B68029302990198FFF7B0FF0246039BB1
:103CFC0093420CBF01230023DBB2184605B05DF8DC
:103D0C0004FB00BF886A000010B586B001900091DA
:103D1C0000230593019B002B03D15249A320FFF7ED
:103D2C0088F8009B002B03D14E49A420FFF781F8A3
:103D3C000020FFF737F80198FFF7C2FF03468DF814
:103D4C0013309DF8133083F00103DBB2002B03D149
:103D5C00019B1B7C002B7AD1019B1B685B68039336
:103D6C00019B1B685A68019B1C6811460198FFF760
:103D7C006DFF034663609DF81330002B0AD0019B46
:103D8C001B681A68019B1C6811460198FFF75EFFBF
:103D9C0003462360019BDB68013B072B37D801A24C
:103DAC0052F823F0D13D0000E13D00001B3E000025
:103DBC00F33D00001B3E00001B3E00001B3E0000BC
:103DCC00053E0000019B5A68039B1344009A12782D
:103DDC001A702DE0019B5A68039B5B001344009AF8
:103DEC0012881A8024E0019B5A68039B9B001344A1
:103DFC00009A12681A601BE0019B5A68039BDB0057
:103E0C00D118009BD3E90023C1E9002310E0019BEA
:103E1C005B681946019BDB68039A02FB03F30B44B6
:103E2C001846019BDB681A46009902F04FF800BF58
:103E3C000198FFF725FF0290019B1B689B68029A73
:103E4C009A4207D9019B1B68029A9A6002E00423EC
:103E5C00059300E000BF0020FEF7B8FF059B184655
:103E6C0006B010BD886A000010B586B003900291B0
:103E7C0013468DF8073000230593039B002B03D1C9
:103E8C004249E720FEF7D5FF029B002B03D13F49A7
:103E9C00E820FEF7CEFF0020FEF784FF039800F029
:103EAC0077F8034683F00103DBB2002B64D0039B4D
:103EBC001B681B6804939DF8073083F00103DBB289
:103ECC00002B0AD0039B1B681A68039B1C681146C5
:103EDC000398FFF7BBFE03462360039BDB68013BA3
:103EEC00072B38D801A252F823F000BF193F00006D
:103EFC00293F0000633F00003B3F0000633F000090
:103F0C00633F0000633F00004D3F0000039B5A6875
:103F1C00049B13441A78029B1A702FE0039B5A6877
:103F2C00049B5B0013441A88029B1A8026E0039BB7
:103F3C005A68049B9B0013441A68029B1A601DE08C
:103F4C00039B5A68049BDB001344D3E900230299BA
:103F5C00C1E9002312E0039B5B681946039BDB68F5
:103F6C00049A02FB03F30B441946039BDB681A46C5
:103F7C00029801F0ABFF01E0052305930020FEF74A
:103F8C0025FF059B184606B010BD00BF886A0000CF
:103F9C0000B585B00190019B002B04D10B4940F278
:103FAC002B20FEF746FF019B1B681B680393019BAC
:103FBC001B685B680293039A029B9A420CBF012315
:103FCC000023DBB2184605B05DF804FB886A0000DC
:103FDC0082B00190019B9B6800229A60019B9B68B8
:103FEC0000221A61019B9B6800225A61019B9B680D
:103FFC000022DA60019B9B6800225A60019B9B683F
:10400C0000221A6000BF02B07047000000B585B0F6
:10401C000190019800F00EF80390039B002B01D047
:10402C00039B00E0024B184605B05DF804FB00BF93
:10403C00CC6A000086B00190164B0593164B049386
:10404C001FE0049A059BD31ADB10DA0F13445B10A4
:10405C00DB00059A13440393039B1B680293029A9B
:10406C00019B9A4202D9039B04930AE0029A019B9A
:10407C009A4203D2039B0833059302E0039B5B68CF
:10408C0004E0059A049B9A42DBD30023184606B041
:10409C00704700BFA06E0000B86F000000B583B081
:1040AC000190019B04331846FEF78AF800BF03B059
:1040BC005DF804FB00B583B00190019B04331846F6
:1040CC00FEF7CCF800BF03B05DF804FB00B591B06F
:1040DC0003900291019200230F93029B1B788DF8A1
:1040EC002830029B5B788DF82930029B9B780B93D0
:1040FC00029BDB780C93029B5B680D93029B9B6885
:10410C000E93039B04330AA9019A1846FEF744FB4D
:10411C000F900F9B184611B05DF804FB82B0019014
:10412C00019B1B681B68002B0CBF01230023DBB217
:10413C00184602B07047000000B58DB00190019B8D
:10414C00002B03D147493720FEF773FE019B1B68F8
:10415C000A930A9B1B7E8DF827300A9B1B689A6872
:10416C009DF82730DB0013440893089B5B795B08B0
:10417C008DF81F309DF81F308DF80D30089B1B6893
:10418C000493089B1B798DF80E30089B9B7903F0E8
:10419C000103002B47D0089B5B7903F00103002B34
:1041AC0041D19DF8273001330A9A1268127B934251
:1041BC0039DA089B5B795B08DAB20A9B1B68996851
:1041CC009DF827300133DB000B445B795B08DBB2D5
:1041DC009A4228D10A9B1B689A689DF827300133B4
:1041EC00DB0013440693069B1B680593069B1B7907
:1041FC008DF80F30069B5B7903F00103002B01D087
:10420C00022300E003238DF80C30069B9B795B01A5
:10421C0003F020030B930A9B1B7EDBB20133DAB253
:10422C000A9B1A7611E0089B5B7903F00103DBB261
:10423C008DF80C300023059300238DF80F30089B6C
:10424C009B795B0103F020030B93019B083303A9BB
:10425C000B9A1846FFF73AFF034618460DB05DF867
:10426C0004FB00BFB86F000000B585B00190009151
:10427C00019B002B03D10D497120FEF7DAFD019B48
:10428C001B681B681B68002B0BD0019B1B681B68F1
:10429C005B680393019B1B681B681B680399009860
:1042AC00984700BF05B05DF804FB00BFB86F000075
:1042BC0000B589B001900B468DF80330019B002BA3
:1042CC0003D13E498720FEF7B4FD019B1B68069382
:1042DC0000238DF81F300020FEF764FD9DF803309D
:1042EC00002B05D10198FFF719FF0346002B10D0C6
:1042FC00019B5B68069900221846FFF7B5FD034643
:10430C00002B03D101238DF81F3002E0069B002205
:10431C001A600020FEF75AFD9DF81F3083F0010350
:10432C00DBB2002B44D1069B1B681B69002B02D10E
:10433C00069B043302E0069B1B681B690593069BD6
:10434C005B6910220599184601F026FE0346002BE6
:10435C001CD0019B08331846FFF7A0FE019B03F10C
:10436C000800019B164A0599FDF7C8FA0490049BB6
:10437C00002B03D01149B420FEF75BFD019B0833E1
:10438C001846FFF797FE069B059A5A61069B00227A
:10439C001A760198FFF7D0FE0390039B002B09D0EF
:1043AC0003990198FFF760FF01238DF803308FE725
:1043BC0000BF00E000BF09B05DF804FBB86F00005F
:1043CC00D143000000B587B001900091019B002BF8
:1043DC0003D12049D220FEF72CFD009B0493049BB3
:1043EC001B681B68002B03D11A49D820FEF721FD4E
:1043FC00019B1B78002B20D100230593049B1B6889
:10440C001B7E8DF80F309DF80F3001338DF80F3077
:10441C00049B1B681B681B7B9DF80F209A420ED2D5
:10442C00049B1B689DF80F201A760498FFF784FEF6
:10443C000590059B002B02D109E0032305930599F8
:10444C000498FFF711FF01210498FFF731FF07B023
:10445C005DF804FBB86F000010B584B001900091BA
:10446C00019B002B04D125494FF48470FEF7E1FC2D
:10447C00019B5B68002B04D1204940F20910FEF728
:10448C00D8FC019B5B689B68002B04D11B494FF443
:10449C008570FEF7CEFC009B002B04D1174940F22F
:1044AC000B10FEF7C6FC019B03F10800019B144A9C
:1044BC000099FDF723FA0390039B0293029B002BB8
:1044CC0001D0029B17E0019B08331846FFF7F2FD61
:1044DC00019B1B6800221A60019B1B68009A1C1D23
:1044EC0013460FCB84E80F00019B1A68019B1B68D5
:1044FC0004325A610023184604B010BDB86F000096
:10450C00D143000000B585B001900091019B002BB8
:10451C0004D11A4940F22D10FEF78BFC009B002BA6
:10452C0004D116494FF49770FEF783FC009B9B68EF
:10453C00002B04D1114940F22F10FEF77AFC009B9E
:10454C001B7B002B04D10D494FF49870FEF771FCC6
:10455C0000230393019B5B686A4611461846FFF7DC
:10456C00D3FB0390039B002B03D100210198FFF791
:10457C009FFE039B184605B05DF804FBB86F000066
:10458C0000B583B00190019B5B681846FEF72CFDCB
:10459C000346184603B05DF804FB00B585B00190E6
:1045AC000091009B0393039BD3F8A0305B680099A8
:1045BC001846FEF7B7FD00BF05B05DF804FB000020
:1045CC0000B58FB0039001921A460B468DF80B3054
:1045DC0013468DF80A30039B002B03D13D498E20E6
:1045EC00FEF727FC019B002B03D13A498F20FEF7E5
:1045FC0020FC039B5B681846FEF752FD0C900C9B4D
:10460C00002B01D1042360E00C9B039AC3F8A0207B
:10461C009DF80B305B00D9B20C9B019AC3F8842037
:10462C000C9B9DF80A2083F888200C9B0A4683F883
:10463C0089200C9B002283F88A209DF84030002BA7
:10464C0016D09DF80A30812B07D9039B5B680C9917
:10465C001846FEF767FD092337E00C9B9DF80A20EE
:10466C000199184601F032FC0C9A0C9BC3F884207B
:10467C000C9B03F184010C9B8C3300221A605A6052
:10468C009A60DA601A610C9B134AC3F88C200C9B5D
:10469C000C9AC3F890200C9BC3F894100C9B01222D
:1046AC0083F89820039B1A680C9B8C331946104690
:1046BC00FFF728FF0D900D9B002B05D0039B5B682B
:1046CC000C991846FEF72EFD0D9B18460FB05DF8A1
:1046DC0004FB00BF0C700000A745000000B5A9B09A
:1046EC00059003930B468DF8133013468DF812305A
:1046FC00059B002B03D11749CB20FEF79AFB039B9C
:10470C00002B03D11349CC20FEF793FB9DF8A83066
:10471C00802B01D9092318E09DF812308DF81C303C
:10472C009DF8A82007AB01330399184601F0CEFB86
:10473C009DF8A8300133DBB207AA9DF813100120B5
:10474C0000900598FFF73CFF0346184629B05DF82A
:10475C0004FB00BF0C70000000B585B00190019BFC
:10476C00002B0AD0074B43F001030393019B9B01E1
:10477C000293039B0298984700E000BF05B05DF8D8
:10478C0004FB00BFC070000000B583B00190019B1A
:10479C00002B0AD04FF47A70FFF7DEFF019B013B30
:1047AC000193019B002BF5D100E000BF03B05DF835
:1047BC0004FB000000B589B0034602918DF80F3060
:1047CC0000238DF814309DF80F308DF8153005AAA4
:1047DC000023009302233C210298FFF7F1FE07907F
:1047EC00079B0693069B002B04D0064A0A210698C9
:1047FC00FEF72CFA0120FFF7C7FF0123184609B07A
:10480C005DF804FB5870000000B585B001900023E2
:10481C008DF80F300199AE20FFF7CCFF0199A8203D
:10482C00FFF7C8FF01993F20FFF7C4FF0199D32080
:10483C00FFF7C0FF01990020FFF7BCFF0199402052
:10484C00FFF7B8FF0199A120FFF7B4FF0199C82029
:10485C00FFF7B0FF0199DA20FFF7ACFF01991220A6
:10486C00FFF7A8FF01998120FFF7A4FF01997F2092
:10487C00FFF7A0FF0199A420FFF79CFF0199A62048
:10488C00FFF798FF0199D520FFF794FF019980203D
:10489C00FFF790FF01998D20FFF78CFF01991420F1
:1048AC00FFF788FF01992020FFF784FF0199002072
:1048BC00FFF780FF0199AF20FFF77CFF00BF05B029
:1048CC005DF804FB00B589B0039040238DF81E30D1
:1048DC0003992120FFF76EFF03990020FFF76AFF71
:1048EC0003997F20FFF766FF03992220FFF762FFF1
:1048FC0003990020FFF75EFF03990720FFF75AFF8B
:10490C0000238DF81F3020E09DF81F30DB011A4684
:10491C00124B13449DF81E20802100913C210398DA
:10492C00FFF7DCFE06900A20FFF72EFF069B05938F
:10493C00059B002B04D00A4A67210598FEF786F9DF
:10494C009DF81F3001338DF81F309DF81F30072B59
:10495C00DAD90123184609B05DF804FB7065000034
:10496C005870000000B585B00190019B002B0AD057
:10497C00074B43F001030393019B9B010293039BA1
:10498C000298984700E000BF05B05DF804FB00BF3B
:10499C00E070000000B583B00190019B002B0AD0A1
:1049AC004FF47A70FFF7DEFF019B013B0193019BF3
:1049BC00002BF5D100E000BF03B05DF804FB08B597
:1049CC0001F0E4F900BF08BD00B589B00390029175
:1049DC000192019B002B33D00023079303230693F2
:1049EC00029A079B1344019A1946002001F07EF9A4
:1049FC000590079A059B13440793019A059BD31ABC
:104A0C000193059B002B13D10F4B1B7883F00103F3
:104A1C00DBB2002B13D10120FFF7BCFF069B013B3F
:104A2C000693069B002B03D1074B00221A7007E05C
:104A3C00054B01221A70019B002BD1D100E000BF65
:104A4C0000BF09B05DF804FBD453002000B585B05D
:104A5C0003900291054B00934023054A0299039859
:104A6C0000F012F800BF05B05DF804FBD54900005A
:104A7C00D853002082B0019000BF02B0704782B0C2
:104A8C00019000BF02B0704700B5A1B00590049131
:104A9C00039202930498FEF7D3FF039B1593029B9A
:104AAC0016930023179300238DF86030002319937D
:104ABC00229B1A9300231F930FA91F9B0822049873
:104ACC00FFF798F808231F93119B1293BDF8403001
:104ADC00ADF84C30BDF84230ADF84E3000238DF8B7
:104AEC0051309DF83C3003F00303DBB2012B26D18F
:104AFC000F9BC3F395231C939DF83C30C3F3C20367
:104B0C00DBB28DF85030BDF83C30C3F38313DBB20D
:104B1C001B931B9B9A0009A91F9B0498FFF76AF82B
:104B2C001B9B9B001F9A13441F9312AA09A915AB38
:104B3C00009313461B9A1C9800F0BAFE2FE09DF8C8
:104B4C003C3003F00303DBB2022B28D1BDF83E301E
:104B5C00C3F389139BB21E939DF83C30C3F3C2037D
:104B6C00DBB28DF850301E9B082B28BF08231D93F9
:104B7C0007A91F9B1D9A0498FFF73CF81F9A1D9BD1
:104B8C0013441F931E9A1D9BD31A1E9315AB12AA86
:104B9C0007A81D9900F02EFF1E9B002BE3D1049853
:104BAC00FEF75DFF00BF21B05DF804FB82B0019001
:104BBC00019BDB6801225A7100BF02B070470000F4
:104BCC0000B583B04FF0FF330193FFF7F8FE0421DB
:104BDC00084800F089FD0190019B002B03DA06497F
:104BEC004120FEF726F90348FFF7E0FF00BF03B0B2
:104BFC005DF804FB30600000F870000000B583B075
:104C0C0001900091019B1B681B68009901989847C3
:104C1C0000BF03B05DF804FB00B583B00190019BAD
:104C2C001B685B680198984700BF03B05DF804FBF4
:104C3C0000B583B00190019B1B689B680198984755
:104C4C0000BF03B05DF804FB82B001900B468DF8F9
:104C5C000330019BDB689DF803201A7100BF02B082
:104C6C00704782B00190019BDB681B79184602B03B
:104C7C00704782B00190019BDB6801225A7100BF22
:104C8C0002B0704782B00190019BDB685B791846DB
:104C9C0002B0704700B585B0019000910C4B012219
:104CAC001A700C48FEF730FE0390039B002B01D0CA
:104CBC00039B08E00848FFF78BF9084A084BD31A06
:104CCC00DB0802930023184605B05DF804FB00BF17
:104CDC0080550020546000004C71000030600000D2
:104CEC0000600000024A034BD31ADB0818467047D9
:104CFC00306000000060000000B587B001900B46EA
:104D0C008DF803309DF80330002B1FD0FFF7EAFF1E
:104D1C0004900023059313E0059B9B000E4A13445B
:104D2C000393039B1B881A46019B1B689A4204D170
:104D3C00019B059A1A60002309E0059B013305933A
:104D4C00059A049B9A42E7D3052300E000231846FA
:104D5C0007B05DF804FB00BF0000002000B585B073
:104D6C0001900B468DF803309DF8032001AB1146E2
:104D7C001846FFF7C1FF0346002B07D1019BDB0050
:104D8C00054A13440393039B1B6800E00023184659
:104D9C0005B05DF804FB00BF0060000084B001901A
:104DAC000B468DF80330019BDB00174A134402932A
:104DBC009DF80330013B032B1CD801A252F823F0C1
:104DCC00DD4D0000E54D0000ED4D0000F74D0000FD
:104DDC0002238DF80F3011E004238DF80F300DE015
:104DEC00029B1B798DF80F3008E0029B5B798DF8E4
:104DFC000F3003E000238DF80F3000BF9DF80F300B
:104E0C00184604B0704700BF0060000084B00190E9
:104E1C00009100238DF80F30019B1B7803F00403E5
:104E2C00DBB2002B24D0019B1B78C3F30103DBB254
:104E3C00012B02D0022B0CD017E0009B1B68019AAF
:104E4C001288C2F38312D2B213449A1C009B1A60CC
:104E5C000BE0009B1B68019A5288C2F3891292B234
:104E6C0013449A1C009B1A6000BF01238DF80F306D
:104E7C009DF80F30184604B07047000000B58BB099
:104E8C000023ADF826303E48FEF760F83D48FEF7AB
:104E9C005DF83D4B9B6804933C4B1B680693049A4E
:104EAC00069B134002339B00374A13440433089388
:104EBC0004AB19460898FFF7A9FF0346002B09D04D
:104ECC00049A069B134002339B002F4A134404336D
:104EDC000893EDE700BF0023079311E0049B5A1CD5
:104EEC000492069A1340079A920001A90A44264993
:104EFC0002339B000B445B681360079B01330793E1
:104F0C00079B012BEAD99DF80430C3F30103DBB2F4
:104F1C00012B10D0022B1CD1BDF80A30ADF8263075
:104F2C00BDF80630C3F389139BB203339A08049B74
:104F3C001344049313E0BDF80A30ADF82630BDF8E5
:104F4C000430C3F38313DBB21A46049B134404935B
:104F5C0005E00F494FF4C270FDF76BFF00BF094825
:104F6C00FEF700F80590059B002B02D0049B064A27
:104F7C009360BDF8263018460BB05DF804FB00BFFB
:104F8C0098590020945900208055002014000020CE
:104F9C005C71000000B585B000210748FDF75FFF8C
:104FAC000390039B0293029B83F310030193019BD9
:104FBC00184605B05DF804FB9C59002000B589B07B
:104FCC000390029101920093039B1B0C0793FFF734
:104FDC00E1FF0690FFF786FE0246079B934204D33F
:104FEC00214940F2A910FDF724FF069B1904009BF0
:104FFC005A1C0A9B1340079A0A431C4902339B0014
:10500C000B445A60009A0A9B134002339B00174AC8
:10501C00134404330593039B03F00703D9B2059A99
:10502C00137861F3C5031370019B03F00F03D9B21E
:10503C00059A138861F389131380029BC3F315013E
:10504C00059A136861F39F231360059A1378012165
:10505C0061F301031370059A13786FF382031370D5
:10506C0000BF09B05DF804FB5C71000080550020A6
:10507C0000B58BB00390029113468DF80730039B5B
:10508C000233089301238DF81F300020FDF78AFEB0
:10509C003E4B5A68029B1A603D4B1A683B4B996811
:1050AC003A4B5B68CB1A13440133099314E001218A
:1050BC003848FDF71BFFFFF7E1FE059005993548D1
:1050CC00FDF714FF324B1A68304B99682F4B5B6815
:1050DC00CB1A134401330993089A099B9A42E6D8D8
:1050EC009DF81F30002B48D0002304939DF8073007
:1050FC00002B17D09DF81030012262F301038DF8BC
:10510C0010309DF8103043F004038DF81030039BE1
:10511C0003F00F03DAB2BDF8103062F38913ADF867
:10512C00103016E09DF81030022262F301038DF866
:10513C0010309DF8103043F004038DF81030039BB1
:10514C00C3F309039AB2BDF8123062F38F13ADF8B2
:10515C0012300E4B5A680E4B1B68134002339B00E7
:10516C000A4A134404330693049A069B1A60074BAD
:10517C005A68089B1344054A53600020FDF726FE2D
:10518C009DF81F3018460BB05DF804FB80550020CD
:10519C00140000209C59002000B58BB005900491A0
:1051AC00039202931E4B1B68079306AB0122194610
:1051BC000298FFF75DFF0346002B24D0069B0233B9
:1051CC0009930023089311E0089B9B00039A1A444F
:1051DC00099B591C099107990B401268114902331C
:1051EC009B000B445A60089B01330893089A029B5E
:1051FC009A42E9D3069A079B00931346029A0499A4
:10520C000598FFF7DBFE074B1B78002B04D000F052
:10521C0067F80346002BFAD100BF0BB05DF804FB16
:10522C00140000208055002000B583B0019000913F
:10523C000023002200990198FFF7AEFF00BF03B0D6
:10524C005DF804FB00B587B0039002910192019BBD
:10525C00059305AA012302990398FFF79DFF00BF50
:10526C0007B05DF804FB00B587B003900291019282
:10527C000093019B0493009B059304AA02230299BB
:10528C000398FFF789FF00BF07B05DF804FB00B57A
:10529C008BB00390029101920093019B0593009BAC
:1052AC0006930C9B07930D9B08930E9B099305AAE1
:1052BC00052302990398FFF76FFF00BF0BB05DF851
:1052CC0004FB0000054B9A68044B5B689A420CBFC8
:1052DC0001230023DBB21846704700BF8055002025
:1052EC0000B599B0FFF7EEFF0346002B01D0002369
:1052FC00B9E19B4B0022C3F81824BFF34F8F00BFBA
:10530C00974B9B680493974B1B681093049A109BC4
:10531C00134002339B00924A13440433119300232D
:10532C0017930023169300230F9304AB194611987F
:10533C00FFF76CFD0346002B19D0894BD3F81834BA
:10534C00002B14D1864B5A68049B9A4205D8844B87
:10535C005B68834A9360002385E1049A109B134099
:10536C0002339B007E4A134404331193DDE7002380
:10537C00159311E0049B5A1C0492109A1340159A31
:10538C00920001A90A44764902339B000B445B68E6
:10539C001360159B01331593159B012BEAD99DF8CE
:1053AC00043003F00303DBB2022B40F09C80BDF809
:1053BC000630C3F389139BB20D93BDF80630C3F3CB
:1053CC0089139BB2502B28BF50239BB20C930C9B80
:1053DC00C3F309039AB2BDF8063062F38F13ADF82C
:1053EC0006300C9B08330B939DF80430C3F3C203B7
:1053FC00DBB20F930B995C48FEF791FA1790179B51
:10540C00002B00F0D3801798FEF71AFB01A9169B0E
:10541C0008221798FEF7D0FB169B08331693049BB3
:10542C00DA43109B134001339B000A930C9A0A9B9E
:10543C009A4242D90A9B002B08D0049A109B134025
:10544C0002339B00464A1344043300E0474B089355
:10545C000A9B002B02D00A9BDBB201E00C9BDBB257
:10546C008DF81F300A9B002B01D0404B00E000232D
:10547C0006930A9B002B06D00C9BDAB20A9BDBB27C
:10548C00D31ADBB200E000238DF817309DF81F20F3
:10549C00169B08991798FEF78FFB9DF81F30169AEC
:1054AC0013441693069B002B16D09DF81720169BC1
:1054BC0006991798FEF780FB0EE0049A109B134098
:1054CC0002339B00264A134404330993169B0C9A0F
:1054DC0009991798FEF770FB0D9B03339A08049BF0
:1054EC001344049362E09DF8043003F00303DBB231
:1054FC00012B5BD1BDF80430C3F38313DBB2062B55
:10550C0028BF0623DAB2BDF8043062F38913ADF874
:10551C000430BDF80430C3F38313DBB202330E93B3
:10552C009DF80430C3F3C203DBB20F930E9B9B00B8
:10553C0019460D48FEF7F3F91790179B002B35D041
:10554C001798FEF77DFA01A9169B08221798FEF70B
:10555C0033FB169B08331693002315931DE000BFF5
:10556C008055002014000020546000008C55002051
:10557C00049B5A1C0492109A134002339B003C4A21
:10558C001344191D169B04221798FEF715FB169B46
:10559C0004331693159B01331593BDF80430C3F3F4
:1055AC008313DBB21A46159B9342E1D3179B002B56
:1055BC0039D02F4BD3F8103414932D4BD3F8183417
:1055CC00002B1BD01798FEF74AFA46E000238DF803
:1055DC004F301498FFF756FB0346002B02D00123E3
:1055EC008DF84F309DF84F30002B03D0179914983D
:1055FC00FFF704FB149BDB681B681493149B002BB4
:10560C00E4D11798FEF72BFA0020FDF7CBFB184BD3
:10561C00D3F81834002B02D1049B154A9360002058
:10562C00FDF7D4FB19E0124BD3F81034129306E0BB
:10563C001298FFF7FDFA129BDB681B681293129B02
:10564C00002BF5D10B4A0C4BD31ADB081B0443F08F
:10565C0002030A491846FFF7E7FDFFF733FE03463E
:10566C0083F00103DBB2184619B05DF804FB00BFF0
:10567C00805500202060000000600000A871000030
:10568C0000B585B00023039323E0164BD3F81034F8
:10569C00029301238DF807300FE00298FFF7E1FA2F
:1056AC0003461A46039B934203D100238DF807301F
:1056BC0006E0029BDB681B680293029B002BECD17B
:1056CC009DF80730002B01D0039B07E0039B0133AF
:1056DC000393039B092BD8DD4FF0FF33184605B01D
:1056EC005DF804FB8055002000B585B001900B4699
:1056FC008DF80330FFF7C4FF0390039BB3F1FF3F1A
:10570C0001D1039B22E0039BDBB219460198FFF702
:10571C009BFA104BD3F81034002B08D10D4A019B87
:10572C00C2F81034019BDB6800221A600DE0094BB3
:10573C00D3F81034DA68019BDB6812681A60054BE9
:10574C00D3F81034DB68019A1A60039B184605B035
:10575C005DF804FB8055002000B583B00C4BD3F8EA
:10576C00103401930A4B01221A7009E00198FFF7DB
:10577C0080FA0198FFF750FA019BDB681B680193D4
:10578C00019B002BF2D100BF00BF03B05DF804FBFE
:10579C008055002082B00190009100BF02B070478C
:1057AC0010B584B003900291039BDB88002B0AD0C8
:1057BC00039BDB881A461F4B009313461E4A1F4956
:1057CC000298FDF7FDFC039B1B7A052B2ED0039B47
:1057DC005B7A002B12D0039B9B881A46039B1B7A87
:1057EC0019461046FFF7DAFA03461A46144B53F8DB
:1057FC0022301A4613490298FDF7E2FC039B1B6802
:10580C0019460298FFF7C6FF039B1B7A1A460E4BEC
:10581C0053F82240039B9B8800211846FFF79EFA01
:10582C000346224609490298FDF7CAFC00BF04B0A2
:10583C0010BD00BFDC710000EC7100002472000090
:10584C002C0000203C720000180000204072000068
:10585C0000B585B00390029113468DF80730039B79
:10586C001B7A052B0FD0039B5B7A002B06D00D4BBC
:10587C001B681A460C490298FDF7A2FC0B490298CA
:10588C00FDF79EFC07E09DF80730002B03D007497D
:10589C000298FDF795FC0298FDF770FC00BF05B06F
:1058AC005DF804FB2C0000203C7200004C720000E0
:1058BC0030B58BB007900691059204930E9B1B7B21
:1058CC008DF827300E9B00221A730E990498FFF75F
:1058DC0067FF059B062B7FD801A252F823F000BF6F
:1058EC0009590000135900002359000037590000D2
:1058FC00555900007D590000AD59000007990E98CC
:10590C00FDF75EFC69E0069B1B681A4607990E982A
:10591C00FDF756FC61E0069B1A68069B04331B6876
:10592C0007990E98FDF74CFC57E0069B1A68069BEE
:10593C0004331968069B08331B6800930B460799C0
:10594C000E98FDF73DFC48E0069B1968069B043356
:10595C001868069B08331B68069A0C321268019271
:10596C00009303460A4607990E98FDF729FC34E08C
:10597C00069B1868069B04331C68069B08331B683F
:10598C00069A0C321268069910310968029101923C
:10599C0000932346024607990E98FDF711FC1CE074
:1059AC00069B1C68069B04331D68069B08331B680A
:1059BC00069A0C3212680699103109680698143050
:1059CC00006803900291019200932B46224607999E
:1059DC000E98FDF7F5FB00E000BF00220E9904982D
:1059EC00FFF736FF0E9B9DF827201A7300BF0BB0F4
:1059FC0030BD00BF00B587B00390029101920093B7
:105A0C00029B082B60D8009B1B7B8DF81330009BEE
:105A1C0000221A7300990198FFF7C2FE0023059328
:105A2C0014E0059A029B9A4209D2039A059B1344EF
:105A3C001B781A4626490098FDF7C2FB03E025495E
:105A4C000098FDF7BDFB059B01330593059B072BC8
:105A5C00E7D921490098FDF7B3FB0023059326E015
:105A6C00059A029B9A421BD2039A059B13441B78FE
:105A7C008DF812309DF812307E2B0AD89DF812301A
:105A8C00184600F0B7F90346002B02D09DF81230EF
:105A9C0000E02E231A4611490098FDF791FB03E014
:105AAC000F490098FDF78CFB059B01330593059B73
:105ABC00072BD5D9012200990198FFF7C9FE009B4D
:105ACC009DF813201A7300E000BF07B05DF804FBCB
