:100000000000042071030000590300005B0300009E
:100010005D0300005F0300006103000000000000BA
:10002000000000000000000000000000630300006A
:100030006503000000000000670300006903000082
:10004000211900006B0300006B0300006B0300002C
:100050006B0300006B0300006B0300006B030000E8
:100060006B0300006B0300006B0300006B030000D8
:100070006B0300006B0300006B0300006B030000C8
:100080006B030000C91200006B0300006B0300004B
:10009000091300006B0300006B0300006B030000FA
:1000A0006B0300006B0300006B0300006B03000098
:1000B0006B0300006B030000000000000000000064
:1000C0006B0300006B0300006B0300006B03000078
:1000D0006B0300006B0300006B0300006B03000068
:1000E0006B0300006B0300006B03000000000000C6
:1000F000000000006B030000000000006B03000024
:1001000000000000000000000000000000000000EF
:1001100000000000000000000000000000000000DF
:1001200000000000000000000000000000000000CF
:1001300000000000000000000000000000000000BF
:1001400000000000000000000000000000000000AF
:10015000000000000000000000000000000000009F
:10016000000000000000000000000000000000008F
:10017000000000000000000000000000000000007F
:10018000000000000000000000000000000000006F
:10019000000000000000000000000000000000005F
:1001A000000000000000000000000000000000004F
:1001B000000000000000000000000000000000003F
:1001C000000000000000000000000000000000002F
:1001D000000000000000000000000000000000001F
:1001E000000000000000000000000000000000000F
:1001F00000000000000000000000000000000000FF
:10020000344935480A1A02D0072291438D463349B2
:1002100033480A1A06D00722914381F30988022243
:1002200082F314882F483049304A00F041F83048B2
:100230003049314A00F03CF830483149314A00F049
:1002400037F831483149324A00F032F83148324902
:10025000324A00F02DF832483249334A00F028F88B
:1002600032483349334A00F023F8334833490022F7
:1002700000F029F832483349002200F024F83248CF
:100280003249091A01F0BEFE314A90471F48204901
:10029000884205D00268043003B4904703BCF7E7F6
:1002A00000208646EC46002000212A4A9047FEE7BF
:1002B000884207D0521A05D0037801300B70013103
:1002C000013AF9D17047884202D002700130FAE752
:1002D000704700000000042000E00320000004201C
:1002E00000000420E42100000000002004000020A1
:1002F000CC030000CC03000018200000E421000023
:10030000000000200000002018200000182000003D
:1003100018200000182000001820000018200000FD
:100320001820000018200000E1210000E821000052
:1003300004000020040000200400002088010020A8
:1003400088010020880100208801002088210020E9
:1003500099030000CD190000FEE7FEE7FEE7FEE787
:10036000FEE7FEE7FEE7FEE7FEE7FEE700F002B885
:10037000FFF7FCBF0F484FF00701884385460E4842
:1003800080470E48016841F470010160BFF34F8F50
:10039000BFF36F8FFFF734BF09480A490A4A884202
:1003A00007D0521A05D0037801300B700131013AA1
:1003B000F9D1704700000420DD1D000088ED00E049
:0C03C000182000000000002000000020B9
:1003CC0000B583B00190019B1B68184600F0E5F85E
:1003DC000346002B04D10B494FF4F67000F07FFA62
:1003EC00019B1B681F2B02D84FF0A04306E0019B1A
:1003FC001B6803F01F02019B1A60034B184603B0E5
:10040C005DF804FB182000000003005000B585B017
:10041C000190084611461A4603468DF803300B46E8
:10042C008DF8023013468DF8013001AB1846FFF7FA
:10043C00C7FF03909DF803209DF802305B001A4320
:10044C009DF801309B001A439DF818301B0242EABC
:10045C0003019DF81C301B04019A1943039B02F500
:10046C00E07243F8221000BF05B05DF804FB00B544
:10047C0085B00390002301930023009300230122F5
:10048C0001210398FFF7C2FF00BF05B05DF804FB24
:10049C0000B585B003900B468DF80B309DF80B30F2
:1004AC000022019200220092002200210398FFF703
:1004BC00ADFF00BF05B05DF804FB00B585B0019041
:1004CC0001AB1846FFF77CFF0390019B012202FA57
:1004DC0003F31946039800F04CF800BF05B05DF823
:1004EC0004FB00B585B0019001AB1846FFF768FF1F
:1004FC000390019B012202FA03F31946039800F0C2
:10050C0042F800BF05B05DF804FB00B585B0019062
:10051C0001AB1846FFF754FF0390039BD3F8043547
:10052C000293029BDA43019B012101FA03F31A4067
:10053C00039BC3F80825019B01229A40029B1A4099
:10054C00039BC3F80C2500BF05B05DF804FB00B598
:10055C0083B001900091009B002B03D10198FFF711
:10056C00C0FF02E00198FFF7A8FF00BF03B05DF8E1
:10057C0004FB82B001900091019B009AC3F80825FE
:10058C0000BF02B0704782B001900091019B009AAD
:10059C00C3F80C2500BF02B0704784B00190019BDA
:1005AC005B09029300230393029B002B03D0029B55
:1005BC00012B04D007E04FF0FF33039303E04FF619
:1005CC00FF73039300BF019B03F01F030193039A76
:1005DC00019B22FA03F303F00103002B14BF012348
:1005EC000023DBB2184604B07047000000B583B09E
:1005FC000190019B032B03D90749472000F06FF9A9
:10060C00064A019B13441B7801211846FFF79FFFF4
:10061C0000BF03B05DF804FB482000008020000000
:10062C0000B583B00023019305E00198FFF7DEFFCE
:10063C00019B01330193019B032BF6D900BF00BF33
:10064C0003B05DF804FB000000B583B00190019B82
:10065C00032B03D907495F2000F041F9064A019B9F
:10066C0013441B781846FFF750FF00BF03B05DF82A
:10067C0004FB00BF482000008020000000B583B0C0
:10068C000023019309E0094A019B13441B78184687
:10069C00FFF7EDFE019B01330193019B032BF2D974
:1006AC00FFF7BEFF00BF03B05DF804FB8020000025
:1006BC0000B583B0002301930AE0094A019B13445F
:1006CC001B7803211846FFF7E3FE019B01330193CE
:1006DC00019B032BF1D900BF00BF03B05DF804FBF5
:1006EC008420000000B583B00190019B03F001034E
:1006FC00002B01D0FFF7C2FF019B03F00203002B7C
:10070C0001D0FFF7D5FF00BF03B05DF804FB00007C
:10071C0086B003900291019201238DF817309DF859
:10072C001730204A039B13601E4A029B53601D4ADC
:10073C00019B9360039B44F20102934212D0039BF2
:10074C0044F20202934220D1019B164AD360154B0E
:10075C00DB681B68134A9361124BDB685B68114AB8
:10076C00D36112E0019B0F4A13610E4B1B699B680E
:10077C000C4A53610B4B1B691B680A4A9361094B6A
:10078C001B695B68074AD36100BF72B600BF00BF2C
:10079C009DF81730DBB2002BFAD162B600BF00BF58
:1007AC0006B070470400002000B583B002900091A1
:1007BC00019244F2010071466A4600F003F803B05E
:1007CC0000BD00BF00B587B003900291019272B6D4
:1007DC0000BF039B44F20102934207D0039B44F2F7
:1007EC000202934205D1019B059303E0019B049304
:1007FC0000E000BF074B1B6803F00103002B00D087
:10080C0000BE019A02990398FFF782FF00BF07B060
:10081C005DF804FBF0ED00E072B600BF034B1B6803
:10082C000133024A136000BF704700BF2400002050
:10083C00064B1B68013B054A1360044B1B68002BDD
:10084C0001D162B600BF00BF704700BF240000207A
:10085C0000B583B0019000F025F80346012B03D0BE
:10086C000449432000F03BF8FFF7D6FF00BF03B06C
:10087C005DF804FB8820000000B583B003468DF8BA
:10088C00073000F00FF80346012B03D00449512028
:10089C0000F025F8FFF7CCFF00BF03B05DF804FBB8
:1008AC008820000084B0EFF305830193019BC3F310
:1008BC0008030393039B002B0DD1EFF314830093D8
:1008CC00009B0293029B03F00103002B0CBF01233E
:1008DC000023DBB200E00123184604B0704700B5DA
:1008EC0085B003460091ADF80630BDF80630029392
:1008FC00009B039302AB1A46002144F20200FFF75F
:10090C0061FF00BF05B05DF804FB000082B0034638
:10091C008DF807309DF90730002B0CDB9DF8073064
:10092C0003F01F0205499DF907305B09012000FA0D
:10093C0002F241F8232000BF02B0704700E100E052
:10094C0082B003468DF807309DF90730002B13DB7E
:10095C009DF8073003F01F0209499DF907305B0928
:10096C00012000FA02F2203341F82320BFF34F8F0D
:10097C0000BFBFF36F8F00BF00BF02B0704700BF56
:10098C0000E100E082B003468DF807309DF9073096
:10099C00002B0DDB9DF8073003F01F0206499DF973
:1009AC0007305B09012000FA02F2403341F82320A2
:1009BC0000BF02B0704700BF00E100E082B0034608
:1009CC008DF807309DF90730002B0DDB9DF80730B3
:1009DC0003F01F0206499DF907305B09012000FA5C
:1009EC0002F2603341F8232000BF02B0704700BF11
:1009FC0000E100E082B0034600918DF807309DF9CC
:100A0C000730002B0ADB009BDAB20C499DF907304A
:100A1C005201D2B20B4483F800230BE0009BDAB2F4
:100A2C0007499DF8073003F00F03043B5201D2B283
:100A3C000B441A7600BF02B0704700BF00E100E023
:100A4C0000ED00E000B585B00190019B002B0AD0B1
:100A5C00074B43F001030393019B9B010293039B00
:100A6C000298984700E000BF05B05DF804FB00BF9A
:100A7C00E020000000B583B00190064A019BC2F84B
:100A8C00083506211120FFF7B5FF00BF03B05DF854
:100A9C0004FB00BF0010014008B50D4B4FF4803231
:100AAC00C3F844230A4B4FF48032C3F804231120BB
:100ABC00FFF784FF1120FFF729FF054B01221A6075
:100ACC002F20FFF7BFFF034B01221A7000BF08BD98
:100ADC00001001404601002008B51120FFF730FF3F
:100AEC000E4B4FF48032C3F848230C4B4FF480323A
:100AFC00C3F80823094B01225A602F20FFF7A2FFED
:100B0C00064B01229A60064B00221A602F20FFF739
:100B1C0099FF044B00221A7000BF08BD0010014061
:100B2C003801002046010020024BD3F8043518464A
:100B3C00704700BF0010014082B001900091019AF3
:100B4C00009BD31A23F07F43184602B07047000075
:100B5C0082B00190034A019BC2F8403500BF02B03D
:100B6C00704700BF0010014086B00190284B1B68F5
:100B7C00002B03D1264A019B136045E0019B1A68A8
:100B8C00234B1B681B689A4210D8214B1B681968B1
:100B9C00019B1A681E4B1B688A1A1A601C4B1A6838
:100BAC00019BDA611A4A019B13602DE0019B1B68C3
:100BBC000393174B1B680593154B1B68049309E0B3
:100BCC00049B1B68039AD31A0393049B0593049B01
:100BDC00DB690493049B002B04D0049B1B68039AD1
:100BEC009A42EDD8049B002B05D0049B1A68039BFA
:100BFC00D21A049B1A60019B039A1A60019B049AF7
:100C0C00DA61059B019ADA6100BF06B0704700BF3C
:100C1C003401002000B587B001902A4B1B68039368
:100C2C00284B1B680593059B049308E0049A019BD1
:100C3C009A4208D0049B0593049BDB690493049BA4
:100C4C00002BF3D100E000BF049B002B01D100234B
:100C5C0033E0059A049B9A4214D11A4B1B68DB694A
:100C6C00184A1360174B1B68002B0BD1164B012233
:100C7C009A60164B00221A60154B01221A702F2015
:100C8C00FFF7E0FE049B1B680293049BDA69059B4B
:100C9C00DA61059BDB690493049B002B05D0049B54
:100CAC001A68029B1A44049B1A60064B1B68039A31
:100CBC009A4214BF01230023DBB2184607B05DF83B
:100CCC0004FB00BF3401002000100140380100205B
:100CDC004701002008B51120FFF754FE00BF08BDE6
:100CEC0008B51420FFF74EFE00BF08BD00B583B059
:100CFC000190019B5B69019A92691046984700BF6D
:100D0C0003B05DF804FB000000B585B02B4B1B68ED
:100D1C00002B4ED000230193FFF706FF0246284B11
:100D2C001B6819461046FFF707FF0290234B1B6800
:100D3C0003931DE0039B1B68029A9A421CD3039BEE
:100D4C001B68029AD31A0293039B1B68019A1344E3
:100D5C000193039B0093039BDB690393009B1B7C18
:100D6C00002B05D0009B00221A740098FFF7BEFFE1
:100D7C00039B002BDED100E000BF124B1A78124B04
:100D8C001B789A420CD1104B1B780133DAB20E4B04
:100D9C001A700D4B1B78022B02D10B4B00221A70D0
:100DAC00094B1B781946094A019B42F82130FFF781
:100DBC0097FF00BF05B05DF804FB00BF34010020B5
:100DCC003801002044010020450100203C01002096
:100DDC0082B00190184B1A78184B1B789A4223D08A
:100DEC00154B1B780133DAB2134B1A70124B1B786C
:100DFC00022B02D1104B00221A700F4B1B781A4693
:100E0C000F4B53F82220019B1A60019B1A680D4B63
:100E1C001B6813440B4A13600A4B1B6823F07F4377
:100E2C00084A1360012303E0019B00221A6000238F
:100E3C00184602B0704700BF440100204501002055
:100E4C003C0100203801002088B0039002910192EF
:100E5C000023079338E0204B1B680693069B1B6806
:100E6C00039A9A4206D2069B1A68039BD21A069BD7
:100E7C001A602EE0069B1B68039AD31A0393069BF9
:100E8C001B68079A13440793069B00221A60124BA7
:100E9C001B680593069BDB690F4A1360069BDB6896
:100EAC00002B11D0029A079B134423F07F42069B20
:100EBC005A60069BDA68069B9A60019B1A68069B2F
:100ECC00DA61019B059A1A60034B1B68002BC2D197
:100EDC0000BF00BF08B070473401002000B589B0D6
:100EEC00019000238DF81F30664B1B680593AAE018
:100EFC00019B002B05D0019B0693069BDB6901939C
:100F0C0061E0614B1B781A4613465B001344DB000F
:100F1C005D4A1344043304935B4B1B780133DAB200
:100F2C00594B1A70584B1A78574B9B789A4202D1EE
:100F3C00554B00221A70049B5B680693049B1B782C
:100F4C00032B1ED0032B7EDC012B1FD0022B7AD15E
:100F5C00049B5B681846FFF75DFE0346002B02D02E
:100F6C0001238DF81F30069B00221A746BE0454B51
:100F7C001B680393039B00221A74039BDB69414A91
:100F8C001360404B1B68002BF1D15CE000BF069B4B
:100F9C001B7C002B00D056E0049B9A68069B5A6081
:100FAC00049BDA68069B9A60049B1A69069BDA60BC
:100FBC00049B5A69069B9A61344B1B78002B02D018
:100FCC00069B00225A60069B5A68314B1B68D31A49
:100FDC0023F07F432F4A93420ED8069B5B682C4A22
:100FEC00126811461846FFF7A7FD0246069B9B6840
:100FFC001A44069B1A6017E0254B1A68069B5B681F
:10100C0019461046FFF798FD0290069B9B68029AC2
:10101C009A4206D2069B9A68029BD21A069B1A60C9
:10102C0002E0069B00221A60069B00225A60069B77
:10103C0000229A60069B01221A74069B0022DA6138
:10104C000698FFF791FD019B002B7FF451AF0E4BDF
:10105C001A780D4B5B789A427FF44AAF9DF81F309B
:10106C00002B04D1074B1B68059A9A4201D001232F
:10107C0000E0002303F00103DBB2184609B05DF871
:10108C0004FB00BF34010020280000204701002091
:10109C0038010020FEFF7F0010B588B00190274B6F
:1010AC001B68002B44D0254B1B681B680793FFF76C
:1010BC003BFD0690224B1B68059305990698FFF79C
:1010CC003BFD0346033304931E4B1B7883F0010353
:1010DC00DBB2002B01D0FFF7DFFC049A079B934295
:1010EC0038BF1346059A13440593059B23F07F43A1
:1010FC0005930598FFF72CFDFFF716FD0390069955
:10110C000398FFF719FD0346DC1C06990598FFF7B9
:10111C0013FD03469C420DD9FFF706FD0346184606
:10112C00FFF716FD2F20FFF78DFCFFF7D3FD01E035
:10113C00FFF7D2FC00BF08B010BD00BF3401002087
:10114C00380100204601002000B587B00023019330
:10115C0000238DF81730194B1B680493184B1B6830
:10116C0003936B461846FFF733FE03468DF80B309E
:10117C009DF80B30002B08D0009B01AA049918464F
:10118C00FFF762FE01238DF81730019B1846FFF71D
:10119C00A5FE0346002B02D001238DF817309DF8D5
:1011AC001730002B02D00398FFF776FF054B002277
:1011BC001A7000BF07B05DF804FB00BF38010020B7
:1011CC00340100204701002082B003468DF807301F
:1011DC00034A9DF80730537000BF02B0704700BF40
:1011EC002800002084B00190144B5B7801338DF8FB
:1011FC000F30124B9B789DF80F209A4202D100239E
:10120C008DF80F300D4B1B789DF80F209A4201D1B1
:10121C0000230FE0019B9DF80F201A70074B5B78A1
:10122C001A4613465B001344DB00044A1344043390
:10123C000293029B184604B0704700BF28000020A0
:10124C0000B589B00390029101920093002307939B
:10125C000020FFF7FDFA0DF117031846FFF7C2FF48
:10126C000690069B002B02D10423079318E0069BE3
:10127C0001221A70069B039A5A60FFF755FC02462E
:10128C00069B9A60069B029ADA60069B019A1A6189
:10129C00069B009A5A619DF817301846FFF794FF89
:1012AC000020FFF7E9FA079B002B01D1FFF718FD8F
:1012BC00079B184609B05DF804FB000008B50E4BFF
:1012CC000022C3F840210C4B0022C3F844210A4BE6
:1012DC000022C3F84821084B0022C3F84C21064BCE
:1012EC000022C3F80021044B0022C3F80421FFF7AD
:1012FC000BFD00BF08BD00BF0010014008B5FFF793
:10130C0023FF00BF08BD000008B5FFF7E5FB134B3A
:10131C0000221A70114B00225A70104B0B229A703B
:10132C000F4B00221A600F4B00221A700E4B00223A
:10133C001A701420FFF742FB06211420FFF75AFB0A
:10134C001420FFF7E3FA0020FFF794FBFFF7ECFB08
:10135C000346064A13600023184608BD28000020E7
:10136C0034010020440100204501002038010020F8
:10137C0086B003900B4601928DF80B30134B9B7883
:10138C00002B01D108231EE0019B002B01D1072368
:10139C0019E0039B002B01D1072314E0039B1B686E
:1013AC001B7C002B01D008230DE0039B1B680593CD
:1013BC00059B00221A74059B9DF80B205A74059B03
:1013CC00019A5A610023184606B070472800002085
:1013DC0000B587B0039002910192039B0593164BC5
:1013EC009B78002B01D1082322E0039B002B01D119
:1013FC0008231DE0029B042B03D9029BB3F1807FD1
:10140C0001D3072314E0059B5B69002B01D1082352
:10141C000EE0059B5B7C012B01D1029B00E00023BD
:10142C000493019B049A02990598FFF709FF034660
:10143C00184607B05DF804FB28000020044BD3F8D5
:10144C000034002B14BF01230023DBB21846704775
:10145C000000014000B583B000230193144B1B78AE
:10146C00002B02D08523019314E0114B00229A60CB
:10147C000F4B00225A600E4B00221A610C4B0022BB
:10148C00DA600C4800F0F2F9019000F015FA084B04
:10149C0001221A70FFF7D2FF0346002B02D0044B37
:1014AC0001229A70019B184603B05DF804FB00BF43
:1014BC00480100200516000084B001900091019BAA
:1014CC001B68039306E0039A009B9A420DD0039B82
:1014DC001B680393039B002BF5D1019B1A68009B9F
:1014EC001A60019B009A1A6000E000BF04B07047BC
:1014FC0084B00190019B1B680393039B002B03D0CA
:10150C00039B1A68019B1A60039B184604B0704732
:10151C0000B583B00190224B1B78002B03D12149DD
:10152C00F620FFF7DCF91E4B9B78DBB2002B12D0B8
:10153C00019B002B03D0019B5B6801209847002086
:10154C00FFF786F9164BDB680133154AD360002090
:10155C00FFF792F917E00020FFF77AF9019B002BB7
:10156C0003D001991048FFF7A7FF0D4BDB68002B48
:10157C0001D100F0B5F90A4BDB680133084AD3609E
:10158C000020FFF779F9064BDB68002B04D10549E5
:10159C004FF48970FFF7A3F900BF03B05DF804FBAB
:1015AC0048010020E82000005801002000B585B05B
:1015BC0003468DF807309DF80730002B02D10C4BF9
:1015CC00039301E00B4B03930398FFF791FF0290F9
:1015DC00029B002B06D0029B5B689DF807201046EF
:1015EC009847F1E700BF00BF05B05DF804FB00BFF2
:1015FC00500100205801002000B583B003468DF83F
:10160C0007309DF80730002B05D10A4B01225A7088
:10161C000020FFF7CBFF9DF80730012B05D1054BC0
:10162C0001229A700120FFF7C1FF00BF03B05DF8E3
:10163C0004FB00BF4801002082B003468DF8073040
:10164C009DF90730002B0CDB9DF8073003F01F02CF
:10165C0005499DF907305B09012000FA02F241F8B7
:10166C00232000BF02B0704700E100E082B00346C7
:10167C0000918DF807309DF90730002B0ADB009B99
:10168C00DAB20C499DF907305201D2B20B4483F8FF
:10169C0000230BE0009BDAB207499DF8073003F0FA
:1016AC000F03043B5201D2B20B441A7600BF02B0B6
:1016BC00704700BF00E100E000ED00E082B0019057
:1016CC00019B1B0B5BB2184602B0704700B583B090
:1016DC0003460A468DF8073013468DF806309DF800
:1016EC000630072B03D908496B20FFF7F8F89DF853
:1016FC0006209DF9073011461846FFF7B7FF00BFCB
:10170C0003B05DF804FB00BF2C21000000B583B0D2
:10171C0003468DF807309DF907301846FFF78CFF0C
:10172C0000BF03B05DF804FB82B003468DF80730B0
:10173C000F4A9DF90730002B00DA1F335B115BB2A7
:10174C0052F823209DF90730594203F01F0301F092
:10175C001F0158BF4B425BB222FA03F303F00103A3
:10176C00002B14BF01230023DBB2184602B07047D4
:10177C0000E100E082B001904FF08042019BC2F882
:10178C00043300BF02B0704782B001904FF080422A
:10179C00019BC2F8083300BF02B0704782B0034609
:1017AC008DF807309DF8073003F1804301221A6051
:1017BC0000BF02B0704784B00346ADF80630BDF8E8
:1017CC00063003F1804300221A60BDF8063003F1A5
:1017DC0080431B680393039B00BF04B0704782B027
:1017EC000346ADF80630BDF8063003F180431B68A4
:1017FC00002B14BF01230023DBB2184602B0704744
:10180C0082B001904FF08042019BC2F8183500BFA6
:10181C0002B0704700B583B006238DF807304FF047
:10182C008040FFF74BFF03461846FFF77DFF03464A
:10183C0083F00103DBB2002B13D04FF08040FFF795
:10184C003DFF03461A469DF8073019461046FFF730
:10185C003DFF4FF08040FFF731FF03461846FFF77E
:10186C0055FF00BF03B05DF804FB000000B585B068
:10187C000190019B002B03D10D49A420FFF72FF8F9
:10188C00002303930B4B1B79002B02D0852303936E
:10189C0008E0084A019B1360064B01221A71054BA4
:1018AC0000225A71039B184605B05DF804FB00BF7B
:1018BC005C2100005C01002008B5074B1B79002B54
:1018CC0003D10649BD20FFF70AF8FFF7A3FF01205B
:1018DC00FFF796FF00BF08BD5C0100205C210000F3
:1018EC0008B50A4B1B79002B03D10949EA20FEF7F6
:1018FC00F6FF4FF48270FFF75EFF0220FFF73AFF0E
:10190C000820FFF74BFF00BF08BD00BF5C010020A3
:10191C005C21000008B54FF48070FFF760FF0346B0
:10192C00002B14D04FF48070FFF745FF0120FFF718
:10193C002BFF114B5B7983F00103DBB2002B06D03C
:10194C000D4B01225A710C4B1B68002098474FF429
:10195C008270FFF744FF0346002B0AD04FF48270CD
:10196C00FFF729FF0220FFF70FFF034B1B68012035
:10197C00984700BF08BD00BF5C01002000B583B0D4
:10198C00FFF768FD0190019B0093009B002B04D096
:10199C00054A46210098FEF707FF0020FFF7B8FD27
:1019AC0000BF03B05DF804FBA421000000B583B0B8
:1019BC0001900220FEF748FE00BF03B05DF804FB67
:1019CC0000B585B00120FEF78DFEFFF7D7FFFFF7BE
:1019DC009BFC41F2883303930C4A01210C48FFF71E
:1019EC00C7FC0290029B0193019B002B04D0094A77
:1019FC0059210198FEF7D8FE074B044A4FF40041D9
:101A0C001846FFF7E5FC30BFFDE700BFB919000031
:101A1C00A0210000A421000064010020BFF34F8F1F
:101A2C0000BF064BDB6803F4E0620449044B13432C
:101A3C00CB60BFF34F8F00BF00BFFDE700ED00E0B0
:101A4C000400FA0582B0164B1B680193154B1B68FA
:101A5C000093019B082B1FD1009B052B1AD801A2C8
:101A6C0052F823F0891A00008D1A0000911A000018
:101A7C00951A0000991A00009D1A000001230CE031
:101A8C0001230AE0012308E0012306E0012304E01E
:101A9C00012302E0012300E00023184602B0704746
:101AAC00300100103401001082B0164B1B680193FA
:101ABC00154B1B680093019B082B1FD1009B052B1A
:101ACC001AD801A252F823F0ED1A0000F11A000006
:101ADC00F51A0000F91A0000FD1A0000011B0000A5
:101AEC0001230CE001230AE0012308E0012306E0B6
:101AFC00012304E0012302E0012300E00023184647
:101B0C0002B07047300100103401001082B0164B47
:101B1C001B680193154B1B680093019B082B1FD16D
:101B2C00009B052B1AD801A252F823F0511B000080
:101B3C00551B0000591B00005D1B0000611B0000C1
:101B4C00651B000001230CE000230AE0002308E0E1
:101B5C00002306E0002304E0002302E0002300E061
:101B6C000023184602B070473001001034010010F9
:101B7C0082B0164B1B680193154B1B680093019B9D
:101B8C00082B1FD1009B052B1AD801A252F823F069
:101B9C00B51B0000B91B0000BD1B0000C11B0000E1
:101BAC00C51B0000C91B000001230CE000230AE048
:101BBC00002308E0002306E0002304E0002302E0F9
:101BCC00002300E00023184602B0704730010010DB
:101BDC003401001082B0164B1B680193154B1B6827
:101BEC000093019B082B1FD1009B052B1AD801A237
:101BFC0052F823F0191C00001D1C0000211C0000D1
:101C0C00251C0000291C00002D1C000001230CE0E9
:101C1C0000230AE0002308E0002306E0002304E090
:101C2C00002302E0002300E00023184602B07047B6
:101C3C00300100103401001082B0164B1B68019368
:101C4C00154B1B680093019B082B1FD1009B052B88
:101C5C001AD801A252F823F07D1C0000811C000050
:101C6C00851C0000891C00008D1C0000911C0000CC
:101C7C0001230CE000230AE0002308E0002306E027
:101C8C00002304E0002302E0002300E000231846B8
:101C9C0002B07047300100103401001082B0164BB6
:101CAC001B680193154B1B680093019B082B1FD1DC
:101CBC00009B052B1AD801A252F823F0E11C00005E
:101CCC00E51C0000E91C0000ED1C0000F11C0000EC
:101CDC00F51C000001230CE001230AE0012308E0BD
:101CEC00012306E0012304E0012302E0012300E0CC
:101CFC000023184602B07047300100103401001068
:101D0C0082B0164B1B680193154B1B680093019B0B
:101D1C00082B1FD1009B052B1AD801A252F823F0D7
:101D2C00451D0000491D00004D1D0000511D000007
:101D3C00551D0000591D000000230CE000230AE093
:101D4C00002308E0002306E0012304E0012302E065
:101D5C00012300E00023184602B070473001001048
:101D6C003401001008B5FFF7CBFF0346002B07D05A
:101D7C004FF010234FF08042D3F80832C2F8583598
:101D8C0000BF08BD00BF044BD3F80034002BFAD0C1
:101D9C0000BF00BF704700BF00E0014000B583B03A
:101DAC000190054A019BC2F80435FFF7EBFF00BF19
:101DBC0003B05DF804FB00BF00E00140024B034A96
:101DCC001A6000BF704700BF000000200090D003D5
:101DDC0008B5FFF737FE0346002B0ED04FF08043BB
:101DEC000022C3F80C214FF080430022C3F81021CD
:101DFC004FF080430022C3F83825FFF755FE034609
:101E0C00002B76D04FF08053734AD3F80434C2F8C9
:101E1C0020354FF08053704AD3F80834C2F824357B
:101E2C004FF080536C4AD3F80C34C2F828354FF07D
:101E3C008053694AD3F81034C2F82C354FF08053D4
:101E4C00654AD3F81434C2F830354FF08053624AE7
:101E5C00D3F81834C2F834354FF080535E4AD3F8B7
:101E6C001C34C2F840354FF080535B4AD3F8203411
:101E7C00C2F844354FF08053574AD3F82434C2F893
:101E8C0048354FF08053544AD3F82834C2F84C35B7
:101E9C004FF08053504AD3F82C34C2F850354FF0E1
:101EAC0080534D4AD3F83034C2F854354FF0805338
:101EBC00494AD3F83434C2F860354FF08053464A5F
:101ECC00D3F83834C2F864354FF08053424AD3F813
:101EDC003C34C2F868354FF080533F4AD3F8403455
:101EEC00C2F86C354FF080533B4AD3F84434C2F8F7
:101EFC007035FFF70BFE0346002B02D0374B384AE8
:101F0C001A60FFF735FE0346002B03D0354BFB223E
:101F1C00C3F81825FFF75EFE0346002B0AD0324BA0
:101F2C001B6823F00F02314B1B6803F00F032E4983
:101F3C0013430B60FFF780FE0346002B03D02C4BA2
:101F4C004FF400721A60FFF7A9FE0346002B0DD068
:101F5C004FF08043D3F8003403F00103002B05D07D
:101F6C004FF080436FF00102C3F80024214BD3F8EB
:101F7C008830204A43F47003C2F88830BFF34F8F87
:101F8C0000BFBFF36F8F00BFFFF7ECFE4FF01023C5
:101F9C00D3F80032002B05DB4FF01023D3F80432BA
:101FAC00002B15DA0120FFF7F9FE4FF01023122257
:101FBC00C3F80022FFF7E6FE4FF010231222C3F8FD
:101FCC000422FFF7DFFE0020FFF7E8FEFFF726FDF7
:101FDC00FFF7F4FE00BF08BD00C000408C56004067
:101FEC004881030000F00040E40E0040580200104D
:101FFC004096024000ED00E0072904D90023024A74
:0C200C00C0E90031106070478401002022
:102018002E2E2F2E2E2F2E2E2F2E2E2F2E2E2F2ED3
:102028002E2F6D6F64756C65732F6E7266782F68CE
:10203800616C2F6E72665F6770696F2E68000000B2
:10204800433A5C6E5246355F53444B5F31372E310D
:102058002E305F646464653536305C636F6D706F15
:102068006E656E74735C626F617264735C626F61DB
:102078007264732E630000000D1806100B0C1819FB
:10208800433A5C6E5246355F53444B5F31372E31CD
:102098002E305F646464653536305C636F6D706FD5
:1020A8006E656E74735C6C69627261726965735C8B
:1020B8007574696C5C6170705F7574696C5F706C65
:1020C8006174666F726D2E630000000000000000EE
:1020D80000000000000000000338FDD87047000031
:1020E800433A5C6E5246355F53444B5F31372E316D
:1020F8002E305F646464653536305C696E7465677C
:10210800726174696F6E5C6E7266785C6C6567612B
:1021180063795C6E72665F6472765F636C6F636B23
:102128002E6300002E2E2F2E2E2F2E2E2F2E2E2FEA
:102138002E2E2F2E2E2F696E746567726174696F4B
:102148006E2F6E7266782F6E7266785F676C756533
:102158002E680000433A5C6E5246355F53444B5F2D
:1021680031372E312E305F646464653536305C6DEE
:102178006F64756C65735C6E7266785C64726976A0
:102188006572735C7372635C6E7266785F636C6FA2
:10219800636B2E630000000064010020433A5C6E0C
:1021A8005246355F53444B5F31372E312E305F64D2
:1021B8006464653536305C6578616D706C65735C38
:1021C8007065726970686572616C5C626C696E6B6F
:0921D800795C6D61696E2E6300F3
:0421E4000090D00394
:040000030000037185
:00000001FF
