:1000000000000420190200000102000003020000A9
:1000100005020000070200000902000000000000C5
:100020000000000000000000000000000B020000C3
:100030000D020000000000000F020000110200008D
:100040006162000013020000092200002D3400004C
:1000500045340000130200008D6E00001302000002
:10006000130200001302000013020000130200003C
:10007000130200001302000013020000130200002C
:1000800013020000214000001302000013020000D0
:100090006140000013020000130200001302000080
:1000A00013020000130200001302000013020000FC
:1000B0001302000013020000000000000000000016
:1000C00013020000130200001302000013020000DC
:1000D00013020000130200001302000013020000CC
:1000E00013020000130200001302000000000000D1
:1000F00000000000130200000000000013020000D6
:1001000000000000000000000000000000000000EF
:1001100000000000000000000000000000000000DF
:1001200000000000000000000000000000000000CF
:1001300000000000000000000000000000000000BF
:1001400000000000000000000000000000000000AF
:10015000000000000000000000000000000000009F
:10016000000000000000000000000000000000008F
:10017000000000000000000000000000000000007F
:10018000000000000000000000000000000000006F
:10019000000000000000000000000000000000005F
:1001A000000000000000000000000000000000004F
:1001B000000000000000000000000000000000003F
:1001C000000000000000000000000000000000002F
:1001D000000000000000000000000000000000001F
:1001E000000000000000000000000000000000000F
:1001F00000000000000000000000000000000000FF
:10020000FEE7FEE7FEE7FEE7FEE7FEE7FEE7FEE7C6
:10021000FEE7FEE700F002B8FFF7FCBF0F484FF023
:100220000701884385460E4880470E48016841F41F
:1002300070010160BFF34F8FBFF36F8F00F01AB8EA
:1002400009480A490A4A884207D0521A05D0037859
:1002500001300B700131013AF9D1704700000420E0
:10026000AD1C000088ED00E0BC8A0000000000200A
:1002700000000020344935480A1A02D00722914371
:100280008D46334933480A1A06D00722914381F339
:100290000988022282F314882F483049304A00F03E
:1002A00041F830483049314A00F03CF83048314993
:1002B000314A00F037F831483149324A00F032F81B
:1002C00031483249324A00F02DF832483249334A37
:1002D00000F028F832483349334A00F023F8334815
:1002E0003349002200F029F832483349002200F057
:1002F00024F832483249091A08F096FB314A9047EF
:100300001F482049884205D00268043003B4904752
:1003100003BCF7E700208646EC46002000212A4A6D
:100320009047FEE7884207D0521A05D00378013083
:100330000B700131013AF9D17047884202D0027046
:100340000130FAE7704700000000042000E00320BD
:10035000000004200000042014A30000000000207E
:10036000B4000020CC030000CC0300003C8A000055
:1003700014A300000000002000000020D08A00002C
:10038000D08A0000D08A0000D08A0000D08A000005
:10039000D08A0000D08A0000D08A000011A300009B
:1003A000C8A30000B4000020B4000020B400002066
:1003B000045F0020045F0020045F0020045F002031
:0C03C000047F00204102000059140000DE
:1003CC0000B585B00190019B002B0AD0074B43F080
:1003DC0001030393019B9B010293039B0298984793
:1003EC0000E000BF05B05DF804FB00BF108C0000FE
:1003FC0000B583B00190019B1B68184600F06DF8A6
:10040C000346002B04D10B494FF4F67004F022F88C
:10041C00019B1B681F2B02D84FF0A04306E0019BE9
:10042C001B6803F01F02019B1A60034B184603B0B4
:10043C005DF804FBD08A00000003005000B585B0C5
:10044C000190084611461A4603468DF803300B46B8
:10045C008DF8023013468DF8013001AB1846FFF7CA
:10046C00C7FF03909DF803209DF802305B001A43F0
:10047C009DF801309B001A439DF818301B0242EA8C
:10048C0003019DF81C301B04019A1943039B02F5D0
:10049C00E07243F8221000BF05B05DF804FB00B514
:1004AC0085B0019001AB1846FFF7A2FF0390019BAA
:1004BC00012202FA03F31946039800F004F800BF76
:1004CC0005B05DF804FB82B001900091019B009A8D
:1004DC00C3F8082500BF02B0704784B00190019B9F
:1004EC005B09029300230393029B002B03D0029B16
:1004FC00012B04D007E04FF0FF33039303E04FF6DA
:10050C00FF73039300BF019B03F01F030193039A36
:10051C00019B22FA03F303F00103002B14BF012308
:10052C000023DBB2184604B0704700B583B00190CD
:10053C00019B0433184602F0DDFA00BF03B05DF8EE
:10054C0004FB00B589B0059003921A460B468DF852
:10055C00133013468DF8123000230793059B181D9A
:10056C009DF812209DF813109DF828300093134627
:10057C00039A02F0B9FD0790079B184609B05DF885
:10058C0004FB00B587B0039001921A460B468DF818
:10059C000B3013468DF80A3000230593039B181D6E
:1005AC009DF80A309DF80B10019A02F0C5FD0590DC
:1005BC00059B184607B05DF804FB00B583B00190AD
:1005CC00019B002B0AD04FF47A70FFF7F9FE019BC8
:1005DC00013B0193019B002BF5D100E000BF03B060
:1005EC005DF804FB00B583B004F0E6F80190019BC4
:1005FC000093009B002B04D0054A3821009802F090
:10060C0071FF002004F036F900BF03B05DF804FB65
:10061C00008B000008B5084B1B68084A1360064B9A
:10062C0000221A60064B00221A700649AE2006F012
:10063C00D9FC00BF08BD00BF10000020F4530020FF
:10064C00F95300200800002000B589B003F062FEC9
:10065C0003F0C6FE464B1B68022B40F084804023FF
:10066C008DF81E30434B069300238DF81F3076E037
:10067C009DF81F30404A52F823209DF81F303F4907
:10068C0051F823309A4265D00699212006F0AAFC35
:10069C009DF81F301A46D200D31A5B00DBB2083328
:1006AC00DBB20699184606F09DFC9DF81F301A46E1
:1006BC00D200D31A5B00DBB21533DBB206991846B5
:1006CC0006F090FC0699222006F08CFC069903207B
:1006DC0006F088FC0699042006F084FC9DF81E2088
:1006EC001C230093264B3C21069805F007FC059033
:1006FC001420FFF762FF059B0493049B002B04D08E
:10070C00204A5C21049802F0EDFE9DF81F301A4A35
:10071C0052F823309DF81E201C2100913C21069894
:10072C0005F0ECFB05901420FFF747FF059B0393A6
:10073C00039B002B04D0134A6421039802F0D2FED1
:10074C009DF81F209DF81F300B4951F822200B49B2
:10075C0041F823209DF81F3001338DF81F309DF890
:10076C001F30072B84D900BF09B05DF804FB00BF14
:10077C001000002008000020D8550020B4000020F4
:10078C0078910000008B000000B585B006F082F96E
:10079C000390039B0293029B002B04D0144A8821E4
:1007AC00029802F09FFE134A6B461268114619809C
:1007BC000233120C1A7003238DF801306B460E4A6B
:1007CC001946132006F0CAF90390039B0193019B71
:1007DC00002B04D0064A8F21019802F083FE0121E0
:1007EC00132006F037FA00BF05B05DF804FB00BF1C
:1007FC00008B0000588B0000B510000082B00190F7
:10080C000091019B1B78002B03D1044B01221A7021
:10081C0000E000BF00BF02B0704700BFF0530020E3
:10082C0000B589B002AB00221A605A609A60DA6097
:10083C000F2302930E2303934FF0CC7304930223E4
:10084C008DF8143002A90023144A154801F0A2FCBB
:10085C000790079B0693069B002B04D0114AB121ED
:10086C00069802F03FFE0E48FFF75FFE002301934F
:10087C00072300930323002200210E20FFF7DEFD47
:10088C0000230193072300930323002200210F2050
:10089C00FFF7D4FD00BF09B05DF804FB09080000A8
:1008AC00DC8B0000008B000000B58BB003AB00228A
:1008BC001A605A609A60DA60022303931F23049330
:1008CC004FF0CC73059302238DF8183003AB194607
:1008DC00194805F0D1F90990099B0893089B002B46
:1008EC0004D0164AC921089802F0FCFD144805F002
:1008FC0057FA0990099B0793079B002B04D00F4ACA
:10090C00CB21079802F0EEFD0023019307230093FF
:10091C000323002200211F20FFF790FD00230193E9
:10092C00072300930323002200210220FFF786FDFA
:10093C0000BF0BB05DF804FBEC8B0000008B0000DB
:10094C000800002000B5C7B046ABA3F5887319604A
:10095C00114646ABA3F2091302461A7046ABA3F537
:10096C0086730A461A8046ABA3F5847300221A607C
:10097C000433FB220021184607F0FCFF46ABA3F51D
:10098C00847346AAA2F2091212781A7046ABA3F528
:10099C008673198846ABA3F5887304AA501C0A46C3
:1009AC00196807F0B1FF154B00221A7046ABA3F57E
:1009BC0086731B88DBB20133DBB204AA00210091E1
:1009CC0039210F48FFF7BDFD4590459B4493449B4F
:1009DC00002B04D00B4AEA21449802F083FD00BF9F
:1009EC00064B1B78DBB283F00103DBB2002BF7D193
:1009FC00459B5BB2184647B05DF804FBF0530020F2
:100A0C00DC8B0000008B000000B589B0034602911E
:100A1C008DF80F301346ADF80C30234B00221A70B2
:100A2C000DF10F0201230093012339211F48FFF719
:100A3C0088FD0790079B0693069B002B04D01C4A4D
:100A4C00FB21069802F04EFD00BF174B1B78DBB262
:100A5C0083F00103DBB2002BF7D1134B00221A7089
:100A6C00BDF80C30DBB2029A39211048FFF789FD32
:100A7C000790079B0593059B002B05D00C4A4FF460
:100A8C008071059802F02EFD00BF074B1B78DBB27E
:100A9C0083F00103DBB2002BF7D1079B5BB2184646
:100AAC0009B05DF804FB00BFF0530020DC8B0000A4
:100ABC00008B000000B585B0019001220199AF2098
:100ACC00FFF7A2FF03468DF80F309DF80F30002B77
:100ADC0001D1012300E00023184605B05DF804FBAA
:100AEC0000B585B0019001220199AE20FFF78CFF73
:100AFC0003468DF80F309DF80F30002B01D10123E8
:100B0C0000E00023184605B05DF804FB00B583B087
:100B1C000DF107031846FFF7CDFF034683F00103E1
:100B2C00DBB2002B02D04FF0FF3318E09DF80730FA
:100B3C0003F00103002B02D16FF001030FE00DF164
:100B4C0007031846FFF7CCFF034683F00103DBB223
:100B5C00002B02D06FF0020301E09DF8073018461D
:100B6C0003B05DF804FB00B585B001900091009BCB
:100B7C009BB21A460199FC20FFF746FF03468DF8FD
:100B8C000F309DF80F30002B01D0FF23FFE71846E4
:100B9C0005B05DF804FB000010B5AAB01E23289325
:100BAC00FFF7B4FF2790279B002B01DC0023D1E03B
:100BBC00279B9A0003AB11461846FFF7D4FF034658
:100BCC008DF89B3000232993BDE003AA299B134485
:100BDC001B788DF89A30299B0133A8336B4413F89A
:100BEC009C3C8DF89930299B0233A8336B4413F845
:100BFC009C3C8DF89830299B0333A8336B4413F835
:100C0C009C3C8DF89730554A554BD31ADB081B0486
:100C1C0043F003009DF89A109DF899409DF8983088
:100C2C009DF897200192009323460A464D4907F000
:100C3C0034F89DF89A30289A9A4262DD9DF89930E2
:100C4C00289A9A425DDD9DF89830289A9A4258DD90
:100C5C009DF89730289A9A4253DD434B01221A7023
:100C6C00424B1B68002B03D1414B1B68002B66D0F9
:100C7C003E4B1A683F4B1B68D31A24933C4B1A68A3
:100C8C003D4B1B68D31A2393344A354BD31ADB08DC
:100C9C001B0443F00300249A239B384906F0E9FF18
:100CAC0000F092FB364B1B685B42249A9A4202DAA4
:100CBC00344B02221A60324B1B68249A9A4202DD92
:100CCC00304B03221A602E4B1B685B42239A9A42CC
:100CDC0002DA2C4B01221A60294B1B68239A9A4288
:100CEC0002DD284B00221A60224B00221A60224B94
:100CFC0000221A601D4B00221A601D4B00221A6044
:100D0C001DE09DF897209DF89830D31A194A13606E
:100D1C009DF89A209DF89930D31A174A1360124BFC
:100D2C001B78002B0CD0104B00221A70114B1B6837
:100D3C000E4A1360104B1B680D4A136000E000BF95
:100D4C00299B04332993299BDA1C279B9B009A42ED
:100D5C00FFF63BAF18462AB010BD00BF6C8A0000EE
:100D6C003C8A00005C8B0000D4000020E0000020D6
:100D7C00E4000020D8000020DC000020688B00007C
:100D8C00000000200400002000B591B08F238DF8E6
:100D9C0007300DF1070301221946A620FFF7D2FDFB
:100DAC0003468DF83F309DF93F300E930E9B002B80
:100DBC0005D0BC4A40F293110E9802F093FB0DF152
:100DCC00070301221946A220FFF71EFE03468DF8E9
:100DDC003F309DF8073063F03F03DBB28DF80730EE
:100DEC000DF1070301221946A220FFF7ABFD0346C4
:100DFC008DF83F309DF93F300D930D9B002B05D0A6
:100E0C00A84A40F299110D9802F06CFB2A238DF838
:100E1C0007300DF1070301221946A320FFF792FDBD
:100E2C0003468DF83F309DF93F300C930C9B002B03
:100E3C0005D09C4A4FF4CF710C9802F053FB0DF186
:100E4C00070301221946AA20FFF7DEFD03468DF8A1
:100E5C003F309DF8073023F00303DBB28DF80730E9
:100E6C009DF93F300B930B9B002B05D08D4A40F224
:100E7C00A3110B9802F036FB0DF107030122194662
:100E8C00AA20FFF75FFD03468DF83F309DF93F30F8
:100E9C000A930A9B002B05D0824A40F2A5110A98AE
:100EAC0002F020FB0DF1070301221946AB20FFF7DE
:100EBC00ABFD03468DF83F309DF93F30002B01D040
:100ECC000023EAE09DF8073023F00103DBB28DF834
:100EDC0007300DF1070301221946AB20FFF732FD55
:100EEC0003468DF83F309DF93F300993099B002B49
:100EFC0005D06C4A4FF4D671099802F0F3FA04232A
:100F0C008DF807300DF10703012219468F20FFF7EA
:100F1C0019FD03468DF83F309DF93F300893089B2F
:100F2C00002B05D05F4A40F2B111089802F0DAFAB2
:100F3C0000238DF807300DF1070301221946892093
:100F4C00FFF700FD03468DF83F309DF93F300793C6
:100F5C00079B002B05D0534A4FF4DB71079802F026
:100F6C00C1FA32238DF807300DF10703012219461F
:100F7C008B20FFF7E7FC03468DF83F309DF93F309F
:100F8C000693069B002B05D0464A4FF4DD7106985C
:100F9C0002F0A8FAA0238DF807300DF10703012207
:100FAC0019468C20FFF7CEFC03468DF83F309DF997
:100FBC003F300593059B002B05D03A4A40F2BF11F8
:100FCC00059802F08FFA0DF1070301221946E5206E
:100FDC00FFF71AFD03468DF83F309DF93F3004931F
:100FEC00049B002B05D02F4A40F2C311049802F049
:100FFC0079FA0DF1070301221946A220FFF704FD2F
:10100C0003468DF83F309DF93F30002B01D0002373
:10101C0043E09DF8073023F01F03DBB28DF8073057
:10102C000DF1070301221946A220FFF78BFC0346A2
:10103C008DF83F309DF93F300393039B002B05D077
:10104C00184A4FF4E571039802F04CFA00238DF81E
:10105C0007300DF1070301221946A120FFF772FC9E
:10106C0003468DF83F3025238DF807300DF107032B
:10107C00012219468020FFF765FC03468DF83F30AE
:10108C009DF93F300293029B002B05D0054A40F29C
:10109C00D111029802F026FA0123184611B05DF81E
:1010AC0004FB00BF008B000000B589B001900B461B
:1010BC008DF80330B54AB64BD31ADB081B0443F04A
:1010CC000303B449184606F0B5FD06F027FE0346A7
:1010DC00002BFAD1B04B01221A70B04B1B68002BBD
:1010EC0016D1AF4B1B68AD4A1360AE4B00221A7081
:1010FC00AA4B1B68012B02D1AB4806F0BDF8C820E7
:10110C00FFF75BFAA849AF2005F06CFF00F05CF923
:10111C0001238DF80E300DF10E0301221946AB2080
:10112C00FFF710FC0346079345238DF80E300DF1A5
:10113C000E03012219468020FFF704FC0346079397
:10114C00079B0693069B002B00F0E080974A40F229
:10115C00E911069802F0C6F9D8E06420FFF72DFAE1
:10116C00FFF7D4FC0346002B40F3D080FFF714FDAF
:10117C0000238DF80F3000F05BFB8D4B1B68002BB0
:10118C0026D1012000F020FB874806F0D9F8034651
:10119C008DF80F309DF80F3083F00103DBB2002B7C
:1011AC0001D000F091FE794A794BD31ADB081B046D
:1011BC0043F003037F49184606F03CFDFA20FFF785
:1011CC00FCF900F035FB7A4B4FF0FF321A609DE0D2
:1011DC00774B1B68012B26D1022000F0F5FA7248E0
:1011EC0006F0BAF803468DF80F309DF80F3083F0F7
:1011FC000103DBB2002B01D000F066FE634A644BA6
:10120C00D31ADB081B0443F003036B49184606F0A2
:10121C0011FDFA20FFF7D1F900F00AFB644B4FF0F7
:10122C00FF321A6072E0624B1B68022B29D103203B
:10123C0000F0CAFA5C4805F0CFFF03468DF80F307A
:10124C00564B01221A609DF80F3083F00103DBB27C
:10125C00002B01D000F038FE4C4A4D4BD31ADB0862
:10126C001B0443F003035549184606F0E3FCFA202F
:10127C00FFF7A3F900F0DCFA4D4B4FF0FF321A6088
:10128C0044E04B4B1B68032B2FD1012000F09CFA40
:10129C00032000F099FA022000F096FA424805F07B
:1012AC00EBFF03468DF80F303C4B02221A609DF881
:1012BC000F3083F00103DBB2002B01D000F004FEF1
:1012CC00324A334BD31ADB081B0443F003033C496B
:1012DC00184606F0AFFCFA20FFF76FF900F0A8FAF9
:1012EC00334B4FF0FF321A6010E0284A284BD31AC8
:1012FC00DB081B0443F003033249184606F09AFC42
:10130C0000F096FA2A4B4FF0FF321A60234B1B6801
:10131C00002B7FF422AF04238DF80E300DF10E0359
:10132C0001221946AB20FFF70DFB03460793079BE1
:10133C000593059B002B05D01C4A40F22E210598E5
:10134C0002F0D0F80DF10E0301221946E720FFF749
:10135C005BFB0346079325238DF80E300DF10E032E
:10136C00012219468020FFF7EDFA03460793079BED
:10137C000493049B002B05D00C4A4FF40D71049878
:10138C0002F0B0F800BF09B05DF804FB6C8A0000F5
:10139C003C8A0000748B0000FA53002010000020DF
:1013AC00F4530020F853002008000020008B0000AC
:1013BC0004000020948B0000988B0000A08B000090
:1013CC00A88B0000B08B000000B585B01B4B1B78C0
:1013DC00002B23D01A4B184602F0DCFE0390039B23
:1013EC000293029B002B05D0164A40F23D21029835
:1013FC0002F078F8124B144A4FF42031184602F0E0
:10140C0093FE0390039B0193019B002B11D00D4A7B
:10141C0040F23F21019802F065F80AE0084B0A4AB5
:10142C004FF42031184602F07FFE0390034B01224B
:10143C001A7000BF05B05DF804FB00BFF953002023
:10144C00B0530020008B00002106000000B58BB0CB
:10145C0042F21073099300238DF823301620FFF706
:10146C001EF82020FFF71BF80023019302230093A2
:10147C000023012201211620FEF7E0FF0023019337
:10148C00022300930023012201212020FEF7D6FF26
:10149C000420FFF792F84FF40041002006F000F909
:1014AC000790079B002B05D0404A40F26321079818
:1014BC0002F018F806F08AF83D4A3E4BD31ADB08C6
:1014CC001B0443F003033C49184606F0B3FB06F03B
:1014DC0025FC0346002BFAD1FFF7A2F9FFF7E4F93C
:1014EC00364805F0A9FD02F07BFF344805F0C4FE38
:1014FC00012000F0E5F900F09BF9FFF773F8FFF716
:10150C0043FC02F0ADFDFFF73FF92D4B00221A70A2
:10151C002C4B00221A702C4A01212C4802F0D4FDCD
:10152C000690069B0593059B002B05D01F4A40F2A5
:10153C007B21059801F0D6FF254A0021254802F0B1
:10154C00C3FD0690069B0493049B002B05D0174A01
:10155C0040F27D21049801F0C5FF1F4B1A4A4FF44D
:10156C000041184602F0E0FDFFF72EFF0DF10F03CE
:10157C00012219469C20FFF747FA03460693642084
:10158C00FFF71BF80A4A0B4BD31ADB081B0443F07A
:10159C0003039DF80F201149184606F059FB06F07D
:1015AC00BDFB0346002BFAD1E0E700BF008B000027
:1015BC006C8A00003C8A0000B88B000008000020F8
:1015CC00F9530020F853002055060000088C000049
:1015DC0021060000048C0000D0530020D08B0000AA
:1015EC0000B583B00190019B1B68184600F0C3F84E
:1015FC000346002B04D10B494FF4F67002F02AFF7E
:10160C00019B1B681F2B02D84FF0A04306E0019BE7
:10161C001B6803F01F02019B1A60034B184603B0B2
:10162C005DF804FB188C00000003005000B585B079
:10163C000190084611461A4603468DF803300B46B6
:10164C008DF8023013468DF8013001AB1846FFF7C8
:10165C00C7FF03909DF803209DF802305B001A43EE
:10166C009DF801309B001A439DF818301B0242EA8A
:10167C0003019DF81C301B04019A1943039B02F5CE
:10168C00E07243F8221000BF05B05DF804FB00B512
:10169C0085B00390002301930023009300230122C3
:1016AC0001210398FFF7C2FF00BF05B05DF804FBF2
:1016BC0000B585B003900B468DF80B309DF80B30C0
:1016CC000022019200220092002200210398FFF7D1
:1016DC00ADFF00BF05B05DF804FB00B585B001900F
:1016EC0001AB1846FFF77CFF0390019B012202FA25
:1016FC0003F31946039800F02AF800BF05B05DF813
:10170C0004FB00B585B0019001AB1846FFF768FFEC
:10171C000390019B012202FA03F31946039800F08F
:10172C0020F800BF05B05DF804FB00B583B0019054
:10173C000091009B002B03D10198FFF7E2FF02E020
:10174C000198FFF7CAFF00BF03B05DF804FB82B03D
:10175C0001900091019B009AC3F8082500BF02B0CC
:10176C00704782B001900091019B009AC3F80C2540
:10177C0000BF02B0704784B00190019B5B090293DB
:10178C0000230393029B002B03D0029B012B04D05C
:10179C0007E04FF0FF33039303E04FF6FF7303931F
:1017AC0000BF019B03F01F030193039A019B22FAD4
:1017BC0003F303F00103002B14BF01230023DBB25E
:1017CC00184604B07047000000B583B00190019B2F
:1017DC00032B03D90749412002F03CFE064A019B2A
:1017EC0013441B7800211846FFF79FFF00BF03B07E
:1017FC005DF804FB488C0000908C000000B583B0B1
:10180C000190019B032B03D90749472002F022FECC
:10181C00064A019B13441B7801211846FFF785FFEC
:10182C0000BF03B05DF804FB488C0000908C0000F6
:10183C0000B583B00023019305E00198FFF7DEFFAC
:10184C00019B01330193019B032BF6D900BF00BF11
:10185C0003B05DF804FB000000B583B000230193D6
:10186C0009E0094A019B13441B781846FFF70FFF48
:10187C00019B01330193019B032BF2D9FFF7D8FF96
:10188C0000BF03B05DF804FB908C000000B583B082
:10189C00002301930AE0094A019B13441B7803219E
:1018AC001846FFF705FF019B01330193019B032BA6
:1018BC00F1D900BF00BF03B05DF804FB948C0000AD
:1018CC0000B583B00190019B03F00103002B01D004
:1018DC00FFF7C2FF019B03F00203002B01D0FFF7BF
:1018EC00D5FF00BF03B05DF804FB0000BFF34F8FC2
:1018FC0000BF064BDB6803F4E0620449044B13435E
:10190C00CB60BFF34F8F00BF00BFFDE700ED00E0E1
:10191C000400FA0582B0164B1B680193154B1B682B
:10192C000093019B082B1FD1009B052B1AD801A2F9
:10193C0052F823F0591900005D19000061190000DC
:10194C0065190000691900006D19000001230CE0F5
:10195C0001230AE0012308E0012306E0012304E04F
:10196C00012302E0012300E00023184602B0704777
:10197C00300100103401001082B0164B1B6801932B
:10198C00154B1B680093019B082B1FD1009B052B4B
:10199C001AD801A252F823F0BD190000C119000099
:1019AC00C5190000C9190000CD190000D11900009B
:1019BC0001230CE001230AE0012308E0012306E0E7
:1019CC00012304E0012302E0012300E00023184678
:1019DC0002B07047300100103401001082B0164B79
:1019EC001B680193154B1B680093019B082B1FD19F
:1019FC00009B052B1AD801A252F823F0211A0000E3
:101A0C00251A0000291A00002D1A0000311A0000B6
:101A1C00351A000001230CE000230AE0002308E043
:101A2C00002306E0002304E0002302E0002300E092
:101A3C000023184602B0704730010010340100102A
:101A4C0082B0164B1B680193154B1B680093019BCE
:101A5C00082B1FD1009B052B1AD801A252F823F09A
:101A6C00851A0000891A00008D1A0000911A0000D6
:101A7C00951A0000991A000001230CE000230AE0DB
:101A8C00002308E0002306E0002304E0002302E02A
:101A9C00002300E00023184602B07047300100100C
:101AAC003401001082B0164B1B680193154B1B6858
:101ABC000093019B082B1FD1009B052B1AD801A268
:101ACC0052F823F0E91A0000ED1A0000F11A000098
:101ADC00F51A0000F91A0000FD1A000001230CE0B1
:101AEC0000230AE0002308E0002306E0002304E0C2
:101AFC00002302E0002300E00023184602B07047E8
:101B0C00300100103401001082B0164B1B68019399
:101B1C00154B1B680093019B082B1FD1009B052BB9
:101B2C001AD801A252F823F04D1B0000511B0000E3
:101B3C00551B0000591B00005D1B0000611B0000C1
:101B4C0001230CE000230AE0002308E0002306E058
:101B5C00002304E0002302E0002300E000231846E9
:101B6C0002B07047300100103401001082B0164BE7
:101B7C001B680193154B1B680093019B082B1FD10D
:101B8C00009B052B1AD801A252F823F0B11B0000C0
:101B9C00B51B0000B91B0000BD1B0000C11B0000E1
:101BAC00C51B000001230CE001230AE0012308E01F
:101BBC00012306E0012304E0012302E0012300E0FD
:101BCC000023184602B07047300100103401001099
:101BDC0082B0164B1B680193154B1B680093019B3D
:101BEC00082B1FD1009B052B1AD801A252F823F009
:101BFC00151C0000191C00001D1C0000211C0000FD
:101C0C00251C0000291C000000230CE000230AE026
:101C1C00002308E0002306E0012304E0012302E096
:101C2C00012300E00023184602B070473001001079
:101C3C003401001008B5FFF7CBFF0346002B07D08B
:101C4C004FF010234FF08042D3F80832C2F85835C9
:101C5C0000BF08BD00BF044BD3F80034002BFAD0F2
:101C6C0000BF00BF704700BF00E0014000B583B06B
:101C7C000190054A019BC2F80435FFF7EBFF00BF4A
:101C8C0003B05DF804FB00BF00E00140024B034AC7
:101C9C001A6000BF704700BF140000200090D003F2
:101CAC0008B5FFF737FE0346002B0ED04FF08043EC
:101CBC000022C3F80C214FF080430022C3F81021FE
:101CCC004FF080430022C3F83825FFF755FE03463A
:101CDC00002B76D04FF08053734AD3F80434C2F8FB
:101CEC0020354FF08053704AD3F80834C2F82435AD
:101CFC004FF080536C4AD3F80C34C2F828354FF0AF
:101D0C008053694AD3F81034C2F82C354FF0805305
:101D1C00654AD3F81434C2F830354FF08053624A18
:101D2C00D3F81834C2F834354FF080535E4AD3F8E8
:101D3C001C34C2F840354FF080535B4AD3F8203442
:101D4C00C2F844354FF08053574AD3F82434C2F8C4
:101D5C0048354FF08053544AD3F82834C2F84C35E8
:101D6C004FF08053504AD3F82C34C2F850354FF012
:101D7C0080534D4AD3F83034C2F854354FF0805369
:101D8C00494AD3F83434C2F860354FF08053464A90
:101D9C00D3F83834C2F864354FF08053424AD3F844
:101DAC003C34C2F868354FF080533F4AD3F8403486
:101DBC00C2F86C354FF080533B4AD3F84434C2F828
:101DCC007035FFF70BFE0346002B02D0374B384A19
:101DDC001A60FFF735FE0346002B03D0354BFB2270
:101DEC00C3F81825FFF75EFE0346002B0AD0324BD2
:101DFC001B6823F00F02314B1B6803F00F032E49B5
:101E0C0013430B60FFF780FE0346002B03D02C4BD3
:101E1C004FF400721A60FFF7A9FE0346002B0DD099
:101E2C004FF08043D3F8003403F00103002B05D0AE
:101E3C004FF080436FF00102C3F80024214BD3F81C
:101E4C008830204A43F47003C2F88830BFF34F8FB8
:101E5C0000BFBFF36F8F00BFFFF7ECFE4FF01023F6
:101E6C00D3F80032002B05DB4FF01023D3F80432EB
:101E7C00002B15DA0120FFF7F9FE4FF01023122288
:101E8C00C3F80022FFF7E6FE4FF010231222C3F82E
:101E9C000422FFF7DFFE0020FFF7E8FEFFF726FD28
:101EAC00FFF7F4FE00BF08BD00C000408C56004098
:101EBC004881030000F00040E40E0040580200107E
:101ECC004096024000ED00E0FEE7000000B585B052
:101EDC000190019B002B0AD0074B43F001030393A5
:101EEC00019B9B010293039B0298984700E000BF63
:101EFC0005B05DF804FB00BFD08C000000B583B0CA
:101F0C000190019B1B68184600F077F80346002BE4
:101F1C0004D10B494FF4F67002F09CFA019B1B683C
:101F2C001F2B02D84FF0A04306E0019B1B6803F067
:101F3C001F02019B1A60034B184603B05DF804FBAB
:101F4C00988C00000003005000B585B0019001ABE7
:101F5C001846FFF7D3FF0390019B012202FA03F30B
:101F6C001946039800F035F800BF05B05DF804FB86
:101F7C0000B585B0019001AB1846FFF7BFFF039089
:101F8C00019B012202FA03F31946039800F02BF887
:101F9C0000BF05B05DF804FB00B585B0019001AB46
:101FAC001846FFF7ABFF0390039800F00AF80246BF
:101FBC00019B22FA03F303F00103184605B05DF808
:101FCC0004FB82B00190019BD3F81035184602B087
:101FDC00704782B001900091019B009AC3F80825CC
:101FEC0000BF02B0704782B001900091019B009A33
:101FFC00C3F80C2500BF02B0704784B00190019B60
:10200C005B09029300230393029B002B03D0029BDA
:10201C00012B04D007E04FF0FF33039303E04FF69E
:10202C00FF73039300BF019B03F01F030193039AFB
:10203C00019B22FA03F303F00103002B14BF0123CD
:10204C000023DBB2184604B0704700B585B0019090
:10205C004FF0A042019B1B6803F5E07340F20C614A
:10206C0042F823104FF0A042019B5B6803F5E0732C
:10207C0040F20C6142F82310019B1B681846FFF7D5
:10208C0063FF019B5B681846FFF75EFF4FF0A042B1
:10209C00019B1B6803F5E07340F20D6142F82310BD
:1020AC004FF0A042019B5B6803F5E07340F20D61B9
:1020BC0042F823100420FFF709FF002303931EE0CE
:1020CC00019B5B681846FFF767FF0346002B03D0A4
:1020DC00039B002B17D124E0019B1B681846FFF7CC
:1020EC0047FF0420FFF7F2FE019B1B681846FFF721
:1020FC002BFF0420FFF7EAFE039B01330393039BA2
:10210C00082BDDDD00E000BF019B5B681846FFF784
:10211C002FFF0420FFF7DAFE019B5B681846FFF7E0
:10212C0013FF05B05DF804FB00B589B00190009178
:10213C00009B0793019B1B788DF80C30019B1B793E
:10214C008DF81030019B5B798DF81130019B9B68E9
:10215C00DBB28DF81230019BDB68DBB28DF81330EB
:10216C00019B1B690593019B5B690693074A079BBF
:10217C0052F823300649079A51F8221003AA104648
:10218C00984700BF09B05DF804FB00BFFC5300206A
:10219C000454002000B587B0039002910192009383
:1021AC00039B1B7805931249059B019A41F8232048
:1021BC001049059B009A41F82320029B5B7B002B66
:1021CC0002D00298FFF741FF00230493039B181DD4
:1021DC00019B002B01D0084A00E00022059B0299CC
:1021EC0000F096FB0490049B184607B05DF804FBC6
:1021FC00FC530020045400203521000008B5064B88
:10220C001B68002B03D10549512002F023F9024B26
:10221C001B68984708BD00BF0C540020DC8C0000E4
:10222C0082B00190019B044A934201D1034B00E020
:10223C000023184602B07047002000400C540020C8
:10224C0000B587B001900091019B002B03D1184978
:10225C00772002F0FFF80198FFF7E2FF0590059B4D
:10226C00002B1ED000238DF81330002001F0D0FF7E
:10227C00059B1B79002B03D001238DF8133005E04F
:10228C00059B009A1A60059B01221A71002001F02F
:10229C00D3FF9DF81330002B03D011230393039B22
:1022AC0002E000230393039B184607B05DF804FB80
:1022BC00DC8C000000B585B00190019B002B03D194
:1022CC000A499B2002F0C6F80198FFF7A9FF03907A
:1022DC00039B002B05D0039B00221A60039B00225A
:1022EC001A7100BF05B05DF804FB00BFDC8C000068
:1022FC0082B003468DF807309DF90730002B0CDBBC
:10230C009DF8073003F01F0205499DF907305B0962
:10231C00012000FA02F241F8232000BF02B07047FE
:10232C0000E100E082B003468DF807309DF90730DC
:10233C00002B13DB9DF8073003F01F0209499DF9B0
:10234C0007305B09012000FA02F2203341F8232008
:10235C00BFF34F8F00BFBFF36F8F00BF00BF02B042
:10236C00704700BF00E100E082B003468DF80730F3
:10237C009DF90730002B0DDB9DF8073003F01F0291
:10238C0006499DF907305B09012000FA02F260331F
:10239C0041F8232000BF02B0704700BF00E100E00D
:1023AC0082B0034600918DF807309DF90730002B61
:1023BC000ADB009BDAB20C499DF907305201D2B20C
:1023CC000B4483F800230BE0009BDAB207499DF81D
:1023DC00073003F00F03043B5201D2B20B441A76C0
:1023EC0000BF02B0704700BF00E100E000ED00E06C
:1023FC0082B00190019B03F06043B3F1005F0CBF0E
:10240C0001230023DBB2184602B0704782B0019062
:10241C00019B1B0B5BB2184602B0704700B583B032
:10242C0003460A468DF8073013468DF806309DF8A2
:10243C000630072B03D908496B2002F00BF89DF8E6
:10244C0006209DF9073011461846FFF7A9FF00BF7B
:10245C0003B05DF804FB00BF308D000000B583B005
:10246C0003468DF807309DF907301846FFF740FFFB
:10247C0000BF03B05DF804FB00B583B003468DF8D4
:10248C0007309DF907301846FFF74CFF00BF03B02B
:10249C005DF804FB00B583B003468DF807309DF959
:1024AC0007301846FFF760FF00BF03B05DF804FB70
:1024BC0082B001900B468DF803309DF80330019AE1
:1024CC00134401221A6000BF02B0704784B001901F
:1024DC000B46ADF80230BDF80230019A13440022CD
:1024EC001A60BDF80230019A13441B680393039BD6
:1024FC0000BF04B0704782B001900B46ADF80230BB
:10250C00BDF80230019A13441B68002B14BF012341
:10251C000023DBB2184602B0704782B001900091E4
:10252C00019BD3F80022009BDB431A40019BC3F8AC
:10253C00002200BF02B0704782B001900091019B55
:10254C00009AC3F8042300BF02B0704782B0019018
:10255C000091019B009AC3F8082300BF02B070479A
:10256C0082B00190019B0622C3F8002500BF02B087
:10257C00704782B00190019B0022C3F8002500BF78
:10258C0002B0704784B0039002910192039B029AAF
:10259C00C3F80825039B019AC3F80C2500BF04B0AF
:1025AC00704782B001900091019B009AC3F82425DA
:1025BC0000BF02B0704784B00190019BD3F8C434C3
:1025CC000393019B039AC3F8C424039B184604B0DD
:1025DC00704782B001900B468DF803309DF80320B4
:1025EC00019BC3F8882500BF02B0704784B00390EC
:1025FC0002910192029A039BC3F84425039B019A12
:10260C00C3F8482500BF04B0704784B00390029112
:10261C000192029A039BC3F83425039B019AC3F8D9
:10262C00382500BF04B0704782B001900091019B27
:10263C00009AC3F8002200BF02B0704782B001902C
:10264C00019BD3F84C35184602B0704782B001900C
:10265C00019BD3F80032184602B0704782B001904B
:10266C00019BD3F83C35184602B0704782B00190FC
:10267C00019B0122C3F8502500BF02B0704782B005
:10268C000190019B0022C3F8502500BF02B0704797
:10269C0082B00190019B0122C3F8402500BF02B01B
:1026AC00704782B00190019B0022C3F8402500BF07
:1026BC0002B0704700B583B00190019B1B681846AF
:1026CC0000F060F80346002B04D10B494FF4F67070
:1026DC0001F0C0FE019B1B681F2B02D84FF0A043DA
:1026EC0006E0019B1B6803F01F02019B1A60034B61
:1026FC00184603B05DF804FB608D00000003005029
:10270C0000B585B00190084611461A4603468DF86F
:10271C0003300B468DF8023013468DF8013001ABB7
:10272C001846FFF7C7FF03909DF803209DF8023071
:10273C005B001A439DF801309B001A439DF818303A
:10274C001B0242EA03019DF81C301B04019A194339
:10275C00039B02F5E07243F8221000BF05B05DF850
:10276C0004FB00B585B00390002301930023009374
:10277C000023012200210398FFF7C2FF00BF05B020
:10278C005DF804FB84B00190019B5B09029300236C
:10279C000393029B002B03D0029B012B04D007E078
:1027AC004FF0FF33039303E04FF6FF73039300BF27
:1027BC00019B03F01F030193039A019B22FA03F37D
:1027CC0003F00103002B14BF01230023DBB21846D6
:1027DC0004B0704784B0019003230393019B03F072
:1027EC000103002B02D04FF402430393019B03F02F
:1027FC000203002B02D048F201230393019B03F048
:10280C000403002B02D048F202230393039B1846C7
:10281C0004B0704700B585B00190009101238DF88C
:10282C000F30009B1B7B032B56D801A252F823F0D0
:10283C00B5280000CD2800008D2800004D28000090
:10284C00009B9B6803F48023002B07D00198FFF7B3
:10285C00F5FE0246009B1B699A420DD1009B9B68BA
:10286C0003F48023002B39D10198FFF7E7FE0246D1
:10287C00009B5B699A4231D000238DF80F302DE01C
:10288C000198FFF7DBFE0246009B1B699A4207D1B9
:10289C000198FFF7E3FE0246009B5B699A421FD04A
:1028AC0000238DF80F301BE00198FFF7C7FE02469E
:1028BC00009B1B699A4215D000238DF80F3011E054
:1028CC000198FFF7CBFE0246009B1B699A420BD086
:1028DC0000238DF80F3007E000BF06E000BF04E0D6
:1028EC0000BF02E000BF00E000BF9DF80F3083F096
:1028FC000103DBB2002B05D00198FFF73AFE0198DB
:10290C00FFF72EFE9DF80F30184605B05DF804FB5E
:10291C0000B58BB00590049103920293049B002B9D
:10292C0003D14A49E72001F095FD049B1A68049BEA
:10293C005B689A4203D14549E82001F08BFD059B69
:10294C001B791A46342302FB03F3414A13440893C0
:10295C00089B93F82D30002B03D008230793079B7B
:10296C0070E0059B1A68059B1B791946394B53F887
:10297C00213019461046FFF763FC0346002B03D0A9
:10298C0011230793079B5DE0089B039A1A60089B31
:10299C00029A5A60089B00229A60089B002283F8D6
:1029AC003020089B002283F82F20049B5A7B089B25
:1029BC0083F83220049B18680023019306230093AC
:1029CC00032300220021FFF79BFE049B5868002381
:1029DC00019306230093032300220021FFF790FEAE
:1029EC00059B1B680993049B1968049B5B681A463A
:1029FC000998FFF7C7FD049B9B6819460998FFF7D8
:102A0C00D0FD089B1B68002B15D0059B1B68184636
:102A1C00FFF7FCFC03461A46049B1B7B1946104629
:102A2C00FFF7FCFC059B1B681846FFF7EFFC034601
:102A3C001846FFF713FD089B012283F82D20002375
:102A4C000793079B18460BB05DF804FB988D0000AC
:102A5C0014540020E88D000000B585B00190019B56
:102A6C001B791A46342302FB03F3204A13440393C5
:102A7C00039B93F82D30002B04D11D494FF49B7010
:102A8C0001F0E8FC039B1B68002B08D0019B1B6822
:102A9C001846FFF7BBFC03461846FFF7EDFC019800
:102AAC0000F050F8019B1B681846FFF703FC039BD2
:102ABC0093F8323083F00103DBB2002B0DD0019B75
:102ACC001B68D3F808351846FFF74BFE019B1B68B3
:102ADC00D3F80C351846FFF744FE039B002283F80D
:102AEC002D2000BF05B05DF804FB00BF145400207E
:102AFC00988D000000B585B00190019B1B791A469A
:102B0C00342302FB03F30D4A13440393039B93F802
:102B1C002D30012B04D00A4940F24F1001F09AFCE1
:102B2C00019B1B681846FFF71BFD039B022283F8D1
:102B3C002D2000BF05B05DF804FB00BF145400202D
:102B4C00988D000000B585B00190019B1B791A4649
:102B5C00342302FB03F3134A13440393039B93F8AC
:102B6C002D30002B04D110494FF4AD7001F072FCE4
:102B7C00019B1B680293039B00229A600B490298ED
:102B8C00FFF7E4FC4FF4BC510298FFF7C6FC029827
:102B9C00FFF7EFFC039B012283F82D2000BF05B04B
:102BAC005DF804FB14540020988D000002029C0177
:102BBC0000B583B001900091009B03F00103002B42
:102BCC0003D00198FFF752FD02E00198FFF757FD83
:102BDC00009B03F00203002B03D00198FFF758FD74
:102BEC0002E00198FFF75DFD00BF03B05DF804FB48
:102BFC0030B589B0039002910192009300230793A2
:102C0C0008238DF81B30039B002283F82E20019B98
:102C1C00DB681846FFF7ECFB034683F00103DBB2DD
:102C2C00002B03D010230793079BFDE19D490298CD
:102C3C00FFF78CFC039B93F82F30DBB2002B09D0F1
:102C4C00039B9B6819460298FFF776FC11230793A8
:102C5C00079BE9E1009B03F00403002B06D1009BCA
:102C6C0003F01003002B01D1012300E0002303F03B
:102C7C000103DAB2039B83F82F20039B019A03F123
:102C8C000C0415460FCD0FC42B682360009B1B0949
:102C9C0003F00103002B14BF01230023DAB2039BC2
:102CAC0083F83020039B009A1A62019B5B781946CB
:102CBC000298FFF78EFC4FF482710298FFF706FC26
:102CCC004FF492710298FFF701FC4FF4B071029827
:102CDC00FFF7FCFB4FF4A4710298FFF7F7FB009988
:102CEC000298FFF765FF019B1B78032B00F2DE8037
:102CFC0001A252F823F000BF372E00007F2E0000F7
:102D0C00DF2D0000152D0000009B03F01003002B9D
:102D1C0004D065494FF4D97001F09CFB009B03F083
:102D2C000803002B04D0604940F2B31001F092FB71
:102D3C00009B03F00403002B04D05B494FF4DA70C2
:102D4C0001F088FB019B1B691846FFF751FB0346FA
:102D5C0083F00103DBB2002B03D010230793079BF6
:102D6C0062E14FF480710298FFF75EFC019BD96819
:102D7C00019B5B681A460298FFF738FC4FF4A87168
:102D8C000298FFF7A3FB20210298FFF791FB082183
:102D9C000298FFF78DFB00BF4FF4A8710298FFF764
:102DAC00AAFB034683F00103DBB2002BF4D14FF4F2
:102DBC00A8710298FFF78AFB019B1969019B9B681C
:102DCC001A460298FFF712FC039B4FF480229A607C
:102DDC006FE0019BD968019B5B681A460298FFF76C
:102DEC0005FC019B1B691846FFF702FB034683F0A9
:102DFC000103DBB2002B03D010230793079B13E1D5
:102E0C00019B1969019B9B681A460298FFF7FDFB11
:102E1C004FF484510298FFF707FC039B02229A603F
:102E2C0020210298FFF744FB43E0019BD968019BEA
:102E3C005B681A460298FFF7D9FB009B03F020034E
:102E4C00002B09D04FF480710298FFF7EDFB039B28
:102E5C004FF480229A6007E04FF400710298FFF75C
:102E6C00E3FB039B02229A6020210298FFF720FBD0
:102E7C001FE0019BD968019B5B681A460298FFF71B
:102E8C00C4FB4FF480510298FFF7CEFB039B022248
:102E9C009A6000238DF81B3020210298FFF708FB65
:102EAC0007E000BF02029C01988D000007230793E6
:102EBC0000BF009B03F00803002B09D1019B1B787A
:102ECC00032B05D09DF81B3019460298FFF7F0FA3A
:102EDC00039B1B68002B1FD0009B03F00403002BEB
:102EEC0002D0039B00229A60009B03F04003002B4E
:102EFC0005D1039B9B6843F00202039B9A60039BE2
:102F0C009B6843F40072039B9A60039B9B68194671
:102F1C000298FFF711FB86E000238DF81A304FF46E
:102F2C00A4710298FFF7E7FA0346002B02D00123A5
:102F3C008DF81A304FF482710298FFF7DCFA0346D1
:102F4C00002B07D04FF482710298FFF7BFFA0123D0
:102F5C008DF81A304FF492710298FFF7CCFA0346B1
:102F6C00002B38D04FF492710298FFF7AFFA4FF460
:102F7C00B0710298FFF7BFFA03468DF8193002982A
:102F8C00FFF764FB05909DF8193083F00103DBB269
:102F9C00002B04D1059B03F40073002B0AD12021D4
:102FAC000298FFF785FA14210298FFF781FA0023A3
:102FBC008DF81A309DF81930002B0CD0059B03F4BA
:102FCC008073002B07D04FF4A4710298FFF77EFAA0
:102FDC0000238DF81A309DF81A3083F00103DBB210
:102FEC00002B9CD10298FFF7E6FA0490039B002279
:102FFC0083F82F20049B002B04D00498FFF7EAFBE6
:10300C00079010E0009B03F04003002B0BD10399B9
:10301C000298FFF7FFFB034683F00103DBB2002BA2
:10302C0001D003230793079B184609B030BD00BF9E
:10303C0000B587B0039002910192039B1B79002B82
:10304C0009D1029B5B68B3F5803F04D2029B9B685D
:10305C00B3F5803F12D3039B1B79012B09D1029B43
:10306C005B68B3F5803F04D2029B9B68B3F5803F4D
:10307C0004D31B4940F26A2001F0ECF900230593BC
:10308C00039B1B791A46342302FB03F3154A1344A2
:10309C000493049B1B68002B08D1029B1B78022B0A
:1030AC0004D10F4940F2722001F0D4F9049B1B6843
:1030BC00002B08D1029B1B78032B04D1084940F24A
:1030CC00732001F0C7F9039B1968019B029A0498BD
:1030DC00FFF78EFD0590059B184607B05DF804FBC5
:1030EC00988D00001454002000B58BB00390019211
:1030FC0000930B468DF80B3000238DF814309DF89F
:10310C000B308DF81530009B069300230793019B21
:10311C000893002309939DF83030002B01D0202216
:10312C0000E0002205AB19460398FFF781FF034628
:10313C0018460BB05DF804FB00B58BB00390019200
:10314C0000930B468DF80B3001238DF814309DF84D
:10315C000B308DF81530009B069300230793019BD1
:10316C0008930023099305AB002219460398FFF737
:10317C005FFF034618460BB05DF804FB30B58BB00F
:10318C0001900091009B1B68002B04D1A24940F2D6
:10319C00C12001F05FF94FF492710198FFF7ABF980
:1031AC000346002B3ED04FF492710198FFF78EF935
:1031BC004FF482710198FFF79EF9034683F00103E7
:1031CC00DBB2002B2ED0009B9B6819460198FFF7B1
:1031DC00BDF9009B02229A60009B9B6819460198DE
:1031EC00FFF7AAF94FF4B0710198FFF784F9034681
:1031FC0083F00103DBB2002B07D10198FFF726FA0D
:10320C00034603F40073002B07D120210198FFF72C
:10321C004FF914210198FFF74BF9009B012283F819
:10322C002E20F6E04FF482710198FFF764F9034603
:10323C00002B5DD04FF482710198FFF747F9009B8A
:10324C001B6A03F04003002B1AD1009B93F82E301D
:10325C0083F00103DBB2002B12D000990198FFF729
:10326C00D9FA0346002B14BF01230023DBB283F0F1
:10327C000103DBB203F00103DAB2009B83F82E20CA
:10328C00009B1B6A03F00403002B79D1009B04AC58
:10329C0003F10C050FCD0FC42B6823604FF4B071F4
:1032AC000198FFF713F94FF4AE710198FFF70EF97F
:1032BC00009B93F8303083F00103DBB2002B04D178
:1032CC00009B93F82E30002B5AD000210198FFF769
:1032DC00ABF9009B00229A6050490198FFF736F930
:1032EC000198FFF793F803461846FFF7D3F847E029
:1032FC004FF4A4710198FFF7E9F8009B1B7B002B9E
:10330C0022D1009B04AC03F10C050FCD0FC42B682C
:10331C002360009B93F8303083F00103DBB2002B69
:10332C002ED000210198FFF77FF9009B00229A60B4
:10333C003A490198FFF70AF90198FFF767F8034635
:10334C001846FFF7A7F81BE04FF400710198FFF740
:10335C006BF9009B40F202229A6030490198FFF70A
:10336C00F5F8009B9B6819460198FFF7E5F80821D2
:10337C000198FFF79DF820210198FFF799F848E094
:10338C000198FFF718F90990099B03F00203002B31
:10339C0003D001238DF80C301DE0099B03F00403CE
:1033AC00002B03D002238DF80C3014E0099B03F0A2
:1033BC000103002B03D003238DF80C300BE0009B92
:1033CC0093F82E30002B03D004238DF80C3002E040
:1033DC0000238DF80C30009B93F8303083F0010300
:1033EC00DBB2002B03D0009B002283F82F20009B24
:1033FC001B6A03F00403002B04D0009B93F82E30BF
:10340C00002B06D0009B1B68009A516803AA10463B
:10341C0098470BB030BD00BF988D000002029C0194
:10342C0008B503490348FFF7A9FE00BF08BD00BF5C
:10343C00145400200030004008B503494FF04020E0
:10344C00FFF79CFE00BF08BD4854002086B00390D7
:10345C000291019201238DF817309DF81730204A04
:10346C00039B13601E4A029B53601D4A019B936091
:10347C00039B44F20102934212D0039B44F20202DA
:10348C00934220D1019B164AD360154BDB681B6815
:10349C00134A9361124BDB685B68114AD36112E0EB
:1034AC00019B0F4A13610E4B1B699B680C4A5361BD
:1034BC000B4B1B691B680A4A9361094B1B695B68C0
:1034CC00074AD36100BF72B600BF00BF9DF817302A
:1034DC00DBB2002BFAD162B600BF00BF06B070475A
:1034EC007C54002000B583B002900091019244F20C
:1034FC00010071466A4600F003F803B000BD00BF3E
:10350C0030B58BB007900691059272B600BF04F0EF
:10351C0041FE04F003FC0346002BFAD1079B44F256
:10352C000102934216D0079B44F2020293423ED111
:10353C00059B09932C4A2D4BD31ADB081B0443F033
:10354C000100099B5B681A46099B1B68284904F01B
:10355C0090FB39E0059B0893234A244BD31ADB08D4
:10356C001B0443F00104089B9D68089B9B6818464C
:10357C0002F05CF903461846089B5B681946089BE9
:10358C001B68069A02920193009103462A46194938
:10359C00204604F09AFB144A144BD31ADB081B0484
:1035AC0043F001031449184604F044FB0CE00E4AA6
:1035BC000E4BD31ADB081B0443F00103069A0F4988
:1035CC00184604F045FB00BF0D4B1B6803F00103CC
:1035DC00002B00D000BE059A06990798FFF736FF1E
:1035EC0000BF0BB030BD00BF6C8A00003C8A0000ED
:1035FC00648F0000808F0000A88F0000BC8F00003B
:10360C00F0ED00E082B003468DF807309DF90730ED
:10361C00002B0CDB9DF8073003F01F0205499DF9C8
:10362C0007305B09012000FA02F241F8232000BFA9
:10363C0002B0704700E100E082B003468DF807301D
:10364C009DF90730002B13DB9DF8073003F01F02A8
:10365C0009499DF907305B09012000FA02F2203379
:10366C0041F82320BFF34F8F00BFBFF36F8F00BF14
:10367C0000BF02B0704700BF00E100E082B003461B
:10368C008DF807309DF90730002B0DDB9DF80730C6
:10369C0003F01F0206499DF907305B09012000FA6F
:1036AC0002F2403341F8232000BF02B0704700BF44
:1036BC0000E100E082B003468DF807309DF9073039
:1036CC00002B0DDB9DF8073003F01F0206499DF916
:1036DC0007305B09012000FA02F2603341F8232025
:1036EC0000BF02B0704700BF00E100E082B00346AB
:1036FC0000918DF807309DF90730002B0ADB009BF9
:10370C00DAB20C499DF907305201D2B20B4483F85E
:10371C0000230BE0009BDAB207499DF8073003F059
:10372C000F03043B5201D2B20B441A7600BF02B015
:10373C00704700BF00E100E000ED00E000B585B08F
:10374C000190019B002B0AD0074B43F0010303931C
:10375C00019B9B010293039B0298984700E000BFDA
:10376C0005B05DF804FB00BFE08F000000B583B02E
:10377C000190064A019BC2F8083506211120FFF77B
:10378C00B5FF00BF03B05DF804FB00BF00100140A3
:10379C0008B50D4B4FF48032C3F844230A4B4FF459
:1037AC008032C3F804231120FFF784FF1120FFF7A8
:1037BC0029FF054B01221A602F20FFF7BFFF034B97
:1037CC0001221A7000BF08BD00100140BA5500203C
:1037DC0008B51120FFF730FF0E4B4FF48032C3F8C1
:1037EC0048230C4B4FF48032C3F80823094B0122B9
:1037FC005A602F20FFF7A2FF064B01229A60064B5E
:10380C0000221A602F20FFF799FF044B00221A7038
:10381C0000BF08BD00100140AC550020BA55002077
:10382C00024BD3F804351846704700BF0010014016
:10383C0082B001900091019A009BD31A23F07F4330
:10384C00184602B07047000082B00190034A019BF9
:10385C00C2F8403500BF02B0704700BF00100140F5
:10386C0086B00190284B1B68002B03D1264A019B84
:10387C00136045E0019B1A68234B1B681B689A4236
:10388C0010D8214B1B681968019B1A681E4B1B68CA
:10389C008A1A1A601C4B1A68019BDA611A4A019B3E
:1038AC0013602DE0019B1B680393174B1B6805935A
:1038BC00154B1B68049309E0049B1B68039AD31AED
:1038CC000393049B0593049BDB690493049B002BDB
:1038DC0004D0049B1B68039A9A42EDD8049B002BDE
:1038EC0005D0049B1A68039BD21A049B1A60019B97
:1038FC00039A1A60019B049ADA61059B019ADA61BA
:10390C0000BF06B0704700BFA855002000B587B0B7
:10391C0001902A4B1B680393284B1B680593059B4E
:10392C00049308E0049A019B9A4208D0049B0593E7
:10393C00049BDB690493049B002BF3D100E000BFD4
:10394C00049B002B01D1002333E0059A049B9A427F
:10395C0014D11A4B1B68DB69184A1360174B1B6890
:10396C00002B0BD1164B01229A60164B00221A60C9
:10397C00154B01221A702F20FFF7E0FE049B1B68E9
:10398C000293049BDA69059BDA61059BDB6904935E
:10399C00049B002B05D0049B1A68029B1A44049BC1
:1039AC001A60064B1B68039A9A4214BF012300232A
:1039BC00DBB2184607B05DF804FB00BFA855002029
:1039CC0000100140AC550020BB55002008B511205B
:1039DC00FFF754FE00BF08BD08B51420FFF74EFEDC
:1039EC0000BF08BD00B583B00190019B5B69019AD3
:1039FC0092691046984700BF03B05DF804FB0000C5
:103A0C0000B585B02B4B1B68002B4ED000230193C7
:103A1C00FFF706FF0246284B1B6819461046FFF7B6
:103A2C0007FF0290234B1B6803931DE0039B1B684D
:103A3C00029A9A421CD3039B1B68029AD31A0293D4
:103A4C00039B1B68019A13440193039B0093039BF4
:103A5C00DB690393009B1B7C002B05D0009B002291
:103A6C001A740098FFF7BEFF039B002BDED100E019
:103A7C0000BF124B1A78124B1B789A420CD1104B88
:103A8C001B780133DAB20E4B1A700D4B1B78022BDC
:103A9C0002D10B4B00221A70094B1B781946094AAC
:103AAC00019B42F82130FFF797FF00BF05B05DF88E
:103ABC0004FB00BFA8550020AC550020B8550020D1
:103ACC00B9550020B055002082B00190184B1A78DF
:103ADC00184B1B789A4223D0154B1B780133DAB262
:103AEC00134B1A70124B1B78022B02D1104B002275
:103AFC001A700F4B1B781A460F4B53F82220019B60
:103B0C001A60019B1A680D4B1B6813440B4A136017
:103B1C000A4B1B6823F07F43084A1360012303E020
:103B2C00019B00221A600023184602B0704700BFA8
:103B3C00B8550020B9550020B0550020AC550020D8
:103B4C0088B00390029101920023079338E0204B38
:103B5C001B680693069B1B68039A9A4206D2069B27
:103B6C001A68039BD21A069B1A602EE0069B1B68F0
:103B7C00039AD31A0393069B1B68079A1344079363
:103B8C00069B00221A60124B1B680593069BDB698F
:103B9C000F4A1360069BDB68002B11D0029A079B1F
:103BAC00134423F07F42069B5A60069BDA68069BFF
:103BBC009A60019B1A68069BDA61019B059A1A6050
:103BCC00034B1B68002BC2D100BF00BF08B070476D
:103BDC00A855002000B589B0019000238DF81F3046
:103BEC00664B1B680593AAE0019B002B05D0019B3B
:103BFC000693069BDB69019361E0614B1B781A46C7
:103C0C0013465B001344DB005D4A134404330493F6
:103C1C005B4B1B780133DAB2594B1A70584B1A783C
:103C2C00574B9B789A4202D1554B00221A70049B39
:103C3C005B680693049B1B78032B1ED0032B7EDC46
:103C4C00012B1FD0022B7AD1049B5B681846FFF71F
:103C5C005DFE0346002B02D001238DF81F30069B1E
:103C6C0000221A746BE0454B1B680393039B0022E4
:103C7C001A74039BDB69414A1360404B1B68002B91
:103C8C00F1D15CE000BF069B1B7C002B00D056E002
:103C9C00049B9A68069B5A60049BDA68069B9A60A0
:103CAC00049B1A69069BDA60049B5A69069B9A610D
:103CBC00344B1B78002B02D0069B00225A60069BCB
:103CCC005A68314B1B68D31A23F07F432F4A934217
:103CDC000ED8069B5B682C4A126811461846FFF7F3
:103CEC00A7FD0246069B9B681A44069B1A6017E0C8
:103CFC00254B1A68069B5B6819461046FFF798FD22
:103D0C000290069B9B68029A9A4206D2069B9A687E
:103D1C00029BD21A069B1A6002E0069B00221A60D4
:103D2C00069B00225A60069B00229A60069B012289
:103D3C001A74069B0022DA610698FFF791FD019B2D
:103D4C00002B7FF451AF0E4B1A780D4B5B789A42D7
:103D5C007FF44AAF9DF81F30002B04D1074B1B6832
:103D6C00059A9A4201D0012300E0002303F00103DD
:103D7C00DBB2184609B05DF804FB00BFA855002063
:103D8C009C540020BB550020AC550020FEFF7F004A
:103D9C0010B588B00190274B1B68002B44D0254BE5
:103DAC001B681B680793FFF73BFD0690224B1B68B3
:103DBC00059305990698FFF73BFD034603330493DF
:103DCC001E4B1B7883F00103DBB2002B01D0FFF7F5
:103DDC00DFFC049A079B934238BF1346059A1344A1
:103DEC000593059B23F07F4305930598FFF72CFD66
:103DFC00FFF716FD039006990398FFF719FD03468C
:103E0C00DC1C06990598FFF713FD03469C420DD95F
:103E1C00FFF706FD03461846FFF716FD2F20FFF7A8
:103E2C008DFCFFF7D3FD01E0FFF7D2FC00BF08B01B
:103E3C0010BD00BFA8550020AC550020BA5500207D
:103E4C0000B587B00023019300238DF81730194B70
:103E5C001B680493184B1B6803936B461846FFF7BB
:103E6C0033FE03468DF80B309DF80B30002B08D039
:103E7C00009B01AA04991846FFF762FE01238DF8F6
:103E8C001730019B1846FFF7A5FE0346002B02D006
:103E9C0001238DF817309DF81730002B02D00398B2
:103EAC00FFF776FF054B00221A7000BF07B05DF8D4
:103EBC0004FB00BFAC550020A8550020BB550020CA
:103ECC0082B003468DF80730034A9DF807305370D3
:103EDC0000BF02B0704700BF9C54002084B001901A
:103EEC00144B5B7801338DF80F30124B9B789DF897
:103EFC000F209A4202D100238DF80F300D4B1B7806
:103F0C009DF80F209A4201D100230FE0019B9DF8F0
:103F1C000F201A70074B5B781A4613465B0013444C
:103F2C00DB00044A134404330293029B184604B08A
:103F3C00704700BF9C54002000B589B003900291DB
:103F4C000192009300230793002000F061F90DF11A
:103F5C0017031846FFF7C2FF0690069B002B02D1F1
:103F6C000423079318E0069B01221A70069B039A00
:103F7C005A60FFF755FC0246069B9A60069B029A14
:103F8C00DA60069B019A1A61069B009A5A619DF8A9
:103F9C0017301846FFF794FF002000F04DF9079BEF
:103FAC00002B01D1FFF718FD079B184609B05DF8EF
:103FBC0004FB00B587B001900B468DF8033000234D
:103FCC000593002000F024F90DF10F031846FFF7BC
:103FDC0085FF0490049B002B02D1042305930BE076
:103FEC00049B9DF803201A70049B019A5A609DF85B
:103FFC000F301846FFF764FF002000F01DF9059BF9
:10400C00002B01D1FFF7E8FC059B184607B05DF8C3
:10401C0004FB000008B50E4B0022C3F840210C4BEA
:10402C000022C3F844210A4B0022C3F84821084B54
:10403C000022C3F84C21064B0022C3F80021044B8C
:10404C000022C3F80421FFF7DBFC00BF08BD00BF52
:10405C000010014008B5FFF7F3FE00BF08BD0000DB
:10406C0008B5FFF7B5FB134B00221A70114B002259
:10407C005A70104B0B229A700F4B00221A600F4B88
:10408C0000221A700E4B00221A701420FFF712FB3C
:10409C0006211420FFF72AFB1420FFF7B3FA0020A7
:1040AC00FFF764FBFFF7BCFB0346064A13600023D3
:1040BC00184608BD9C540020A8550020B855002077
:1040CC00B9550020AC55002086B003900B460192E8
:1040DC008DF80B30134B9B78002B01D108231EE07D
:1040EC00019B002B01D1072319E0039B002B01D16D
:1040FC00072314E0039B1B681B7C002B01D00823B7
:10410C000DE0039B1B680593059B00221A74059B0D
:10411C009DF80B205A74059B019A5A61002318468E
:10412C0006B070479C54002000B587B003900291F4
:10413C000192039B0593164B9B78002B01D108230E
:10414C0022E0039B002B01D108231DE0029B042BD2
:10415C0003D9029BB3F1807F01D3072314E0059BA5
:10416C005B69002B01D108230EE0059B5B7C012BC6
:10417C0001D1029B00E000230493019B049A029955
:10418C000598FFF7D9FE0346184607B05DF804FB07
:10419C009C54002000B585B00190019B03930D4BFE
:1041AC009B78002B01D1082310E0019B002B03D03E
:1041BC00039B5B69002B01D1082307E0039B0022C2
:1041CC001A7402210398FFF7F4FE0346184605B053
:1041DC005DF804FB9C54002072B600BF034B1B68B7
:1041EC000133024A136000BF704700BFBC5500206A
:1041FC00064B1B68013B054A1360044B1B68002BE4
:10420C0001D162B600BF00BF704700BFBC55002093
:10421C0000B583B0019000F025F80346012B03D0C4
:10422C000449432000F016F9FFF7D6FF00BF03B096
:10423C005DF804FBE88F000000B583B003468DF8F1
:10424C00073000F00FF80346012B03D0044951202E
:10425C0000F000F9FFF7CCFF00BF03B05DF804FBE2
:10426C00E88F000084B0EFF305830193019BC3F347
:10427C0008030393039B002B0DD1EFF314830093DE
:10428C00009B0293029B03F00103002B0CBF012344
:10429C000023DBB200E00123184604B07047000095
:1042AC0082B0052301930BE0094A019B52F823309D
:1042BC00002B01D0019B07E000BF019B013B019348
:1042CC00019B002BF0DA0623184602B0704700BFA2
:1042DC00C05500200E4B1B68022B15D10C4B5B6894
:1042EC00032B11D10A4B9B68052B0DD1084BDB68B6
:1042FC00092B09D1064B1B69052B05D1044B5B69B6
:10430C00092B01D1012300E000231846704700BFA0
:10431C001800002000B583B0FFF7DCFF0346002B2C
:10432C0005D0062200212C4804F024FB50E02B4B36
:10433C0001225A61FFF7B4FF019046E0264A019B27
:10434C0052F823305A1C2449019B41F82320234A5C
:10435C00019B002142F823101F4B5B690A2B06D1ED
:10436C001D4B00225A611D4B01221A612AE01A4B87
:10437C001B69062B06D1184B00221A61174B012220
:10438C00DA601FE0144BDB680A2B06D1124B0022BB
:10439C00DA60124B01229A6014E00F4B9B68062BDB
:1043AC0006D10D4B00229A600C4B01225A6009E099
:1043BC00094B5B680A2B05D1074B00225A60074B4F
:1043CC0001221A60FFF76CFF0190019B062BB5D1FF
:1043DC0000BF03B05DF804FB18000020C05500209E
:1043EC00194B9B6A194A9360174B9B6A174A536186
:1043FC00174B1B68144A52F82330144A1360144BA1
:10440C005B68114A52F82330104A5360104B9B687A
:10441C000D4A52F823300D4AD3600D4BDB680A4A23
:10442C0052F82330094A1361094B1B69064A52F8AA
:10443C002330064A9361064B5B69034A52F82330DA
:10444C00024AD36100BF704730000020D8550020CD
:10445C001800002000B585B003460091ADF8063079
:10446C00BDF806300293009B039302AB1A46002161
:10447C0044F20200FFF744F800BF05B05DF804FBFE
:10448C0010B487B001900091019B009A53E8004F43
:10449C00104643E8000191F0000FF7D10594049009
:1044AC000391059B184607B05DF8044B704710B498
:1044BC0087B001900091019B009A53E8004F44EAA9
:1044CC00020043E8000191F0000FF6D1059404902E
:1044DC000391049B184607B05DF8044B704710B469
:1044EC0087B001900091019B009A53E8004F04EAB9
:1044FC00020043E8000191F0000FF6D105940490FE
:10450C000391059B184607B05DF8044B704710B437
:10451C0087B001900091019B009A53E8004F04EB87
:10452C00020043E8000191F0000FF6D105940490CD
:10453C000391049B184607B05DF8044B704710B408
:10454C0087B001900091019B009A53E8004FA4EBB7
:10455C00020043E8000191F0000FF6D1059404909D
:10456C000391049B184607B05DF8044B704700B5E7
:10457C0083B0019001210198FFF799FF034618467B
:10458C0003B05DF804FB00B583B0019000210198E5
:10459C00FFF7A5FF0346184603B05DF804FB0000C7
:1045AC0000B583B001900B468DF80330019B002BB6
:1045BC0003D10849E820FFF74DFF019BDA689DF80D
:1045CC0003300199098A01FB03F31344184603B025
:1045DC005DF804FB9495000000B583B00190009148
:1045EC00019B002B03D10849F520FFF733FF009BFB
:1045FC00019AD2689B1A019A128AB3FBF2F3DBB2CE
:10460C00184603B05DF804FB9495000000B585B026
:10461C000190019B002B01D10E234CE0019B1B68E8
:10462C00002B03D12649FF20FFF714FF019B5B6889
:10463C00002B04D122494FF48070FFF70BFF019B34
:10464C009B68002B04D11E4940F20110FFF702FFBA
:10465C00019BDB68002B04D119494FF48170FFF7E3
:10466C00F9FE019B1B8A002B04D1154940F2031063
:10467C00FFF7F0FE019B9A68019B5B68D31A8DF8DB
:10468C000F30019B1B68019A52681A6007E0019B6E
:10469C001A681368591C11609DF80F201A709DF848
:1046AC000F305A1E8DF80F20002BF0D1019B1B6888
:1046BC0000221A710023184605B05DF804FB00BFF8
:1046CC009495000000B585B00190019B002B04D19E
:1046DC001C494FF49270FFF7BDFE0023039300209A
:1046EC00FFF796FD019B1B681A68019B5B689A4259
:1046FC001FD9019B1B681A68013A1A601B681B784A
:10470C0019460198FFF74CFF0390019B9A68019B97
:10471C001B681B68D31A8DF80B30019B1B681B7927
:10472C009DF80B209A4204D9019B1B689DF80B2025
:10473C001A710020FFF780FD039B184605B05DF849
:10474C0004FB00BF9495000010B584B0019000915B
:10475C00019B002B04D1114940F24710FFF77AFE60
:10476C00009B002B04D10D494FF4A470FFF772FE8F
:10477C00009B03930020FFF74BFD019B1B681C68FB
:10478C00621C1A6003990198FFF726FF03462370F9
:10479C000020FFF751FD00BF04B010BD9495000040
:1047AC00044BD3F80034002B14BF01230023DBB2DD
:1047BC00184670470000014000B583B000230193F8
:1047CC00144B1B78002B02D08523019314E0114B62
:1047DC0000229A600F4B00225A600E4B00221A6185
:1047EC000C4B0022DA600C4801F0E0FC019001F067
:1047FC0003FD084B01221A70FFF7D2FF0346002B72
:10480C0002D0044B01229A70019B184603B05DF84C
:10481C0004FB00BFF85500206949000084B00190EA
:10482C000091019B1B68039306E0039A009B9A423C
:10483C000DD0039B1B680393039B002BF5D1019BAD
:10484C001A68009B1A60019B009A1A6000E000BF76
:10485C0004B0704784B00190019B1B680393039BC9
:10486C00002B03D0039B1A68019B1A60039B18460C
:10487C0004B0704700B583B00190224B1B78002B1D
:10488C0003D12149F620FFF7E5FD1E4B9B78DBB2E7
:10489C00002B12D0019B002B03D0019B5B680120E5
:1048AC0098470020FFF7B4FC164BDB680133154A20
:1048BC00D3600020FFF7C0FC17E00020FFF7A8FC36
:1048CC00019B002B03D001991048FFF7A7FF0D4B5C
:1048DC00DB68002B01D101F0A3FC0A4BDB68013330
:1048EC00084AD3600020FFF7A7FC064BDB68002BBF
:1048FC0004D105494FF48970FFF7ACFD00BF03B03C
:10490C005DF804FBF8550020F095000008560020D7
:10491C0000B585B003468DF807309DF80730002BA5
:10492C0002D10C4B039301E00B4B03930398FFF75D
:10493C0091FF0290029B002B06D0029B5B689DF8B6
:10494C00072010469847F1E700BF00BF05B05DF89F
:10495C0004FB00BF005600200856002000B583B0B1
:10496C0003468DF807309DF80730002B05D10A4B14
:10497C0001225A700020FFF7CBFF9DF80730012B66
:10498C0005D1054B01229A700120FFF7C1FF00BF32
:10499C0003B05DF804FB00BFF855002000B583B0F0
:1049AC000190019B002B03D10C493120FFF752FDE4
:1049BC00019B9B68002B0CD0019B5B69019A1069D1
:1049CC00019A1168019A92689847019B00229A609B
:1049DC0000E000BF03B05DF804FB00BF449600008C
:1049EC000EB400B584B00190019B002B03D1184983
:1049FC004220FFF72FFD019B5B69002B03D114496B
:104A0C004320FFF727FD019B1B68002B03D11049A6
:104A1C004420FFF71FFD019B5B68002B03D10C4961
:104A2C004520FFF717FD059B002B0AD000230393AD
:104A3C0006AB039303AB1A460599019800F0B0F945
:104A4C0000E000BF04B05DF804EB03B0704700BF9A
:104A5C004496000000B583B001900B468DF80330EE
:104A6C00019B1A68019B9B68581C01998860134430
:104A7C009DF803201A70019B9A68019B5B689A420F
:104A8C0002D30198FFF78AFF00BF03B05DF804FB67
:104A9C0000B587B003900291019200930023059317
:104AAC00009B03F00103002B24D00BE0029B01338D
:104ABC000293059B013305939DF813301946039817
:104ACC00FFF7C8FF029B1B788DF813309DF813304D
:104ADC00002BEBD106E0019B013B019320210398B5
:104AEC00FFF7B8FF019A059B9A422ED9019B002B28
:104AFC00F1D12AE0029B002B0BD0029803F0D4FEDC
:104B0C00059006E0019B013B019320210398FFF7E0
:104B1C00A1FF019A059B9A420FD9019B002BF1D161
:104B2C000BE0029B01330293059B013305939DF827
:104B3C00133019460398FFF78DFF029B1B788DF8F5
:104B4C0013309DF81330002BEBD100BF07B05DF88C
:104B5C0004FB000000B589B0039002910192009310
:104B6C00029B07930123069307E0079A019BB2FB74
:104B7C00F3F30793069B01330693079A019B9A4222
:104B8C00F3D2009A069B9A4201D9009B06930B9B89
:104B9C0003F00103002B22D10A9B002B1FD00B9B8F
:104BAC0003F00203002B06D0009B002B03D1302313
:104BBC008DF8173002E020238DF8173008E00A9B9F
:104BCC00013B0A939DF8173019460398FFF742FFF3
:104BDC000A9B002B03D0069A0A9B9A42EFD301231F
:104BEC000793009B012B03D9009B013B009309E029
:104BFC00029A079BB2FBF3F30493049A019B9A422B
:104C0C0000D205E0079B019A02FB03F30793E8E748
:104C1C00029A079BB2FBF3F30493049B079A02FBE3
:104C2C0003F3029AD31A0293154A049B13441B787C
:104C3C0019460398FFF70EFF079A019BB2FBF3F39B
:104C4C000793079B002BE3D10B9B03F00103002B75
:104C5C0011D00A9B002B0ED006E00A9B013B0A9355
:104C6C0020210398FFF7F6FE0A9B002B03D0069A2F
:104C7C000A9B9A42F1D300BF09B05DF804FB00BF58
:104C8C00E496000000B589B005900491039202935C
:104C9C00049B002BB8BF5B4206930123079307E0EC
:104CAC00039B069A92FBF3F30693079B013307933E
:104CBC00039B069A9A42F3DA029A079B9A4201D90D
:104CCC00029B07930A9B002B0AD0049B002B04DB4E
:104CDC000B9B03F00403002B02D00A9B013B0A93AD
:104CEC000B9B03F00203002B02D0029B002B16D06F
:104CFC000B9B03F00103002B11D10A9B002B0ED050
:104D0C0006E00A9B013B0A9320210598FFF7A2FEBF
:104D1C000A9B002B03D0079A0A9B9A42F1D3049B5F
:104D2C00002B07DA049B5B4204932D210598FFF7B7
:104D3C0091FE08E00B9B03F00403002B03D02B2106
:104D4C000598FFF787FE0B9B03F00203002B19D08D
:104D5C000B9B03F00103002B14D1029B002B11D1F0
:104D6C000A9B002B0ED006E00A9B013B0A933021D4
:104D7C000598FFF76FFE0A9B002B03D0079A0A9B3E
:104D8C009A42F1D304990B9B01930A9B0093029BCB
:104D9C00039A0598FFF7DEFE00BF09B05DF804FB2F
:104DAC0000B58FB0059004910392059B002B04D1A4
:104DBC00AD4940F25220FFF74DFB059B5B69002B80
:104DCC0004D1A9494FF41570FFF744FB059B1B68F0
:104DDC00002B04D1A44940F25520FFF73BFB059B67
:104DEC005B68002B04D1A04940F25620FFF732FB40
:104DFC00049B002B00F09381049B1B788DF83730BB
:104E0C00049B013304939DF83730002B00F07E8116
:104E1C009DF83730252B40F06D8100230A93012338
:104E2C000C93049B1B788DF837309DF83730302B62
:104E3C000DD0302B1BDC2B2B11D02D2B17D10A9B1B
:104E4C0043F001030A93049B0133049312E00A9B81
:104E5C0043F002030A93049B013304930AE00A9B78
:104E6C0043F004030A93049B0133049302E00023F0
:104E7C000C9300BF0C9B002BD3D1002309939DF8FE
:104E8C0037302A2B0CD1039B1B68191D039A116018
:104E9C001B68099A13440993049B013304931AE089
:104EAC00049B1B788DF837309DF837302F2B12D997
:104EBC009DF83730392B0ED8049B01330493099A93
:104ECC0013469B0013445B001A469DF8373013447D
:104EDC00303B0993D3E700230B93049B1B788DF88D
:104EEC0037309DF837302E2B1DD1049B01330493A2
:104EFC00049B1B788DF837309DF837302F2B12D947
:104F0C009DF83730392B0ED8049B013304930B9A40
:104F1C0013469B0013445B001A469DF8373013442C
:104F2C00303B0B93E4E7049B1B788DF837309DF8EE
:104F3C0037306C2B03D09DF83730682B07D1049B8E
:104F4C0001330493049B1B788DF83730EFE79DF801
:104F5C003730252B00F0C480252BC0F2C680782B6F
:104F6C0000F3C380582BC0F2C080583B202B00F2BA
:104F7C00BC8001A252F823F079500000F7500000D9
:104F8C00F7500000F7500000F7500000F7500000F9
:104F9C00F7500000F7500000F7500000F7500000E9
:104FAC00F7500000095000002B500000F750000093
:104FBC00F7500000F7500000F75000002B50000095
:104FCC00F7500000F7500000F7500000F7500000B9
:104FDC00F7500000F7500000B9500000F7500000E7
:104FEC00F75000009D500000F75000004F5000009B
:104FFC00F7500000F750000079500000039B1B682D
:10500C00191D039A11601B680C930C9B8DF81F30B3
:10501C009DF81F3019460598FFF71CFD66E0039BB1
:10502C001B68191D039A11601B680C930A9B019352
:10503C00099B00930B9B0A220C990598FFF722FE03
:10504C0054E0039B1B68191D039A11601B680C9399
:10505C000C990A9B0193099B00930B9B0A220598C0
:10506C00FFF778FD42E000BF90960000039B1B68A1
:10507C00191D039A11601B680C930C990A9B0193E0
:10508C00099B00930B9B10220598FFF763FD2DE005
:10509C00039B1B68191D039A11601B6808930A9BDC
:1050AC00099A08990598FFF7F3FC1FE0039B1B680E
:1050BC00191D039A11601B680C9330210598FFF79A
:1050CC00C9FC78210598FFF7C5FC0C9900230193C6
:1050DC0008230093082310220598FFF73BFD05E0F9
:1050EC0025210598FFF7B6FC00E000BF049B0133B7
:1050FC00049305E09DF8373019460598FFF7AAFC94
:10510C00049B1B78002B7FF477AE00E000BF059B5F
:10511C001B7B002B04D00598FFF740FC00E000BF80
:10512C000FB05DF804FB00BF00B583B0019001988F
:10513C00FFF76CFA0346184603B05DF804FB00B5A4
:10514C008BB001900091019B1B8A043B0793009A42
:10515C00079B1344DA1C079BB2FBF3F38DF81B304F
:10516C000198FFF7AFFA0590059B002B01D10023A6
:10517C0038E0059B00221A71059B01225A71079B8E
:10518C009AB2059BDA80059B09939DF81B30013B75
:10519C000493099B019A1A60002308931DE001985F
:1051AC00FFF790FA0390039B002B0ED0059B5B79C5
:1051BC000133DAB2059B5A71099B039A1A60039B5F
:1051CC00019A1A60039B099304E0059800F00EF80D
:1051DC00002307E0089B01330893089A049B9A422A
:1051EC00DDD3059B18460BB05DF804FB00B58BB006
:1051FC000190019B0793079B5B798DF81B30019BFA
:10520C0008939DF81B30013B05930023099305E09F
:10521C00089B1B680893099B01330993099A059B0A
:10522C009A42F5D3089B1B680493019B08930023B7
:10523C0009930BE0089B1B68039308990498FFF7EC
:10524C0083FA039B0893099B013309939DF81B3048
:10525C00099A9A42EED300BF00BF0BB05DF804FB75
:10526C0000B585B00190019B0393039B043301218E
:10527C001846FFF74CF900BF05B05DF804FB00B50C
:10528C0087B00190019B0593059B043301211846BF
:10529C00FFF755F90346039303AB0493049B1B7868
:1052AC00002B02D10198FFF7A1FF00BF07B05DF8FA
:1052BC0004FB000000B591B00390029101920093A1
:1052CC00039B002B03D14349B620FFF7C3F8039B84
:1052DC000993039B0F93099BDB881A46099B5B7907
:1052EC0002FB03F3043B0893009A089B9A4203D3F6
:1052FC003849C420FFF7AEF8099BDB880793009B65
:10530C001A1D079BB2FBF3F30E93009B0433079A11
:10531C00B3FBF2F2079901FB02F29B1A0D93019B6E
:10532C001A68009B1344089A9A4203D2089A009B6D
:10533C00D31A01E0019B1B680C93019B0C9A1A6019
:10534C0005E00F9B1B680F930E9B013B0E930E9B6E
:10535C00002BF6D100230B93079A0D9BD31A0A93BB
:10536C000A9A0C9B934228BF13460A932AE0029A8E
:10537C000B9B134406930F9A0D9B13440433059314
:10538C009DF84830002B05D00A9A0599069803F031
:10539C00BBFA04E00A9A0699059803F0B5FA0023C3
:1053AC000D930F9B1B680F930C9A0A9BD31A0C93AB
:1053BC000B9A0A9B13440B93079A0C9B934228BF9E
:1053CC0013460A930C9B002BD1D100BF00BF11B028
:1053DC005DF804FBF496000000B589B005900491CB
:1053EC0003920293039B079307AA00230093029B4B
:1053FC0004990598FFF75EFF079B039A9A4203D026
:10540C000349F620FFF726F800BF09B05DF804FB4E
:10541C00F496000000B589B00590049103920293B4
:10542C00039B079307AA01230093029B04990598F9
:10543C00FFF740FF079B039A9A4204D004494FF4AC
:10544C008070FFF707F800BF09B05DF804FB00BFE0
:10545C00F496000082B00190019B9B68024A12787E
:10546C001344184602B070479A97000000B583B0F9
:10547C0001900091019B002B03D108498320FEF77A
:10548C00E9FF019B9B68009A9A4202D2009B013370
:10549C0000E00023184603B05DF804FB48970000B9
:1054AC0000B585B00190019B1B681B680393019BA1
:1054BC001B685B680293029A039B9A4203D3029A7D
:1054CC00039BD31A07E00198FFF7C4FF0246039B26
:1054DC00D21A029B1344184605B05DF804FB000079
:1054EC0000B585B00190019B002B03D10D4998208C
:1054FC00FEF7B0FF019B1B681B680393019B1B68A5
:10550C005B68029302990198FFF7B0FF0246039B78
:10551C0093420CBF01230023DBB2184605B05DF8A3
:10552C0004FB00BF4897000010B586B001900091B5
:10553C0000230593019B002B03D15249A320FEF7B6
:10554C0089FF009B002B03D14E49A420FEF782FF5C
:10555C000020FEF75DFE0198FFF7C2FF03468DF8B1
:10556C0013309DF8133083F00103DBB2002B03D111
:10557C00019B1B7C002B7AD1019B1B685B680393FE
:10558C00019B1B685A68019B1C6811460198FFF728
:10559C006DFF034663609DF81330002B0AD0019B0E
:1055AC001B681A68019B1C6811460198FFF75EFF87
:1055BC0003462360019BDB68013B072B37D801A214
:1055CC0052F823F0F1550000015600003B56000044
:1055DC00135600003B5600003B5600003B560000A3
:1055EC0025560000019B5A68039B1344009A1278BD
:1055FC001A702DE0019B5A68039B5B001344009AC0
:10560C0012881A8024E0019B5A68039B9B00134468
:10561C00009A12681A601BE0019B5A68039BDB001E
:10562C00D118009BD3E90023C1E9002310E0019BB2
:10563C005B681946019BDB68039A02FB03F30B447E
:10564C001846019BDB681A46009903F05DF900BF10
:10565C000198FFF725FF0290019B1B689B68029A3B
:10566C009A4207D9019B1B68029A9A6002E00423B4
:10567C00059300E000BF0020FEF7DEFD059B1846F9
:10568C0006B010BD4897000010B586B0039002918B
:10569C0013468DF8073000230593039B002B03D191
:1056AC004249E720FEF7D6FE029B002B03D13F496F
:1056BC00E820FEF7CFFE0020FEF7AAFD039800F0CD
:1056CC0077F8034683F00103DBB2002B64D0039B15
:1056DC001B681B6804939DF8073083F00103DBB251
:1056EC00002B0AD0039B1B681A68039B1C6811468D
:1056FC000398FFF7BBFE03462360039BDB68013B6B
:10570C00072B38D801A252F823F000BF39570000FC
:10571C0049570000835700005B5700008357000077
:10572C0083570000835700006D570000039B5A6895
:10573C00049B13441A78029B1A702FE0039B5A683F
:10574C00049B5B0013441A88029B1A8026E0039B7F
:10575C005A68049B9B0013441A68029B1A601DE054
:10576C00039B5A68049BDB001344D3E90023029982
:10577C00C1E9002312E0039B5B681946039BDB68BD
:10578C00049A02FB03F30B441946039BDB681A468D
:10579C00029803F0B9F801E0052305930020FEF709
:1057AC004BFD059B184606B010BD00BF4897000086
:1057BC0000B585B00190019B002B04D10B4940F240
:1057CC002B20FEF747FE019B1B681B680393019B74
:1057DC001B685B680293039A029B9A420CBF0123DD
:1057EC000023DBB2184605B05DF804FB48970000B7
:1057FC0082B00190019B9B6800229A60019B9B6880
:10580C0000221A61019B9B6800225A61019B9B68D4
:10581C000022DA60019B9B6800225A60019B9B6806
:10582C0000221A6000BF02B07047000000B585B0BE
:10583C000190019800F00EF80390039B002B01D00F
:10584C00039B00E0024B184605B05DF804FB00BF5B
:10585C009C97000086B00190164B0593164B049351
:10586C001FE0049A059BD31ADB10DA0F13445B106C
:10587C00DB00059A13440393039B1B680293029A63
:10588C00019B9A4202D9039B04930AE0029A019B62
:10589C009A4203D2039B0833059302E0039B5B6897
:1058AC0004E0059A049B9A42DBD30023184606B009
:1058BC00704700BF709B0000889C000000B583B04F
:1058CC000190019B04331846FDF7C6F800BF03B0E6
:1058DC005DF804FB00B583B00190019B04331846BE
:1058EC00FDF708F900BF03B05DF804FB00B591B0FB
:1058FC0003900291019200230F93029B1B788DF869
:10590C002830029B5B788DF82930029B9B780B9397
:10591C00029BDB780C93029B5B680D93029B9B684C
:10592C000E93039B04330AA9019A1846FDF780FBDA
:10593C000F900F9B184611B05DF804FB82B00190DC
:10594C00019B1B681B68002B0CBF01230023DBB2DF
:10595C00184602B07047000000B58DB00190019B55
:10596C00002B03D147493720FEF774FD019B1B68C0
:10597C000A930A9B1B7E8DF827300A9B1B689A683A
:10598C009DF82730DB0013440893089B5B795B0878
:10599C008DF81F309DF81F308DF80D30089B1B685B
:1059AC000493089B1B798DF80E30089B9B7903F0B0
:1059BC000103002B47D0089B5B7903F00103002BFC
:1059CC0041D19DF8273001330A9A1268127B934219
:1059DC0039DA089B5B795B08DAB20A9B1B68996819
:1059EC009DF827300133DB000B445B795B08DBB29D
:1059FC009A4228D10A9B1B689A689DF8273001337C
:105A0C00DB0013440693069B1B680593069B1B79CE
:105A1C008DF80F30069B5B7903F00103002B01D04E
:105A2C00022300E003238DF80C30069B9B795B016D
:105A3C0003F020030B930A9B1B7EDBB20133DAB21B
:105A4C000A9B1A7611E0089B5B7903F00103DBB229
:105A5C008DF80C300023059300238DF80F30089B34
:105A6C009B795B0103F020030B93019B083303A983
:105A7C000B9A1846FFF73AFF034618460DB05DF82F
:105A8C0004FB00BF889C000000B585B0019000911C
:105A9C00019B002B03D10D497120FEF7DBFC019B10
:105AAC001B681B681B68002B0BD0019B1B681B68B9
:105ABC005B680393019B1B681B681B680399009828
:105ACC00984700BF05B05DF804FB00BF889C000040
