:1000000000000420190200000102000003020000A9
:1000100005020000070200000902000000000000C5
:100020000000000000000000000000000B020000C3
:100030000D020000000000000F020000110200008D
:10004000DD180100130200008D330000D9450000C7
:10005000F1450000130200002125010013020000F9
:10006000130200001302000013020000130200003C
:10007000130200001302000013020000130200002C
:1000800013020000E15300001302000013020000FD
:1000900021540000130200009D0A01001302000019
:1000A00013020000130200001302000013020000FC
:1000B0001302000013020000000000000000000016
:1000C00013020000130200001302000013020000DC
:1000D00013020000130200001302000013020000CC
:1000E00013020000130200001302000000000000D1
:1000F00000000000130200000000000013020000D6
:1001000000000000000000000000000000000000EF
:1001100000000000000000000000000000000000DF
:1001200000000000000000000000000000000000CF
:1001300000000000000000000000000000000000BF
:1001400000000000000000000000000000000000AF
:10015000000000000000000000000000000000009F
:10016000000000000000000000000000000000008F
:10017000000000000000000000000000000000007F
:10018000000000000000000000000000000000006F
:10019000000000000000000000000000000000005F
:1001A000000000000000000000000000000000004F
:1001B000000000000000000000000000000000003F
:1001C000000000000000000000000000000000002F
:1001D000000000000000000000000000000000001F
:1001E000000000000000000000000000000000000F
:1001F00000000000000000000000000000000000FF
:10020000FEE7FEE7FEE7FEE7FEE7FEE7FEE7FEE7C6
:10021000FEE7FEE700F002B8FFF7FCBF0F484FF023
:100220000701884385460E4880470E48016841F41F
:1002300070010160BFF34F8FBFF36F8F00F01AB8EA
:1002400009480A490A4A884207D0521A05D0037859
:1002500001300B700131013AF9D1704700000420E0
:10026000312E000088ED00E0B88B01000000002076
:1002700014000020344935480A1A02D0072291435D
:100280008D46334933480A1A06D00722914381F339
:100290000988022282F314882F483049304A00F03E
:1002A00041F830483049314A00F03CF83048314993
:1002B000314A00F037F831483149324A00F032F81B
:1002C00031483249324A00F02DF832483249334A37
:1002D00000F028F832483349334A00F023F8334815
:1002E0003349002200F029F832483349002200F057
:1002F00024F832483249091A18F06AFB314A90470B
:100300001F482049884205D00268043003B4904752
:1003100003BCF7E700208646EC46002000212A4A6D
:100320009047FEE7884207D0521A05D00378013083
:100330000B700131013AF9D17047884202D0027046
:100340000130FAE7704700000000042000E00320BD
:100350000000042000000420F4CF0100140000205D
:1003600000080020CC030000CC030000E489010059
:10037000F4CF01001400002014000020F48B0100D1
:10038000F48B0100F48B0100F48B0100F48B01006D
:10039000F48B0100F48B0100F48B0100F1CF01001C
:1003A000E0D701000008002000080020000800201D
:1003B000347400203474002034740020347400201D
:0C03C00034940020410200006924000079
:1003CC0076DF704700BF18467ADF704700BF1846CB
:1003DC007CDF704700BF18468FDF704700BF1846A0
:1003EC0033DF704700BF184600B585B00190019B04
:1003FC00002B0AD0074B43F001030393019B9B0195
:10040C000293039B0298984700E000BF05B05DF88B
:10041C0004FB00BFF090010000B583B00190019B7C
:10042C001B68184600F06DF80346002B04D10B49ED
:10043C004FF4F67000F0EAF8019B1B681F2B02D8F2
:10044C004FF0A04306E0019B1B6803F01F02019BC9
:10045C001A60034B184603B05DF804FBF48B0100E3
:10046C000003005000B585B00190084611461A46AD
:10047C0003468DF803300B468DF8023013468DF889
:10048C00013001AB1846FFF7C7FF03909DF803201E
:10049C009DF802305B001A439DF801309B001A4313
:1004AC009DF818301B0242EA03019DF81C301B0416
:1004BC00019A1943039B02F5E07243F8221000BF26
:1004CC0005B05DF804FB00B585B0019001AB184692
:1004DC00FFF7A2FF0390019B012202FA03F31946D6
:1004EC00039800F004F800BF05B05DF804FB82B07F
:1004FC0001900091019B009AC3F8082500BF02B03F
:10050C00704784B00190019B5B0902930023039315
:10051C00029B002B03D0029B012B04D007E04FF071
:10052C00FF33039303E04FF6FF73039300BF019B6C
:10053C0003F01F030193039A019B22FA03F303F0C8
:10054C000103002B14BF01230023DBB2184604B0B7
:10055C00704700B583B00190019B0433184603F03B
:10056C009FFB00BF03B05DF804FB00B589B005909C
:10057C0003921A460B468DF8133013468DF8123041
:10058C0000230793059B181D9DF812209DF813104E
:10059C009DF8283000931346039A03F07BFE0790D6
:1005AC00079B184609B05DF804FB00B587B00390B3
:1005BC0001921A460B468DF80B3013468DF80A3013
:1005CC0000230593039B181D9DF80A309DF80B1012
:1005DC00019A03F087FE0590059B184607B05DF85D
:1005EC0004FB00B583B00190019B002B0AD04FF4A3
:1005FC007A70FFF7F9FE019B013B0193019B002BE5
:10060C00F5D100E000BF03B05DF804FB00B583B08A
:10061C0003460091ADF80630BDF80630009A194635
:10062C00034804F035F800BF03B05DF804FB00BFCD
:10063C00EFBEADDE00B585B001900091009B1B684C
:10064C00082B28BF082302934FF6FF7014F02CF8E8
:10065C000346ADF80E30009B00221A6012E0009B9E
:10066C001B68591C009A11605B00019A1344BDF879
:10067C000E201A80BDF80E30184614F015F80346FB
:10068C00ADF80E30BDF80E304FF6FF72934204D029
:10069C00029B5A1E0292002BE1D100BF05B05DF8FF
:1006AC0004FB000000B583B00D4A0E4BD31ADB08D7
:1006BC001B0443F003030C49184617F0DBF914F044
:1006CC0039F80190019B0093009B002B04D0074A42
:1006DC006721009803F0DCFF00BF03B05DF804FB5A
:1006EC00AC8A01007C8A0100DC8C0100EC8C0100DE
:1006FC0000B587B003468DF807309DF80730002B06
:10070C0002D0FFF7CFFF40E010224FF6FF712148D7
:10071C0018F004F9204B08221A601F491D48FFF7F6
:10072C0089FF1D4B1B6819461A4813F041FF0590B1
:10073C00059B0493049B002B04D0184A7E2104983B
:10074C0003F0A6FF144B1B681946124813F078FFF0
:10075C000590059B062B09D0059B0393039B002B4F
:10076C0004D00E4A8521039803F092FF03210C4814
:10077C0006F0FCF80590059B0293029B002B04D01D
:10078C00064A8921029803F083FF00BF07B05DF889
:10079C0004FB00BFF461002004620020EC8C01001B
:1007AC00305C002000B587B00190019814F07EFAFF
:1007BC00019814F01DFE019814F0DCFA019B1B78D3
:1007CC000D2B1CD00D2B5DDC032B02D0092B1AD06A
:1007DC0058E0019B9A88304B1A80019B5B88194624
:1007EC002E4808F02DFA0590059B0293029B002BD6
:1007FC004AD02B4AA221029803F04AFF44E0002081
:10080C00FFF776FF43E0019B1B7C03F00103DBB297
:10081C00002B3BD0019B1B7A072B37D1214B1B683C
:10082C00072B33D81F4B1B685A1C1E490A601A4AE7
:10083C0011881D4A22F813101A4B1B6819461A48C6
:10084C0013F0FEFE0590059B062B09D0059B049327
:10085C00049B002B04D0124ABE21049803F018FF0D
:10086C00104B1B681946104813F0A2FE0590059B0F
:10087C000393039B002B09D0094AC221039803F070
:10088C0007FF03E000BF02E000BF00E000BF00BFB5
:10089C0007B05DF804FB00BFF06100206800002089
:1008AC00EC8C010004620020F461002000B583B0E0
:1008BC000190044AD321019803F0EAFE00BF03B073
:1008CC005DF804FBEC8C010000B583B00190804A0C
:1008DC00804BD31ADB081B0443F003037E491846F4
:1008EC0017F0C8F87A4A7B4BD31ADB081B0443F089
:1008FC0003037A49184617F0BDF8754A754BD31A9D
:10090C00DB081B0443F00300019B1B7B1A46744B52
:10091C0053F822301A46734917F0BAF8019BDB7969
:10092C00002B0BD16A4A6B4BD31ADB081B0443F028
:10093C0003036D49184617F09DF80CE0644A654BAB
:10094C00D31ADB081B0443F00300019BDB791A4626
:10095C00664917F09DF85E4A5E4BD31ADB081B0400
:10096C0043F00300019B9B791A46614B53F82230EC
:10097C001A46604917F08CF8019B9B88002B0BD111
:10098C00534A544BD31ADB081B0443F003035A4954
:10099C00184617F06FF80CE04D4A4E4BD31ADB0893
:1009AC001B0443F00300019B9B881A46534917F024
:1009BC006FF8474A474BD31ADB081B0443F0030379
:1009CC004F49184617F056F8414A424BD31ADB08E8
:1009DC001B0443F00300019B1B7A1A46494917F08C
:1009EC0057F83B4A3B4BD31ADB081B0443F003007C
:1009FC00019B5B7A1A46444917F04AF8344A354B46
:100A0C00D31ADB081B0443F00300019B9B7A1A46A4
:100A1C003E4917F03DF82E4A2E4BD31ADB081B0427
:100A2C0043F00300019B9B7B1A46394917F030F8C1
:100A3C00274A284BD31ADB081B0443F00303354920
:100A4C00184617F017F8224A224BD31ADB081B045E
:100A5C0043F00300019B1B7CC3F3C003DBB21A46BB
:100A6C002D4917F015F81A4A1A4BD31ADB081B0438
:100A7C0043F00300019B1B7CC3F38003DBB21A46DB
:100A8C00264917F005F8124A124BD31ADB081B043F
:100A9C0043F00300019B1B7CC3F34003DBB21A46FB
:100AAC001F4916F0F5FF0A4A0A4BD31ADB081B0440
:100ABC0043F00300019B1B7CC3F30003DBB21A461B
:100ACC00184916F0E5FF00BF03B05DF804FB00BF4A
:100ADC00AC8A01007C8A01004C8D01005C8D010008
:100AEC0050060020648D0100788D0100908D01006E
:100AFC0070060020A48D0100B88D0100D08D01007E
:100B0C00E48D0100EC8D0100FC8D01000C8E0100C8
:100B1C001C8E01003C8E0100508E0100688E01007D
:100B2C00808E0100988E010000B583B004F078FC33
:100B3C000190019B0093009B002B05D0044A40F2CE
:100B4C001B11009803F0A4FD00BF03B05DF804FB7B
:100B5C00EC8C010000B587B001900091009B1B78D4
:100B6C00042B78D801A252F823F000BF8D0B0000A3
:100B7C00CD0B0000150C00002D0C00004B0C0000E0
:100B8C00394A3A4BD31ADB081B0443F003033849A8
:100B9C00184616F06FFF009B5988009B04331A46C9
:100BAC00344807F0A8F90590059B0393039B002B91
:100BBC0053D0314A40F23111039803F069FD4CE0F7
:100BCC00294A2A4BD31ADB081B0443F003032B4995
:100BDC00184616F04FFF009B5B884FF6FF7293424E
:100BEC003DD0009B5B8813211846FFF7E9FB05906D
:100BFC00059B0493049B002B31D01F4A4FF49E712C
:100C0C00049803F045FD2AE0174A184BD31ADB0869
:100C1C001B0443F003031A49184616F02BFF1FE080
:100C2C00114A124BD31ADB081B0443F0030315497A
:100C3C00184616F01FFF0098FFF746FE10E00A4A10
:100C4C000A4BD31ADB081B0443F003030E49184666
:100C5C0016F010FF04E000BF02E000BF00E000BF90
:100C6C0000BF07B05DF804FBAC8A01007C8A010070
:100C7C00B08E0100FC5A0020EC8C0100DC8E0100CF
:100C8C00088F0100208F0100388F010000B587B05C
:100C9C009DF80030012262F303038DF800309DF8BB
:100CAC000030012262F307138DF800306B460522E9
:100CBC001C491846FFF78CFB0590059B0493049B7D
:100CCC00002B05D0184A40F26311049803F0E0FCA5
:100CDC0001AB08220021184617F020FE4FF4C87310
:100CEC00ADF804304FF44873ADF806300023ADF87E
:100CFC0008304FF4C873ADF80A3001AB1846FFF753
:100D0C0063FB0590059B0393039B002B05D0064AC0
:100D1C0040F26D11039803F0BBFC00BF07B05DF807
:100D2C0004FB00BF508F0100EC8C010000B583B0B8
:100D3C00002109480CF044FF0190019B0093009B9B
:100D4C00002B05D0054A4FF4BB71009803F0A0FCB2
:100D5C0000BF03B05DF804FB705B0020EC8C01005D
:100D6C0000B583B00190054A40F28311019803F05D
:100D7C008FFC00BF03B05DF804FB00BFEC8C0100DE
:100D8C0000B589B002AB00221A605A609A60002349
:100D9C000193174B019301AB194616480DF00DFC4E
:100DAC000790079B0693069B002B05D0124A40F236
:100DBC009311069803F06CFC104B0293104B0393A9
:100DCC00104B049302AB19460F4806F02FFF079007
:100DDC00079B0593059B002B05D0074A4FF4CD715B
:100DEC00059803F055FC00BF09B05DF804FB00BF8B
:100DFC006D0D0000245C0020EC8C0100610B0000E8
:100E0C00B90800003C060020FC5A002000B585B053
:100E1C000190019B1B78002B11D10B4B1B883B21A4
:100E2C001846FFF7CDFA0390039B0293029B002B0D
:100E3C0005D0064A40F2AF11029803F029FC00BF1E
:100E4C0005B05DF804FB00BFA4060020EC8C01008B
:100E5C0000B583B00190054A4FF4DD71019803F0A1
:100E6C0017FC00BF03B05DF804FB00BFEC8C010065
:100E7C0000B58BB001AB1C220021184617F04EFDBB
:100E8C00002301934FF4203302934FF47023039308
:100E9C0003238DF810300023ADF8123000238DF8A9
:100EAC0014300C4B06930C4B079301AB184606F011
:100EBC0039F90990099B0893089B002B05D0074A28
:100ECC0040F2D111089803F0E3FB00BF0BB05DF8C2
:100EDC0004FB00BF190E00005D0E0000EC8C01003D
:100EEC0000B583B001900199034806F039FE00BFAC
:100EFC0003B05DF804FB00BFFC5A002000B585B0C0
:100F0C00002008F04FFA0390039B0293029B002BE6
:100F1C0005D0134A4FF4F571029803F0B9FB08F0B1
:100F2C003EFB0390039B0193019B002B05D00C4AC5
:100F3C004FF4F771019803F0ABFBFFF751FA0390F4
:100F4C00039B0093009B002B05D0054A4FF4F971CD
:100F5C00009803F09DFB00BF05B05DF804FB00BFDB
:100F6C00EC8C010000B5BDB003468DF80F309DF838
:100F7C000F30072B00F2BF8001A252F823F000BF04
:100F8C00A51000000311000003110000AD0F0000BC
:100F9C00E50F00001B10000051100000AB1000000A
:100FAC005C4A5D4BD31ADB081B0443F003035B491B
:100FBC00184616F05FFD022008F0F4F93B903B9BBD
:100FCC003493349B002B00F09880554A40F2052155
:100FDC00349803F05DFB90E04E4A4F4BD31ADB087C
:100FEC001B0443F003034F49184616F043FD04203D
:100FFC0008F0D8F93B903B9B3593359B002B7ED06A
:10100C00474A40F20B21359803F042FB77E0414A06
:10101C00414BD31ADB081B0443F003034249184627
:10102C0016F028FD032008F0BDF93B903B9B36934E
:10103C00369B002B65D03A4A40F21121369803F0CA
:10104C0027FB5EE0334A344BD31ADB081B0443F016
:10105C0003033649184616F00DFD032008F0A2F9DB
:10106C003B903B9B3893389B002B05D02C4A40F28D
:10107C001721389803F00CFB2D4805F0E0FD3B9050
:10108C003B9B3793379B002B3DD0254A40F21921CF
:10109C00379803F0FDFA36E0FFF730FF36E008230F
:1010AC0033930823329332AB12AA33A904A813F05A
:1010BC0097FA3B903B9B3A933A9B002B05D0184AEE
:1010CC0040F229213A9803F0E3FA339A329B12A8A2
:1010DC0004A900930346164805F08BFD3B903B9BFF
:1010EC003993399B002B10D00D4A4FF40D71399860
:1010FC0003F0CEFA09E000BF08E000BF06E000BF35
:10110C0004E000BF02E000BF00E000BF00BF3DB044
:10111C005DF804FBAC8A01007C8A0100588F010049
:10112C00EC8C01006C8F0100808F0100A08F0100FE
:10113C00305C002000B58BB001900091019814F048
:10114C0091F9019B1B88562B00F08A80562B00F3DB
:10115C009A803B2B71D03B2B00F39580212B52D0E6
:10116C00212B00F39080102B02D0112B31D08AE070
:10117C004C4A4D4BD31ADB081B0443F003034B4979
:10118C00184616F077FC072008F00CF90890089B1D
:10119C000593059B002B05D0454A40F24E2105983E
:1011AC0003F076FA019B9A88424B1A80414B1B88BC
:1011BC00194641480DF023FA0890089B0493049BB0
:1011CC00002B62D03A4A40F25121049803F060FAA5
:1011DC005BE0344A344BD31ADB081B0443F00303A3
:1011EC003649184616F046FC324B4FF6FF721A8001
:1011FC00019B9A88324B9B899A4248D1304B4FF6CF
:10120C00FF729A8143E000238DF80C3000238DF897
:10121C000D30019B9B8803AA11461846FFF7DCF89A
:10122C000890089B0693069B002B32D0204A40F274
:10123C006621069803F02CFA2BE0019B9B88132166
:10124C001846FFF7BDF80890089B0793079B002BE7
:10125C0021D0174A40F26E21079803F019FA1AE0D0
:10126C00019B9B8813211846FFF7AAF80890089B4E
:10127C000993099B002B10D00D4A40F27621099856
:10128C0003F006FA09E000BF08E000BF06E000BF6B
:10129C0004E000BF02E000BF00E000BF00BF0BB0E5
:1012AC005DF804FBAC8A01007C8A0100C08F010050
:1012BC00EC8C0100A4060020245C0020CC8F0100E3
:1012CC00FC5A002000B587B00FF002FB0590059B7F
:1012DC000493049B002B05D0164A40F2BD210498C0
:1012EC0003F0D6F90023019301AB194601200FF04E
:1012FC0005FC0590059B0393039B002B05D00D4A21
:10130C0040F2C321039803F0C3F901AB18460FF068
:10131C006FFC0590059B0293029B002B05D0054AA0
:10132C0040F2C721029803F0B3F900BF07B05DF893
:10133C0004FB00BFEC8C010000B583B00A4A0A2103
:10134C00082003F09DFA0190019B0093009B002B59
:10135C0005D0064A40F2D221009803F099F900BF5B
:10136C0003B05DF804FB00BF14620020EC8C01009C
:10137C0000B587B012F0F2FF0590059B0493049B17
:10138C00002B05D0384A40F2F121049803F080F983
:10139C006B4605220021184617F0C0FA9DF8003064
:1013AC0043F001038DF800309DF800306FF34103DA
:1013BC008DF800309DF800306FF382038DF800300B
:1013CC009DF800306FF3C3038DF800309DF80030AA
:1013DC00032262F306138DF800309DF800306FF392
:1013EC00C7138DF8003007238DF8013010238DF8CA
:1013FC0002309DF8033043F001038DF803309DF863
:10140C00033043F002038DF803309DF8043043F0B1
:10141C0001038DF804309DF8043043F002038DF87D
:10142C0004306B46184613F083F80590059B039324
:10143C00039B002B05D00C4A4FF44171039803F029
:10144C0027F90A4813F04CF80590059B0293029B70
:10145C00002B05D0044A40F20731029803F018F92A
:10146C0000BF07B05DF804FBEC8C0100B107000075
:10147C0000B5AFB001ABAC220021184617F04EFA04
:10148C0002238DF8043001238DF8063005238DF8E6
:10149C0007300123ADF81C30184B089301238DF84D
:1014AC007D3001238DF880302823239340F6B83308
:1014BC00249301238DF881304FF44863259344F233
:1014CC00506326930E4B2A9301AB19460D4805F039
:1014DC0071F92D902D9B2C932C9B002B05D00A4A37
:1014EC004FF44A712C9803F0D3F80121054805F00C
:1014FC0054F900BF2FB05DF804FB00BFA806002014
:10150C00710F0000305C0020EC8C010000B585B040
:10151C006B4608220021184617F000FA0B4B00937B
:10152C000B4B01936B46184607F0C6FA0390039BCE
:10153C000293029B002B05D0064A40F23B310298E5
:10154C0003F0A6F800BF05B05DF804FBED0E00003B
:10155C003C060020EC8C010000B583B04FF4004138
:10156C00002015F0B5FF0190019B0093009B002B10
:10157C0005D0064A4FF45171009803F089F815F024
:10158C003DFF00BF03B05DF804FB00BFEC8C010015
:10159C0000B583B00EF0AAFD0190019B0093009B57
:1015AC00002B05D0044A4FF45471009803F070F8E6
:1015BC0000BF03B05DF804FBEC8C010008B503F030
:1015CC00A7F916F0E1FA034683F00103DBB2002B16
:1015DC0001D00EF0A1FD00BF08BD000000B583B026
:1015EC000DF04CF90190019B0093009B002B05D052
:1015FC00064A40F26631009803F04AF800200DF0DC
:10160C00A3F900BF03B05DF804FB00BFEC8C010034
:10161C0008B5084B1B68084A1360064B00221A6079
:10162C00064B00221A700649AE2011F025F800BFB7
:10163C0008BD00BFAC0600200C6200201162002027
:10164C001C00002000B589B008F046F808F0AAF894
:10165C00474B1B68022B40F0868040238DF81E30D0
:10166C00444B069300238DF81F3078E09DF81F3013
:10167C00414A52F823209DF81F30404951F823303D
:10168C009A4267D00699212010F0F6FF9DF81F3082
:10169C001A46D200D31A5B00DBB20833DBB20699D0
:1016AC00184610F0E9FF9DF81F301A46D200D31AE5
:1016BC005B00DBB21533DBB20699184610F0DCFF89
:1016CC000699222010F0D8FF0699032010F0D4FFC1
:1016DC000699042010F0D0FF9DF81E201C230093C7
:1016EC00274B3C2106980FF00DFF05901420FEF7B8
:1016FC0078FF059B0493049B002B05D0214A40F2F4
:10170C008A31049802F0C4FF9DF81F301A4A52F82F
:10171C0023309DF81E201C2100913C2106980FF0CF
:10172C00F1FE05901420FEF75CFF059B0393039BD1
:10173C00002B05D0134A40F29231039802F0A8FF17
:10174C009DF81F209DF81F300B4951F822200B49A2
:10175C0041F823209DF81F3001338DF81F309DF880
:10176C001F30072B82D900BF09B05DF804FB00BF06
:10177C00AC0600201C000020D465002000080020CE
:10178C0004990100EC8C010000B585B010F0CCFC84
:10179C000390039B0293029B002B05D0154A40F249
:1017AC00B631029802F074FF134A6B461268114668
:1017BC0019800233120C1A7003238DF801306B461A
:1017CC000E4A1946132010F013FD0390039B01934E
:1017DC00019B002B05D0074A40F2BD31019802F065
:1017EC0057FF0121132010F07FFD00BF05B05DF8FD
:1017FC0004FB00BFEC8C010004900100C52000002C
:10180C0082B001900091019B1B78002B03D1044BFB
:10181C0001221A7000E000BF00BF02B0704700BF89
:10182C000862002000B589B002AB00221A605A6031
:10183C009A60DA600F2302930E2303934FF0CC735C
:10184C00049302238DF8143002A90023154A16487C
:10185C0001F062FD0790079B0693069B002B05D0B9
:10186C00124A40F2DF31069802F012FF0E48FEF7E2
:10187C0070FE002301930723009303230022002111
:10188C000E20FEF7EFFD00230193072300930323A3
:10189C00002200210F20FEF7E5FD00BF09B05DF826
:1018AC0004FB00BF0D180000A4900100EC8C01009B
:1018BC0000B58BB003AB00221A605A609A60DA60F4
:1018CC00022303931F2304934FF0CC73059302233D
:1018DC008DF8183003AB19461A480FF0D1FC09905B
:1018EC00099B0893089B002B05D0174A40F2F7314F
:1018FC00089802F0CDFE15480FF056FD0990099B93
:10190C000793079B002B05D00F4A40F2F93107983B
:10191C0002F0BEFE00230193072300930323002251
:10192C0000211F20FEF79EFD002301930723009347
:10193C000323002200210220FEF794FD00BF0BB010
:10194C005DF804FBB4900100EC8C01001C0000203D
:10195C0000B5C7B046ABA3F588731960114646AB0A
:10196C00A3F2091302461A7046ABA3F586730A4616
:10197C001A8046ABA3F5847300221A600433FB2251
:10198C000021184616F0CAFF46ABA3F5847346AA8D
:10199C00A2F2091212781A7046ABA3F58673198855
:1019AC0046ABA3F5887304AA501C0A46196816F0B6
:1019BC007FFF164B00221A7046ABA3F586731B886B
:1019CC00DBB20133DBB204AA0021009139211048AB
:1019DC00FEF7CBFD4590459B4493449B002B05D0D3
:1019EC000C4A4FF48361449802F052FE00BF074B3F
:1019FC001B78DBB283F00103DBB2002BF7D1459BE4
:101A0C005BB2184647B05DF804FB00BF08620020CB
:101A1C00A4900100EC8C010000B589B00346029142
:101A2C008DF80F301346ADF80C30234B00221A7092
:101A3C000DF10F0201230093012339211F48FEF7FA
:101A4C0094FD0790079B0693069B002B05D01C4A20
:101A5C0040F22941069802F01BFE00BF164B1B7882
:101A6C00DBB283F00103DBB2002BF7D1124B002267
:101A7C001A70BDF80C30DBB2029A39210F48FEF710
:101A8C0094FD0790079B0593059B002B05D00C4AF2
:101A9C0040F22E41059802F0FBFD00BF064B1B786F
:101AAC00DBB283F00103DBB2002BF7D1079B5BB2F7
:101ABC00184609B05DF804FB08620020A4900100F0
:101ACC00EC8C010000B585B0019001220199AF208A
:101ADC00FFF7A2FF03468DF80F309DF80F30002B57
:101AEC0001D1012300E00023184605B05DF804FB8A
:101AFC0000B585B0019001220199AE20FFF78CFF53
:101B0C0003468DF80F309DF80F30002B01D10123C7
:101B1C0000E00023184605B05DF804FB00B583B067
:101B2C000DF107031846FFF7CDFF034683F00103C1
:101B3C00DBB2002B02D04FF0FF3318E09DF80730DA
:101B4C0003F00103002B02D16FF001030FE00DF144
:101B5C0007031846FFF7CCFF034683F00103DBB203
:101B6C00002B02D06FF0020301E09DF807301846FD
:101B7C0003B05DF804FB00B585B001900091009BAB
:101B8C009BB21A460199FC20FFF746FF03468DF8DD
:101B9C000F309DF80F30002B01D0FF23FFE71846C4
:101BAC0005B05DF804FB000010B5AAB01E23289305
:101BBC00FFF7B4FF2790279B002B01DC0023D1E01B
:101BCC00279B9A0003AB11461846FFF7D4FF034638
:101BDC008DF89B3000232993BDE003AA299B134465
:101BEC001B788DF89A30299B0133A8336B4413F87A
:101BFC009C3C8DF89930299B0233A8336B4413F825
:101C0C009C3C8DF89830299B0333A8336B4413F814
:101C1C009C3C8DF89730554A554BD31ADB081B0466
:101C2C0043F003009DF89A109DF899409DF8983068
:101C3C009DF897200192009323460A464D4915F0D2
:101C4C0062FF9DF89A30289A9A4262DD9DF899308D
:101C5C00289A9A425DDD9DF89830289A9A4258DD70
:101C6C009DF89730289A9A4253DD434B01221A7003
:101C7C00424B1B68002B03D1414B1B68002B66D0D9
:101C8C003E4B1A683F4B1B68D31A24933C4B1A6883
:101C9C003D4B1B68D31A2393344A354BD31ADB08BC
:101CAC001B0443F00300249A239B384915F001FFD1
:101CBC0000F092FB364B1B685B42249A9A4202DA84
:101CCC00344B02221A60324B1B68249A9A4202DD72
:101CDC00304B03221A602E4B1B685B42239A9A42AC
:101CEC0002DA2C4B01221A60294B1B68239A9A4268
:101CFC0002DD284B00221A60224B00221A60224B74
:101D0C0000221A601D4B00221A601D4B00221A6023
:101D1C001DE09DF897209DF89830D31A194A13604E
:101D2C009DF89A209DF89930D31A174A1360124BDC
:101D3C001B78002B0CD0104B00221A70114B1B6817
:101D4C000E4A1360104B1B680D4A136000E000BF75
:101D5C00299B04332993299BDA1C279B9B009A42CD
:101D6C00FFF63BAF18462AB010BD00BFAC8A01008D
:101D7C007C8A010008900100200800202C0800201B
:101D8C0030080020240800202808002014900100AE
:101D9C00140000201800002000B591B08F238DF89E
:101DAC0007300DF1070301221946A620FFF7D0FDDD
:101DBC0003468DF83F309DF93F300E930E9B002B60
:101DCC0005D0BC4A40F2C1410E9802F061FC0DF105
:101DDC00070301221946A220FFF71EFE03468DF8C9
:101DEC003F309DF8073063F03F03DBB28DF80730CE
:101DFC000DF1070301221946A220FFF7A9FD0346A6
:101E0C008DF83F309DF93F300D930D9B002B05D085
:101E1C00A84A40F2C7410D9802F03AFC2A238DF8EB
:101E2C0007300DF1070301221946A320FFF790FD9F
:101E3C0003468DF83F309DF93F300C930C9B002BE3
:101E4C0005D09C4A40F2CC410C9802F021FC0DF1DB
:101E5C00070301221946AA20FFF7DEFD03468DF881
:101E6C003F309DF8073023F00303DBB28DF80730C9
:101E7C009DF93F300B930B9B002B05D08D4A40F204
:101E8C00D1410B9802F004FC0DF107030122194615
:101E9C00AA20FFF75DFD03468DF83F309DF93F30DA
:101EAC000A930A9B002B05D0824A40F2D3410A9830
:101EBC0002F0EEFB0DF1070301221946AB20FFF7F0
:101ECC00ABFD03468DF83F309DF93F30002B01D020
:101EDC000023EAE09DF8073023F00103DBB28DF814
:101EEC0007300DF1070301221946AB20FFF730FD37
:101EFC0003468DF83F309DF93F300993099B002B29
:101F0C0005D06C4A40F2DA41099802F0C1FB042377
:101F1C008DF807300DF10703012219468F20FFF7CA
:101F2C0017FD03468DF83F309DF93F300893089B11
:101F3C00002B05D05F4A40F2DF41089802F0A8FB65
:101F4C0000238DF807300DF1070301221946892073
:101F5C00FFF7FEFC03468DF83F309DF93F300793A9
:101F6C00079B002B05D0534A40F2E441079802F03E
:101F7C008FFB32238DF807300DF107030122194630
:101F8C008B20FFF7E5FC03468DF83F309DF93F3081
:101F9C000693069B002B05D0464A4FF49D6106988C
:101FAC0002F076FBA0238DF807300DF10703012218
:101FBC0019468C20FFF7CCFC03468DF83F309DF979
:101FCC003F300593059B002B05D03A4A40F2ED417A
:101FDC00059802F05DFB0DF1070301221946E5207F
:101FEC00FFF71AFD03468DF83F309DF93F300493FF
:101FFC00049B002B05D02F4A40F2F141049802F0CB
:10200C0047FB0DF1070301221946A220FFF704FD3F
:10201C0003468DF83F309DF93F30002B01D0002353
:10202C0043E09DF8073023F01F03DBB28DF8073037
:10203C000DF1070301221946A220FFF789FC034684
:10204C008DF83F309DF93F300393039B002B05D057
:10205C00184A4FF49F61039802F01AFB00238DF885
:10206C0007300DF1070301221946A120FFF770FC80
:10207C0003468DF83F3025238DF807300DF107030B
:10208C00012219468020FFF763FC03468DF83F3090
:10209C009DF93F300293029B002B05D0054A40F27C
:1020AC00FF41029802F0F4FA0123184611B05DF8D2
:1020BC0004FB00BFEC8C010000B589B001900B460D
:1020CC008DF80330B54AB64BD31ADB081B0443F02A
:1020DC000303B449184615F0CDFC15F055FD034625
:1020EC00002BFAD1B04B01221A70B04B1B68002B9D
:1020FC0016D1AF4B1B68AD4A1360AE4B00221A7061
:10210C00AA4B1B68012B02D1AB4810F0FFFBC82077
:10211C00FEF767FAA849AF2010F0AEFA00F05CF9B0
:10212C0001238DF80E300DF10E0301221946AB2060
:10213C00FFF70EFC0346079345238DF80E300DF187
:10214C000E03012219468020FFF702FC0346079379
:10215C00079B0693069B002B00F0E080974A40F209
:10216C001751069802F094FAD8E06420FEF739FA79
:10217C00FFF7D4FC0346002B40F3D080FFF714FD8F
:10218C0000238DF80F3000F0D3FB8D4B1B68002B18
:10219C0026D1012000F098FB874810F01BFC034669
:1021AC008DF80F309DF80F3083F00103DBB2002B5C
:1021BC0001D000F04BFF794A794BD31ADB081B0492
:1021CC0043F003037F49184615F054FCFA20FEF740
:1021DC0008FA00F0ADFB7A4B4FF0FF321A609DE02D
:1021EC00774B1B68012B26D1022000F06DFB724847
:1021FC0010F0FCFB03468DF80F309DF80F3083F088
:10220C000103DBB2002B01D000F020FF634A644BCA
:10221C00D31ADB081B0443F003036B49184615F073
:10222C0029FCFA20FEF7DDF900F082FB644B4FF03D
:10223C00FF321A6072E0624B1B68022B29D103201B
:10224C0000F042FB5C4810F011FB03468DF80F3098
:10225C00564B01221A609DF80F3083F00103DBB25C
:10226C00002B01D000F0F2FE4C4A4D4BD31ADB0888
:10227C001B0443F003035549184615F0FBFBFA20E9
:10228C00FEF7AFF900F054FB4D4B4FF0FF321A60E4
:10229C0044E04B4B1B68032B2FD1012000F014FBA7
:1022AC00032000F011FB022000F00EFB424810F05E
:1022BC002DFB03468DF80F303C4B02221A609DF823
:1022CC000F3083F00103DBB2002B01D000F0BEFE17
:1022DC00324A334BD31ADB081B0443F003033C494B
:1022EC00184615F0C7FBFA20FEF77BF900F020FB2F
:1022FC00334B4FF0FF321A6010E0284A284BD31AA8
:10230C00DB081B0443F003033249184615F0B2FBFB
:10231C0000F00EFB2A4B4FF0FF321A60234B1B6868
:10232C00002B7FF422AF04238DF80E300DF10E0339
:10233C0001221946AB20FFF70BFB03460793079BC3
:10234C000593059B002B05D01C4A40F25C51059867
:10235C0002F09EF90DF10E0301221946E720FFF75A
:10236C005BFB0346079325238DF80E300DF10E030E
:10237C00012219468020FFF7EBFA03460793079BCF
:10238C000493049B002B05D00C4A40F26251049834
:10239C0002F07EF900BF09B05DF804FBAC8A0100C5
:1023AC007C8A01002090010012620020AC06002003
:1023BC000C620020106200201C000020EC8C01003C
:1023CC001800002040900100449001004C90010046
:1023DC00549001005C90010000B585B01B4B1B783C
:1023EC00002B23D01A4B184603F0B4F80390039B30
:1023FC000293029B002B05D0164A40F26B510298B7
:10240C0002F046F9124B144A4FF42031184603F0EF
:10241C006BF80390039B0193019B002B11D00D4A89
:10242C0040F26D51019802F033F90AE0084B0A4A68
:10243C004FF42031184603F057F80390034B012258
:10244C001A7000BF05B05DF804FB00BF11620020DC
:10245C0028000020EC8C01001D16000000B58BB08C
:10246C0042F21073099300238DF823301620FEF7E7
:10247C002AF82020FEF727F800230193022300936B
:10248C000023012201211620FDF7ECFF002301930C
:10249C00022300930023012201212020FDF7E2FFFB
:1024AC000420FEF79EF84FF40041002015F010F8C0
:1024BC000790079B002B05D0464A40F29251079893
:1024CC0002F0E6F814F09AFF434A444BD31ADB08A7
:1024DC001B0443F003034249184615F0CBFA15F0E0
:1024EC0053FB0346002BFAD1FFF79CF9FFF7E0F9F9
:1024FC003C4810F0EBF807F055F93A4810F006FAA2
:10250C00012000F09FFA00F013FAFFF767F8FFF7CD
:10251C0043FC02F085FFFFF737F9FFF71DF8FEF7D4
:10252C0003FBFEF709FFFFF733F8FEF7CBFEFEF7D0
:10253C00ADFBFEF7FBFBFEF7E9FFFEF799FFFEF79D
:10254C0017FFFEF71DFCFEF793FC234A234BD31A0F
:10255C00DB081B0443F003032349184615F08AFAE1
:10256C009DF81B301846FEF7C3F8204B00221A705A
:10257C001F4B00221A701F4A01211F4802F084FFD2
:10258C000590059B0493049B002B05D0114A40F247
:10259C00BD51049802F07CF8184A0021184802F04A
:1025AC0073FF0590059B0393039B002B05D0094AF1
:1025BC0040F2BF51039802F06BF8124B0D4A4FF4E6
:1025CC000041184602F090FFFFF706FFFEF7F6FFFA
:1025DC00FCE700BFEC8C0100AC8A01007C8A010096
:1025EC00649001001C0000207C900100116200200E
:1025FC001062002051160000D09001001D16000042
:10260C00CC9001004800002000B583B00190019BE4
:10261C001B68184600F002F90346002B04D10B4945
:10262C004FF4F670FDF7F2FF019B1B681F2B02D8CD
:10263C004FF0A04306E0019B1B6803F01F02019BB7
:10264C001A60034B184603B05DF804FBF8900100C8
:10265C000003005000B585B00190084611461A469B
:10266C0003468DF803300B468DF8023013468DF877
:10267C00013001AB1846FFF7C7FF03909DF803200C
:10268C009DF802305B001A439DF801309B001A4301
:10269C009DF818301B0242EA03019DF81C301B0404
:1026AC00019A1943039B02F5E07243F8221000BF14
:1026BC0005B05DF804FB00B585B0039000230193D1
:1026CC00002300930023012201210398FFF7C2FF8E
:1026DC0000BF05B05DF804FB00B585B003900B4658
:1026EC008DF80B309DF80B300022019200220092E5
:1026FC00002200210398FFF7ADFF00BF05B05DF885
:10270C0004FB00B585B0019001AB1846FFF77CFFC8
:10271C000390019B012202FA03F31946039800F07F
:10272C0069F800BF05B05DF804FB00B585B00190F9
:10273C0001AB1846FFF768FF0390019B012202FAD8
:10274C0003F31946039800F05FF800BF05B05DF87D
:10275C0004FB00B585B0019001AB1846FFF754FFA0
:10276C000390039BD3F804350293029BDA43019B3D
:10277C00012101FA03F31A40039BC3F80825019BBE
:10278C0001229A40029B1A40039BC3F80C2500BF00
:10279C0005B05DF804FB00B583B001900091009B7F
:1027AC00002B03D10198FFF7C0FF02E00198FFF75F
:1027BC00A8FF00BF03B05DF804FB00B585B0019025
:1027CC0001AB1846FFF720FF0390039800F00AF8BE
:1027DC000246019B22FA03F303F00103184605B0ED
:1027EC005DF804FB82B00190019BD3F804351846C8
:1027FC0002B0704782B001900091019B009AC3F81F
:10280C00082500BF02B0704782B001900091019B77
:10281C00009AC3F80C2500BF02B0704784B0019039
:10282C00019B5B09029300230393029B002B03D0B3
:10283C00029B012B04D007E04FF0FF33039303E01E
:10284C004FF6FF73039300BF019B03F01F0301932B
:10285C00039A019B22FA03F303F00103002B14BF2C
:10286C0001230023DBB2184604B0704700B585B0D5
:10287C000190019B032B03D911493A20FDF7C6FEA9
:10288C00104A019B13441B781846FFF796FF03462A
:10289C00002B14BF012300238DF80F309DF80F304F
:1028AC00002B14BF01230023DBB283F00103DBB246
:1028BC0003F00103DBB2184605B05DF804FB00BF62
:1028CC00289101007891010000B583B00190019B23
:1028DC00032B03D907494120FDF798FE064A019BBB
:1028EC0013441B7800211846FFF755FF00BF03B0B7
:1028FC005DF804FB289101007891010000B583B0CC
:10290C000190019B032B03D907494720FDF77EFE5D
:10291C00064A019B13441B7801211846FFF73BFF25
:10292C0000BF03B05DF804FB289101007891010011
:10293C0000B583B00023019305E00198FFF7DEFF9B
:10294C00019B01330193019B032BF6D900BF00BF00
:10295C0003B05DF804FB00B583B00023019305E0E0
:10296C000198FFF7B1FF019B01330193019B032BEE
:10297C00F6D900BF00BF03B05DF804FB00B583B00F
:10298C000190019B032B03D907495F20FDF73EFE05
:10299C00064A019B13441B781846FFF7DAFE00BF6A
:1029AC0003B05DF804FB00BF289101007891010091
:1029BC0000B583B00023019309E0094A019B13443D
:1029CC001B781846FFF777FE019B01330193019B9F
:1029DC00032BF2D9FFF7ACFF00BF03B05DF804FB8B
:1029EC007891010000B583B0002301930AE0094AF5
:1029FC00019B13441B7803211846FFF76DFE019BC6
:102A0C0001330193019B032BF1D900BF00BF03B02D
:102A1C005DF804FB7C91010000B583B00190019B33
:102A2C00032B03D90549CB20FDF7F0FD044A019B8C
:102A3C0013441B78184603B05DF804FB2891010081
:102A4C007C91010000B583B00190019B03F0010360
:102A5C00002B01D0FFF7ACFF019B03F00203002B0E
:102A6C0001D0FFF7BFFF00BF03B05DF804FB00000F
:102A7C00BFF34F8F00BF064BDB6803F4E0620449E1
:102A8C00044B1343CB60BFF34F8F00BF00BFFDE778
:102A9C0000ED00E00400FA0582B0164B1B680193B0
:102AAC00154B1B680093019B082B1FD1009B052B1A
:102ABC001AD801A252F823F0DD2A0000E12A000006
:102ACC00E52A0000E92A0000ED2A0000F12A0000A6
:102ADC0001230CE001230AE0012308E0012306E0B6
:102AEC00012304E0012302E0012300E00023184647
:102AFC0002B07047300100103401001082B0164B48
:102B0C001B680193154B1B680093019B082B1FD16D
:102B1C00009B052B1AD801A252F823F0412B000080
:102B2C00452B0000492B00004D2B0000512B0000C1
:102B3C00552B000001230CE001230AE0012308E0DF
:102B4C00012306E0012304E0012302E0012300E05D
:102B5C000023184602B070473001001034010010F9
:102B6C0082B0164B1B680193154B1B680093019B9D
:102B7C00082B1FD1009B052B1AD801A252F823F069
:102B8C00A52B0000A92B0000AD2B0000B12B0000E1
:102B9C00B52B0000B92B000001230CE000230AE048
:102BAC00002308E0002306E0002304E0002302E0F9
:102BBC00002300E00023184602B0704730010010DB
:102BCC003401001082B0164B1B680193154B1B6827
:102BDC000093019B082B1FD1009B052B1AD801A237
:102BEC0052F823F0092C00000D2C0000112C0000D1
:102BFC00152C0000192C00001D2C000001230CE0EA
:102C0C0000230AE0002308E0002306E0002304E090
:102C1C00002302E0002300E00023184602B07047B6
:102C2C00300100103401001082B0164B1B68019368
:102C3C00154B1B680093019B082B1FD1009B052B88
:102C4C001AD801A252F823F06D2C0000712C000050
:102C5C00752C0000792C00007D2C0000812C0000CC
:102C6C0001230CE000230AE0002308E0002306E027
:102C7C00002304E0002302E0002300E000231846B8
:102C8C0002B07047300100103401001082B0164BB6
:102C9C001B680193154B1B680093019B082B1FD1DC
:102CAC00009B052B1AD801A252F823F0D12C00005E
:102CBC00D52C0000D92C0000DD2C0000E12C0000EC
:102CCC00E52C000001230CE000230AE0002308E0BF
:102CDC00002306E0002304E0002302E0002300E0D0
:102CEC000023184602B07047300100103401001068
:102CFC0082B0164B1B680193154B1B680093019B0C
:102D0C00082B1FD1009B052B1AD801A252F823F0D7
:102D1C00352D0000392D00003D2D0000412D000007
:102D2C00452D0000492D000001230CE001230AE091
:102D3C00012308E0012306E0012304E0012302E063
:102D4C00012300E00023184602B070473001001048
:102D5C003401001082B0164B1B680193154B1B6895
:102D6C000093019B082B1FD1009B052B1AD801A2A5
:102D7C0052F823F0992D00009D2D0000A12D00008C
:102D8C00A52D0000A92D0000AD2D000000230CE0A6
:102D9C0000230AE0002308E0002306E0012304E0FE
:102DAC00012302E0012300E00023184602B0704723
:102DBC00300100103401001008B5FFF7CBFF0346BB
:102DCC00002B07D04FF010234FF08042D3F808327D
:102DDC00C2F8583500BF08BD00BF044BD3F800340F
:102DEC00002BFAD000BF00BF704700BF00E00140CD
:102DFC0000B583B00190054A019BC2F80435FFF77A
:102E0C00EBFF00BF03B05DF804FB00BF00E0014026
:102E1C00024B034A1A6000BF704700BFB006002087
:102E2C000090D00308B5FFF737FE0346002B0ED0F9
:102E3C004FF080430022C3F80C214FF08043002256
:102E4C00C3F810214FF080430022C3F83825FFF758
:102E5C0055FE0346002B76D04FF08053734AD3F8BF
:102E6C000434C2F820354FF08053704AD3F808343C
:102E7C00C2F824354FF080536C4AD3F80C34C2F8A6
:102E8C0028354FF08053694AD3F81034C2F82C35EA
:102E9C004FF08053654AD3F81434C2F830354FF0F4
:102EAC008053624AD3F81834C2F834354FF080534B
:102EBC005E4AD3F81C34C2F840354FF080535B4A5D
:102ECC00D3F82034C2F844354FF08053574AD3F826
:102EDC002434C2F848354FF08053544AD3F8283480
:102EEC00C2F84C354FF08053504AD3F82C34C2F80A
:102EFC0050354FF080534D4AD3F83034C2F8543526
:102F0C004FF08053494AD3F83434C2F860354FF04F
:102F1C008053464AD3F83834C2F864354FF08053A6
:102F2C00424AD3F83C34C2F868354FF080533F4ADC
:102F3C00D3F84034C2F86C354FF080533B4AD3F889
:102F4C004434C2F87035FFF70BFE0346002B02D059
:102F5C00374B384A1A60FFF735FE0346002B03D077
:102F6C00354BFB22C3F81825FFF75EFE0346002BFA
:102F7C000AD0324B1B6823F00F02314B1B6803F055
:102F8C000F032E4913430B60FFF780FE0346002B03
:102F9C0003D02C4B4FF400721A60FFF7A9FE0346C6
:102FAC00002B0DD04FF08043D3F8003403F0010315
:102FBC00002B05D04FF080436FF00102C3F80024C2
:102FCC00214BD3F88830204A43F47003C2F8883080
:102FDC00BFF34F8F00BFBFF36F8F00BFFFF7ECFE47
:102FEC004FF01023D3F80032002B05DB4FF01023E9
:102FFC00D3F80432002B15DA0120FFF7F9FE4FF05D
:10300C0010231222C3F80022FFF7E6FE4FF0102324
:10301C001222C3F80422FFF7DFFE0020FFF7E8FEC0
:10302C00FFF726FDFFF7F4FE00BF08BD00C000400F
:10303C008C5600404881030000F00040E40E004034
:10304C00580200104096024000ED00E0FEE7000040
:10305C0000B585B00190019B002B0AD0074B43F0C3
:10306C0001030393019B9B010293039B02989847D6
:10307C0000E000BF05B05DF804FB00BFB09101009B
:10308C0000B583B00190019B1B68184600F077F8DF
:10309C000346002B04D10B494FF4F670FDF7B6FA3A
:1030AC00019B1B681F2B02D84FF0A04306E0019B2D
:1030BC001B6803F01F02019B1A60034B184603B0F8
:1030CC005DF804FB809101000003005000B585B051
:1030DC00019001AB1846FFF7D3FF0390019B01222F
:1030EC0002FA03F31946039800F035F800BF05B057
:1030FC005DF804FB00B585B0019001AB1846FFF7F5
:10310C00BFFF0390019B012202FA03F319460398B7
:10311C0000F02BF800BF05B05DF804FB00B585B0DE
:10312C00019001AB1846FFF7ABFF0390039800F03A
:10313C000AF80246019B22FA03F303F00103184636
:10314C0005B05DF804FB82B00190019BD3F81035FB
:10315C00184602B0704782B001900091019B009A12
:10316C00C3F8082500BF02B0704782B001900091EF
:10317C00019B009AC3F80C2500BF02B0704784B0C5
:10318C000190019B5B09029300230393029B002B8C
:10319C0003D0029B012B04D007E04FF0FF330393C5
:1031AC0003E04FF6FF73039300BF019B03F01F0373
:1031BC000193039A019B22FA03F303F00103002B02
:1031CC0014BF01230023DBB2184604B0704700B5CE
:1031DC0085B001904FF0A042019B1B6803F5E07392
:1031EC0040F20C6142F823104FF0A042019B5B6847
:1031FC0003F5E07340F20C6142F82310019B1B684D
:10320C001846FFF763FF019B5B681846FFF75EFFEC
:10321C004FF0A042019B1B6803F5E07340F20D6177
:10322C0042F823104FF0A042019B5B6803F5E0735A
:10323C0040F20D6142F823100420FFF709FF002330
:10324C0003931EE0019B5B681846FFF767FF03467C
:10325C00002B03D0039B002B17D124E0019B1B6890
:10326C001846FFF747FF0420FFF7F2FE019B1B688F
:10327C001846FFF72BFF0420FFF7EAFE039B0133F0
:10328C000393039B082BDDDD00E000BF019B5B6813
:10329C001846FFF72FFF0420FFF7DAFE019B5B684F
:1032AC001846FFF713FF05B05DF804FB00B589B0B5
:1032BC0001900091009B0793019B1B788DF80C30BB
:1032CC00019B1B798DF81030019B5B798DF81130C7
:1032DC00019B9B68DBB28DF81230019BDB68DBB283
:1032EC008DF81330019B1B690593019B5B69069359
:1032FC00074A079B52F823300649079A51F82210C7
:10330C0003AA1046984700BF09B05DF804FB00BF44
:10331C00C4620020CC62002000B587B003900291FB
:10332C0001920093039B1B7805931249059B019A0C
:10333C0041F823201049059B009A41F82320029B59
:10334C005B7B002B02D00298FFF741FF0023049314
:10335C00039B181D019B002B01D0084A00E00022A2
:10336C00059B029900F0AAFB0490049B184607B039
:10337C005DF804FBC4620020CC620020B93200006E
:10338C0008B5064B1B68002B03D105495120FDF7EE
:10339C003DF9024B1B68984708BD00BFD462002062
:1033AC00BC91010082B00190019B044A934201D16F
:1033BC00034B00E00023184602B070470020004089
:1033CC00D462002000B587B001900091019B002BC6
:1033DC0003D11C497720FDF719F90198FFF7E2FF9B
:1033EC000590059B002B25D000238DF8133000236E
:1033FC008DF80B300DF10B03184602F041F9059BCB
:10340C001B79002B03D001238DF8133005E0059BAD
:10341C00009A1A60059B01221A719DF80B30184610
:10342C0002F044F99DF81330002B03D011230393C1
:10343C00039B02E000230393039B184607B05DF83F
:10344C0004FB00BFBC91010000B585B00190019B4D
:10345C00002B03D10A499B20FDF7D8F80198FFF700
:10346C00A1FF0390039B002B05D0039B00221A6045
:10347C00039B00221A7100BF05B05DF804FB00BF6E
:10348C00BC91010082B003468DF807309DF90730DE
:10349C00002B0CDB9DF8073003F01F0205499DF94A
:1034AC0007305B09012000FA02F241F8232000BF2B
:1034BC0002B0704700E100E082B003468DF807309F
:1034CC009DF90730002B13DB9DF8073003F01F022A
:1034DC0009499DF907305B09012000FA02F22033FB
:1034EC0041F82320BFF34F8F00BFBFF36F8F00BF96
:1034FC0000BF02B0704700BF00E100E082B003469D
:10350C008DF807309DF90730002B0DDB9DF8073047
:10351C0003F01F0206499DF907305B09012000FAF0
:10352C0002F2603341F8232000BF02B0704700BFA5
:10353C0000E100E082B0034600918DF807309DF960
:10354C000730002B0ADB009BDAB20C499DF90730DF
:10355C005201D2B20B4483F800230BE0009BDAB289
:10356C0007499DF8073003F00F03043B5201D2B218
:10357C000B441A7600BF02B0704700BF00E100E0B8
:10358C0000ED00E082B00190019B03F06043B3F1C9
:10359C00005F0CBF01230023DBB2184602B070475A
:1035AC0082B00190019B1B0B5BB2184602B07047B6
:1035BC0000B583B003460A468DF8073013468DF8E4
:1035CC0006309DF80630012B03D99DF80630032BED
:1035DC000BD99DF80630042B03D99DF80630072B28
:1035EC0003D908496B20FDF711F89DF806209DF9C9
:1035FC00073011461846FFF79DFF00BF03B05DF87A
:10360C0004FB00BF1892010000B583B003468DF88F
:10361C0007309DF907301846FFF734FF00BF03B0A1
:10362C005DF804FB00B583B003468DF807309DF9B7
:10363C0007301846FFF740FF00BF03B05DF804FBEE
:10364C0000B583B003468DF807309DF90730184656
:10365C00FFF754FF00BF03B05DF804FB82B001908C
:10366C000B468DF803309DF80330019A1344012268
:10367C001A6000BF02B0704784B001900B46ADF8E1
:10368C000230BDF80230019A134400221A60BDF8D2
:10369C000230019A13441B680393039B00BF04B0D0
:1036AC00704782B001900B46ADF80230BDF8023085
:1036BC00019A13441B68002B14BF01230023DBB2B7
:1036CC00184602B0704782B001900091019BD3F86C
:1036DC000022009BDB431A40019BC3F8002200BF71
:1036EC0002B0704782B001900091019B009AC3F820
:1036FC00042300BF02B0704782B001900091019B7F
:10370C00009AC3F8082300BF02B0704782B0019042
:10371C00019B0622C3F8002500BF02B0704782B09F
:10372C000190019B0022C3F8002500BF02B0704736
:10373C0084B0039002910192039B029AC3F808256E
:10374C00039B019AC3F80C2500BF04B0704782B0EC
:10375C0001900091019B009AC3F8242500BF02B090
:10376C00704784B00190019BD3F8C4340393019B40
:10377C00039AC3F8C424039B184604B0704782B064
:10378C0001900B468DF803309DF80320019BC3F884
:10379C00882500BF02B0704784B00390029101925B
:1037AC00029A039BC3F84425039B019AC3F848254E
:1037BC0000BF04B0704784B0039002910192029A4A
:1037CC00039BC3F83425039B019AC3F8382500BF2B
:1037DC0004B0704782B001900091019B009AC3F82D
:1037EC00002200BF02B0704782B00190019BD3F859
:1037FC004C35184602B0704782B00190019BD3F84B
:10380C000032184602B0704782B00190019BD3F889
:10381C003C35184602B0704782B00190019B0122E2
:10382C00C3F8502500BF02B0704782B00190019BD5
:10383C000022C3F8502500BF02B0704782B001903F
:10384C00019B0122C3F8402500BF02B0704782B033
:10385C000190019B0022C3F8402500BF02B07047C5
:10386C0000B583B00190019B1B68184600F060F80E
:10387C000346002B04D10B494FF4F670FCF7C6FE3F
:10388C00019B1B681F2B02D84FF0A04306E0019B45
:10389C001B6803F01F02019B1A60034B184603B010
:1038AC005DF804FB489201000003005000B585B0A0
:1038BC000190084611461A4603468DF803300B4614
:1038CC008DF8023013468DF8013001AB1846FFF726
:1038DC00C7FF03909DF803209DF802305B001A434C
:1038EC009DF801309B001A439DF818301B0242EAE8
:1038FC0003019DF81C301B04019A1943039B02F52C
:10390C00E07243F8221000BF05B05DF804FB00B56F
:10391C0085B0039000230193002300930023012220
:10392C0000210398FFF7C2FF00BF05B05DF804FB50
:10393C0084B00190019B5B09029300230393029BCB
:10394C00002B03D0029B012B04D007E04FF0FF3378
:10395C00039303E04FF6FF73039300BF019B03F047
:10396C001F030193039A019B22FA03F303F0010353
:10397C00002B14BF01230023DBB2184604B07047A0
:10398C0084B0019003230393019B03F00103002BEC
:10399C0002D04FF402430393019B03F00203002B6C
:1039AC0002D048F201230393019B03F00403002B84
:1039BC0002D048F202230393039B184604B07047CD
:1039CC0000B585B00190009101238DF80F30009B5C
:1039DC001B7B032B56D801A252F823F0613A00004E
:1039EC00793A0000393A0000F9390000009B9B68D5
:1039FC0003F48023002B07D00198FFF7F5FE024655
:103A0C00009B1B699A420DD1009B9B6803F4802399
:103A1C00002B39D10198FFF7E7FE0246009B5B694A
:103A2C009A4231D000238DF80F302DE00198FFF72A
:103A3C00DBFE0246009B1B699A4207D10198FFF7F7
:103A4C00E3FE0246009B5B699A421FD000238DF86F
:103A5C000F301BE00198FFF7C7FE0246009B1B6965
:103A6C009A4215D000238DF80F3011E00198FFF722
:103A7C00CBFE0246009B1B699A420BD000238DF8AB
:103A8C000F3007E000BF06E000BF04E000BF02E01B
:103A9C0000BF00E000BF9DF80F3083F00103DBB2E4
:103AAC00002B05D00198FFF73AFE0198FFF72EFE88
:103ABC009DF80F30184605B05DF804FB00B58BB0CF
:103ACC000590049103920293049B002B03D14A4965
:103ADC00E720FCF79BFD049B1A68049B5B689A42E9
:103AEC0003D14549E820FCF791FD059B1B791A464B
:103AFC00342302FB03F3414A13440893089B93F8C5
:103B0C002D30002B03D008230793079B70E0059BF7
:103B1C001A68059B1B791946394B53F82130194605
:103B2C001046FFF74FFC0346002B03D011230793DD
:103B3C00079B5DE0089B039A1A60089B029A5A60E7
:103B4C00089B00229A60089B002283F83020089B77
:103B5C00002283F82F20049B5A7B089B83F8322089
:103B6C00049B18680023019306230093032300226F
:103B7C000021FFF79BFE049B58680023019306234A
:103B8C000093032300220021FFF790FE059B1B6886
:103B9C000993049B1968049B5B681A460998FFF704
:103BAC00C7FD049B9B6819460998FFF7D0FD089B3D
:103BBC001B68002B15D0059B1B681846FFF7F0FC03
:103BCC0003461A46049B1B7B19461046FFF7F0FC74
:103BDC00059B1B681846FFF7E3FC03461846FFF7E6
:103BEC0013FD089B012283F82D2000230793079BCC
:103BFC0018460BB05DF804FB80920100DC620020DB
:103C0C00D892010000B585B00190019B1B791A4632
:103C1C00342302FB03F3204A13440393039B93F8CE
:103C2C002D30002B04D11D494FF49B70FCF7EEFC9A
:103C3C00039B1B68002B08D0019B1B681846FFF7E1
:103C4C00AFFC03461846FFF7EDFC019800F050F866
:103C5C00019B1B681846FFF7F7FB039B93F8323068
:103C6C0083F00103DBB2002B0DD0019B1B68D3F852
:103C7C0008351846FFF74BFE019B1B68D3F80C3533
:103C8C001846FFF744FE039B002283F82D2000BF4B
:103C9C0005B05DF804FB00BFDC62002080920100DF
:103CAC0000B585B00190019B1B791A46342302FBA9
:103CBC0003F30D4A13440393039B93F82D30012B0C
:103CCC0004D00A4940F24F10FCF7A0FC019B1B6882
:103CDC001846FFF71BFD039B022283F82D2000BF23
:103CEC0005B05DF804FB00BFDC620020809201008F
:103CFC0000B585B00190019B1B791A46342302FB59
:103D0C0003F3134A13440393039B93F82D30002BB6
:103D1C0004D110494FF4AD70FCF778FC019B1B6883
:103D2C000293039B00229A600B490298FFF7E4FC74
:103D3C004FF4BC510298FFF7C6FC0298FFF7EFFC5A
:103D4C00039B012283F82D2000BF05B05DF804FB16
:103D5C00DC6200208092010002029C0100B583B05D
:103D6C0001900091009B03F00103002B03D00198FC
:103D7C00FFF752FD02E00198FFF757FD009B03F09F
:103D8C000203002B03D00198FFF758FD02E00198C5
:103D9C00FFF75DFD00BF03B05DF804FB30B589B0E3
:103DAC0003900291019200930023079308238DF84E
:103DBC001B30039B002283F82E20019BDB681846E6
:103DCC00FFF7E0FB034683F00103DBB2002B03D0CB
:103DDC0010230793079BFDE19D490298FFF78CFC8C
:103DEC00039B93F82F30DBB2002B09D0039B9B680D
:103DFC0019460298FFF776FC11230793079BE9E11C
:103E0C00009B03F00403002B06D1009B03F010036E
:103E1C00002B01D1012300E0002303F00103DAB2EF
:103E2C00039B83F82F20039B019A03F10C04154686
:103E3C000FCD0FC42B682360009B1B0903F00103FB
:103E4C00002B14BF01230023DAB2039B83F830202C
:103E5C00039B009A1A62019B5B7819460298FFF744
:103E6C008EFC4FF482710298FFF706FC4FF49271AE
:103E7C000298FFF701FC4FF4B0710298FFF7FCFBBE
:103E8C004FF4A4710298FFF7F7FB00990298FFF723
:103E9C0065FF019B1B78032B00F2DE8001A252F818
:103EAC0023F000BFE33F00002B4000008B3F0000DD
:103EBC00C13E0000009B03F01003002B04D06549A9
:103ECC004FF4D970FCF7A2FB009B03F00803002B06
:103EDC0004D0604940F2B310FCF798FB009B03F050
:103EEC000403002B04D05B494FF4DA70FCF78EFB13
:103EFC00019B1B691846FFF745FB034683F0010342
:103F0C00DBB2002B03D010230793079B62E14FF425
:103F1C0080710298FFF75EFC019BD968019B5B687E
:103F2C001A460298FFF738FC4FF4A8710298FFF775
:103F3C00A3FB20210298FFF791FB08210298FFF7C1
:103F4C008DFB00BF4FF4A8710298FFF7AAFB034644
:103F5C0083F00103DBB2002BF4D14FF4A87102986B
:103F6C00FFF78AFB019B1969019B9B681A46029813
:103F7C00FFF712FC039B4FF480229A606FE0019BC9
:103F8C00D968019B5B681A460298FFF705FC019BF8
:103F9C001B691846FFF7F6FA034683F00103DBB200
:103FAC00002B03D010230793079B13E1019B196986
:103FBC00019B9B681A460298FFF7FDFB4FF4845156
:103FCC000298FFF707FC039B02229A6020210298BB
:103FDC00FFF744FB43E0019BD968019B5B681A46E1
:103FEC000298FFF7D9FB009B03F02003002B09D0AC
:103FFC004FF480710298FFF7EDFB039B4FF4802286
:10400C009A6007E04FF400710298FFF7E3FB039B03
:10401C0002229A6020210298FFF720FB1FE0019BEF
:10402C00D968019B5B681A460298FFF7C4FB4FF4F2
:10403C0080510298FFF7CEFB039B02229A6000236B
:10404C008DF81B3020210298FFF708FB07E000BF1A
:10405C0002029C01809201000723079300BF009B82
:10406C0003F00803002B09D1019B1B78032B05D00F
:10407C009DF81B3019460298FFF7F0FA039B1B685A
:10408C00002B1FD0009B03F00403002B02D0039BDA
:10409C0000229A60009B03F04003002B05D1039B88
:1040AC009B6843F00202039B9A60039B9B6843F45A
:1040BC000072039B9A60039B9B6819460298FFF75A
:1040CC0011FB86E000238DF81A304FF4A47102988E
:1040DC00FFF7E7FA0346002B02D001238DF81A30C4
:1040EC004FF482710298FFF7DCFA0346002B07D0DD
:1040FC004FF482710298FFF7BFFA01238DF81A3042
:10410C004FF492710298FFF7CCFA0346002B38D08B
:10411C004FF492710298FFF7AFFA4FF4B071029816
:10412C00FFF7BFFA03468DF819300298FFF764FBCE
:10413C0005909DF8193083F00103DBB2002B04D1FC
:10414C00059B03F40073002B0AD120210298FFF782
:10415C0085FA14210298FFF781FA00238DF81A30A2
:10416C009DF81930002B0CD0059B03F48073002BA9
:10417C0007D04FF4A4710298FFF77EFA00238DF854
:10418C001A309DF81A3083F00103DBB2002B9CD15E
:10419C000298FFF7E6FA0490039B002283F82F2085
:1041AC00049B002B04D00498FFF7EAFB079010E067
:1041BC00009B03F04003002B0BD103990298FFF7EF
:1041CC00FFFB034683F00103DBB2002B01D003237A
:1041DC000793079B184609B030BD00BF00B587B0E8
:1041EC00039002910192039B1B79002B09D1029B36
:1041FC005B68B3F5803F04D2029B9B68B3F5803FAC
:10420C0012D3039B1B79012B09D1029B5B68B3F57D
:10421C00803F04D2029B9B68B3F5803F04D31B49BB
:10422C0040F26A20FCF7F2F900230593039B1B79FB
:10423C001A46342302FB03F3154A13440493049BDC
:10424C001B68002B08D1029B1B78022B04D10F4951
:10425C0040F27220FCF7DAF9049B1B68002B08D1A2
:10426C00029B1B78032B04D1084940F27320FCF706
:10427C00CDF9039B1968019B029A0498FFF78EFDF8
:10428C000590059B184607B05DF804FB8092010071
:10429C00DC62002000B58BB00390019200930B46BA
:1042AC008DF80B3000238DF814309DF80B308DF801
:1042BC001530009B069300230793019B0893002362
:1042CC0009939DF83030002B01D0202200E0002211
:1042DC0005AB19460398FFF781FF034618460BB050
:1042EC005DF804FB00B58BB00390019200930B4674
:1042FC008DF80B3001238DF814309DF80B308DF8B0
:10430C001530009B069300230793019B0893002311
:10431C00099305AB002219460398FFF75FFF03468C
:10432C0018460BB05DF804FB30B58BB001900091D2
:10433C00009B1B68002B04D1A24940F2C120FCF762
:10434C0065F94FF492710198FFF7ABF90346002B16
:10435C003ED04FF492710198FFF78EF94FF48271B1
:10436C000198FFF79EF9034683F00103DBB2002BA3
:10437C002ED0009B9B6819460198FFF7BDF9009B56
:10438C0002229A60009B9B6819460198FFF7AAF9D4
:10439C004FF4B0710198FFF784F9034683F00103E1
:1043AC00DBB2002B07D10198FFF726FA034603F482
:1043BC000073002B07D120210198FFF74FF914212E
:1043CC000198FFF74BF9009B012283F82E20F6E0B1
:1043DC004FF482710198FFF764F90346002B5DD00E
:1043EC004FF482710198FFF747F9009B1B6A03F0A9
:1043FC004003002B1AD1009B93F82E3083F001035D
:10440C00DBB2002B12D000990198FFF7D9FA0346C2
:10441C00002B14BF01230023DBB283F00103DBB2BA
:10442C0003F00103DAB2009B83F82E20009B1B6A79
:10443C0003F00403002B79D1009B04AC03F10C05B1
:10444C000FCD0FC42B6823604FF4B0710198FFF7A8
:10445C0013F94FF4AE710198FFF70EF9009B93F826
:10446C00303083F00103DBB2002B04D1009B93F8B6
:10447C002E30002B5AD000210198FFF7ABF9009B8E
:10448C0000229A6050490198FFF736F90198FFF71E
:10449C0087F803461846FFF7D3F847E04FF4A471AA
:1044AC000198FFF7E9F8009B1B7B002B22D1009BA6
:1044BC0004AC03F10C050FCD0FC42B682360009BDB
:1044CC0093F8303083F00103DBB2002B2ED00021A7
:1044DC000198FFF77FF9009B00229A603A490198F6
:1044EC00FFF70AF90198FFF75BF803461846FFF748
:1044FC00A7F81BE04FF400710198FFF76BF9009BD4
:10450C0040F202229A6030490198FFF7F5F8009BBF
:10451C009B6819460198FFF7E5F808210198FFF709
:10452C009DF820210198FFF799F848E00198FFF7D2
:10453C0018F90990099B03F00203002B03D0012307
:10454C008DF80C301DE0099B03F00403002B03D005
:10455C0002238DF80C3014E0099B03F00103002BAF
:10456C0003D003238DF80C300BE0009B93F82E3016
:10457C00002B03D004238DF80C3002E000238DF8BF
:10458C000C30009B93F8303083F00103DBB2002B2E
:10459C0003D0009B002283F82F20009B1B6A03F0A2
:1045AC000403002B04D0009B93F82E30002B06D074
:1045BC00009B1B68009A516803AA104698470BB0E1
:1045CC0030BD00BF8092010002029C0108B5034976
:1045DC000348FFF7A9FE00BF08BD00BFDC62002046
:1045EC000030004008B503494FF04020FFF79CFE17
:1045FC0000BF08BD1063002086B0039002910192A9
:10460C0001238DF817309DF81730204A039B136057
:10461C001E4A029B53601D4A019B9360039B44F20C
:10462C000102934212D0039B44F20202934220D126
:10463C00019B164AD360154BDB681B68134A9361C8
:10464C00124BDB685B68114AD36112E0019B0F4A85
:10465C0013610E4B1B699B680C4A53610B4B1B6916
:10466C001B680A4A9361094B1B695B68074AD36153
:10467C0000BF72B600BF00BF9DF81730DBB2002B35
:10468C00FAD162B600BF00BF06B070474463002089
:10469C0000B583B002900091019244F20100714682
:1046AC006A4600F003F803B000BD00BF30B58BB014
:1046BC0007900691059272B600BF13F0A7FC13F099
:1046CC0063FA0346002BFAD1079B44F20202934291
:1046DC002FD0079B44F20202934269D8079B44F205
:1046EC000102934237D0079B44F2010293425FD8F8
:1046FC00079B012B05D0079B41F2010293420CD082
:10470C0056E0394A394BD31ADB081B0443F001033A
:10471C003749184613F0AEF957E0334A334BD31AE6
:10472C00DB081B0443F001033249184613F0A2F9CD
:10473C004BE0059B09932C4A2C4BD31ADB081B042A
:10474C0043F00100099B5B681A46099B1B682A49C8
:10475C0013F0AFF939E0059B0893234A234BD31A86
:10476C00DB081B0443F00104089B9D68089B9B68B5
:10477C0018460CF057FB03461846089B5B68194615
:10478C00089B1B68069A02920193009103462A46E5
:10479C001A49204613F0CFF9134A144BD31ADB08ED
:1047AC001B0443F001031649184613F063F90CE09F
:1047BC000D4A0E4BD31ADB081B0443F00103069A77
:1047CC001049184613F064F900BF0F4B1B6803F037
:1047DC000103002B00D000BE059A06990798FFF73D
:1047EC000BFF00BF0BB030BDAC8A01007C8A01000E
:1047FC00C8940100E89401000C9501002895010073
:10480C005095010064950100F0ED00E082B001903C
:10481C00019B03F00303002B0CBF01230023DBB22D
:10482C00184602B07047000082B003468DF807307E
:10483C009DF807309AB2064B1B889A4204D29DF819
:10484C0007300133DBB200E00023184602B070479A
:10485C007063002082B0084B1B788DF80730074B33
:10486C001B78DBB29DF807209A420CBF0123002372
:10487C00DBB2184602B070476C6300206D630020F9
:10488C0000B585B003460092ADF806300B46ADF886
:10489C000430BDF8043001339BB2DB00ADF80E30B0
:1048AC000098FFF7B3FF034683F00103DBB2002B44
:1048BC0001D0072317E00E4A009B1360BDF80E30A1
:1048CC00009A13440B4A13600B4B00221A700B4BCB
:1048DC0000221A700A4ABDF806301380094ABDF846
:1048EC00043013800023184605B05DF804FB00BFAC
:1048FC0064630020686300206D6300206C630020FB
:10490C006E6300207063002000231846704700007F
:10491C0000B585B02FE0204B1B78DBB2ADF80E3024
:10492C001E4B1B68BDF80E201D49098801FB02F2C5
:10493C00134402931B4B1A68BDF80E30DB00134472
:10494C009B88ADF80630174B1A68BDF80E30DB00AB
:10495C0013441B680093BDF80620009B1146029877
:10496C0098470D4B1B78DBB21846FFF75DFF0346EB
:10497C001A46094B1A70FFF7C7FF034683F0010371
:10498C00DBB2002B04D0FFF765FF0346002BC2D02F
:10499C0000BF05B05DF804FB6C6300206863002069
:1049AC006E6300206463002082B003468DF80730EC
:1049BC009DF90730002B0CDB9DF8073003F01F022C
:1049CC0005499DF907305B09012000FA02F241F814
:1049DC00232000BF02B0704700E100E082B0034624
:1049EC008DF807309DF90730002B13DB9DF807304D
:1049FC0003F01F0209499DF907305B09012000FAF9
:104A0C0002F2203341F82320BFF34F8F00BFBFF3D6
:104A1C006F8F00BF00BF02B0704700BF00E100E025
:104A2C0082B003468DF807309DF90730002B0DDB63
:104A3C009DF8073003F01F0206499DF907305B090A
:104A4C00012000FA02F2403341F8232000BF02B0EB
:104A5C00704700BF00E100E082B003468DF80730DC
:104A6C009DF90730002B0DDB9DF8073003F01F027A
:104A7C0006499DF907305B09012000FA02F2603308
:104A8C0041F8232000BF02B0704700BF00E100E0F6
:104A9C0082B0034600918DF807309DF90730002B4A
:104AAC000ADB009BDAB20C499DF907305201D2B2F5
:104ABC000B4483F800230BE0009BDAB207499DF806
:104ACC00073003F00F03043B5201D2B20B441A76A9
:104ADC0000BF02B0704700BF00E100E000ED00E055
:104AEC0000B585B00190019B002B0AD0074B43F019
:104AFC0001030393019B9B010293039B029898472C
:104B0C0000E000BF05B05DF804FB00BF809501001C
:104B1C0000B583B00190064A019BC2F80835062106
:104B2C001120FFF7B5FF00BF03B05DF804FB00BF19
:104B3C000010014008B50D4B4FF48032C3F84423EC
:104B4C000A4B4FF48032C3F804231120FFF784FF83
:104B5C001120FFF729FF054B01221A602F20FFF7C8
:104B6C00BFFF034B01221A7000BF08BD00100140AB
:104B7C009264002008B51120FFF730FF0E4B4FF464
:104B8C008032C3F848230C4B4FF48032C3F808230F
:104B9C00094B01225A602F20FFF7A2FF064B01227E
:104BAC009A60064B00221A602F20FFF799FF044BE6
:104BBC0000221A7000BF08BD001001408464002060
:104BCC0092640020024BD3F804351846704700BF9E
:104BDC000010014082B001900091019A009BD31A01
:104BEC0023F07F43184602B07047000082B001905A
:104BFC00034A019BC2F8403500BF02B0704700BFAA
:104C0C000010014086B00190284B1B68002B03D18B
:104C1C00264A019B136045E0019B1A68234B1B68D5
:104C2C001B689A4210D8214B1B681968019B1A68A3
:104C3C001E4B1B688A1A1A601C4B1A68019BDA619E
:104C4C001A4A019B13602DE0019B1B680393174BC1
:104C5C001B680593154B1B68049309E0049B1B68A8
:104C6C00039AD31A0393049B0593049BDB69049367
:104C7C00049B002B04D0049B1B68039A9A42EDD82A
:104C8C00049B002B05D0049B1A68039BD21A049B2F
:104C9C001A60019B039A1A60019B049ADA61059BC6
:104CAC00019ADA6100BF06B0704700BF8064002033
:104CBC0000B587B001902A4B1B680393284B1B68E7
:104CCC000593059B049308E0049A019B9A4208D033
:104CDC00049B0593049BDB690493049B002BF3D189
:104CEC0000E000BF049B002B01D1002333E0059AA8
:104CFC00049B9A4214D11A4B1B68DB69184A136047
:104D0C00174B1B68002B0BD1164B01229A60164BCC
:104D1C0000221A60154B01221A702F20FFF7E0FEBB
:104D2C00049B1B680293049BDA69059BDA61059B63
:104D3C00DB690493049B002B05D0049B1A68029B2F
:104D4C001A44049B1A60064B1B68039A9A4214BFC0
:104D5C0001230023DBB2184607B05DF804FB00BF4B
:104D6C0080640020001001408464002093640020C3
:104D7C0008B51120FFF754FE00BF08BD08B514207C
:104D8C00FFF74EFE00BF08BD00B583B00190019B3C
:104D9C005B69019A92691046984700BF03B05DF8B1
:104DAC0004FB000000B585B02B4B1B68002B4ED0CC
:104DBC0000230193FFF706FF0246284B1B68194698
:104DCC001046FFF707FF0290234B1B6803931DE06F
:104DDC00039B1B68029A9A421CD3039B1B68029A82
:104DEC00D31A0293039B1B68019A13440193039BF0
:104DFC000093039BDB690393009B1B7C002B05D06A
:104E0C00009B00221A740098FFF7BEFF039B002B37
:104E1C00DED100E000BF124B1A78124B1B789A427D
:104E2C000CD1104B1B780133DAB20E4B1A700D4BB0
:104E3C001B78022B02D10B4B00221A70094B1B78EA
:104E4C001946094A019B42F82130FFF797FF00BF32
:104E5C0005B05DF804FB00BF806400208464002072
:104E6C0090640020916400208864002082B001903E
:104E7C00184B1A78184B1B789A4223D0154B1B7879
:104E8C000133DAB2134B1A70124B1B78022B02D17E
:104E9C00104B00221A700F4B1B781A460F4B53F80D
:104EAC002220019B1A60019B1A680D4B1B6813444E
:104EBC000B4A13600A4B1B6823F07F43084A1360AC
:104ECC00012303E0019B00221A600023184602B064
:104EDC00704700BF9064002091640020886400201B
:104EEC008464002088B00390029101920023079300
:104EFC0038E0204B1B680693069B1B68039A9A426A
:104F0C0006D2069B1A68039BD21A069B1A602EE0E7
:104F1C00069B1B68039AD31A0393069B1B68079A7C
:104F2C0013440793069B00221A60124B1B680593CF
:104F3C00069BDB690F4A1360069BDB68002B11D0C4
:104F4C00029A079B134423F07F42069B5A60069BF0
:104F5C00DA68069B9A60019B1A68069BDA61019BD2
:104F6C00059A1A60034B1B68002BC2D100BF00BF0F
:104F7C0008B070478064002000B589B00190002310
:104F8C008DF81F30664B1B680593AAE0019B002B24
:104F9C0005D0019B0693069BDB69019361E0614B95
:104FAC001B781A4613465B001344DB005D4A13441E
:104FBC00043304935B4B1B780133DAB2594B1A70F0
:104FCC00584B1A78574B9B789A4202D1554B00227A
:104FDC001A70049B5B680693049B1B78032B1ED0F2
:104FEC00032B7EDC012B1FD0022B7AD1049B5B6838
:104FFC001846FFF75DFE0346002B02D001238DF807
:10500C001F30069B00221A746BE0454B1B68039300
:10501C00039B00221A74039BDB69414A1360404BCB
:10502C001B68002BF1D15CE000BF069B1B7C002BA6
:10503C0000D056E0049B9A68069B5A60049BDA6881
:10504C00069B9A60049B1A69069BDA60049B5A695A
:10505C00069B9A61344B1B78002B02D0069B0022D6
:10506C005A60069B5A68314B1B68D31A23F07F4356
:10507C002F4A93420ED8069B5B682C4A1268114645
:10508C001846FFF7A7FD0246069B9B681A44069B31
:10509C001A6017E0254B1A68069B5B681946104688
:1050AC00FFF798FD0290069B9B68029A9A4206D2E3
:1050BC00069B9A68029BD21A069B1A6002E0069B1A
:1050CC0000221A60069B00225A60069B00229A60FE
:1050DC00069B01221A74069B0022DA610698FFF7E0
:1050EC0091FD019B002B7FF451AF0E4B1A780D4BA9
:1050FC005B789A427FF44AAF9DF81F30002B04D1A5
:10510C00074B1B68059A9A4201D0012300E000234B
:10511C0003F00103DBB2184609B05DF804FB00BFD5
:10512C008064002074630020936400208464002059
:10513C00FEFF7F0010B588B00190274B1B68002B39
:10514C0044D0254B1B681B680793FFF73BFD06906B
:10515C00224B1B68059305990698FFF73BFD034608
:10516C00033304931E4B1B7883F00103DBB2002B3B
:10517C0001D0FFF7DFFC049A079B934238BF13461C
:10518C00059A13440593059B23F07F4305930598DB
:10519C00FFF72CFDFFF716FD039006990398FFF718
:1051AC0019FD0346DC1C06990598FFF713FD034611
:1051BC009C420DD9FFF706FD03461846FFF716FD76
:1051CC002F20FFF78DFCFFF7D3FD01E0FFF7D2FC9A
:1051DC0000BF08B010BD00BF8064002084640020B4
:1051EC009264002000B587B00023019300238DF852
:1051FC001730194B1B680493184B1B6803936B46B1
:10520C001846FFF733FE03468DF80B309DF80B3034
:10521C00002B08D0009B01AA04991846FFF762FEE8
:10522C0001238DF81730019B1846FFF7A5FE0346A6
:10523C00002B02D001238DF817309DF81730002B6E
:10524C0002D00398FFF776FF054B00221A7000BFBF
:10525C0007B05DF804FB00BF84640020806400206C
:10526C009364002082B003468DF80730034A9DF802
:10527C000730537000BF02B0704700BF746300204A
:10528C0084B00190144B5B7801338DF80F30124BC6
:10529C009B789DF80F209A4202D100238DF80F3095
:1052AC000D4B1B789DF80F209A4201D100230FE083
:1052BC00019B9DF80F201A70074B5B781A4613461A
:1052CC005B001344DB00044A134404330293029B37
:1052DC00184604B0704700BF7463002000B589B055
:1052EC0003900291019200930023079300238DF801
:1052FC0016300DF11603184600F0C2F90DF1170324
:10530C001846FFF7BDFF0690069B002B02D1042325
:10531C00079318E0069B01221A70069B039A5A60A9
:10532C00FFF750FC0246069B9A60069B029ADA60D5
:10533C00069B019A1A61069B009A5A619DF81730D8
:10534C001846FFF78FFF9DF81630184600F0AEF99F
:10535C00079B002B01D1FFF711FD079B184609B0E5
:10536C005DF804FB00B587B001900B468DF8033057
:10537C000023059300238DF80E300DF10E03184613
:10538C0000F07EF90DF10F031846FFF779FF04903A
:10539C00049B002B02D1042305930BE0049B9DF886
:1053AC0003201A70049B019A5A609DF80F3018461E
:1053BC00FFF758FF9DF80E30184600F077F9059B63
:1053CC00002B01D1FFF7DAFC059B184607B05DF8FE
:1053DC0004FB000008B50E4B0022C3F840210C4B17
:1053EC000022C3F844210A4B0022C3F84821084B81
:1053FC000022C3F84C21064B0022C3F80021044BB9
:10540C000022C3F80421FFF7CDFC00BF08BD00BF8C
:10541C000010014008B5FFF7E5FE00BF08BD000015
:10542C0008B5FFF7A7FB134B00221A70114B002293
:10543C005A70104B0B229A700F4B00221A600F4BB4
:10544C0000221A700E4B00221A701420FFF704FB76
:10545C0006211420FFF71CFB1420FFF7A5FA0020EF
:10546C00FFF756FBFFF7AEFB0346064A136000231B
:10547C00184608BD746300208064002090640020EE
:10548C00916400208464002086B003900B46019246
:10549C008DF80B30134B9B78002B01D108231EE0A9
:1054AC00019B002B01D1072319E0039B002B01D199
:1054BC00072314E0039B1B681B7C002B01D00823E3
:1054CC000DE0039B1B680593059B00221A74059B3A
:1054DC009DF80B205A74059B019A5A6100231846BB
:1054EC0006B070477463002000B587B0039002913A
:1054FC000192039B0593164B9B78002B01D108233B
:10550C0022E0039B002B01D108231DE0029B042BFE
:10551C0003D9029BB3F1807F01D3072314E0059BD1
:10552C005B69002B01D108230EE0059B5B7C012BF2
:10553C0001D1029B00E000230493019B049A029981
:10554C000598FFF7CBFE0346184607B05DF804FB41
:10555C007463002000B585B00190019B03930D4B43
:10556C009B78002B01D1082310E0019B002B03D06A
:10557C00039B5B69002B01D1082307E0039B0022EE
:10558C001A7402210398FFF7EDFE0346184605B086
:10559C005DF804FB7463002082B0EFF3108300937A
:1055AC00009B019372B600BF019B184602B0704776
:1055BC0062B600BF00BF704700B585B00190FFF721
:1055CC00EBFF0390164B9B68002B1BD1144B012255
:1055DC009A60144BD3F88020134B1340104A13607D
:1055EC00104B114AC3F880200E4BD3F884300C4A70
:1055FC0053600C4B4FF0FF32C3F88420019B002208
:10560C001A7002E0019B01221A70039B002B01D13E
:10561C00FFF7CEFF0023184605B05DF804FB00BF72
:10562C009464002000E100E0FC06FFBD00B585B0ED
:10563C0003468DF80730104B9B68002B16D09DF855
:10564C000730002B12D1FFF7A7FF03900B4A0A4B30
:10565C001B681360094A084B5B685360064B0022B9
:10566C009A60039B002B01D1FFF7A2FF0023184681
:10567C0005B05DF804FB00BF9464002000E100E07D
:10568C0000B583B0019000F02BF80346012B03D03A
:10569C0005494320FAF7BAFF0198FFF78DFF00BFC9
:1056AC0003B05DF804FB00BF8895010000B583B022
:1056BC0003468DF8073000F013F80346012B03D096
:1056CC0006495120FAF7A2FF9DF807301846FFF75C
:1056DC00ADFF00BF03B05DF804FB00BF889501006F
:1056EC0084B0EFF305830193019BC3F30803039389
:1056FC00039B002B0DD1EFF314830093009B0293BB
:10570C00029B03F00103002B0CBF01230023DBB22F
:10571C0000E00123184604B070476DDF704700BFEE
:10572C00184679DF704700BF18467DDF704700BF11
:10573C00184664DF704700BF184682B003460091DC
:10574C00ADF80630BDF80630DAB2009B1A70BDF821
:10575C0006301B0A9AB2009B0133D2B21A70022394
:10576C00184602B0704700B589B0039002911346F9
:10577C00ADF80630029B1B8803F10902BDF8063018
:10578C009A4201D90C2353E004AB1846FFF7C5FF2E
:10579C000790079B0693069B002B01D0069B47E0C6
:1057AC00029B1B881A46039B134408221A70029B07
:1057BC001B8801339AB2029B1A80029B1B881A46E3
:1057CC00039B13441B221A70029B1B8801339AB251
:1057DC00029B1A80029B1B881A46039B981804ABE9
:1057EC0001330622194613F063F8029B1B8806331B
:1057FC009AB2029B1A809DF8103023F00103DBB2A1
:10580C00002B07D1029B1B881A46039B13440022D2
:10581C001A7006E0029B1B881A46039B1344012254
:10582C001A70029B1B8801339AB2029B1A800023C8
:10583C00184609B05DF804FB00B589B003900291DD
:10584C000192ADF80230039B1B78012B05D1039B11
:10585C005B78002B01D1072392E0019B1B889A1CDB
:10586C00BDF802309A420ED8039B1B78012B0CD149
:10587C00019B1B881A46039B5B7813449A1CBDF84A
:10588C0002309A4201D90C237AE0019B1B88BDF8A7
:10589C000220D31A9BB2023BADF81C30BDF81C3071
:1058AC00ADF81230019B1B880233029A13440DF1A0
:1058BC00120211461846FFF738FF0690069B059317
:1058CC00059B002B01D0059B5AE0039B1B78022BF8
:1058DC0006D0039B5B789AB2BDF812309A4209D37A
:1058EC00BDF81230BDF81C209A4203D309238DF861
:1058FC001F3017E008238DF81F30039B1B78012BFA
:10590C000CD1039B5B789BB2BDF81C209A4205D34B
:10591C00039B5B789BB2ADF8123003E0BDF81C30F2
:10592C00ADF81230BDF81230FE2B01D90C2327E054
:10593C00BDF81230DAB2019B1B881946029B0B444E
:10594C000132D2B21A70019B1B8801339AB2019BAF
:10595C001A80019B1B881A46029B13449DF81F203A
:10596C001A70019B1B8801339AB2019B1A80019B10
:10597C001A88BDF8123013449AB2019B1A80002386
:10598C00184609B05DF804FB00B589B0039002918C
:10599C001346ADF80630029B1B881A1DBDF8063065
:1059AC009A4201D90C233BE00DF116031846FFF780
:1059BC00B8FE0790079B0693069B002B01D0069B15
:1059CC002EE0029B1B881A46039B134403221A7079
:1059DC00029B1B8801339AB2029B1A80029B1B8884
:1059EC001A46039B134419221A70029B1B8801331D
:1059FC009AB2029B1A80BDF81620029B1B8819468E
:105A0C00039B0B4419461046FFF797FE03461946B5
:105A1C00029B1A888BB213449AB2029B1A80002301
:105A2C00184609B05DF804FB84B0029101921A4645
:105A3C0003468DF80F301346ADF80C30019B1B88D4
:105A4C00DA1CBDF80C309A4201D90C2328E0019BDA
:105A5C001B881A46029B134402221A70019B1B8856
:105A6C0001339AB2019B1A80019B1B881A46029B38
:105A7C00134401221A70019B1B8801339AB2019BBB
:105A8C001A80019B1B881A46029B13449DF80F2019
:105A9C001A70019B1B8801339AB2019B1A80002358
:105AAC00184604B0704784B0029101921A4603461E
:105ABC008DF80F301346ADF80C30019B1B88DA1CA7
:105ACC00BDF80C309A4201D90C2328E0019B1B88AD
